{
  "_format": "hh-sol-artifact-1",
  "contractName": "ERC1155Token",
  "sourceName": "contracts/token/ERC1155/ERC1155Token.sol",
  "abi": [
    {
      "inputs": [
        {
          "internalType": "string",
          "name": "uri",
          "type": "string"
        },
        {
          "internalType": "string",
          "name": "name",
          "type": "string"
        }
      ],
      "stateMutability": "nonpayable",
      "type": "constructor"
    },
    {
      "anonymous": false,
      "inputs": [
        {
          "indexed": true,
          "internalType": "address",
          "name": "account",
          "type": "address"
        },
        {
          "indexed": true,
          "internalType": "address",
          "name": "operator",
          "type": "address"
        },
        {
          "indexed": false,
          "internalType": "bool",
          "name": "approved",
          "type": "bool"
        }
      ],
      "name": "ApprovalForAll",
      "type": "event"
    },
    {
      "anonymous": false,
      "inputs": [
        {
          "indexed": true,
          "internalType": "address",
          "name": "account",
          "type": "address"
        }
      ],
      "name": "MinterAdded",
      "type": "event"
    },
    {
      "anonymous": false,
      "inputs": [
        {
          "indexed": true,
          "internalType": "address",
          "name": "account",
          "type": "address"
        }
      ],
      "name": "MinterRemoved",
      "type": "event"
    },
    {
      "anonymous": false,
      "inputs": [
        {
          "indexed": true,
          "internalType": "address",
          "name": "previousOwner",
          "type": "address"
        },
        {
          "indexed": true,
          "internalType": "address",
          "name": "newOwner",
          "type": "address"
        }
      ],
      "name": "OwnershipTransferred",
      "type": "event"
    },
    {
      "anonymous": false,
      "inputs": [
        {
          "indexed": false,
          "internalType": "address",
          "name": "account",
          "type": "address"
        }
      ],
      "name": "Paused",
      "type": "event"
    },
    {
      "anonymous": false,
      "inputs": [
        {
          "indexed": true,
          "internalType": "address",
          "name": "operator",
          "type": "address"
        },
        {
          "indexed": true,
          "internalType": "address",
          "name": "from",
          "type": "address"
        },
        {
          "indexed": true,
          "internalType": "address",
          "name": "to",
          "type": "address"
        },
        {
          "indexed": false,
          "internalType": "uint256[]",
          "name": "ids",
          "type": "uint256[]"
        },
        {
          "indexed": false,
          "internalType": "uint256[]",
          "name": "values",
          "type": "uint256[]"
        }
      ],
      "name": "TransferBatch",
      "type": "event"
    },
    {
      "anonymous": false,
      "inputs": [
        {
          "indexed": true,
          "internalType": "address",
          "name": "operator",
          "type": "address"
        },
        {
          "indexed": true,
          "internalType": "address",
          "name": "from",
          "type": "address"
        },
        {
          "indexed": true,
          "internalType": "address",
          "name": "to",
          "type": "address"
        },
        {
          "indexed": false,
          "internalType": "uint256",
          "name": "id",
          "type": "uint256"
        },
        {
          "indexed": false,
          "internalType": "uint256",
          "name": "value",
          "type": "uint256"
        }
      ],
      "name": "TransferSingle",
      "type": "event"
    },
    {
      "anonymous": false,
      "inputs": [
        {
          "indexed": false,
          "internalType": "string",
          "name": "value",
          "type": "string"
        },
        {
          "indexed": true,
          "internalType": "uint256",
          "name": "id",
          "type": "uint256"
        }
      ],
      "name": "URI",
      "type": "event"
    },
    {
      "anonymous": false,
      "inputs": [
        {
          "indexed": false,
          "internalType": "address",
          "name": "account",
          "type": "address"
        }
      ],
      "name": "Unpaused",
      "type": "event"
    },
    {
      "inputs": [
        {
          "internalType": "address",
          "name": "account",
          "type": "address"
        }
      ],
      "name": "addMinter",
      "outputs": [],
      "stateMutability": "nonpayable",
      "type": "function"
    },
    {
      "inputs": [
        {
          "internalType": "address",
          "name": "account",
          "type": "address"
        },
        {
          "internalType": "uint256",
          "name": "id",
          "type": "uint256"
        }
      ],
      "name": "balanceOf",
      "outputs": [
        {
          "internalType": "uint256",
          "name": "",
          "type": "uint256"
        }
      ],
      "stateMutability": "view",
      "type": "function"
    },
    {
      "inputs": [
        {
          "internalType": "address[]",
          "name": "accounts",
          "type": "address[]"
        },
        {
          "internalType": "uint256[]",
          "name": "ids",
          "type": "uint256[]"
        }
      ],
      "name": "balanceOfBatch",
      "outputs": [
        {
          "internalType": "uint256[]",
          "name": "",
          "type": "uint256[]"
        }
      ],
      "stateMutability": "view",
      "type": "function"
    },
    {
      "inputs": [
        {
          "internalType": "address",
          "name": "account",
          "type": "address"
        },
        {
          "internalType": "uint256",
          "name": "id",
          "type": "uint256"
        },
        {
          "internalType": "uint256",
          "name": "value",
          "type": "uint256"
        }
      ],
      "name": "burn",
      "outputs": [],
      "stateMutability": "nonpayable",
      "type": "function"
    },
    {
      "inputs": [
        {
          "internalType": "address",
          "name": "account",
          "type": "address"
        },
        {
          "internalType": "uint256[]",
          "name": "ids",
          "type": "uint256[]"
        },
        {
          "internalType": "uint256[]",
          "name": "values",
          "type": "uint256[]"
        }
      ],
      "name": "burnBatch",
      "outputs": [],
      "stateMutability": "nonpayable",
      "type": "function"
    },
    {
      "inputs": [
        {
          "internalType": "uint256",
          "name": "_id",
          "type": "uint256"
        },
        {
          "internalType": "uint256",
          "name": "_initialSupply",
          "type": "uint256"
        },
        {
          "internalType": "string",
          "name": "_uri",
          "type": "string"
        }
      ],
      "name": "create",
      "outputs": [
        {
          "internalType": "bool",
          "name": "",
          "type": "bool"
        }
      ],
      "stateMutability": "nonpayable",
      "type": "function"
    },
    {
      "inputs": [
        {
          "internalType": "uint256",
          "name": "",
          "type": "uint256"
        }
      ],
      "name": "creators",
      "outputs": [
        {
          "internalType": "address",
          "name": "",
          "type": "address"
        }
      ],
      "stateMutability": "view",
      "type": "function"
    },
    {
      "inputs": [
        {
          "internalType": "uint256",
          "name": "id",
          "type": "uint256"
        }
      ],
      "name": "exists",
      "outputs": [
        {
          "internalType": "bool",
          "name": "",
          "type": "bool"
        }
      ],
      "stateMutability": "view",
      "type": "function"
    },
    {
      "inputs": [
        {
          "internalType": "address",
          "name": "account",
          "type": "address"
        },
        {
          "internalType": "address",
          "name": "operator",
          "type": "address"
        }
      ],
      "name": "isApprovedForAll",
      "outputs": [
        {
          "internalType": "bool",
          "name": "",
          "type": "bool"
        }
      ],
      "stateMutability": "view",
      "type": "function"
    },
    {
      "inputs": [
        {
          "internalType": "address",
          "name": "account",
          "type": "address"
        }
      ],
      "name": "isMinter",
      "outputs": [
        {
          "internalType": "bool",
          "name": "",
          "type": "bool"
        }
      ],
      "stateMutability": "view",
      "type": "function"
    },
    {
      "inputs": [
        {
          "internalType": "address",
          "name": "account",
          "type": "address"
        },
        {
          "internalType": "uint256",
          "name": "id",
          "type": "uint256"
        },
        {
          "internalType": "uint256",
          "name": "amount",
          "type": "uint256"
        },
        {
          "internalType": "bytes",
          "name": "data",
          "type": "bytes"
        }
      ],
      "name": "mint",
      "outputs": [],
      "stateMutability": "nonpayable",
      "type": "function"
    },
    {
      "inputs": [
        {
          "internalType": "address",
          "name": "to",
          "type": "address"
        },
        {
          "internalType": "uint256[]",
          "name": "ids",
          "type": "uint256[]"
        },
        {
          "internalType": "uint256[]",
          "name": "amounts",
          "type": "uint256[]"
        },
        {
          "internalType": "bytes",
          "name": "data",
          "type": "bytes"
        }
      ],
      "name": "mintBatch",
      "outputs": [],
      "stateMutability": "nonpayable",
      "type": "function"
    },
    {
      "inputs": [],
      "name": "name",
      "outputs": [
        {
          "internalType": "string",
          "name": "",
          "type": "string"
        }
      ],
      "stateMutability": "view",
      "type": "function"
    },
    {
      "inputs": [],
      "name": "owner",
      "outputs": [
        {
          "internalType": "address",
          "name": "",
          "type": "address"
        }
      ],
      "stateMutability": "view",
      "type": "function"
    },
    {
      "inputs": [],
      "name": "pause",
      "outputs": [],
      "stateMutability": "nonpayable",
      "type": "function"
    },
    {
      "inputs": [],
      "name": "paused",
      "outputs": [
        {
          "internalType": "bool",
          "name": "",
          "type": "bool"
        }
      ],
      "stateMutability": "view",
      "type": "function"
    },
    {
      "inputs": [],
      "name": "renounceMinter",
      "outputs": [],
      "stateMutability": "nonpayable",
      "type": "function"
    },
    {
      "inputs": [],
      "name": "renounceOwnership",
      "outputs": [],
      "stateMutability": "nonpayable",
      "type": "function"
    },
    {
      "inputs": [
        {
          "internalType": "address",
          "name": "from",
          "type": "address"
        },
        {
          "internalType": "address",
          "name": "to",
          "type": "address"
        },
        {
          "internalType": "uint256[]",
          "name": "ids",
          "type": "uint256[]"
        },
        {
          "internalType": "uint256[]",
          "name": "amounts",
          "type": "uint256[]"
        },
        {
          "internalType": "bytes",
          "name": "data",
          "type": "bytes"
        }
      ],
      "name": "safeBatchTransferFrom",
      "outputs": [],
      "stateMutability": "nonpayable",
      "type": "function"
    },
    {
      "inputs": [
        {
          "internalType": "address",
          "name": "from",
          "type": "address"
        },
        {
          "internalType": "address",
          "name": "to",
          "type": "address"
        },
        {
          "internalType": "uint256",
          "name": "id",
          "type": "uint256"
        },
        {
          "internalType": "uint256",
          "name": "amount",
          "type": "uint256"
        },
        {
          "internalType": "bytes",
          "name": "data",
          "type": "bytes"
        }
      ],
      "name": "safeTransferFrom",
      "outputs": [],
      "stateMutability": "nonpayable",
      "type": "function"
    },
    {
      "inputs": [
        {
          "internalType": "address",
          "name": "operator",
          "type": "address"
        },
        {
          "internalType": "bool",
          "name": "approved",
          "type": "bool"
        }
      ],
      "name": "setApprovalForAll",
      "outputs": [],
      "stateMutability": "nonpayable",
      "type": "function"
    },
    {
      "inputs": [
        {
          "internalType": "string",
          "name": "newname",
          "type": "string"
        }
      ],
      "name": "setName",
      "outputs": [],
      "stateMutability": "nonpayable",
      "type": "function"
    },
    {
      "inputs": [
        {
          "internalType": "string",
          "name": "newuri",
          "type": "string"
        }
      ],
      "name": "setURI",
      "outputs": [],
      "stateMutability": "nonpayable",
      "type": "function"
    },
    {
      "inputs": [
        {
          "internalType": "bytes4",
          "name": "interfaceId",
          "type": "bytes4"
        }
      ],
      "name": "supportsInterface",
      "outputs": [
        {
          "internalType": "bool",
          "name": "",
          "type": "bool"
        }
      ],
      "stateMutability": "view",
      "type": "function"
    },
    {
      "inputs": [
        {
          "internalType": "uint256",
          "name": "id",
          "type": "uint256"
        }
      ],
      "name": "totalSupply",
      "outputs": [
        {
          "internalType": "uint256",
          "name": "",
          "type": "uint256"
        }
      ],
      "stateMutability": "view",
      "type": "function"
    },
    {
      "inputs": [
        {
          "internalType": "address",
          "name": "newOwner",
          "type": "address"
        }
      ],
      "name": "transferOwnership",
      "outputs": [],
      "stateMutability": "nonpayable",
      "type": "function"
    },
    {
      "inputs": [],
      "name": "unpause",
      "outputs": [],
      "stateMutability": "nonpayable",
      "type": "function"
    },
    {
      "inputs": [
        {
          "internalType": "uint256",
          "name": "tokenId",
          "type": "uint256"
        }
      ],
      "name": "uri",
      "outputs": [
        {
          "internalType": "string",
          "name": "",
          "type": "string"
        }
      ],
      "stateMutability": "view",
      "type": "function"
    }
  ],
  "bytecode": "0x60806040523480156200001157600080fd5b50604051620055f3380380620055f38339818101604052810190620000379190620005e0565b8181620000596200004d620000b060201b60201c565b620000b860201b60201c565b60008060146101000a81548160ff02191690831515021790555062000084826200017c60201b60201c565b62000095816200019860201b60201c565b5050620000a833620001b460201b60201c565b5050620007e5565b600033905090565b60008060009054906101000a900473ffffffffffffffffffffffffffffffffffffffff169050816000806101000a81548173ffffffffffffffffffffffffffffffffffffffff021916908373ffffffffffffffffffffffffffffffffffffffff1602179055508173ffffffffffffffffffffffffffffffffffffffff168173ffffffffffffffffffffffffffffffffffffffff167f8be0079c531659141344cd1fd0a4f28419497f9722a3daafe3b4186f6b6457e060405160405180910390a35050565b80600390805190602001906200019492919062000393565b5050565b8060049080519060200190620001b092919062000393565b5050565b620001cf8160066200021560201b6200137d1790919060201c565b8073ffffffffffffffffffffffffffffffffffffffff167f6ae172837ea30b801fbfcdd4108aa1d5bf8ff775444fd70256b44e6bf3dfc3f660405160405180910390a250565b620002278282620002c860201b60201c565b156200026a576040517f08c379a00000000000000000000000000000000000000000000000000000000081526004016200026190620006c6565b60405180910390fd5b60018260000160008373ffffffffffffffffffffffffffffffffffffffff1673ffffffffffffffffffffffffffffffffffffffff16815260200190815260200160002060006101000a81548160ff0219169083151502179055505050565b60008073ffffffffffffffffffffffffffffffffffffffff168273ffffffffffffffffffffffffffffffffffffffff1614156200033c576040517f08c379a000000000000000000000000000000000000000000000000000000000815260040162000333906200075e565b60405180910390fd5b8260000160008373ffffffffffffffffffffffffffffffffffffffff1673ffffffffffffffffffffffffffffffffffffffff16815260200190815260200160002060009054906101000a900460ff16905092915050565b828054620003a190620007af565b90600052602060002090601f016020900481019282620003c5576000855562000411565b82601f10620003e057805160ff191683800117855562000411565b8280016001018555821562000411579182015b8281111562000410578251825591602001919060010190620003f3565b5b50905062000420919062000424565b5090565b5b808211156200043f57600081600090555060010162000425565b5090565b6000604051905090565b600080fd5b600080fd5b600080fd5b600080fd5b6000601f19601f8301169050919050565b7f4e487b7100000000000000000000000000000000000000000000000000000000600052604160045260246000fd5b620004ac8262000461565b810181811067ffffffffffffffff82111715620004ce57620004cd62000472565b5b80604052505050565b6000620004e362000443565b9050620004f18282620004a1565b919050565b600067ffffffffffffffff82111562000514576200051362000472565b5b6200051f8262000461565b9050602081019050919050565b60005b838110156200054c5780820151818401526020810190506200052f565b838111156200055c576000848401525b50505050565b6000620005796200057384620004f6565b620004d7565b9050828152602081018484840111156200059857620005976200045c565b5b620005a58482856200052c565b509392505050565b600082601f830112620005c557620005c462000457565b5b8151620005d784826020860162000562565b91505092915050565b60008060408385031215620005fa57620005f96200044d565b5b600083015167ffffffffffffffff8111156200061b576200061a62000452565b5b6200062985828601620005ad565b925050602083015167ffffffffffffffff8111156200064d576200064c62000452565b5b6200065b85828601620005ad565b9150509250929050565b600082825260208201905092915050565b7f526f6c65733a206163636f756e7420616c72656164792068617320726f6c6500600082015250565b6000620006ae601f8362000665565b9150620006bb8262000676565b602082019050919050565b60006020820190508181036000830152620006e1816200069f565b9050919050565b7f526f6c65733a206163636f756e7420697320746865207a65726f20616464726560008201527f7373000000000000000000000000000000000000000000000000000000000000602082015250565b60006200074660228362000665565b91506200075382620006e8565b604082019050919050565b60006020820190508181036000830152620007798162000737565b9050919050565b7f4e487b7100000000000000000000000000000000000000000000000000000000600052602260045260246000fd5b60006002820490506001821680620007c857607f821691505b60208210811415620007df57620007de62000780565b5b50919050565b614dfe80620007f56000396000f3fe608060405234801561001057600080fd5b50600436106101c35760003560e01c8063731133e9116100f9578063bd85b03911610097578063e985e9c511610071578063e985e9c5146104da578063f242432a1461050a578063f2fde38b14610526578063f5298aca14610542576101c3565b8063bd85b0391461045e578063c47f00271461048e578063cd53d08e146104aa576101c3565b8063983b2d56116100d3578063983b2d56146103ec5780639865027514610408578063a22cb46514610412578063aa271e1a1461042e576101c3565b8063731133e9146103a85780638456cb59146103c45780638da5cb5b146103ce576101c3565b80633f4ba83a116101665780634f558e79116101405780634f558e79146103345780635c975abb146103645780636b20c45414610382578063715018a61461039e576101c3565b80633f4ba83a146102ca5780634b068c78146102d45780634e1273f414610304576101c3565b806306fdde03116101a257806306fdde03146102445780630e89341c146102625780631f7fdffa146102925780632eb2c2d6146102ae576101c3565b8062fdd58e146101c857806301ffc9a7146101f857806302fe530514610228575b600080fd5b6101e260048036038101906101dd919061321b565b61055e565b6040516101ef919061326a565b60405180910390f35b610212600480360381019061020d91906132dd565b610628565b60405161021f9190613325565b60405180910390f35b610242600480360381019061023d9190613486565b61070a565b005b61024c610792565b6040516102599190613557565b60405180910390f35b61027c60048036038101906102779190613579565b610820565b6040516102899190613557565b60405180910390f35b6102ac60048036038101906102a7919061370f565b6108e5565b005b6102c860048036038101906102c391906137ca565b61093f565b005b6102d26109e0565b005b6102ee60048036038101906102e99190613899565b610a66565b6040516102fb9190613325565b60405180910390f35b61031e600480360381019061031991906139cb565b610bd8565b60405161032b9190613b01565b60405180910390f35b61034e60048036038101906103499190613579565b610cf1565b60405161035b9190613325565b60405180910390f35b61036c610d05565b6040516103799190613325565b60405180910390f35b61039c60048036038101906103979190613b23565b610d1b565b005b6103a6610db8565b005b6103c260048036038101906103bd9190613bae565b610e40565b005b6103cc610e9a565b005b6103d6610f20565b6040516103e39190613c40565b60405180910390f35b61040660048036038101906104019190613c5b565b610f49565b005b610410610f9d565b005b61042c60048036038101906104279190613cb4565b610fa8565b005b61044860048036038101906104439190613c5b565b610fbe565b6040516104559190613325565b60405180910390f35b61047860048036038101906104739190613579565b610fdb565b604051610485919061326a565b60405180910390f35b6104a860048036038101906104a39190613486565b610ff8565b005b6104c460048036038101906104bf9190613579565b611080565b6040516104d19190613c40565b60405180910390f35b6104f460048036038101906104ef9190613cf4565b6110b3565b6040516105019190613325565b60405180910390f35b610524600480360381019061051f9190613d34565b611147565b005b610540600480360381019061053b9190613c5b565b6111e8565b005b61055c60048036038101906105579190613dcb565b6112e0565b005b60008073ffffffffffffffffffffffffffffffffffffffff168373ffffffffffffffffffffffffffffffffffffffff1614156105cf576040517f08c379a00000000000000000000000000000000000000000000000000000000081526004016105c690613e90565b60405180910390fd5b6001600083815260200190815260200160002060008473ffffffffffffffffffffffffffffffffffffffff1673ffffffffffffffffffffffffffffffffffffffff16815260200190815260200160002054905092915050565b60007fd9b67a26000000000000000000000000000000000000000000000000000000007bffffffffffffffffffffffffffffffffffffffffffffffffffffffff1916827bffffffffffffffffffffffffffffffffffffffffffffffffffffffff191614806106f357507f0e89341c000000000000000000000000000000000000000000000000000000007bffffffffffffffffffffffffffffffffffffffffffffffffffffffff1916827bffffffffffffffffffffffffffffffffffffffffffffffffffffffff1916145b80610703575061070282611425565b5b9050919050565b61071261148f565b73ffffffffffffffffffffffffffffffffffffffff16610730610f20565b73ffffffffffffffffffffffffffffffffffffffff1614610786576040517f08c379a000000000000000000000000000000000000000000000000000000000815260040161077d90613efc565b60405180910390fd5b61078f81611497565b50565b6004805461079f90613f4b565b80601f01602080910402602001604051908101604052809291908181526020018280546107cb90613f4b565b80156108185780601f106107ed57610100808354040283529160200191610818565b820191906000526020600020905b8154815290600101906020018083116107fb57829003601f168201915b505050505081565b6060600060086000848152602001908152602001600020805461084290613f4b565b80601f016020809104026020016040519081016040528092919081815260200182805461086e90613f4b565b80156108bb5780601f10610890576101008083540402835291602001916108bb565b820191906000526020600020905b81548152906001019060200180831161089e57829003601f168201915b5050505050905060008151146108d457809150506108e0565b6108dc6114b1565b9150505b919050565b6108ee33610fbe565b61092d576040517f08c379a000000000000000000000000000000000000000000000000000000000815260040161092490613fef565b60405180910390fd5b61093984848484611543565b50505050565b61094761148f565b73ffffffffffffffffffffffffffffffffffffffff168573ffffffffffffffffffffffffffffffffffffffff16148061098d575061098c8561098761148f565b6110b3565b5b6109cc576040517f08c379a00000000000000000000000000000000000000000000000000000000081526004016109c390614081565b60405180910390fd5b6109d98585858585611771565b5050505050565b6109e861148f565b73ffffffffffffffffffffffffffffffffffffffff16610a06610f20565b73ffffffffffffffffffffffffffffffffffffffff1614610a5c576040517f08c379a0000000000000000000000000000000000000000000000000000000008152600401610a5390613efc565b60405180910390fd5b610a64611a96565b565b6000610a7133610fbe565b610ab0576040517f08c379a0000000000000000000000000000000000000000000000000000000008152600401610aa790613fef565b60405180910390fd5b610ab984611b37565b15610af9576040517f08c379a0000000000000000000000000000000000000000000000000000000008152600401610af0906140ed565b60405180910390fd5b336007600086815260200190815260200160002060006101000a81548173ffffffffffffffffffffffffffffffffffffffff021916908373ffffffffffffffffffffffffffffffffffffffff160217905550610b6633858560405180602001604052806000815250611ba9565b600082511115610bd15781600860008681526020019081526020016000209080519060200190610b979291906130d0565b50837f6bb7ff708619ba0610cba295a58592e0451dee2622938c8755667688daf3529b83604051610bc89190613557565b60405180910390a25b9392505050565b60608151835114610c1e576040517f08c379a0000000000000000000000000000000000000000000000000000000008152600401610c159061417f565b60405180910390fd5b6000835167ffffffffffffffff811115610c3b57610c3a61335b565b5b604051908082528060200260200182016040528015610c695781602001602082028036833780820191505090505b50905060005b8451811015610ce657610cb6858281518110610c8e57610c8d61419f565b5b6020026020010151858381518110610ca957610ca861419f565b5b602002602001015161055e565b828281518110610cc957610cc861419f565b5b60200260200101818152505080610cdf906141fd565b9050610c6f565b508091505092915050565b600080610cfd83610fdb565b119050919050565b60008060149054906101000a900460ff16905090565b610d2361148f565b73ffffffffffffffffffffffffffffffffffffffff168373ffffffffffffffffffffffffffffffffffffffff161480610d695750610d6883610d6361148f565b6110b3565b5b610da8576040517f08c379a0000000000000000000000000000000000000000000000000000000008152600401610d9f90614081565b60405180910390fd5b610db3838383611d5b565b505050565b610dc061148f565b73ffffffffffffffffffffffffffffffffffffffff16610dde610f20565b73ffffffffffffffffffffffffffffffffffffffff1614610e34576040517f08c379a0000000000000000000000000000000000000000000000000000000008152600401610e2b90613efc565b60405180910390fd5b610e3e600061202c565b565b610e4933610fbe565b610e88576040517f08c379a0000000000000000000000000000000000000000000000000000000008152600401610e7f90613fef565b60405180910390fd5b610e9484848484611ba9565b50505050565b610ea261148f565b73ffffffffffffffffffffffffffffffffffffffff16610ec0610f20565b73ffffffffffffffffffffffffffffffffffffffff1614610f16576040517f08c379a0000000000000000000000000000000000000000000000000000000008152600401610f0d90613efc565b60405180910390fd5b610f1e6120f0565b565b60008060009054906101000a900473ffffffffffffffffffffffffffffffffffffffff16905090565b610f5233610fbe565b610f91576040517f08c379a0000000000000000000000000000000000000000000000000000000008152600401610f8890613fef565b60405180910390fd5b610f9a81612193565b50565b610fa6336121ed565b565b610fba610fb361148f565b8383612247565b5050565b6000610fd48260066123b490919063ffffffff16565b9050919050565b600060056000838152602001908152602001600020549050919050565b61100061148f565b73ffffffffffffffffffffffffffffffffffffffff1661101e610f20565b73ffffffffffffffffffffffffffffffffffffffff1614611074576040517f08c379a000000000000000000000000000000000000000000000000000000000815260040161106b90613efc565b60405180910390fd5b61107d8161247c565b50565b60076020528060005260406000206000915054906101000a900473ffffffffffffffffffffffffffffffffffffffff1681565b6000600260008473ffffffffffffffffffffffffffffffffffffffff1673ffffffffffffffffffffffffffffffffffffffff16815260200190815260200160002060008373ffffffffffffffffffffffffffffffffffffffff1673ffffffffffffffffffffffffffffffffffffffff16815260200190815260200160002060009054906101000a900460ff16905092915050565b61114f61148f565b73ffffffffffffffffffffffffffffffffffffffff168573ffffffffffffffffffffffffffffffffffffffff16148061119557506111948561118f61148f565b6110b3565b5b6111d4576040517f08c379a00000000000000000000000000000000000000000000000000000000081526004016111cb90614081565b60405180910390fd5b6111e18585858585612496565b5050505050565b6111f061148f565b73ffffffffffffffffffffffffffffffffffffffff1661120e610f20565b73ffffffffffffffffffffffffffffffffffffffff1614611264576040517f08c379a000000000000000000000000000000000000000000000000000000000815260040161125b90613efc565b60405180910390fd5b600073ffffffffffffffffffffffffffffffffffffffff168173ffffffffffffffffffffffffffffffffffffffff1614156112d4576040517f08c379a00000000000000000000000000000000000000000000000000000000081526004016112cb906142b8565b60405180910390fd5b6112dd8161202c565b50565b6112e861148f565b73ffffffffffffffffffffffffffffffffffffffff168373ffffffffffffffffffffffffffffffffffffffff16148061132e575061132d8361132861148f565b6110b3565b5b61136d576040517f08c379a000000000000000000000000000000000000000000000000000000000815260040161136490614081565b60405180910390fd5b611378838383612735565b505050565b61138782826123b4565b156113c7576040517f08c379a00000000000000000000000000000000000000000000000000000000081526004016113be90614324565b60405180910390fd5b60018260000160008373ffffffffffffffffffffffffffffffffffffffff1673ffffffffffffffffffffffffffffffffffffffff16815260200190815260200160002060006101000a81548160ff0219169083151502179055505050565b60007f01ffc9a7000000000000000000000000000000000000000000000000000000007bffffffffffffffffffffffffffffffffffffffffffffffffffffffff1916827bffffffffffffffffffffffffffffffffffffffffffffffffffffffff1916149050919050565b600033905090565b80600390805190602001906114ad9291906130d0565b5050565b6060600380546114c090613f4b565b80601f01602080910402602001604051908101604052809291908181526020018280546114ec90613f4b565b80156115395780601f1061150e57610100808354040283529160200191611539565b820191906000526020600020905b81548152906001019060200180831161151c57829003601f168201915b5050505050905090565b600073ffffffffffffffffffffffffffffffffffffffff168473ffffffffffffffffffffffffffffffffffffffff1614156115b3576040517f08c379a00000000000000000000000000000000000000000000000000000000081526004016115aa906143b6565b60405180910390fd5b81518351146115f7576040517f08c379a00000000000000000000000000000000000000000000000000000000081526004016115ee90614448565b60405180910390fd5b600061160161148f565b90506116128160008787878761297e565b60005b84518110156116cc578381815181106116315761163061419f565b5b6020026020010151600160008784815181106116505761164f61419f565b5b6020026020010151815260200190815260200160002060008873ffffffffffffffffffffffffffffffffffffffff1673ffffffffffffffffffffffffffffffffffffffff16815260200190815260200160002060008282546116b29190614468565b9250508190555080806116c4906141fd565b915050611615565b508473ffffffffffffffffffffffffffffffffffffffff16600073ffffffffffffffffffffffffffffffffffffffff168273ffffffffffffffffffffffffffffffffffffffff167f4a39dc06d4c0dbc64b70af90fd698a233a518aa5d07e595d983b8c0526c8f7fb87876040516117449291906144be565b60405180910390a461175b816000878787876129dc565b61176a816000878787876129e4565b5050505050565b81518351146117b5576040517f08c379a00000000000000000000000000000000000000000000000000000000081526004016117ac90614448565b60405180910390fd5b600073ffffffffffffffffffffffffffffffffffffffff168473ffffffffffffffffffffffffffffffffffffffff161415611825576040517f08c379a000000000000000000000000000000000000000000000000000000000815260040161181c90614567565b60405180910390fd5b600061182f61148f565b905061183f81878787878761297e565b60005b84518110156119f35760008582815181106118605761185f61419f565b5b60200260200101519050600085838151811061187f5761187e61419f565b5b6020026020010151905060006001600084815260200190815260200160002060008b73ffffffffffffffffffffffffffffffffffffffff1673ffffffffffffffffffffffffffffffffffffffff16815260200190815260200160002054905081811015611921576040517f08c379a0000000000000000000000000000000000000000000000000000000008152600401611918906145f9565b60405180910390fd5b8181036001600085815260200190815260200160002060008c73ffffffffffffffffffffffffffffffffffffffff1673ffffffffffffffffffffffffffffffffffffffff16815260200190815260200160002081905550816001600085815260200190815260200160002060008b73ffffffffffffffffffffffffffffffffffffffff1673ffffffffffffffffffffffffffffffffffffffff16815260200190815260200160002060008282546119d89190614468565b92505081905550505050806119ec906141fd565b9050611842565b508473ffffffffffffffffffffffffffffffffffffffff168673ffffffffffffffffffffffffffffffffffffffff168273ffffffffffffffffffffffffffffffffffffffff167f4a39dc06d4c0dbc64b70af90fd698a233a518aa5d07e595d983b8c0526c8f7fb8787604051611a6a9291906144be565b60405180910390a4611a808187878787876129dc565b611a8e8187878787876129e4565b505050505050565b611a9e610d05565b611add576040517f08c379a0000000000000000000000000000000000000000000000000000000008152600401611ad490614665565b60405180910390fd5b60008060146101000a81548160ff0219169083151502179055507f5db9ee0a495bf2e6ff9c91a7834c1ba4fdd244a5e8aa4e537bd38aeae4b073aa611b2061148f565b604051611b2d9190613c40565b60405180910390a1565b6000806007600084815260200190815260200160002060009054906101000a900473ffffffffffffffffffffffffffffffffffffffff169050600073ffffffffffffffffffffffffffffffffffffffff168173ffffffffffffffffffffffffffffffffffffffff161415915050919050565b600073ffffffffffffffffffffffffffffffffffffffff168473ffffffffffffffffffffffffffffffffffffffff161415611c19576040517f08c379a0000000000000000000000000000000000000000000000000000000008152600401611c10906143b6565b60405180910390fd5b6000611c2361148f565b90506000611c3085612bcb565b90506000611c3d85612bcb565b9050611c4e8360008985858961297e565b846001600088815260200190815260200160002060008973ffffffffffffffffffffffffffffffffffffffff1673ffffffffffffffffffffffffffffffffffffffff1681526020019081526020016000206000828254611cae9190614468565b925050819055508673ffffffffffffffffffffffffffffffffffffffff16600073ffffffffffffffffffffffffffffffffffffffff168473ffffffffffffffffffffffffffffffffffffffff167fc3d58168c5ae7397731d063d5bbf3d657854427343f4c083240f7aacaa2d0f628989604051611d2c929190614685565b60405180910390a4611d43836000898585896129dc565b611d5283600089898989612c45565b50505050505050565b600073ffffffffffffffffffffffffffffffffffffffff168373ffffffffffffffffffffffffffffffffffffffff161415611dcb576040517f08c379a0000000000000000000000000000000000000000000000000000000008152600401611dc290614720565b60405180910390fd5b8051825114611e0f576040517f08c379a0000000000000000000000000000000000000000000000000000000008152600401611e0690614448565b60405180910390fd5b6000611e1961148f565b9050611e398185600086866040518060200160405280600081525061297e565b60005b8351811015611f88576000848281518110611e5a57611e5961419f565b5b602002602001015190506000848381518110611e7957611e7861419f565b5b6020026020010151905060006001600084815260200190815260200160002060008973ffffffffffffffffffffffffffffffffffffffff1673ffffffffffffffffffffffffffffffffffffffff16815260200190815260200160002054905081811015611f1b576040517f08c379a0000000000000000000000000000000000000000000000000000000008152600401611f12906147b2565b60405180910390fd5b8181036001600085815260200190815260200160002060008a73ffffffffffffffffffffffffffffffffffffffff1673ffffffffffffffffffffffffffffffffffffffff168152602001908152602001600020819055505050508080611f80906141fd565b915050611e3c565b50600073ffffffffffffffffffffffffffffffffffffffff168473ffffffffffffffffffffffffffffffffffffffff168273ffffffffffffffffffffffffffffffffffffffff167f4a39dc06d4c0dbc64b70af90fd698a233a518aa5d07e595d983b8c0526c8f7fb86866040516120009291906144be565b60405180910390a4612026818560008686604051806020016040528060008152506129dc565b50505050565b60008060009054906101000a900473ffffffffffffffffffffffffffffffffffffffff169050816000806101000a81548173ffffffffffffffffffffffffffffffffffffffff021916908373ffffffffffffffffffffffffffffffffffffffff1602179055508173ffffffffffffffffffffffffffffffffffffffff168173ffffffffffffffffffffffffffffffffffffffff167f8be0079c531659141344cd1fd0a4f28419497f9722a3daafe3b4186f6b6457e060405160405180910390a35050565b6120f8610d05565b15612138576040517f08c379a000000000000000000000000000000000000000000000000000000000815260040161212f9061481e565b60405180910390fd5b6001600060146101000a81548160ff0219169083151502179055507f62e78cea01bee320cd4e420270b5ea74000d11b0c9f74754ebdbfc544b05a25861217c61148f565b6040516121899190613c40565b60405180910390a1565b6121a781600661137d90919063ffffffff16565b8073ffffffffffffffffffffffffffffffffffffffff167f6ae172837ea30b801fbfcdd4108aa1d5bf8ff775444fd70256b44e6bf3dfc3f660405160405180910390a250565b612201816006612e2c90919063ffffffff16565b8073ffffffffffffffffffffffffffffffffffffffff167fe94479a9f7e1952cc78f2d6baab678adc1b772d936c6583def489e524cb6669260405160405180910390a250565b8173ffffffffffffffffffffffffffffffffffffffff168373ffffffffffffffffffffffffffffffffffffffff1614156122b6576040517f08c379a00000000000000000000000000000000000000000000000000000000081526004016122ad906148b0565b60405180910390fd5b80600260008573ffffffffffffffffffffffffffffffffffffffff1673ffffffffffffffffffffffffffffffffffffffff16815260200190815260200160002060008473ffffffffffffffffffffffffffffffffffffffff1673ffffffffffffffffffffffffffffffffffffffff16815260200190815260200160002060006101000a81548160ff0219169083151502179055508173ffffffffffffffffffffffffffffffffffffffff168373ffffffffffffffffffffffffffffffffffffffff167f17307eab39ab6107e8899845ad3d59bd9653f200f220920489ca2b5937696c31836040516123a79190613325565b60405180910390a3505050565b60008073ffffffffffffffffffffffffffffffffffffffff168273ffffffffffffffffffffffffffffffffffffffff161415612425576040517f08c379a000000000000000000000000000000000000000000000000000000000815260040161241c90614942565b60405180910390fd5b8260000160008373ffffffffffffffffffffffffffffffffffffffff1673ffffffffffffffffffffffffffffffffffffffff16815260200190815260200160002060009054906101000a900460ff16905092915050565b80600490805190602001906124929291906130d0565b5050565b600073ffffffffffffffffffffffffffffffffffffffff168473ffffffffffffffffffffffffffffffffffffffff161415612506576040517f08c379a00000000000000000000000000000000000000000000000000000000081526004016124fd90614567565b60405180910390fd5b600061251061148f565b9050600061251d85612bcb565b9050600061252a85612bcb565b905061253a83898985858961297e565b60006001600088815260200190815260200160002060008a73ffffffffffffffffffffffffffffffffffffffff1673ffffffffffffffffffffffffffffffffffffffff168152602001908152602001600020549050858110156125d2576040517f08c379a00000000000000000000000000000000000000000000000000000000081526004016125c9906145f9565b60405180910390fd5b8581036001600089815260200190815260200160002060008b73ffffffffffffffffffffffffffffffffffffffff1673ffffffffffffffffffffffffffffffffffffffff16815260200190815260200160002081905550856001600089815260200190815260200160002060008a73ffffffffffffffffffffffffffffffffffffffff1673ffffffffffffffffffffffffffffffffffffffff16815260200190815260200160002060008282546126899190614468565b925050819055508773ffffffffffffffffffffffffffffffffffffffff168973ffffffffffffffffffffffffffffffffffffffff168573ffffffffffffffffffffffffffffffffffffffff167fc3d58168c5ae7397731d063d5bbf3d657854427343f4c083240f7aacaa2d0f628a8a604051612706929190614685565b60405180910390a461271c848a8a86868a6129dc565b61272a848a8a8a8a8a612c45565b505050505050505050565b600073ffffffffffffffffffffffffffffffffffffffff168373ffffffffffffffffffffffffffffffffffffffff1614156127a5576040517f08c379a000000000000000000000000000000000000000000000000000000000815260040161279c90614720565b60405180910390fd5b60006127af61148f565b905060006127bc84612bcb565b905060006127c984612bcb565b90506127e98387600085856040518060200160405280600081525061297e565b60006001600087815260200190815260200160002060008873ffffffffffffffffffffffffffffffffffffffff1673ffffffffffffffffffffffffffffffffffffffff16815260200190815260200160002054905084811015612881576040517f08c379a0000000000000000000000000000000000000000000000000000000008152600401612878906147b2565b60405180910390fd5b8481036001600088815260200190815260200160002060008973ffffffffffffffffffffffffffffffffffffffff1673ffffffffffffffffffffffffffffffffffffffff16815260200190815260200160002081905550600073ffffffffffffffffffffffffffffffffffffffff168773ffffffffffffffffffffffffffffffffffffffff168573ffffffffffffffffffffffffffffffffffffffff167fc3d58168c5ae7397731d063d5bbf3d657854427343f4c083240f7aacaa2d0f62898960405161294f929190614685565b60405180910390a4612975848860008686604051806020016040528060008152506129dc565b50505050505050565b612986610d05565b156129c6576040517f08c379a00000000000000000000000000000000000000000000000000000000081526004016129bd9061481e565b60405180910390fd5b6129d4868686868686612ed3565b505050505050565b505050505050565b612a038473ffffffffffffffffffffffffffffffffffffffff166130a5565b15612bc3578373ffffffffffffffffffffffffffffffffffffffff1663bc197c8187878686866040518663ffffffff1660e01b8152600401612a499594939291906149b7565b602060405180830381600087803b158015612a6357600080fd5b505af1925050508015612a9457506040513d601f19601f82011682018060405250810190612a919190614a34565b60015b612b3a57612aa0614a6e565b806308c379a01415612afd5750612ab5614a90565b80612ac05750612aff565b806040517f08c379a0000000000000000000000000000000000000000000000000000000008152600401612af49190613557565b60405180910390fd5b505b6040517f08c379a0000000000000000000000000000000000000000000000000000000008152600401612b3190614b98565b60405180910390fd5b63bc197c8160e01b7bffffffffffffffffffffffffffffffffffffffffffffffffffffffff1916817bffffffffffffffffffffffffffffffffffffffffffffffffffffffff191614612bc1576040517f08c379a0000000000000000000000000000000000000000000000000000000008152600401612bb890614c2a565b60405180910390fd5b505b505050505050565b60606000600167ffffffffffffffff811115612bea57612be961335b565b5b604051908082528060200260200182016040528015612c185781602001602082028036833780820191505090505b5090508281600081518110612c3057612c2f61419f565b5b60200260200101818152505080915050919050565b612c648473ffffffffffffffffffffffffffffffffffffffff166130a5565b15612e24578373ffffffffffffffffffffffffffffffffffffffff1663f23a6e6187878686866040518663ffffffff1660e01b8152600401612caa959493929190614c4a565b602060405180830381600087803b158015612cc457600080fd5b505af1925050508015612cf557506040513d601f19601f82011682018060405250810190612cf29190614a34565b60015b612d9b57612d01614a6e565b806308c379a01415612d5e5750612d16614a90565b80612d215750612d60565b806040517f08c379a0000000000000000000000000000000000000000000000000000000008152600401612d559190613557565b60405180910390fd5b505b6040517f08c379a0000000000000000000000000000000000000000000000000000000008152600401612d9290614b98565b60405180910390fd5b63f23a6e6160e01b7bffffffffffffffffffffffffffffffffffffffffffffffffffffffff1916817bffffffffffffffffffffffffffffffffffffffffffffffffffffffff191614612e22576040517f08c379a0000000000000000000000000000000000000000000000000000000008152600401612e1990614c2a565b60405180910390fd5b505b505050505050565b612e3682826123b4565b612e75576040517f08c379a0000000000000000000000000000000000000000000000000000000008152600401612e6c90614d16565b60405180910390fd5b60008260000160008373ffffffffffffffffffffffffffffffffffffffff1673ffffffffffffffffffffffffffffffffffffffff16815260200190815260200160002060006101000a81548160ff0219169083151502179055505050565b612ee18686868686866130c8565b600073ffffffffffffffffffffffffffffffffffffffff168573ffffffffffffffffffffffffffffffffffffffff161415612f935760005b8351811015612f9157828181518110612f3557612f3461419f565b5b602002602001015160056000868481518110612f5457612f5361419f565b5b602002602001015181526020019081526020016000206000828254612f799190614468565b9250508190555080612f8a906141fd565b9050612f19565b505b600073ffffffffffffffffffffffffffffffffffffffff168473ffffffffffffffffffffffffffffffffffffffff16141561309d5760005b835181101561309b576000848281518110612fe957612fe861419f565b5b6020026020010151905060008483815181106130085761300761419f565b5b602002602001015190506000600560008481526020019081526020016000205490508181101561306d576040517f08c379a000000000000000000000000000000000000000000000000000000000815260040161306490614da8565b60405180910390fd5b818103600560008581526020019081526020016000208190555050505080613094906141fd565b9050612fcb565b505b505050505050565b6000808273ffffffffffffffffffffffffffffffffffffffff163b119050919050565b505050505050565b8280546130dc90613f4b565b90600052602060002090601f0160209004810192826130fe5760008555613145565b82601f1061311757805160ff1916838001178555613145565b82800160010185558215613145579182015b82811115613144578251825591602001919060010190613129565b5b5090506131529190613156565b5090565b5b8082111561316f576000816000905550600101613157565b5090565b6000604051905090565b600080fd5b600080fd5b600073ffffffffffffffffffffffffffffffffffffffff82169050919050565b60006131b282613187565b9050919050565b6131c2816131a7565b81146131cd57600080fd5b50565b6000813590506131df816131b9565b92915050565b6000819050919050565b6131f8816131e5565b811461320357600080fd5b50565b600081359050613215816131ef565b92915050565b600080604083850312156132325761323161317d565b5b6000613240858286016131d0565b925050602061325185828601613206565b9150509250929050565b613264816131e5565b82525050565b600060208201905061327f600083018461325b565b92915050565b60007fffffffff0000000000000000000000000000000000000000000000000000000082169050919050565b6132ba81613285565b81146132c557600080fd5b50565b6000813590506132d7816132b1565b92915050565b6000602082840312156132f3576132f261317d565b5b6000613301848285016132c8565b91505092915050565b60008115159050919050565b61331f8161330a565b82525050565b600060208201905061333a6000830184613316565b92915050565b600080fd5b600080fd5b6000601f19601f8301169050919050565b7f4e487b7100000000000000000000000000000000000000000000000000000000600052604160045260246000fd5b6133938261334a565b810181811067ffffffffffffffff821117156133b2576133b161335b565b5b80604052505050565b60006133c5613173565b90506133d1828261338a565b919050565b600067ffffffffffffffff8211156133f1576133f061335b565b5b6133fa8261334a565b9050602081019050919050565b82818337600083830152505050565b6000613429613424846133d6565b6133bb565b90508281526020810184848401111561344557613444613345565b5b613450848285613407565b509392505050565b600082601f83011261346d5761346c613340565b5b813561347d848260208601613416565b91505092915050565b60006020828403121561349c5761349b61317d565b5b600082013567ffffffffffffffff8111156134ba576134b9613182565b5b6134c684828501613458565b91505092915050565b600081519050919050565b600082825260208201905092915050565b60005b838110156135095780820151818401526020810190506134ee565b83811115613518576000848401525b50505050565b6000613529826134cf565b61353381856134da565b93506135438185602086016134eb565b61354c8161334a565b840191505092915050565b60006020820190508181036000830152613571818461351e565b905092915050565b60006020828403121561358f5761358e61317d565b5b600061359d84828501613206565b91505092915050565b600067ffffffffffffffff8211156135c1576135c061335b565b5b602082029050602081019050919050565b600080fd5b60006135ea6135e5846135a6565b6133bb565b9050808382526020820190506020840283018581111561360d5761360c6135d2565b5b835b8181101561363657806136228882613206565b84526020840193505060208101905061360f565b5050509392505050565b600082601f83011261365557613654613340565b5b81356136658482602086016135d7565b91505092915050565b600067ffffffffffffffff8211156136895761368861335b565b5b6136928261334a565b9050602081019050919050565b60006136b26136ad8461366e565b6133bb565b9050828152602081018484840111156136ce576136cd613345565b5b6136d9848285613407565b509392505050565b600082601f8301126136f6576136f5613340565b5b813561370684826020860161369f565b91505092915050565b600080600080608085870312156137295761372861317d565b5b6000613737878288016131d0565b945050602085013567ffffffffffffffff81111561375857613757613182565b5b61376487828801613640565b935050604085013567ffffffffffffffff81111561378557613784613182565b5b61379187828801613640565b925050606085013567ffffffffffffffff8111156137b2576137b1613182565b5b6137be878288016136e1565b91505092959194509250565b600080600080600060a086880312156137e6576137e561317d565b5b60006137f4888289016131d0565b9550506020613805888289016131d0565b945050604086013567ffffffffffffffff81111561382657613825613182565b5b61383288828901613640565b935050606086013567ffffffffffffffff81111561385357613852613182565b5b61385f88828901613640565b925050608086013567ffffffffffffffff8111156138805761387f613182565b5b61388c888289016136e1565b9150509295509295909350565b6000806000606084860312156138b2576138b161317d565b5b60006138c086828701613206565b93505060206138d186828701613206565b925050604084013567ffffffffffffffff8111156138f2576138f1613182565b5b6138fe86828701613458565b9150509250925092565b600067ffffffffffffffff8211156139235761392261335b565b5b602082029050602081019050919050565b600061394761394284613908565b6133bb565b9050808382526020820190506020840283018581111561396a576139696135d2565b5b835b81811015613993578061397f88826131d0565b84526020840193505060208101905061396c565b5050509392505050565b600082601f8301126139b2576139b1613340565b5b81356139c2848260208601613934565b91505092915050565b600080604083850312156139e2576139e161317d565b5b600083013567ffffffffffffffff811115613a00576139ff613182565b5b613a0c8582860161399d565b925050602083013567ffffffffffffffff811115613a2d57613a2c613182565b5b613a3985828601613640565b9150509250929050565b600081519050919050565b600082825260208201905092915050565b6000819050602082019050919050565b613a78816131e5565b82525050565b6000613a8a8383613a6f565b60208301905092915050565b6000602082019050919050565b6000613aae82613a43565b613ab88185613a4e565b9350613ac383613a5f565b8060005b83811015613af4578151613adb8882613a7e565b9750613ae683613a96565b925050600181019050613ac7565b5085935050505092915050565b60006020820190508181036000830152613b1b8184613aa3565b905092915050565b600080600060608486031215613b3c57613b3b61317d565b5b6000613b4a868287016131d0565b935050602084013567ffffffffffffffff811115613b6b57613b6a613182565b5b613b7786828701613640565b925050604084013567ffffffffffffffff811115613b9857613b97613182565b5b613ba486828701613640565b9150509250925092565b60008060008060808587031215613bc857613bc761317d565b5b6000613bd6878288016131d0565b9450506020613be787828801613206565b9350506040613bf887828801613206565b925050606085013567ffffffffffffffff811115613c1957613c18613182565b5b613c25878288016136e1565b91505092959194509250565b613c3a816131a7565b82525050565b6000602082019050613c556000830184613c31565b92915050565b600060208284031215613c7157613c7061317d565b5b6000613c7f848285016131d0565b91505092915050565b613c918161330a565b8114613c9c57600080fd5b50565b600081359050613cae81613c88565b92915050565b60008060408385031215613ccb57613cca61317d565b5b6000613cd9858286016131d0565b9250506020613cea85828601613c9f565b9150509250929050565b60008060408385031215613d0b57613d0a61317d565b5b6000613d19858286016131d0565b9250506020613d2a858286016131d0565b9150509250929050565b600080600080600060a08688031215613d5057613d4f61317d565b5b6000613d5e888289016131d0565b9550506020613d6f888289016131d0565b9450506040613d8088828901613206565b9350506060613d9188828901613206565b925050608086013567ffffffffffffffff811115613db257613db1613182565b5b613dbe888289016136e1565b9150509295509295909350565b600080600060608486031215613de457613de361317d565b5b6000613df2868287016131d0565b9350506020613e0386828701613206565b9250506040613e1486828701613206565b9150509250925092565b7f455243313135353a2061646472657373207a65726f206973206e6f742061207660008201527f616c6964206f776e657200000000000000000000000000000000000000000000602082015250565b6000613e7a602a836134da565b9150613e8582613e1e565b604082019050919050565b60006020820190508181036000830152613ea981613e6d565b9050919050565b7f4f776e61626c653a2063616c6c6572206973206e6f7420746865206f776e6572600082015250565b6000613ee66020836134da565b9150613ef182613eb0565b602082019050919050565b60006020820190508181036000830152613f1581613ed9565b9050919050565b7f4e487b7100000000000000000000000000000000000000000000000000000000600052602260045260246000fd5b60006002820490506001821680613f6357607f821691505b60208210811415613f7757613f76613f1c565b5b50919050565b7f4d696e746572526f6c653a2063616c6c657220646f6573206e6f74206861766560008201527f20746865204d696e74657220726f6c6500000000000000000000000000000000602082015250565b6000613fd96030836134da565b9150613fe482613f7d565b604082019050919050565b6000602082019050818103600083015261400881613fcc565b9050919050565b7f455243313135353a2063616c6c6572206973206e6f7420746f6b656e206f776e60008201527f6572206e6f7220617070726f7665640000000000000000000000000000000000602082015250565b600061406b602f836134da565b91506140768261400f565b604082019050919050565b6000602082019050818103600083015261409a8161405e565b9050919050565b7f455243313135353a20746f6b656e20616c726561647920637265617465640000600082015250565b60006140d7601e836134da565b91506140e2826140a1565b602082019050919050565b60006020820190508181036000830152614106816140ca565b9050919050565b7f455243313135353a206163636f756e747320616e6420696473206c656e67746860008201527f206d69736d617463680000000000000000000000000000000000000000000000602082015250565b60006141696029836134da565b91506141748261410d565b604082019050919050565b600060208201905081810360008301526141988161415c565b9050919050565b7f4e487b7100000000000000000000000000000000000000000000000000000000600052603260045260246000fd5b7f4e487b7100000000000000000000000000000000000000000000000000000000600052601160045260246000fd5b6000614208826131e5565b91507fffffffffffffffffffffffffffffffffffffffffffffffffffffffffffffffff82141561423b5761423a6141ce565b5b600182019050919050565b7f4f776e61626c653a206e6577206f776e657220697320746865207a65726f206160008201527f6464726573730000000000000000000000000000000000000000000000000000602082015250565b60006142a26026836134da565b91506142ad82614246565b604082019050919050565b600060208201905081810360008301526142d181614295565b9050919050565b7f526f6c65733a206163636f756e7420616c72656164792068617320726f6c6500600082015250565b600061430e601f836134da565b9150614319826142d8565b602082019050919050565b6000602082019050818103600083015261433d81614301565b9050919050565b7f455243313135353a206d696e7420746f20746865207a65726f2061646472657360008201527f7300000000000000000000000000000000000000000000000000000000000000602082015250565b60006143a06021836134da565b91506143ab82614344565b604082019050919050565b600060208201905081810360008301526143cf81614393565b9050919050565b7f455243313135353a2069647320616e6420616d6f756e7473206c656e6774682060008201527f6d69736d61746368000000000000000000000000000000000000000000000000602082015250565b60006144326028836134da565b915061443d826143d6565b604082019050919050565b6000602082019050818103600083015261446181614425565b9050919050565b6000614473826131e5565b915061447e836131e5565b9250827fffffffffffffffffffffffffffffffffffffffffffffffffffffffffffffffff038211156144b3576144b26141ce565b5b828201905092915050565b600060408201905081810360008301526144d88185613aa3565b905081810360208301526144ec8184613aa3565b90509392505050565b7f455243313135353a207472616e7366657220746f20746865207a65726f20616460008201527f6472657373000000000000000000000000000000000000000000000000000000602082015250565b60006145516025836134da565b915061455c826144f5565b604082019050919050565b6000602082019050818103600083015261458081614544565b9050919050565b7f455243313135353a20696e73756666696369656e742062616c616e636520666f60008201527f72207472616e7366657200000000000000000000000000000000000000000000602082015250565b60006145e3602a836134da565b91506145ee82614587565b604082019050919050565b60006020820190508181036000830152614612816145d6565b9050919050565b7f5061757361626c653a206e6f7420706175736564000000000000000000000000600082015250565b600061464f6014836134da565b915061465a82614619565b602082019050919050565b6000602082019050818103600083015261467e81614642565b9050919050565b600060408201905061469a600083018561325b565b6146a7602083018461325b565b9392505050565b7f455243313135353a206275726e2066726f6d20746865207a65726f206164647260008201527f6573730000000000000000000000000000000000000000000000000000000000602082015250565b600061470a6023836134da565b9150614715826146ae565b604082019050919050565b60006020820190508181036000830152614739816146fd565b9050919050565b7f455243313135353a206275726e20616d6f756e7420657863656564732062616c60008201527f616e636500000000000000000000000000000000000000000000000000000000602082015250565b600061479c6024836134da565b91506147a782614740565b604082019050919050565b600060208201905081810360008301526147cb8161478f565b9050919050565b7f5061757361626c653a2070617573656400000000000000000000000000000000600082015250565b60006148086010836134da565b9150614813826147d2565b602082019050919050565b60006020820190508181036000830152614837816147fb565b9050919050565b7f455243313135353a2073657474696e6720617070726f76616c2073746174757360008201527f20666f722073656c660000000000000000000000000000000000000000000000602082015250565b600061489a6029836134da565b91506148a58261483e565b604082019050919050565b600060208201905081810360008301526148c98161488d565b9050919050565b7f526f6c65733a206163636f756e7420697320746865207a65726f20616464726560008201527f7373000000000000000000000000000000000000000000000000000000000000602082015250565b600061492c6022836134da565b9150614937826148d0565b604082019050919050565b6000602082019050818103600083015261495b8161491f565b9050919050565b600081519050919050565b600082825260208201905092915050565b600061498982614962565b614993818561496d565b93506149a38185602086016134eb565b6149ac8161334a565b840191505092915050565b600060a0820190506149cc6000830188613c31565b6149d96020830187613c31565b81810360408301526149eb8186613aa3565b905081810360608301526149ff8185613aa3565b90508181036080830152614a13818461497e565b90509695505050505050565b600081519050614a2e816132b1565b92915050565b600060208284031215614a4a57614a4961317d565b5b6000614a5884828501614a1f565b91505092915050565b60008160e01c9050919050565b600060033d1115614a8d5760046000803e614a8a600051614a61565b90505b90565b600060443d1015614aa057614b23565b614aa8613173565b60043d036004823e80513d602482011167ffffffffffffffff82111715614ad0575050614b23565b808201805167ffffffffffffffff811115614aee5750505050614b23565b80602083010160043d038501811115614b0b575050505050614b23565b614b1a8260200185018661338a565b82955050505050505b90565b7f455243313135353a207472616e7366657220746f206e6f6e204552433131353560008201527f526563656976657220696d706c656d656e746572000000000000000000000000602082015250565b6000614b826034836134da565b9150614b8d82614b26565b604082019050919050565b60006020820190508181036000830152614bb181614b75565b9050919050565b7f455243313135353a204552433131353552656365697665722072656a6563746560008201527f6420746f6b656e73000000000000000000000000000000000000000000000000602082015250565b6000614c146028836134da565b9150614c1f82614bb8565b604082019050919050565b60006020820190508181036000830152614c4381614c07565b9050919050565b600060a082019050614c5f6000830188613c31565b614c6c6020830187613c31565b614c79604083018661325b565b614c86606083018561325b565b8181036080830152614c98818461497e565b90509695505050505050565b7f526f6c65733a206163636f756e7420646f6573206e6f74206861766520726f6c60008201527f6500000000000000000000000000000000000000000000000000000000000000602082015250565b6000614d006021836134da565b9150614d0b82614ca4565b604082019050919050565b60006020820190508181036000830152614d2f81614cf3565b9050919050565b7f455243313135353a206275726e20616d6f756e74206578636565647320746f7460008201527f616c537570706c79000000000000000000000000000000000000000000000000602082015250565b6000614d926028836134da565b9150614d9d82614d36565b604082019050919050565b60006020820190508181036000830152614dc181614d85565b905091905056fea2646970667358221220cb61484fed32151cb2f5f524c2600f78035827e86bcc59b77e65d6d6d80fe71364736f6c63430008090033",
  "linkReferences": {},
  "deployedLinkReferences": {}
}