{
  "_format": "hh-sol-artifact-1",
  "contractName": "ERC1155Token",
  "sourceName": "contracts/token/ERC1155/ERC1155Token.sol",
  "abi": [
    {
      "inputs": [
        {
          "internalType": "string",
          "name": "uri",
          "type": "string"
        },
        {
          "internalType": "string",
          "name": "name",
          "type": "string"
        },
        {
          "internalType": "string",
          "name": "symbol",
          "type": "string"
        }
      ],
      "stateMutability": "nonpayable",
      "type": "constructor"
    },
    {
      "anonymous": false,
      "inputs": [
        {
          "indexed": true,
          "internalType": "address",
          "name": "account",
          "type": "address"
        },
        {
          "indexed": true,
          "internalType": "address",
          "name": "operator",
          "type": "address"
        },
        {
          "indexed": false,
          "internalType": "bool",
          "name": "approved",
          "type": "bool"
        }
      ],
      "name": "ApprovalForAll",
      "type": "event"
    },
    {
      "anonymous": false,
      "inputs": [
        {
          "indexed": true,
          "internalType": "address",
          "name": "account",
          "type": "address"
        }
      ],
      "name": "MinterAdded",
      "type": "event"
    },
    {
      "anonymous": false,
      "inputs": [
        {
          "indexed": true,
          "internalType": "address",
          "name": "account",
          "type": "address"
        }
      ],
      "name": "MinterRemoved",
      "type": "event"
    },
    {
      "anonymous": false,
      "inputs": [
        {
          "indexed": true,
          "internalType": "address",
          "name": "previousOwner",
          "type": "address"
        },
        {
          "indexed": true,
          "internalType": "address",
          "name": "newOwner",
          "type": "address"
        }
      ],
      "name": "OwnershipTransferred",
      "type": "event"
    },
    {
      "anonymous": false,
      "inputs": [
        {
          "indexed": false,
          "internalType": "address",
          "name": "account",
          "type": "address"
        }
      ],
      "name": "Paused",
      "type": "event"
    },
    {
      "anonymous": false,
      "inputs": [
        {
          "indexed": true,
          "internalType": "address",
          "name": "operator",
          "type": "address"
        },
        {
          "indexed": true,
          "internalType": "address",
          "name": "from",
          "type": "address"
        },
        {
          "indexed": true,
          "internalType": "address",
          "name": "to",
          "type": "address"
        },
        {
          "indexed": false,
          "internalType": "uint256[]",
          "name": "ids",
          "type": "uint256[]"
        },
        {
          "indexed": false,
          "internalType": "uint256[]",
          "name": "values",
          "type": "uint256[]"
        }
      ],
      "name": "TransferBatch",
      "type": "event"
    },
    {
      "anonymous": false,
      "inputs": [
        {
          "indexed": true,
          "internalType": "address",
          "name": "operator",
          "type": "address"
        },
        {
          "indexed": true,
          "internalType": "address",
          "name": "from",
          "type": "address"
        },
        {
          "indexed": true,
          "internalType": "address",
          "name": "to",
          "type": "address"
        },
        {
          "indexed": false,
          "internalType": "uint256",
          "name": "id",
          "type": "uint256"
        },
        {
          "indexed": false,
          "internalType": "uint256",
          "name": "value",
          "type": "uint256"
        }
      ],
      "name": "TransferSingle",
      "type": "event"
    },
    {
      "anonymous": false,
      "inputs": [
        {
          "indexed": false,
          "internalType": "string",
          "name": "value",
          "type": "string"
        },
        {
          "indexed": true,
          "internalType": "uint256",
          "name": "id",
          "type": "uint256"
        }
      ],
      "name": "URI",
      "type": "event"
    },
    {
      "anonymous": false,
      "inputs": [
        {
          "indexed": false,
          "internalType": "address",
          "name": "account",
          "type": "address"
        }
      ],
      "name": "Unpaused",
      "type": "event"
    },
    {
      "inputs": [
        {
          "internalType": "address",
          "name": "account",
          "type": "address"
        }
      ],
      "name": "addMinter",
      "outputs": [],
      "stateMutability": "nonpayable",
      "type": "function"
    },
    {
      "inputs": [
        {
          "internalType": "address",
          "name": "account",
          "type": "address"
        },
        {
          "internalType": "uint256",
          "name": "id",
          "type": "uint256"
        }
      ],
      "name": "balanceOf",
      "outputs": [
        {
          "internalType": "uint256",
          "name": "",
          "type": "uint256"
        }
      ],
      "stateMutability": "view",
      "type": "function"
    },
    {
      "inputs": [
        {
          "internalType": "address[]",
          "name": "accounts",
          "type": "address[]"
        },
        {
          "internalType": "uint256[]",
          "name": "ids",
          "type": "uint256[]"
        }
      ],
      "name": "balanceOfBatch",
      "outputs": [
        {
          "internalType": "uint256[]",
          "name": "",
          "type": "uint256[]"
        }
      ],
      "stateMutability": "view",
      "type": "function"
    },
    {
      "inputs": [
        {
          "internalType": "address",
          "name": "account",
          "type": "address"
        },
        {
          "internalType": "uint256",
          "name": "id",
          "type": "uint256"
        },
        {
          "internalType": "uint256",
          "name": "value",
          "type": "uint256"
        }
      ],
      "name": "burn",
      "outputs": [],
      "stateMutability": "nonpayable",
      "type": "function"
    },
    {
      "inputs": [
        {
          "internalType": "address",
          "name": "account",
          "type": "address"
        },
        {
          "internalType": "uint256[]",
          "name": "ids",
          "type": "uint256[]"
        },
        {
          "internalType": "uint256[]",
          "name": "values",
          "type": "uint256[]"
        }
      ],
      "name": "burnBatch",
      "outputs": [],
      "stateMutability": "nonpayable",
      "type": "function"
    },
    {
      "inputs": [
        {
          "internalType": "uint256",
          "name": "_id",
          "type": "uint256"
        },
        {
          "internalType": "uint256",
          "name": "_initialSupply",
          "type": "uint256"
        },
        {
          "internalType": "string",
          "name": "_uri",
          "type": "string"
        }
      ],
      "name": "create",
      "outputs": [
        {
          "internalType": "bool",
          "name": "",
          "type": "bool"
        }
      ],
      "stateMutability": "nonpayable",
      "type": "function"
    },
    {
      "inputs": [
        {
          "internalType": "uint256",
          "name": "",
          "type": "uint256"
        }
      ],
      "name": "creators",
      "outputs": [
        {
          "internalType": "address",
          "name": "",
          "type": "address"
        }
      ],
      "stateMutability": "view",
      "type": "function"
    },
    {
      "inputs": [
        {
          "internalType": "uint256",
          "name": "id",
          "type": "uint256"
        }
      ],
      "name": "exists",
      "outputs": [
        {
          "internalType": "bool",
          "name": "",
          "type": "bool"
        }
      ],
      "stateMutability": "view",
      "type": "function"
    },
    {
      "inputs": [
        {
          "internalType": "address",
          "name": "account",
          "type": "address"
        },
        {
          "internalType": "address",
          "name": "operator",
          "type": "address"
        }
      ],
      "name": "isApprovedForAll",
      "outputs": [
        {
          "internalType": "bool",
          "name": "",
          "type": "bool"
        }
      ],
      "stateMutability": "view",
      "type": "function"
    },
    {
      "inputs": [
        {
          "internalType": "address",
          "name": "account",
          "type": "address"
        }
      ],
      "name": "isMinter",
      "outputs": [
        {
          "internalType": "bool",
          "name": "",
          "type": "bool"
        }
      ],
      "stateMutability": "view",
      "type": "function"
    },
    {
      "inputs": [
        {
          "internalType": "uint256",
          "name": "id",
          "type": "uint256"
        },
        {
          "internalType": "address",
          "name": "account",
          "type": "address"
        },
        {
          "internalType": "uint256",
          "name": "amount",
          "type": "uint256"
        }
      ],
      "name": "mint",
      "outputs": [],
      "stateMutability": "nonpayable",
      "type": "function"
    },
    {
      "inputs": [
        {
          "internalType": "address",
          "name": "to",
          "type": "address"
        },
        {
          "internalType": "uint256[]",
          "name": "ids",
          "type": "uint256[]"
        },
        {
          "internalType": "uint256[]",
          "name": "amounts",
          "type": "uint256[]"
        }
      ],
      "name": "mintBatch",
      "outputs": [],
      "stateMutability": "nonpayable",
      "type": "function"
    },
    {
      "inputs": [],
      "name": "name",
      "outputs": [
        {
          "internalType": "string",
          "name": "",
          "type": "string"
        }
      ],
      "stateMutability": "view",
      "type": "function"
    },
    {
      "inputs": [],
      "name": "owner",
      "outputs": [
        {
          "internalType": "address",
          "name": "",
          "type": "address"
        }
      ],
      "stateMutability": "view",
      "type": "function"
    },
    {
      "inputs": [],
      "name": "pause",
      "outputs": [],
      "stateMutability": "nonpayable",
      "type": "function"
    },
    {
      "inputs": [],
      "name": "paused",
      "outputs": [
        {
          "internalType": "bool",
          "name": "",
          "type": "bool"
        }
      ],
      "stateMutability": "view",
      "type": "function"
    },
    {
      "inputs": [],
      "name": "renounceMinter",
      "outputs": [],
      "stateMutability": "nonpayable",
      "type": "function"
    },
    {
      "inputs": [],
      "name": "renounceOwnership",
      "outputs": [],
      "stateMutability": "nonpayable",
      "type": "function"
    },
    {
      "inputs": [
        {
          "internalType": "address",
          "name": "from",
          "type": "address"
        },
        {
          "internalType": "address",
          "name": "to",
          "type": "address"
        },
        {
          "internalType": "uint256[]",
          "name": "ids",
          "type": "uint256[]"
        },
        {
          "internalType": "uint256[]",
          "name": "amounts",
          "type": "uint256[]"
        },
        {
          "internalType": "bytes",
          "name": "data",
          "type": "bytes"
        }
      ],
      "name": "safeBatchTransferFrom",
      "outputs": [],
      "stateMutability": "nonpayable",
      "type": "function"
    },
    {
      "inputs": [
        {
          "internalType": "address",
          "name": "from",
          "type": "address"
        },
        {
          "internalType": "address",
          "name": "to",
          "type": "address"
        },
        {
          "internalType": "uint256",
          "name": "id",
          "type": "uint256"
        },
        {
          "internalType": "uint256",
          "name": "amount",
          "type": "uint256"
        },
        {
          "internalType": "bytes",
          "name": "data",
          "type": "bytes"
        }
      ],
      "name": "safeTransferFrom",
      "outputs": [],
      "stateMutability": "nonpayable",
      "type": "function"
    },
    {
      "inputs": [
        {
          "internalType": "address",
          "name": "operator",
          "type": "address"
        },
        {
          "internalType": "bool",
          "name": "approved",
          "type": "bool"
        }
      ],
      "name": "setApprovalForAll",
      "outputs": [],
      "stateMutability": "nonpayable",
      "type": "function"
    },
    {
      "inputs": [
        {
          "internalType": "string",
          "name": "newname",
          "type": "string"
        }
      ],
      "name": "setName",
      "outputs": [],
      "stateMutability": "nonpayable",
      "type": "function"
    },
    {
      "inputs": [
        {
          "internalType": "string",
          "name": "newuri",
          "type": "string"
        }
      ],
      "name": "setURI",
      "outputs": [],
      "stateMutability": "nonpayable",
      "type": "function"
    },
    {
      "inputs": [
        {
          "internalType": "bytes4",
          "name": "interfaceId",
          "type": "bytes4"
        }
      ],
      "name": "supportsInterface",
      "outputs": [
        {
          "internalType": "bool",
          "name": "",
          "type": "bool"
        }
      ],
      "stateMutability": "view",
      "type": "function"
    },
    {
      "inputs": [],
      "name": "symbol",
      "outputs": [
        {
          "internalType": "string",
          "name": "",
          "type": "string"
        }
      ],
      "stateMutability": "view",
      "type": "function"
    },
    {
      "inputs": [
        {
          "internalType": "uint256",
          "name": "id",
          "type": "uint256"
        }
      ],
      "name": "totalSupply",
      "outputs": [
        {
          "internalType": "uint256",
          "name": "",
          "type": "uint256"
        }
      ],
      "stateMutability": "view",
      "type": "function"
    },
    {
      "inputs": [
        {
          "internalType": "address",
          "name": "newOwner",
          "type": "address"
        }
      ],
      "name": "transferOwnership",
      "outputs": [],
      "stateMutability": "nonpayable",
      "type": "function"
    },
    {
      "inputs": [],
      "name": "unpause",
      "outputs": [],
      "stateMutability": "nonpayable",
      "type": "function"
    },
    {
      "inputs": [
        {
          "internalType": "uint256",
          "name": "tokenId",
          "type": "uint256"
        }
      ],
      "name": "uri",
      "outputs": [
        {
          "internalType": "string",
          "name": "",
          "type": "string"
        }
      ],
      "stateMutability": "view",
      "type": "function"
    }
  ],
  "bytecode": "0x60806040523480156200001157600080fd5b506040516200575f3803806200575f8339818101604052810190620000379190620005fc565b8282826200005a6200004e620000cc60201b60201c565b620000d460201b60201c565b60008060146101000a81548160ff02191690831515021790555062000085836200019860201b60201c565b6200009682620001b460201b60201c565b8060059080519060200190620000ae929190620003af565b50505050620000c333620001d060201b60201c565b50505062000835565b600033905090565b60008060009054906101000a900473ffffffffffffffffffffffffffffffffffffffff169050816000806101000a81548173ffffffffffffffffffffffffffffffffffffffff021916908373ffffffffffffffffffffffffffffffffffffffff1602179055508173ffffffffffffffffffffffffffffffffffffffff168173ffffffffffffffffffffffffffffffffffffffff167f8be0079c531659141344cd1fd0a4f28419497f9722a3daafe3b4186f6b6457e060405160405180910390a35050565b8060039080519060200190620001b0929190620003af565b5050565b8060049080519060200190620001cc929190620003af565b5050565b620001eb8160076200023160201b620015181790919060201c565b8073ffffffffffffffffffffffffffffffffffffffff167f6ae172837ea30b801fbfcdd4108aa1d5bf8ff775444fd70256b44e6bf3dfc3f660405160405180910390a250565b620002438282620002e460201b60201c565b1562000286576040517f08c379a00000000000000000000000000000000000000000000000000000000081526004016200027d9062000716565b60405180910390fd5b60018260000160008373ffffffffffffffffffffffffffffffffffffffff1673ffffffffffffffffffffffffffffffffffffffff16815260200190815260200160002060006101000a81548160ff0219169083151502179055505050565b60008073ffffffffffffffffffffffffffffffffffffffff168273ffffffffffffffffffffffffffffffffffffffff16141562000358576040517f08c379a00000000000000000000000000000000000000000000000000000000081526004016200034f90620007ae565b60405180910390fd5b8260000160008373ffffffffffffffffffffffffffffffffffffffff1673ffffffffffffffffffffffffffffffffffffffff16815260200190815260200160002060009054906101000a900460ff16905092915050565b828054620003bd90620007ff565b90600052602060002090601f016020900481019282620003e157600085556200042d565b82601f10620003fc57805160ff19168380011785556200042d565b828001600101855582156200042d579182015b828111156200042c5782518255916020019190600101906200040f565b5b5090506200043c919062000440565b5090565b5b808211156200045b57600081600090555060010162000441565b5090565b6000604051905090565b600080fd5b600080fd5b600080fd5b600080fd5b6000601f19601f8301169050919050565b7f4e487b7100000000000000000000000000000000000000000000000000000000600052604160045260246000fd5b620004c8826200047d565b810181811067ffffffffffffffff82111715620004ea57620004e96200048e565b5b80604052505050565b6000620004ff6200045f565b90506200050d8282620004bd565b919050565b600067ffffffffffffffff82111562000530576200052f6200048e565b5b6200053b826200047d565b9050602081019050919050565b60005b83811015620005685780820151818401526020810190506200054b565b8381111562000578576000848401525b50505050565b6000620005956200058f8462000512565b620004f3565b905082815260208101848484011115620005b457620005b362000478565b5b620005c184828562000548565b509392505050565b600082601f830112620005e157620005e062000473565b5b8151620005f38482602086016200057e565b91505092915050565b60008060006060848603121562000618576200061762000469565b5b600084015167ffffffffffffffff8111156200063957620006386200046e565b5b6200064786828701620005c9565b935050602084015167ffffffffffffffff8111156200066b576200066a6200046e565b5b6200067986828701620005c9565b925050604084015167ffffffffffffffff8111156200069d576200069c6200046e565b5b620006ab86828701620005c9565b9150509250925092565b600082825260208201905092915050565b7f526f6c65733a206163636f756e7420616c72656164792068617320726f6c6500600082015250565b6000620006fe601f83620006b5565b91506200070b82620006c6565b602082019050919050565b600060208201905081810360008301526200073181620006ef565b9050919050565b7f526f6c65733a206163636f756e7420697320746865207a65726f20616464726560008201527f7373000000000000000000000000000000000000000000000000000000000000602082015250565b600062000796602283620006b5565b9150620007a38262000738565b604082019050919050565b60006020820190508181036000830152620007c98162000787565b9050919050565b7f4e487b7100000000000000000000000000000000000000000000000000000000600052602260045260246000fd5b600060028204905060018216806200081857607f821691505b602082108114156200082f576200082e620007d0565b5b50919050565b614f1a80620008456000396000f3fe608060405234801561001057600080fd5b50600436106101ce5760003560e01c80638456cb5911610104578063bd85b039116100a2578063e985e9c511610071578063e985e9c514610503578063f242432a14610533578063f2fde38b1461054f578063f5298aca1461056b576101ce565b8063bd85b0391461046b578063c47f00271461049b578063cd53d08e146104b7578063d81d0a15146104e7576101ce565b8063983b2d56116100de578063983b2d56146103f95780639865027514610415578063a22cb4651461041f578063aa271e1a1461043b576101ce565b80638456cb59146103b35780638da5cb5b146103bd57806395d89b41146103db576101ce565b80634b068c78116101715780635c975abb1161014b5780635c975abb146103535780636b20c45414610371578063715018a61461038d578063836a104014610397576101ce565b80634b068c78146102c35780634e1273f4146102f35780634f558e7914610323576101ce565b806306fdde03116101ad57806306fdde031461024f5780630e89341c1461026d5780632eb2c2d61461029d5780633f4ba83a146102b9576101ce565b8062fdd58e146101d357806301ffc9a71461020357806302fe530514610233575b600080fd5b6101ed60048036038101906101e891906133b6565b610587565b6040516101fa9190613405565b60405180910390f35b61021d60048036038101906102189190613478565b610651565b60405161022a91906134c0565b60405180910390f35b61024d60048036038101906102489190613621565b610733565b005b6102576107bb565b60405161026491906136f2565b60405180910390f35b61028760048036038101906102829190613714565b610849565b60405161029491906136f2565b60405180910390f35b6102b760048036038101906102b291906138aa565b61090e565b005b6102c16109af565b005b6102dd60048036038101906102d89190613979565b610a35565b6040516102ea91906134c0565b60405180910390f35b61030d60048036038101906103089190613aab565b610ba7565b60405161031a9190613be1565b60405180910390f35b61033d60048036038101906103389190613714565b610cc0565b60405161034a91906134c0565b60405180910390f35b61035b610cd4565b60405161036891906134c0565b60405180910390f35b61038b60048036038101906103869190613c03565b610cea565b005b610395610d87565b005b6103b160048036038101906103ac9190613c8e565b610e0f565b005b6103bb610ebf565b005b6103c5610f45565b6040516103d29190613cf0565b60405180910390f35b6103e3610f6e565b6040516103f091906136f2565b60405180910390f35b610413600480360381019061040e9190613d0b565b610ffc565b005b61041d611050565b005b61043960048036038101906104349190613d64565b61105b565b005b61045560048036038101906104509190613d0b565b611071565b60405161046291906134c0565b60405180910390f35b61048560048036038101906104809190613714565b61108e565b6040516104929190613405565b60405180910390f35b6104b560048036038101906104b09190613621565b6110ab565b005b6104d160048036038101906104cc9190613714565b611133565b6040516104de9190613cf0565b60405180910390f35b61050160048036038101906104fc9190613c03565b611166565b005b61051d60048036038101906105189190613da4565b61124e565b60405161052a91906134c0565b60405180910390f35b61054d60048036038101906105489190613de4565b6112e2565b005b61056960048036038101906105649190613d0b565b611383565b005b61058560048036038101906105809190613e7b565b61147b565b005b60008073ffffffffffffffffffffffffffffffffffffffff168373ffffffffffffffffffffffffffffffffffffffff1614156105f8576040517f08c379a00000000000000000000000000000000000000000000000000000000081526004016105ef90613f40565b60405180910390fd5b6001600083815260200190815260200160002060008473ffffffffffffffffffffffffffffffffffffffff1673ffffffffffffffffffffffffffffffffffffffff16815260200190815260200160002054905092915050565b60007fd9b67a26000000000000000000000000000000000000000000000000000000007bffffffffffffffffffffffffffffffffffffffffffffffffffffffff1916827bffffffffffffffffffffffffffffffffffffffffffffffffffffffff1916148061071c57507f0e89341c000000000000000000000000000000000000000000000000000000007bffffffffffffffffffffffffffffffffffffffffffffffffffffffff1916827bffffffffffffffffffffffffffffffffffffffffffffffffffffffff1916145b8061072c575061072b826115c0565b5b9050919050565b61073b61162a565b73ffffffffffffffffffffffffffffffffffffffff16610759610f45565b73ffffffffffffffffffffffffffffffffffffffff16146107af576040517f08c379a00000000000000000000000000000000000000000000000000000000081526004016107a690613fac565b60405180910390fd5b6107b881611632565b50565b600480546107c890613ffb565b80601f01602080910402602001604051908101604052809291908181526020018280546107f490613ffb565b80156108415780601f1061081657610100808354040283529160200191610841565b820191906000526020600020905b81548152906001019060200180831161082457829003601f168201915b505050505081565b6060600060096000848152602001908152602001600020805461086b90613ffb565b80601f016020809104026020016040519081016040528092919081815260200182805461089790613ffb565b80156108e45780601f106108b9576101008083540402835291602001916108e4565b820191906000526020600020905b8154815290600101906020018083116108c757829003601f168201915b5050505050905060008151146108fd5780915050610909565b61090561164c565b9150505b919050565b61091661162a565b73ffffffffffffffffffffffffffffffffffffffff168573ffffffffffffffffffffffffffffffffffffffff16148061095c575061095b8561095661162a565b61124e565b5b61099b576040517f08c379a00000000000000000000000000000000000000000000000000000000081526004016109929061409f565b60405180910390fd5b6109a885858585856116de565b5050505050565b6109b761162a565b73ffffffffffffffffffffffffffffffffffffffff166109d5610f45565b73ffffffffffffffffffffffffffffffffffffffff1614610a2b576040517f08c379a0000000000000000000000000000000000000000000000000000000008152600401610a2290613fac565b60405180910390fd5b610a33611a03565b565b6000610a4033611071565b610a7f576040517f08c379a0000000000000000000000000000000000000000000000000000000008152600401610a7690614131565b60405180910390fd5b610a8884611aa4565b15610ac8576040517f08c379a0000000000000000000000000000000000000000000000000000000008152600401610abf9061419d565b60405180910390fd5b336008600086815260200190815260200160002060006101000a81548173ffffffffffffffffffffffffffffffffffffffff021916908373ffffffffffffffffffffffffffffffffffffffff160217905550610b3533858560405180602001604052806000815250611b16565b600082511115610ba05781600960008681526020019081526020016000209080519060200190610b6692919061326b565b50837f6bb7ff708619ba0610cba295a58592e0451dee2622938c8755667688daf3529b83604051610b9791906136f2565b60405180910390a25b9392505050565b60608151835114610bed576040517f08c379a0000000000000000000000000000000000000000000000000000000008152600401610be49061422f565b60405180910390fd5b6000835167ffffffffffffffff811115610c0a57610c096134f6565b5b604051908082528060200260200182016040528015610c385781602001602082028036833780820191505090505b50905060005b8451811015610cb557610c85858281518110610c5d57610c5c61424f565b5b6020026020010151858381518110610c7857610c7761424f565b5b6020026020010151610587565b828281518110610c9857610c9761424f565b5b60200260200101818152505080610cae906142ad565b9050610c3e565b508091505092915050565b600080610ccc8361108e565b119050919050565b60008060149054906101000a900460ff16905090565b610cf261162a565b73ffffffffffffffffffffffffffffffffffffffff168373ffffffffffffffffffffffffffffffffffffffff161480610d385750610d3783610d3261162a565b61124e565b5b610d77576040517f08c379a0000000000000000000000000000000000000000000000000000000008152600401610d6e9061409f565b60405180910390fd5b610d82838383611cc8565b505050565b610d8f61162a565b73ffffffffffffffffffffffffffffffffffffffff16610dad610f45565b73ffffffffffffffffffffffffffffffffffffffff1614610e03576040517f08c379a0000000000000000000000000000000000000000000000000000000008152600401610dfa90613fac565b60405180910390fd5b610e0d6000611f99565b565b610e1833611071565b610e57576040517f08c379a0000000000000000000000000000000000000000000000000000000008152600401610e4e90614131565b60405180910390fd5b610e6083611aa4565b610e9f576040517f08c379a0000000000000000000000000000000000000000000000000000000008152600401610e9690614342565b60405180910390fd5b610eba82848360405180602001604052806000815250611b16565b505050565b610ec761162a565b73ffffffffffffffffffffffffffffffffffffffff16610ee5610f45565b73ffffffffffffffffffffffffffffffffffffffff1614610f3b576040517f08c379a0000000000000000000000000000000000000000000000000000000008152600401610f3290613fac565b60405180910390fd5b610f4361205d565b565b60008060009054906101000a900473ffffffffffffffffffffffffffffffffffffffff16905090565b60058054610f7b90613ffb565b80601f0160208091040260200160405190810160405280929190818152602001828054610fa790613ffb565b8015610ff45780601f10610fc957610100808354040283529160200191610ff4565b820191906000526020600020905b815481529060010190602001808311610fd757829003601f168201915b505050505081565b61100533611071565b611044576040517f08c379a000000000000000000000000000000000000000000000000000000000815260040161103b90614131565b60405180910390fd5b61104d81612100565b50565b6110593361215a565b565b61106d61106661162a565b83836121b4565b5050565b600061108782600761232190919063ffffffff16565b9050919050565b600060066000838152602001908152602001600020549050919050565b6110b361162a565b73ffffffffffffffffffffffffffffffffffffffff166110d1610f45565b73ffffffffffffffffffffffffffffffffffffffff1614611127576040517f08c379a000000000000000000000000000000000000000000000000000000000815260040161111e90613fac565b60405180910390fd5b611130816123e9565b50565b60086020528060005260406000206000915054906101000a900473ffffffffffffffffffffffffffffffffffffffff1681565b61116f33611071565b6111ae576040517f08c379a00000000000000000000000000000000000000000000000000000000081526004016111a590614131565b60405180910390fd5b60005b825181101561122d576111dd8382815181106111d0576111cf61424f565b5b6020026020010151611aa4565b61121c576040517f08c379a000000000000000000000000000000000000000000000000000000000815260040161121390614342565b60405180910390fd5b80611226906142ad565b90506111b1565b5061124983838360405180602001604052806000815250612403565b505050565b6000600260008473ffffffffffffffffffffffffffffffffffffffff1673ffffffffffffffffffffffffffffffffffffffff16815260200190815260200160002060008373ffffffffffffffffffffffffffffffffffffffff1673ffffffffffffffffffffffffffffffffffffffff16815260200190815260200160002060009054906101000a900460ff16905092915050565b6112ea61162a565b73ffffffffffffffffffffffffffffffffffffffff168573ffffffffffffffffffffffffffffffffffffffff161480611330575061132f8561132a61162a565b61124e565b5b61136f576040517f08c379a00000000000000000000000000000000000000000000000000000000081526004016113669061409f565b60405180910390fd5b61137c8585858585612631565b5050505050565b61138b61162a565b73ffffffffffffffffffffffffffffffffffffffff166113a9610f45565b73ffffffffffffffffffffffffffffffffffffffff16146113ff576040517f08c379a00000000000000000000000000000000000000000000000000000000081526004016113f690613fac565b60405180910390fd5b600073ffffffffffffffffffffffffffffffffffffffff168173ffffffffffffffffffffffffffffffffffffffff16141561146f576040517f08c379a0000000000000000000000000000000000000000000000000000000008152600401611466906143d4565b60405180910390fd5b61147881611f99565b50565b61148361162a565b73ffffffffffffffffffffffffffffffffffffffff168373ffffffffffffffffffffffffffffffffffffffff1614806114c957506114c8836114c361162a565b61124e565b5b611508576040517f08c379a00000000000000000000000000000000000000000000000000000000081526004016114ff9061409f565b60405180910390fd5b6115138383836128d0565b505050565b6115228282612321565b15611562576040517f08c379a000000000000000000000000000000000000000000000000000000000815260040161155990614440565b60405180910390fd5b60018260000160008373ffffffffffffffffffffffffffffffffffffffff1673ffffffffffffffffffffffffffffffffffffffff16815260200190815260200160002060006101000a81548160ff0219169083151502179055505050565b60007f01ffc9a7000000000000000000000000000000000000000000000000000000007bffffffffffffffffffffffffffffffffffffffffffffffffffffffff1916827bffffffffffffffffffffffffffffffffffffffffffffffffffffffff1916149050919050565b600033905090565b806003908051906020019061164892919061326b565b5050565b60606003805461165b90613ffb565b80601f016020809104026020016040519081016040528092919081815260200182805461168790613ffb565b80156116d45780601f106116a9576101008083540402835291602001916116d4565b820191906000526020600020905b8154815290600101906020018083116116b757829003601f168201915b5050505050905090565b8151835114611722576040517f08c379a0000000000000000000000000000000000000000000000000000000008152600401611719906144d2565b60405180910390fd5b600073ffffffffffffffffffffffffffffffffffffffff168473ffffffffffffffffffffffffffffffffffffffff161415611792576040517f08c379a000000000000000000000000000000000000000000000000000000000815260040161178990614564565b60405180910390fd5b600061179c61162a565b90506117ac818787878787612b19565b60005b84518110156119605760008582815181106117cd576117cc61424f565b5b6020026020010151905060008583815181106117ec576117eb61424f565b5b6020026020010151905060006001600084815260200190815260200160002060008b73ffffffffffffffffffffffffffffffffffffffff1673ffffffffffffffffffffffffffffffffffffffff1681526020019081526020016000205490508181101561188e576040517f08c379a0000000000000000000000000000000000000000000000000000000008152600401611885906145f6565b60405180910390fd5b8181036001600085815260200190815260200160002060008c73ffffffffffffffffffffffffffffffffffffffff1673ffffffffffffffffffffffffffffffffffffffff16815260200190815260200160002081905550816001600085815260200190815260200160002060008b73ffffffffffffffffffffffffffffffffffffffff1673ffffffffffffffffffffffffffffffffffffffff16815260200190815260200160002060008282546119459190614616565b9250508190555050505080611959906142ad565b90506117af565b508473ffffffffffffffffffffffffffffffffffffffff168673ffffffffffffffffffffffffffffffffffffffff168273ffffffffffffffffffffffffffffffffffffffff167f4a39dc06d4c0dbc64b70af90fd698a233a518aa5d07e595d983b8c0526c8f7fb87876040516119d792919061466c565b60405180910390a46119ed818787878787612b77565b6119fb818787878787612b7f565b505050505050565b611a0b610cd4565b611a4a576040517f08c379a0000000000000000000000000000000000000000000000000000000008152600401611a41906146ef565b60405180910390fd5b60008060146101000a81548160ff0219169083151502179055507f5db9ee0a495bf2e6ff9c91a7834c1ba4fdd244a5e8aa4e537bd38aeae4b073aa611a8d61162a565b604051611a9a9190613cf0565b60405180910390a1565b6000806008600084815260200190815260200160002060009054906101000a900473ffffffffffffffffffffffffffffffffffffffff169050600073ffffffffffffffffffffffffffffffffffffffff168173ffffffffffffffffffffffffffffffffffffffff161415915050919050565b600073ffffffffffffffffffffffffffffffffffffffff168473ffffffffffffffffffffffffffffffffffffffff161415611b86576040517f08c379a0000000000000000000000000000000000000000000000000000000008152600401611b7d90614781565b60405180910390fd5b6000611b9061162a565b90506000611b9d85612d66565b90506000611baa85612d66565b9050611bbb83600089858589612b19565b846001600088815260200190815260200160002060008973ffffffffffffffffffffffffffffffffffffffff1673ffffffffffffffffffffffffffffffffffffffff1681526020019081526020016000206000828254611c1b9190614616565b925050819055508673ffffffffffffffffffffffffffffffffffffffff16600073ffffffffffffffffffffffffffffffffffffffff168473ffffffffffffffffffffffffffffffffffffffff167fc3d58168c5ae7397731d063d5bbf3d657854427343f4c083240f7aacaa2d0f628989604051611c999291906147a1565b60405180910390a4611cb083600089858589612b77565b611cbf83600089898989612de0565b50505050505050565b600073ffffffffffffffffffffffffffffffffffffffff168373ffffffffffffffffffffffffffffffffffffffff161415611d38576040517f08c379a0000000000000000000000000000000000000000000000000000000008152600401611d2f9061483c565b60405180910390fd5b8051825114611d7c576040517f08c379a0000000000000000000000000000000000000000000000000000000008152600401611d73906144d2565b60405180910390fd5b6000611d8661162a565b9050611da681856000868660405180602001604052806000815250612b19565b60005b8351811015611ef5576000848281518110611dc757611dc661424f565b5b602002602001015190506000848381518110611de657611de561424f565b5b6020026020010151905060006001600084815260200190815260200160002060008973ffffffffffffffffffffffffffffffffffffffff1673ffffffffffffffffffffffffffffffffffffffff16815260200190815260200160002054905081811015611e88576040517f08c379a0000000000000000000000000000000000000000000000000000000008152600401611e7f906148ce565b60405180910390fd5b8181036001600085815260200190815260200160002060008a73ffffffffffffffffffffffffffffffffffffffff1673ffffffffffffffffffffffffffffffffffffffff168152602001908152602001600020819055505050508080611eed906142ad565b915050611da9565b50600073ffffffffffffffffffffffffffffffffffffffff168473ffffffffffffffffffffffffffffffffffffffff168273ffffffffffffffffffffffffffffffffffffffff167f4a39dc06d4c0dbc64b70af90fd698a233a518aa5d07e595d983b8c0526c8f7fb8686604051611f6d92919061466c565b60405180910390a4611f9381856000868660405180602001604052806000815250612b77565b50505050565b60008060009054906101000a900473ffffffffffffffffffffffffffffffffffffffff169050816000806101000a81548173ffffffffffffffffffffffffffffffffffffffff021916908373ffffffffffffffffffffffffffffffffffffffff1602179055508173ffffffffffffffffffffffffffffffffffffffff168173ffffffffffffffffffffffffffffffffffffffff167f8be0079c531659141344cd1fd0a4f28419497f9722a3daafe3b4186f6b6457e060405160405180910390a35050565b612065610cd4565b156120a5576040517f08c379a000000000000000000000000000000000000000000000000000000000815260040161209c9061493a565b60405180910390fd5b6001600060146101000a81548160ff0219169083151502179055507f62e78cea01bee320cd4e420270b5ea74000d11b0c9f74754ebdbfc544b05a2586120e961162a565b6040516120f69190613cf0565b60405180910390a1565b61211481600761151890919063ffffffff16565b8073ffffffffffffffffffffffffffffffffffffffff167f6ae172837ea30b801fbfcdd4108aa1d5bf8ff775444fd70256b44e6bf3dfc3f660405160405180910390a250565b61216e816007612fc790919063ffffffff16565b8073ffffffffffffffffffffffffffffffffffffffff167fe94479a9f7e1952cc78f2d6baab678adc1b772d936c6583def489e524cb6669260405160405180910390a250565b8173ffffffffffffffffffffffffffffffffffffffff168373ffffffffffffffffffffffffffffffffffffffff161415612223576040517f08c379a000000000000000000000000000000000000000000000000000000000815260040161221a906149cc565b60405180910390fd5b80600260008573ffffffffffffffffffffffffffffffffffffffff1673ffffffffffffffffffffffffffffffffffffffff16815260200190815260200160002060008473ffffffffffffffffffffffffffffffffffffffff1673ffffffffffffffffffffffffffffffffffffffff16815260200190815260200160002060006101000a81548160ff0219169083151502179055508173ffffffffffffffffffffffffffffffffffffffff168373ffffffffffffffffffffffffffffffffffffffff167f17307eab39ab6107e8899845ad3d59bd9653f200f220920489ca2b5937696c318360405161231491906134c0565b60405180910390a3505050565b60008073ffffffffffffffffffffffffffffffffffffffff168273ffffffffffffffffffffffffffffffffffffffff161415612392576040517f08c379a000000000000000000000000000000000000000000000000000000000815260040161238990614a5e565b60405180910390fd5b8260000160008373ffffffffffffffffffffffffffffffffffffffff1673ffffffffffffffffffffffffffffffffffffffff16815260200190815260200160002060009054906101000a900460ff16905092915050565b80600490805190602001906123ff92919061326b565b5050565b600073ffffffffffffffffffffffffffffffffffffffff168473ffffffffffffffffffffffffffffffffffffffff161415612473576040517f08c379a000000000000000000000000000000000000000000000000000000000815260040161246a90614781565b60405180910390fd5b81518351146124b7576040517f08c379a00000000000000000000000000000000000000000000000000000000081526004016124ae906144d2565b60405180910390fd5b60006124c161162a565b90506124d281600087878787612b19565b60005b845181101561258c578381815181106124f1576124f061424f565b5b6020026020010151600160008784815181106125105761250f61424f565b5b6020026020010151815260200190815260200160002060008873ffffffffffffffffffffffffffffffffffffffff1673ffffffffffffffffffffffffffffffffffffffff16815260200190815260200160002060008282546125729190614616565b925050819055508080612584906142ad565b9150506124d5565b508473ffffffffffffffffffffffffffffffffffffffff16600073ffffffffffffffffffffffffffffffffffffffff168273ffffffffffffffffffffffffffffffffffffffff167f4a39dc06d4c0dbc64b70af90fd698a233a518aa5d07e595d983b8c0526c8f7fb878760405161260492919061466c565b60405180910390a461261b81600087878787612b77565b61262a81600087878787612b7f565b5050505050565b600073ffffffffffffffffffffffffffffffffffffffff168473ffffffffffffffffffffffffffffffffffffffff1614156126a1576040517f08c379a000000000000000000000000000000000000000000000000000000000815260040161269890614564565b60405180910390fd5b60006126ab61162a565b905060006126b885612d66565b905060006126c585612d66565b90506126d5838989858589612b19565b60006001600088815260200190815260200160002060008a73ffffffffffffffffffffffffffffffffffffffff1673ffffffffffffffffffffffffffffffffffffffff1681526020019081526020016000205490508581101561276d576040517f08c379a0000000000000000000000000000000000000000000000000000000008152600401612764906145f6565b60405180910390fd5b8581036001600089815260200190815260200160002060008b73ffffffffffffffffffffffffffffffffffffffff1673ffffffffffffffffffffffffffffffffffffffff16815260200190815260200160002081905550856001600089815260200190815260200160002060008a73ffffffffffffffffffffffffffffffffffffffff1673ffffffffffffffffffffffffffffffffffffffff16815260200190815260200160002060008282546128249190614616565b925050819055508773ffffffffffffffffffffffffffffffffffffffff168973ffffffffffffffffffffffffffffffffffffffff168573ffffffffffffffffffffffffffffffffffffffff167fc3d58168c5ae7397731d063d5bbf3d657854427343f4c083240f7aacaa2d0f628a8a6040516128a19291906147a1565b60405180910390a46128b7848a8a86868a612b77565b6128c5848a8a8a8a8a612de0565b505050505050505050565b600073ffffffffffffffffffffffffffffffffffffffff168373ffffffffffffffffffffffffffffffffffffffff161415612940576040517f08c379a00000000000000000000000000000000000000000000000000000000081526004016129379061483c565b60405180910390fd5b600061294a61162a565b9050600061295784612d66565b9050600061296484612d66565b905061298483876000858560405180602001604052806000815250612b19565b60006001600087815260200190815260200160002060008873ffffffffffffffffffffffffffffffffffffffff1673ffffffffffffffffffffffffffffffffffffffff16815260200190815260200160002054905084811015612a1c576040517f08c379a0000000000000000000000000000000000000000000000000000000008152600401612a13906148ce565b60405180910390fd5b8481036001600088815260200190815260200160002060008973ffffffffffffffffffffffffffffffffffffffff1673ffffffffffffffffffffffffffffffffffffffff16815260200190815260200160002081905550600073ffffffffffffffffffffffffffffffffffffffff168773ffffffffffffffffffffffffffffffffffffffff168573ffffffffffffffffffffffffffffffffffffffff167fc3d58168c5ae7397731d063d5bbf3d657854427343f4c083240f7aacaa2d0f628989604051612aea9291906147a1565b60405180910390a4612b1084886000868660405180602001604052806000815250612b77565b50505050505050565b612b21610cd4565b15612b61576040517f08c379a0000000000000000000000000000000000000000000000000000000008152600401612b589061493a565b60405180910390fd5b612b6f86868686868661306e565b505050505050565b505050505050565b612b9e8473ffffffffffffffffffffffffffffffffffffffff16613240565b15612d5e578373ffffffffffffffffffffffffffffffffffffffff1663bc197c8187878686866040518663ffffffff1660e01b8152600401612be4959493929190614ad3565b602060405180830381600087803b158015612bfe57600080fd5b505af1925050508015612c2f57506040513d601f19601f82011682018060405250810190612c2c9190614b50565b60015b612cd557612c3b614b8a565b806308c379a01415612c985750612c50614bac565b80612c5b5750612c9a565b806040517f08c379a0000000000000000000000000000000000000000000000000000000008152600401612c8f91906136f2565b60405180910390fd5b505b6040517f08c379a0000000000000000000000000000000000000000000000000000000008152600401612ccc90614cb4565b60405180910390fd5b63bc197c8160e01b7bffffffffffffffffffffffffffffffffffffffffffffffffffffffff1916817bffffffffffffffffffffffffffffffffffffffffffffffffffffffff191614612d5c576040517f08c379a0000000000000000000000000000000000000000000000000000000008152600401612d5390614d46565b60405180910390fd5b505b505050505050565b60606000600167ffffffffffffffff811115612d8557612d846134f6565b5b604051908082528060200260200182016040528015612db35781602001602082028036833780820191505090505b5090508281600081518110612dcb57612dca61424f565b5b60200260200101818152505080915050919050565b612dff8473ffffffffffffffffffffffffffffffffffffffff16613240565b15612fbf578373ffffffffffffffffffffffffffffffffffffffff1663f23a6e6187878686866040518663ffffffff1660e01b8152600401612e45959493929190614d66565b602060405180830381600087803b158015612e5f57600080fd5b505af1925050508015612e9057506040513d601f19601f82011682018060405250810190612e8d9190614b50565b60015b612f3657612e9c614b8a565b806308c379a01415612ef95750612eb1614bac565b80612ebc5750612efb565b806040517f08c379a0000000000000000000000000000000000000000000000000000000008152600401612ef091906136f2565b60405180910390fd5b505b6040517f08c379a0000000000000000000000000000000000000000000000000000000008152600401612f2d90614cb4565b60405180910390fd5b63f23a6e6160e01b7bffffffffffffffffffffffffffffffffffffffffffffffffffffffff1916817bffffffffffffffffffffffffffffffffffffffffffffffffffffffff191614612fbd576040517f08c379a0000000000000000000000000000000000000000000000000000000008152600401612fb490614d46565b60405180910390fd5b505b505050505050565b612fd18282612321565b613010576040517f08c379a000000000000000000000000000000000000000000000000000000000815260040161300790614e32565b60405180910390fd5b60008260000160008373ffffffffffffffffffffffffffffffffffffffff1673ffffffffffffffffffffffffffffffffffffffff16815260200190815260200160002060006101000a81548160ff0219169083151502179055505050565b61307c868686868686613263565b600073ffffffffffffffffffffffffffffffffffffffff168573ffffffffffffffffffffffffffffffffffffffff16141561312e5760005b835181101561312c578281815181106130d0576130cf61424f565b5b6020026020010151600660008684815181106130ef576130ee61424f565b5b6020026020010151815260200190815260200160002060008282546131149190614616565b9250508190555080613125906142ad565b90506130b4565b505b600073ffffffffffffffffffffffffffffffffffffffff168473ffffffffffffffffffffffffffffffffffffffff1614156132385760005b83518110156132365760008482815181106131845761318361424f565b5b6020026020010151905060008483815181106131a3576131a261424f565b5b6020026020010151905060006006600084815260200190815260200160002054905081811015613208576040517f08c379a00000000000000000000000000000000000000000000000000000000081526004016131ff90614ec4565b60405180910390fd5b81810360066000858152602001908152602001600020819055505050508061322f906142ad565b9050613166565b505b505050505050565b6000808273ffffffffffffffffffffffffffffffffffffffff163b119050919050565b505050505050565b82805461327790613ffb565b90600052602060002090601f01602090048101928261329957600085556132e0565b82601f106132b257805160ff19168380011785556132e0565b828001600101855582156132e0579182015b828111156132df5782518255916020019190600101906132c4565b5b5090506132ed91906132f1565b5090565b5b8082111561330a5760008160009055506001016132f2565b5090565b6000604051905090565b600080fd5b600080fd5b600073ffffffffffffffffffffffffffffffffffffffff82169050919050565b600061334d82613322565b9050919050565b61335d81613342565b811461336857600080fd5b50565b60008135905061337a81613354565b92915050565b6000819050919050565b61339381613380565b811461339e57600080fd5b50565b6000813590506133b08161338a565b92915050565b600080604083850312156133cd576133cc613318565b5b60006133db8582860161336b565b92505060206133ec858286016133a1565b9150509250929050565b6133ff81613380565b82525050565b600060208201905061341a60008301846133f6565b92915050565b60007fffffffff0000000000000000000000000000000000000000000000000000000082169050919050565b61345581613420565b811461346057600080fd5b50565b6000813590506134728161344c565b92915050565b60006020828403121561348e5761348d613318565b5b600061349c84828501613463565b91505092915050565b60008115159050919050565b6134ba816134a5565b82525050565b60006020820190506134d560008301846134b1565b92915050565b600080fd5b600080fd5b6000601f19601f8301169050919050565b7f4e487b7100000000000000000000000000000000000000000000000000000000600052604160045260246000fd5b61352e826134e5565b810181811067ffffffffffffffff8211171561354d5761354c6134f6565b5b80604052505050565b600061356061330e565b905061356c8282613525565b919050565b600067ffffffffffffffff82111561358c5761358b6134f6565b5b613595826134e5565b9050602081019050919050565b82818337600083830152505050565b60006135c46135bf84613571565b613556565b9050828152602081018484840111156135e0576135df6134e0565b5b6135eb8482856135a2565b509392505050565b600082601f830112613608576136076134db565b5b81356136188482602086016135b1565b91505092915050565b60006020828403121561363757613636613318565b5b600082013567ffffffffffffffff8111156136555761365461331d565b5b613661848285016135f3565b91505092915050565b600081519050919050565b600082825260208201905092915050565b60005b838110156136a4578082015181840152602081019050613689565b838111156136b3576000848401525b50505050565b60006136c48261366a565b6136ce8185613675565b93506136de818560208601613686565b6136e7816134e5565b840191505092915050565b6000602082019050818103600083015261370c81846136b9565b905092915050565b60006020828403121561372a57613729613318565b5b6000613738848285016133a1565b91505092915050565b600067ffffffffffffffff82111561375c5761375b6134f6565b5b602082029050602081019050919050565b600080fd5b600061378561378084613741565b613556565b905080838252602082019050602084028301858111156137a8576137a761376d565b5b835b818110156137d157806137bd88826133a1565b8452602084019350506020810190506137aa565b5050509392505050565b600082601f8301126137f0576137ef6134db565b5b8135613800848260208601613772565b91505092915050565b600067ffffffffffffffff821115613824576138236134f6565b5b61382d826134e5565b9050602081019050919050565b600061384d61384884613809565b613556565b905082815260208101848484011115613869576138686134e0565b5b6138748482856135a2565b509392505050565b600082601f830112613891576138906134db565b5b81356138a184826020860161383a565b91505092915050565b600080600080600060a086880312156138c6576138c5613318565b5b60006138d48882890161336b565b95505060206138e58882890161336b565b945050604086013567ffffffffffffffff8111156139065761390561331d565b5b613912888289016137db565b935050606086013567ffffffffffffffff8111156139335761393261331d565b5b61393f888289016137db565b925050608086013567ffffffffffffffff8111156139605761395f61331d565b5b61396c8882890161387c565b9150509295509295909350565b60008060006060848603121561399257613991613318565b5b60006139a0868287016133a1565b93505060206139b1868287016133a1565b925050604084013567ffffffffffffffff8111156139d2576139d161331d565b5b6139de868287016135f3565b9150509250925092565b600067ffffffffffffffff821115613a0357613a026134f6565b5b602082029050602081019050919050565b6000613a27613a22846139e8565b613556565b90508083825260208201905060208402830185811115613a4a57613a4961376d565b5b835b81811015613a735780613a5f888261336b565b845260208401935050602081019050613a4c565b5050509392505050565b600082601f830112613a9257613a916134db565b5b8135613aa2848260208601613a14565b91505092915050565b60008060408385031215613ac257613ac1613318565b5b600083013567ffffffffffffffff811115613ae057613adf61331d565b5b613aec85828601613a7d565b925050602083013567ffffffffffffffff811115613b0d57613b0c61331d565b5b613b19858286016137db565b9150509250929050565b600081519050919050565b600082825260208201905092915050565b6000819050602082019050919050565b613b5881613380565b82525050565b6000613b6a8383613b4f565b60208301905092915050565b6000602082019050919050565b6000613b8e82613b23565b613b988185613b2e565b9350613ba383613b3f565b8060005b83811015613bd4578151613bbb8882613b5e565b9750613bc683613b76565b925050600181019050613ba7565b5085935050505092915050565b60006020820190508181036000830152613bfb8184613b83565b905092915050565b600080600060608486031215613c1c57613c1b613318565b5b6000613c2a8682870161336b565b935050602084013567ffffffffffffffff811115613c4b57613c4a61331d565b5b613c57868287016137db565b925050604084013567ffffffffffffffff811115613c7857613c7761331d565b5b613c84868287016137db565b9150509250925092565b600080600060608486031215613ca757613ca6613318565b5b6000613cb5868287016133a1565b9350506020613cc68682870161336b565b9250506040613cd7868287016133a1565b9150509250925092565b613cea81613342565b82525050565b6000602082019050613d056000830184613ce1565b92915050565b600060208284031215613d2157613d20613318565b5b6000613d2f8482850161336b565b91505092915050565b613d41816134a5565b8114613d4c57600080fd5b50565b600081359050613d5e81613d38565b92915050565b60008060408385031215613d7b57613d7a613318565b5b6000613d898582860161336b565b9250506020613d9a85828601613d4f565b9150509250929050565b60008060408385031215613dbb57613dba613318565b5b6000613dc98582860161336b565b9250506020613dda8582860161336b565b9150509250929050565b600080600080600060a08688031215613e0057613dff613318565b5b6000613e0e8882890161336b565b9550506020613e1f8882890161336b565b9450506040613e30888289016133a1565b9350506060613e41888289016133a1565b925050608086013567ffffffffffffffff811115613e6257613e6161331d565b5b613e6e8882890161387c565b9150509295509295909350565b600080600060608486031215613e9457613e93613318565b5b6000613ea28682870161336b565b9350506020613eb3868287016133a1565b9250506040613ec4868287016133a1565b9150509250925092565b7f455243313135353a2061646472657373207a65726f206973206e6f742061207660008201527f616c6964206f776e657200000000000000000000000000000000000000000000602082015250565b6000613f2a602a83613675565b9150613f3582613ece565b604082019050919050565b60006020820190508181036000830152613f5981613f1d565b9050919050565b7f4f776e61626c653a2063616c6c6572206973206e6f7420746865206f776e6572600082015250565b6000613f96602083613675565b9150613fa182613f60565b602082019050919050565b60006020820190508181036000830152613fc581613f89565b9050919050565b7f4e487b7100000000000000000000000000000000000000000000000000000000600052602260045260246000fd5b6000600282049050600182168061401357607f821691505b6020821081141561402757614026613fcc565b5b50919050565b7f455243313135353a2063616c6c6572206973206e6f7420746f6b656e206f776e60008201527f6572206e6f7220617070726f7665640000000000000000000000000000000000602082015250565b6000614089602f83613675565b91506140948261402d565b604082019050919050565b600060208201905081810360008301526140b88161407c565b9050919050565b7f4d696e746572526f6c653a2063616c6c657220646f6573206e6f74206861766560008201527f20746865204d696e74657220726f6c6500000000000000000000000000000000602082015250565b600061411b603083613675565b9150614126826140bf565b604082019050919050565b6000602082019050818103600083015261414a8161410e565b9050919050565b7f455243313135353a20746f6b656e20616c726561647920637265617465640000600082015250565b6000614187601e83613675565b915061419282614151565b602082019050919050565b600060208201905081810360008301526141b68161417a565b9050919050565b7f455243313135353a206163636f756e747320616e6420696473206c656e67746860008201527f206d69736d617463680000000000000000000000000000000000000000000000602082015250565b6000614219602983613675565b9150614224826141bd565b604082019050919050565b600060208201905081810360008301526142488161420c565b9050919050565b7f4e487b7100000000000000000000000000000000000000000000000000000000600052603260045260246000fd5b7f4e487b7100000000000000000000000000000000000000000000000000000000600052601160045260246000fd5b60006142b882613380565b91507fffffffffffffffffffffffffffffffffffffffffffffffffffffffffffffffff8214156142eb576142ea61427e565b5b600182019050919050565b7f455243313135353a206e6f6e6578697374656e7420746f6b656e000000000000600082015250565b600061432c601a83613675565b9150614337826142f6565b602082019050919050565b6000602082019050818103600083015261435b8161431f565b9050919050565b7f4f776e61626c653a206e6577206f776e657220697320746865207a65726f206160008201527f6464726573730000000000000000000000000000000000000000000000000000602082015250565b60006143be602683613675565b91506143c982614362565b604082019050919050565b600060208201905081810360008301526143ed816143b1565b9050919050565b7f526f6c65733a206163636f756e7420616c72656164792068617320726f6c6500600082015250565b600061442a601f83613675565b9150614435826143f4565b602082019050919050565b600060208201905081810360008301526144598161441d565b9050919050565b7f455243313135353a2069647320616e6420616d6f756e7473206c656e6774682060008201527f6d69736d61746368000000000000000000000000000000000000000000000000602082015250565b60006144bc602883613675565b91506144c782614460565b604082019050919050565b600060208201905081810360008301526144eb816144af565b9050919050565b7f455243313135353a207472616e7366657220746f20746865207a65726f20616460008201527f6472657373000000000000000000000000000000000000000000000000000000602082015250565b600061454e602583613675565b9150614559826144f2565b604082019050919050565b6000602082019050818103600083015261457d81614541565b9050919050565b7f455243313135353a20696e73756666696369656e742062616c616e636520666f60008201527f72207472616e7366657200000000000000000000000000000000000000000000602082015250565b60006145e0602a83613675565b91506145eb82614584565b604082019050919050565b6000602082019050818103600083015261460f816145d3565b9050919050565b600061462182613380565b915061462c83613380565b9250827fffffffffffffffffffffffffffffffffffffffffffffffffffffffffffffffff038211156146615761466061427e565b5b828201905092915050565b600060408201905081810360008301526146868185613b83565b9050818103602083015261469a8184613b83565b90509392505050565b7f5061757361626c653a206e6f7420706175736564000000000000000000000000600082015250565b60006146d9601483613675565b91506146e4826146a3565b602082019050919050565b60006020820190508181036000830152614708816146cc565b9050919050565b7f455243313135353a206d696e7420746f20746865207a65726f2061646472657360008201527f7300000000000000000000000000000000000000000000000000000000000000602082015250565b600061476b602183613675565b91506147768261470f565b604082019050919050565b6000602082019050818103600083015261479a8161475e565b9050919050565b60006040820190506147b660008301856133f6565b6147c360208301846133f6565b9392505050565b7f455243313135353a206275726e2066726f6d20746865207a65726f206164647260008201527f6573730000000000000000000000000000000000000000000000000000000000602082015250565b6000614826602383613675565b9150614831826147ca565b604082019050919050565b6000602082019050818103600083015261485581614819565b9050919050565b7f455243313135353a206275726e20616d6f756e7420657863656564732062616c60008201527f616e636500000000000000000000000000000000000000000000000000000000602082015250565b60006148b8602483613675565b91506148c38261485c565b604082019050919050565b600060208201905081810360008301526148e7816148ab565b9050919050565b7f5061757361626c653a2070617573656400000000000000000000000000000000600082015250565b6000614924601083613675565b915061492f826148ee565b602082019050919050565b6000602082019050818103600083015261495381614917565b9050919050565b7f455243313135353a2073657474696e6720617070726f76616c2073746174757360008201527f20666f722073656c660000000000000000000000000000000000000000000000602082015250565b60006149b6602983613675565b91506149c18261495a565b604082019050919050565b600060208201905081810360008301526149e5816149a9565b9050919050565b7f526f6c65733a206163636f756e7420697320746865207a65726f20616464726560008201527f7373000000000000000000000000000000000000000000000000000000000000602082015250565b6000614a48602283613675565b9150614a53826149ec565b604082019050919050565b60006020820190508181036000830152614a7781614a3b565b9050919050565b600081519050919050565b600082825260208201905092915050565b6000614aa582614a7e565b614aaf8185614a89565b9350614abf818560208601613686565b614ac8816134e5565b840191505092915050565b600060a082019050614ae86000830188613ce1565b614af56020830187613ce1565b8181036040830152614b078186613b83565b90508181036060830152614b1b8185613b83565b90508181036080830152614b2f8184614a9a565b90509695505050505050565b600081519050614b4a8161344c565b92915050565b600060208284031215614b6657614b65613318565b5b6000614b7484828501614b3b565b91505092915050565b60008160e01c9050919050565b600060033d1115614ba95760046000803e614ba6600051614b7d565b90505b90565b600060443d1015614bbc57614c3f565b614bc461330e565b60043d036004823e80513d602482011167ffffffffffffffff82111715614bec575050614c3f565b808201805167ffffffffffffffff811115614c0a5750505050614c3f565b80602083010160043d038501811115614c27575050505050614c3f565b614c3682602001850186613525565b82955050505050505b90565b7f455243313135353a207472616e7366657220746f206e6f6e204552433131353560008201527f526563656976657220696d706c656d656e746572000000000000000000000000602082015250565b6000614c9e603483613675565b9150614ca982614c42565b604082019050919050565b60006020820190508181036000830152614ccd81614c91565b9050919050565b7f455243313135353a204552433131353552656365697665722072656a6563746560008201527f6420746f6b656e73000000000000000000000000000000000000000000000000602082015250565b6000614d30602883613675565b9150614d3b82614cd4565b604082019050919050565b60006020820190508181036000830152614d5f81614d23565b9050919050565b600060a082019050614d7b6000830188613ce1565b614d886020830187613ce1565b614d9560408301866133f6565b614da260608301856133f6565b8181036080830152614db48184614a9a565b90509695505050505050565b7f526f6c65733a206163636f756e7420646f6573206e6f74206861766520726f6c60008201527f6500000000000000000000000000000000000000000000000000000000000000602082015250565b6000614e1c602183613675565b9150614e2782614dc0565b604082019050919050565b60006020820190508181036000830152614e4b81614e0f565b9050919050565b7f455243313135353a206275726e20616d6f756e74206578636565647320746f7460008201527f616c537570706c79000000000000000000000000000000000000000000000000602082015250565b6000614eae602883613675565b9150614eb982614e52565b604082019050919050565b60006020820190508181036000830152614edd81614ea1565b905091905056fea2646970667358221220419edffe8c8d4f09a05331718ad49d6db71cf7fef26885a0b4049045a73334df64736f6c63430008090033",
  "linkReferences": {},
  "deployedLinkReferences": {}
}