{
  "_format": "hh-sol-artifact-1",
  "contractName": "ERC1155Token",
  "sourceName": "contracts/token/ERC1155/ERC1155Token.sol",
  "abi": [
    {
      "inputs": [
        {
          "internalType": "string",
          "name": "uri",
          "type": "string"
        },
        {
          "internalType": "string",
          "name": "name",
          "type": "string"
        }
      ],
      "stateMutability": "nonpayable",
      "type": "constructor"
    },
    {
      "anonymous": false,
      "inputs": [
        {
          "indexed": true,
          "internalType": "address",
          "name": "account",
          "type": "address"
        },
        {
          "indexed": true,
          "internalType": "address",
          "name": "operator",
          "type": "address"
        },
        {
          "indexed": false,
          "internalType": "bool",
          "name": "approved",
          "type": "bool"
        }
      ],
      "name": "ApprovalForAll",
      "type": "event"
    },
    {
      "anonymous": false,
      "inputs": [
        {
          "indexed": true,
          "internalType": "address",
          "name": "account",
          "type": "address"
        }
      ],
      "name": "MinterAdded",
      "type": "event"
    },
    {
      "anonymous": false,
      "inputs": [
        {
          "indexed": true,
          "internalType": "address",
          "name": "account",
          "type": "address"
        }
      ],
      "name": "MinterRemoved",
      "type": "event"
    },
    {
      "anonymous": false,
      "inputs": [
        {
          "indexed": true,
          "internalType": "address",
          "name": "previousOwner",
          "type": "address"
        },
        {
          "indexed": true,
          "internalType": "address",
          "name": "newOwner",
          "type": "address"
        }
      ],
      "name": "OwnershipTransferred",
      "type": "event"
    },
    {
      "anonymous": false,
      "inputs": [
        {
          "indexed": false,
          "internalType": "address",
          "name": "account",
          "type": "address"
        }
      ],
      "name": "Paused",
      "type": "event"
    },
    {
      "anonymous": false,
      "inputs": [
        {
          "indexed": true,
          "internalType": "address",
          "name": "operator",
          "type": "address"
        },
        {
          "indexed": true,
          "internalType": "address",
          "name": "from",
          "type": "address"
        },
        {
          "indexed": true,
          "internalType": "address",
          "name": "to",
          "type": "address"
        },
        {
          "indexed": false,
          "internalType": "uint256[]",
          "name": "ids",
          "type": "uint256[]"
        },
        {
          "indexed": false,
          "internalType": "uint256[]",
          "name": "values",
          "type": "uint256[]"
        }
      ],
      "name": "TransferBatch",
      "type": "event"
    },
    {
      "anonymous": false,
      "inputs": [
        {
          "indexed": true,
          "internalType": "address",
          "name": "operator",
          "type": "address"
        },
        {
          "indexed": true,
          "internalType": "address",
          "name": "from",
          "type": "address"
        },
        {
          "indexed": true,
          "internalType": "address",
          "name": "to",
          "type": "address"
        },
        {
          "indexed": false,
          "internalType": "uint256",
          "name": "id",
          "type": "uint256"
        },
        {
          "indexed": false,
          "internalType": "uint256",
          "name": "value",
          "type": "uint256"
        }
      ],
      "name": "TransferSingle",
      "type": "event"
    },
    {
      "anonymous": false,
      "inputs": [
        {
          "indexed": false,
          "internalType": "string",
          "name": "value",
          "type": "string"
        },
        {
          "indexed": true,
          "internalType": "uint256",
          "name": "id",
          "type": "uint256"
        }
      ],
      "name": "URI",
      "type": "event"
    },
    {
      "anonymous": false,
      "inputs": [
        {
          "indexed": false,
          "internalType": "address",
          "name": "account",
          "type": "address"
        }
      ],
      "name": "Unpaused",
      "type": "event"
    },
    {
      "inputs": [
        {
          "internalType": "address",
          "name": "account",
          "type": "address"
        }
      ],
      "name": "addMinter",
      "outputs": [],
      "stateMutability": "nonpayable",
      "type": "function"
    },
    {
      "inputs": [
        {
          "internalType": "address",
          "name": "account",
          "type": "address"
        },
        {
          "internalType": "uint256",
          "name": "id",
          "type": "uint256"
        }
      ],
      "name": "balanceOf",
      "outputs": [
        {
          "internalType": "uint256",
          "name": "",
          "type": "uint256"
        }
      ],
      "stateMutability": "view",
      "type": "function"
    },
    {
      "inputs": [
        {
          "internalType": "address[]",
          "name": "accounts",
          "type": "address[]"
        },
        {
          "internalType": "uint256[]",
          "name": "ids",
          "type": "uint256[]"
        }
      ],
      "name": "balanceOfBatch",
      "outputs": [
        {
          "internalType": "uint256[]",
          "name": "",
          "type": "uint256[]"
        }
      ],
      "stateMutability": "view",
      "type": "function"
    },
    {
      "inputs": [
        {
          "internalType": "address",
          "name": "account",
          "type": "address"
        },
        {
          "internalType": "uint256",
          "name": "id",
          "type": "uint256"
        },
        {
          "internalType": "uint256",
          "name": "value",
          "type": "uint256"
        }
      ],
      "name": "burn",
      "outputs": [],
      "stateMutability": "nonpayable",
      "type": "function"
    },
    {
      "inputs": [
        {
          "internalType": "address",
          "name": "account",
          "type": "address"
        },
        {
          "internalType": "uint256[]",
          "name": "ids",
          "type": "uint256[]"
        },
        {
          "internalType": "uint256[]",
          "name": "values",
          "type": "uint256[]"
        }
      ],
      "name": "burnBatch",
      "outputs": [],
      "stateMutability": "nonpayable",
      "type": "function"
    },
    {
      "inputs": [
        {
          "internalType": "uint256",
          "name": "_id",
          "type": "uint256"
        },
        {
          "internalType": "uint256",
          "name": "_initialSupply",
          "type": "uint256"
        },
        {
          "internalType": "string",
          "name": "_uri",
          "type": "string"
        }
      ],
      "name": "create",
      "outputs": [
        {
          "internalType": "bool",
          "name": "",
          "type": "bool"
        }
      ],
      "stateMutability": "nonpayable",
      "type": "function"
    },
    {
      "inputs": [
        {
          "internalType": "uint256",
          "name": "",
          "type": "uint256"
        }
      ],
      "name": "creators",
      "outputs": [
        {
          "internalType": "address",
          "name": "",
          "type": "address"
        }
      ],
      "stateMutability": "view",
      "type": "function"
    },
    {
      "inputs": [
        {
          "internalType": "uint256",
          "name": "id",
          "type": "uint256"
        }
      ],
      "name": "exists",
      "outputs": [
        {
          "internalType": "bool",
          "name": "",
          "type": "bool"
        }
      ],
      "stateMutability": "view",
      "type": "function"
    },
    {
      "inputs": [
        {
          "internalType": "address",
          "name": "account",
          "type": "address"
        },
        {
          "internalType": "address",
          "name": "operator",
          "type": "address"
        }
      ],
      "name": "isApprovedForAll",
      "outputs": [
        {
          "internalType": "bool",
          "name": "",
          "type": "bool"
        }
      ],
      "stateMutability": "view",
      "type": "function"
    },
    {
      "inputs": [
        {
          "internalType": "address",
          "name": "account",
          "type": "address"
        }
      ],
      "name": "isMinter",
      "outputs": [
        {
          "internalType": "bool",
          "name": "",
          "type": "bool"
        }
      ],
      "stateMutability": "view",
      "type": "function"
    },
    {
      "inputs": [
        {
          "internalType": "uint256",
          "name": "id",
          "type": "uint256"
        },
        {
          "internalType": "address",
          "name": "account",
          "type": "address"
        },
        {
          "internalType": "uint256",
          "name": "amount",
          "type": "uint256"
        }
      ],
      "name": "mint",
      "outputs": [],
      "stateMutability": "nonpayable",
      "type": "function"
    },
    {
      "inputs": [
        {
          "internalType": "address",
          "name": "to",
          "type": "address"
        },
        {
          "internalType": "uint256[]",
          "name": "ids",
          "type": "uint256[]"
        },
        {
          "internalType": "uint256[]",
          "name": "amounts",
          "type": "uint256[]"
        }
      ],
      "name": "mintBatch",
      "outputs": [],
      "stateMutability": "nonpayable",
      "type": "function"
    },
    {
      "inputs": [],
      "name": "name",
      "outputs": [
        {
          "internalType": "string",
          "name": "",
          "type": "string"
        }
      ],
      "stateMutability": "view",
      "type": "function"
    },
    {
      "inputs": [],
      "name": "owner",
      "outputs": [
        {
          "internalType": "address",
          "name": "",
          "type": "address"
        }
      ],
      "stateMutability": "view",
      "type": "function"
    },
    {
      "inputs": [],
      "name": "pause",
      "outputs": [],
      "stateMutability": "nonpayable",
      "type": "function"
    },
    {
      "inputs": [],
      "name": "paused",
      "outputs": [
        {
          "internalType": "bool",
          "name": "",
          "type": "bool"
        }
      ],
      "stateMutability": "view",
      "type": "function"
    },
    {
      "inputs": [],
      "name": "renounceMinter",
      "outputs": [],
      "stateMutability": "nonpayable",
      "type": "function"
    },
    {
      "inputs": [],
      "name": "renounceOwnership",
      "outputs": [],
      "stateMutability": "nonpayable",
      "type": "function"
    },
    {
      "inputs": [
        {
          "internalType": "address",
          "name": "from",
          "type": "address"
        },
        {
          "internalType": "address",
          "name": "to",
          "type": "address"
        },
        {
          "internalType": "uint256[]",
          "name": "ids",
          "type": "uint256[]"
        },
        {
          "internalType": "uint256[]",
          "name": "amounts",
          "type": "uint256[]"
        },
        {
          "internalType": "bytes",
          "name": "data",
          "type": "bytes"
        }
      ],
      "name": "safeBatchTransferFrom",
      "outputs": [],
      "stateMutability": "nonpayable",
      "type": "function"
    },
    {
      "inputs": [
        {
          "internalType": "address",
          "name": "from",
          "type": "address"
        },
        {
          "internalType": "address",
          "name": "to",
          "type": "address"
        },
        {
          "internalType": "uint256",
          "name": "id",
          "type": "uint256"
        },
        {
          "internalType": "uint256",
          "name": "amount",
          "type": "uint256"
        },
        {
          "internalType": "bytes",
          "name": "data",
          "type": "bytes"
        }
      ],
      "name": "safeTransferFrom",
      "outputs": [],
      "stateMutability": "nonpayable",
      "type": "function"
    },
    {
      "inputs": [
        {
          "internalType": "address",
          "name": "operator",
          "type": "address"
        },
        {
          "internalType": "bool",
          "name": "approved",
          "type": "bool"
        }
      ],
      "name": "setApprovalForAll",
      "outputs": [],
      "stateMutability": "nonpayable",
      "type": "function"
    },
    {
      "inputs": [
        {
          "internalType": "string",
          "name": "newname",
          "type": "string"
        }
      ],
      "name": "setName",
      "outputs": [],
      "stateMutability": "nonpayable",
      "type": "function"
    },
    {
      "inputs": [
        {
          "internalType": "string",
          "name": "newuri",
          "type": "string"
        }
      ],
      "name": "setURI",
      "outputs": [],
      "stateMutability": "nonpayable",
      "type": "function"
    },
    {
      "inputs": [
        {
          "internalType": "bytes4",
          "name": "interfaceId",
          "type": "bytes4"
        }
      ],
      "name": "supportsInterface",
      "outputs": [
        {
          "internalType": "bool",
          "name": "",
          "type": "bool"
        }
      ],
      "stateMutability": "view",
      "type": "function"
    },
    {
      "inputs": [
        {
          "internalType": "uint256",
          "name": "id",
          "type": "uint256"
        }
      ],
      "name": "totalSupply",
      "outputs": [
        {
          "internalType": "uint256",
          "name": "",
          "type": "uint256"
        }
      ],
      "stateMutability": "view",
      "type": "function"
    },
    {
      "inputs": [
        {
          "internalType": "address",
          "name": "newOwner",
          "type": "address"
        }
      ],
      "name": "transferOwnership",
      "outputs": [],
      "stateMutability": "nonpayable",
      "type": "function"
    },
    {
      "inputs": [],
      "name": "unpause",
      "outputs": [],
      "stateMutability": "nonpayable",
      "type": "function"
    },
    {
      "inputs": [
        {
          "internalType": "uint256",
          "name": "tokenId",
          "type": "uint256"
        }
      ],
      "name": "uri",
      "outputs": [
        {
          "internalType": "string",
          "name": "",
          "type": "string"
        }
      ],
      "stateMutability": "view",
      "type": "function"
    }
  ],
  "bytecode": "0x60806040523480156200001157600080fd5b5060405162005658380380620056588339818101604052810190620000379190620005e0565b8181620000596200004d620000b060201b60201c565b620000b860201b60201c565b60008060146101000a81548160ff02191690831515021790555062000084826200017c60201b60201c565b62000095816200019860201b60201c565b5050620000a833620001b460201b60201c565b5050620007e5565b600033905090565b60008060009054906101000a900473ffffffffffffffffffffffffffffffffffffffff169050816000806101000a81548173ffffffffffffffffffffffffffffffffffffffff021916908373ffffffffffffffffffffffffffffffffffffffff1602179055508173ffffffffffffffffffffffffffffffffffffffff168173ffffffffffffffffffffffffffffffffffffffff167f8be0079c531659141344cd1fd0a4f28419497f9722a3daafe3b4186f6b6457e060405160405180910390a35050565b80600390805190602001906200019492919062000393565b5050565b8060049080519060200190620001b092919062000393565b5050565b620001cf8160066200021560201b620014611790919060201c565b8073ffffffffffffffffffffffffffffffffffffffff167f6ae172837ea30b801fbfcdd4108aa1d5bf8ff775444fd70256b44e6bf3dfc3f660405160405180910390a250565b620002278282620002c860201b60201c565b156200026a576040517f08c379a00000000000000000000000000000000000000000000000000000000081526004016200026190620006c6565b60405180910390fd5b60018260000160008373ffffffffffffffffffffffffffffffffffffffff1673ffffffffffffffffffffffffffffffffffffffff16815260200190815260200160002060006101000a81548160ff0219169083151502179055505050565b60008073ffffffffffffffffffffffffffffffffffffffff168273ffffffffffffffffffffffffffffffffffffffff1614156200033c576040517f08c379a000000000000000000000000000000000000000000000000000000000815260040162000333906200075e565b60405180910390fd5b8260000160008373ffffffffffffffffffffffffffffffffffffffff1673ffffffffffffffffffffffffffffffffffffffff16815260200190815260200160002060009054906101000a900460ff16905092915050565b828054620003a190620007af565b90600052602060002090601f016020900481019282620003c5576000855562000411565b82601f10620003e057805160ff191683800117855562000411565b8280016001018555821562000411579182015b8281111562000410578251825591602001919060010190620003f3565b5b50905062000420919062000424565b5090565b5b808211156200043f57600081600090555060010162000425565b5090565b6000604051905090565b600080fd5b600080fd5b600080fd5b600080fd5b6000601f19601f8301169050919050565b7f4e487b7100000000000000000000000000000000000000000000000000000000600052604160045260246000fd5b620004ac8262000461565b810181811067ffffffffffffffff82111715620004ce57620004cd62000472565b5b80604052505050565b6000620004e362000443565b9050620004f18282620004a1565b919050565b600067ffffffffffffffff82111562000514576200051362000472565b5b6200051f8262000461565b9050602081019050919050565b60005b838110156200054c5780820151818401526020810190506200052f565b838111156200055c576000848401525b50505050565b6000620005796200057384620004f6565b620004d7565b9050828152602081018484840111156200059857620005976200045c565b5b620005a58482856200052c565b509392505050565b600082601f830112620005c557620005c462000457565b5b8151620005d784826020860162000562565b91505092915050565b60008060408385031215620005fa57620005f96200044d565b5b600083015167ffffffffffffffff8111156200061b576200061a62000452565b5b6200062985828601620005ad565b925050602083015167ffffffffffffffff8111156200064d576200064c62000452565b5b6200065b85828601620005ad565b9150509250929050565b600082825260208201905092915050565b7f526f6c65733a206163636f756e7420616c72656164792068617320726f6c6500600082015250565b6000620006ae601f8362000665565b9150620006bb8262000676565b602082019050919050565b60006020820190508181036000830152620006e1816200069f565b9050919050565b7f526f6c65733a206163636f756e7420697320746865207a65726f20616464726560008201527f7373000000000000000000000000000000000000000000000000000000000000602082015250565b60006200074660228362000665565b91506200075382620006e8565b604082019050919050565b60006020820190508181036000830152620007798162000737565b9050919050565b7f4e487b7100000000000000000000000000000000000000000000000000000000600052602260045260246000fd5b60006002820490506001821680620007c857607f821691505b60208210811415620007df57620007de62000780565b5b50919050565b614e6380620007f56000396000f3fe608060405234801561001057600080fd5b50600436106101c35760003560e01c80638456cb59116100f9578063c47f002711610097578063e985e9c511610071578063e985e9c5146104da578063f242432a1461050a578063f2fde38b14610526578063f5298aca14610542576101c3565b8063c47f002714610472578063cd53d08e1461048e578063d81d0a15146104be576101c3565b806398650275116100d357806398650275146103ec578063a22cb465146103f6578063aa271e1a14610412578063bd85b03914610442576101c3565b80638456cb59146103a85780638da5cb5b146103b2578063983b2d56146103d0576101c3565b80634b068c78116101665780635c975abb116101405780635c975abb146103485780636b20c45414610366578063715018a614610382578063836a10401461038c576101c3565b80634b068c78146102b85780634e1273f4146102e85780634f558e7914610318576101c3565b806306fdde03116101a257806306fdde03146102445780630e89341c146102625780632eb2c2d6146102925780633f4ba83a146102ae576101c3565b8062fdd58e146101c857806301ffc9a7146101f857806302fe530514610228575b600080fd5b6101e260048036038101906101dd91906132ff565b61055e565b6040516101ef919061334e565b60405180910390f35b610212600480360381019061020d91906133c1565b610628565b60405161021f9190613409565b60405180910390f35b610242600480360381019061023d919061356a565b61070a565b005b61024c610792565b604051610259919061363b565b60405180910390f35b61027c6004803603810190610277919061365d565b610820565b604051610289919061363b565b60405180910390f35b6102ac60048036038101906102a791906137f3565b6108e5565b005b6102b6610986565b005b6102d260048036038101906102cd91906138c2565b610a0c565b6040516102df9190613409565b60405180910390f35b61030260048036038101906102fd91906139f4565b610b7e565b60405161030f9190613b2a565b60405180910390f35b610332600480360381019061032d919061365d565b610c97565b60405161033f9190613409565b60405180910390f35b610350610cab565b60405161035d9190613409565b60405180910390f35b610380600480360381019061037b9190613b4c565b610cc1565b005b61038a610d5e565b005b6103a660048036038101906103a19190613bd7565b610de6565b005b6103b0610e96565b005b6103ba610f1c565b6040516103c79190613c39565b60405180910390f35b6103ea60048036038101906103e59190613c54565b610f45565b005b6103f4610f99565b005b610410600480360381019061040b9190613cad565b610fa4565b005b61042c60048036038101906104279190613c54565b610fba565b6040516104399190613409565b60405180910390f35b61045c6004803603810190610457919061365d565b610fd7565b604051610469919061334e565b60405180910390f35b61048c6004803603810190610487919061356a565b610ff4565b005b6104a860048036038101906104a3919061365d565b61107c565b6040516104b59190613c39565b60405180910390f35b6104d860048036038101906104d39190613b4c565b6110af565b005b6104f460048036038101906104ef9190613ced565b611197565b6040516105019190613409565b60405180910390f35b610524600480360381019061051f9190613d2d565b61122b565b005b610540600480360381019061053b9190613c54565b6112cc565b005b61055c60048036038101906105579190613dc4565b6113c4565b005b60008073ffffffffffffffffffffffffffffffffffffffff168373ffffffffffffffffffffffffffffffffffffffff1614156105cf576040517f08c379a00000000000000000000000000000000000000000000000000000000081526004016105c690613e89565b60405180910390fd5b6001600083815260200190815260200160002060008473ffffffffffffffffffffffffffffffffffffffff1673ffffffffffffffffffffffffffffffffffffffff16815260200190815260200160002054905092915050565b60007fd9b67a26000000000000000000000000000000000000000000000000000000007bffffffffffffffffffffffffffffffffffffffffffffffffffffffff1916827bffffffffffffffffffffffffffffffffffffffffffffffffffffffff191614806106f357507f0e89341c000000000000000000000000000000000000000000000000000000007bffffffffffffffffffffffffffffffffffffffffffffffffffffffff1916827bffffffffffffffffffffffffffffffffffffffffffffffffffffffff1916145b80610703575061070282611509565b5b9050919050565b610712611573565b73ffffffffffffffffffffffffffffffffffffffff16610730610f1c565b73ffffffffffffffffffffffffffffffffffffffff1614610786576040517f08c379a000000000000000000000000000000000000000000000000000000000815260040161077d90613ef5565b60405180910390fd5b61078f8161157b565b50565b6004805461079f90613f44565b80601f01602080910402602001604051908101604052809291908181526020018280546107cb90613f44565b80156108185780601f106107ed57610100808354040283529160200191610818565b820191906000526020600020905b8154815290600101906020018083116107fb57829003601f168201915b505050505081565b6060600060086000848152602001908152602001600020805461084290613f44565b80601f016020809104026020016040519081016040528092919081815260200182805461086e90613f44565b80156108bb5780601f10610890576101008083540402835291602001916108bb565b820191906000526020600020905b81548152906001019060200180831161089e57829003601f168201915b5050505050905060008151146108d457809150506108e0565b6108dc611595565b9150505b919050565b6108ed611573565b73ffffffffffffffffffffffffffffffffffffffff168573ffffffffffffffffffffffffffffffffffffffff16148061093357506109328561092d611573565b611197565b5b610972576040517f08c379a000000000000000000000000000000000000000000000000000000000815260040161096990613fe8565b60405180910390fd5b61097f8585858585611627565b5050505050565b61098e611573565b73ffffffffffffffffffffffffffffffffffffffff166109ac610f1c565b73ffffffffffffffffffffffffffffffffffffffff1614610a02576040517f08c379a00000000000000000000000000000000000000000000000000000000081526004016109f990613ef5565b60405180910390fd5b610a0a61194c565b565b6000610a1733610fba565b610a56576040517f08c379a0000000000000000000000000000000000000000000000000000000008152600401610a4d9061407a565b60405180910390fd5b610a5f846119ed565b15610a9f576040517f08c379a0000000000000000000000000000000000000000000000000000000008152600401610a96906140e6565b60405180910390fd5b336007600086815260200190815260200160002060006101000a81548173ffffffffffffffffffffffffffffffffffffffff021916908373ffffffffffffffffffffffffffffffffffffffff160217905550610b0c33858560405180602001604052806000815250611a5f565b600082511115610b775781600860008681526020019081526020016000209080519060200190610b3d9291906131b4565b50837f6bb7ff708619ba0610cba295a58592e0451dee2622938c8755667688daf3529b83604051610b6e919061363b565b60405180910390a25b9392505050565b60608151835114610bc4576040517f08c379a0000000000000000000000000000000000000000000000000000000008152600401610bbb90614178565b60405180910390fd5b6000835167ffffffffffffffff811115610be157610be061343f565b5b604051908082528060200260200182016040528015610c0f5781602001602082028036833780820191505090505b50905060005b8451811015610c8c57610c5c858281518110610c3457610c33614198565b5b6020026020010151858381518110610c4f57610c4e614198565b5b602002602001015161055e565b828281518110610c6f57610c6e614198565b5b60200260200101818152505080610c85906141f6565b9050610c15565b508091505092915050565b600080610ca383610fd7565b119050919050565b60008060149054906101000a900460ff16905090565b610cc9611573565b73ffffffffffffffffffffffffffffffffffffffff168373ffffffffffffffffffffffffffffffffffffffff161480610d0f5750610d0e83610d09611573565b611197565b5b610d4e576040517f08c379a0000000000000000000000000000000000000000000000000000000008152600401610d4590613fe8565b60405180910390fd5b610d59838383611c11565b505050565b610d66611573565b73ffffffffffffffffffffffffffffffffffffffff16610d84610f1c565b73ffffffffffffffffffffffffffffffffffffffff1614610dda576040517f08c379a0000000000000000000000000000000000000000000000000000000008152600401610dd190613ef5565b60405180910390fd5b610de46000611ee2565b565b610def33610fba565b610e2e576040517f08c379a0000000000000000000000000000000000000000000000000000000008152600401610e259061407a565b60405180910390fd5b610e37836119ed565b610e76576040517f08c379a0000000000000000000000000000000000000000000000000000000008152600401610e6d9061428b565b60405180910390fd5b610e9182848360405180602001604052806000815250611a5f565b505050565b610e9e611573565b73ffffffffffffffffffffffffffffffffffffffff16610ebc610f1c565b73ffffffffffffffffffffffffffffffffffffffff1614610f12576040517f08c379a0000000000000000000000000000000000000000000000000000000008152600401610f0990613ef5565b60405180910390fd5b610f1a611fa6565b565b60008060009054906101000a900473ffffffffffffffffffffffffffffffffffffffff16905090565b610f4e33610fba565b610f8d576040517f08c379a0000000000000000000000000000000000000000000000000000000008152600401610f849061407a565b60405180910390fd5b610f9681612049565b50565b610fa2336120a3565b565b610fb6610faf611573565b83836120fd565b5050565b6000610fd082600661226a90919063ffffffff16565b9050919050565b600060056000838152602001908152602001600020549050919050565b610ffc611573565b73ffffffffffffffffffffffffffffffffffffffff1661101a610f1c565b73ffffffffffffffffffffffffffffffffffffffff1614611070576040517f08c379a000000000000000000000000000000000000000000000000000000000815260040161106790613ef5565b60405180910390fd5b61107981612332565b50565b60076020528060005260406000206000915054906101000a900473ffffffffffffffffffffffffffffffffffffffff1681565b6110b833610fba565b6110f7576040517f08c379a00000000000000000000000000000000000000000000000000000000081526004016110ee9061407a565b60405180910390fd5b60005b82518110156111765761112683828151811061111957611118614198565b5b60200260200101516119ed565b611165576040517f08c379a000000000000000000000000000000000000000000000000000000000815260040161115c9061428b565b60405180910390fd5b8061116f906141f6565b90506110fa565b506111928383836040518060200160405280600081525061234c565b505050565b6000600260008473ffffffffffffffffffffffffffffffffffffffff1673ffffffffffffffffffffffffffffffffffffffff16815260200190815260200160002060008373ffffffffffffffffffffffffffffffffffffffff1673ffffffffffffffffffffffffffffffffffffffff16815260200190815260200160002060009054906101000a900460ff16905092915050565b611233611573565b73ffffffffffffffffffffffffffffffffffffffff168573ffffffffffffffffffffffffffffffffffffffff161480611279575061127885611273611573565b611197565b5b6112b8576040517f08c379a00000000000000000000000000000000000000000000000000000000081526004016112af90613fe8565b60405180910390fd5b6112c5858585858561257a565b5050505050565b6112d4611573565b73ffffffffffffffffffffffffffffffffffffffff166112f2610f1c565b73ffffffffffffffffffffffffffffffffffffffff1614611348576040517f08c379a000000000000000000000000000000000000000000000000000000000815260040161133f90613ef5565b60405180910390fd5b600073ffffffffffffffffffffffffffffffffffffffff168173ffffffffffffffffffffffffffffffffffffffff1614156113b8576040517f08c379a00000000000000000000000000000000000000000000000000000000081526004016113af9061431d565b60405180910390fd5b6113c181611ee2565b50565b6113cc611573565b73ffffffffffffffffffffffffffffffffffffffff168373ffffffffffffffffffffffffffffffffffffffff16148061141257506114118361140c611573565b611197565b5b611451576040517f08c379a000000000000000000000000000000000000000000000000000000000815260040161144890613fe8565b60405180910390fd5b61145c838383612819565b505050565b61146b828261226a565b156114ab576040517f08c379a00000000000000000000000000000000000000000000000000000000081526004016114a290614389565b60405180910390fd5b60018260000160008373ffffffffffffffffffffffffffffffffffffffff1673ffffffffffffffffffffffffffffffffffffffff16815260200190815260200160002060006101000a81548160ff0219169083151502179055505050565b60007f01ffc9a7000000000000000000000000000000000000000000000000000000007bffffffffffffffffffffffffffffffffffffffffffffffffffffffff1916827bffffffffffffffffffffffffffffffffffffffffffffffffffffffff1916149050919050565b600033905090565b80600390805190602001906115919291906131b4565b5050565b6060600380546115a490613f44565b80601f01602080910402602001604051908101604052809291908181526020018280546115d090613f44565b801561161d5780601f106115f25761010080835404028352916020019161161d565b820191906000526020600020905b81548152906001019060200180831161160057829003601f168201915b5050505050905090565b815183511461166b576040517f08c379a00000000000000000000000000000000000000000000000000000000081526004016116629061441b565b60405180910390fd5b600073ffffffffffffffffffffffffffffffffffffffff168473ffffffffffffffffffffffffffffffffffffffff1614156116db576040517f08c379a00000000000000000000000000000000000000000000000000000000081526004016116d2906144ad565b60405180910390fd5b60006116e5611573565b90506116f5818787878787612a62565b60005b84518110156118a957600085828151811061171657611715614198565b5b60200260200101519050600085838151811061173557611734614198565b5b6020026020010151905060006001600084815260200190815260200160002060008b73ffffffffffffffffffffffffffffffffffffffff1673ffffffffffffffffffffffffffffffffffffffff168152602001908152602001600020549050818110156117d7576040517f08c379a00000000000000000000000000000000000000000000000000000000081526004016117ce9061453f565b60405180910390fd5b8181036001600085815260200190815260200160002060008c73ffffffffffffffffffffffffffffffffffffffff1673ffffffffffffffffffffffffffffffffffffffff16815260200190815260200160002081905550816001600085815260200190815260200160002060008b73ffffffffffffffffffffffffffffffffffffffff1673ffffffffffffffffffffffffffffffffffffffff168152602001908152602001600020600082825461188e919061455f565b92505081905550505050806118a2906141f6565b90506116f8565b508473ffffffffffffffffffffffffffffffffffffffff168673ffffffffffffffffffffffffffffffffffffffff168273ffffffffffffffffffffffffffffffffffffffff167f4a39dc06d4c0dbc64b70af90fd698a233a518aa5d07e595d983b8c0526c8f7fb87876040516119209291906145b5565b60405180910390a4611936818787878787612ac0565b611944818787878787612ac8565b505050505050565b611954610cab565b611993576040517f08c379a000000000000000000000000000000000000000000000000000000000815260040161198a90614638565b60405180910390fd5b60008060146101000a81548160ff0219169083151502179055507f5db9ee0a495bf2e6ff9c91a7834c1ba4fdd244a5e8aa4e537bd38aeae4b073aa6119d6611573565b6040516119e39190613c39565b60405180910390a1565b6000806007600084815260200190815260200160002060009054906101000a900473ffffffffffffffffffffffffffffffffffffffff169050600073ffffffffffffffffffffffffffffffffffffffff168173ffffffffffffffffffffffffffffffffffffffff161415915050919050565b600073ffffffffffffffffffffffffffffffffffffffff168473ffffffffffffffffffffffffffffffffffffffff161415611acf576040517f08c379a0000000000000000000000000000000000000000000000000000000008152600401611ac6906146ca565b60405180910390fd5b6000611ad9611573565b90506000611ae685612caf565b90506000611af385612caf565b9050611b0483600089858589612a62565b846001600088815260200190815260200160002060008973ffffffffffffffffffffffffffffffffffffffff1673ffffffffffffffffffffffffffffffffffffffff1681526020019081526020016000206000828254611b64919061455f565b925050819055508673ffffffffffffffffffffffffffffffffffffffff16600073ffffffffffffffffffffffffffffffffffffffff168473ffffffffffffffffffffffffffffffffffffffff167fc3d58168c5ae7397731d063d5bbf3d657854427343f4c083240f7aacaa2d0f628989604051611be29291906146ea565b60405180910390a4611bf983600089858589612ac0565b611c0883600089898989612d29565b50505050505050565b600073ffffffffffffffffffffffffffffffffffffffff168373ffffffffffffffffffffffffffffffffffffffff161415611c81576040517f08c379a0000000000000000000000000000000000000000000000000000000008152600401611c7890614785565b60405180910390fd5b8051825114611cc5576040517f08c379a0000000000000000000000000000000000000000000000000000000008152600401611cbc9061441b565b60405180910390fd5b6000611ccf611573565b9050611cef81856000868660405180602001604052806000815250612a62565b60005b8351811015611e3e576000848281518110611d1057611d0f614198565b5b602002602001015190506000848381518110611d2f57611d2e614198565b5b6020026020010151905060006001600084815260200190815260200160002060008973ffffffffffffffffffffffffffffffffffffffff1673ffffffffffffffffffffffffffffffffffffffff16815260200190815260200160002054905081811015611dd1576040517f08c379a0000000000000000000000000000000000000000000000000000000008152600401611dc890614817565b60405180910390fd5b8181036001600085815260200190815260200160002060008a73ffffffffffffffffffffffffffffffffffffffff1673ffffffffffffffffffffffffffffffffffffffff168152602001908152602001600020819055505050508080611e36906141f6565b915050611cf2565b50600073ffffffffffffffffffffffffffffffffffffffff168473ffffffffffffffffffffffffffffffffffffffff168273ffffffffffffffffffffffffffffffffffffffff167f4a39dc06d4c0dbc64b70af90fd698a233a518aa5d07e595d983b8c0526c8f7fb8686604051611eb69291906145b5565b60405180910390a4611edc81856000868660405180602001604052806000815250612ac0565b50505050565b60008060009054906101000a900473ffffffffffffffffffffffffffffffffffffffff169050816000806101000a81548173ffffffffffffffffffffffffffffffffffffffff021916908373ffffffffffffffffffffffffffffffffffffffff1602179055508173ffffffffffffffffffffffffffffffffffffffff168173ffffffffffffffffffffffffffffffffffffffff167f8be0079c531659141344cd1fd0a4f28419497f9722a3daafe3b4186f6b6457e060405160405180910390a35050565b611fae610cab565b15611fee576040517f08c379a0000000000000000000000000000000000000000000000000000000008152600401611fe590614883565b60405180910390fd5b6001600060146101000a81548160ff0219169083151502179055507f62e78cea01bee320cd4e420270b5ea74000d11b0c9f74754ebdbfc544b05a258612032611573565b60405161203f9190613c39565b60405180910390a1565b61205d81600661146190919063ffffffff16565b8073ffffffffffffffffffffffffffffffffffffffff167f6ae172837ea30b801fbfcdd4108aa1d5bf8ff775444fd70256b44e6bf3dfc3f660405160405180910390a250565b6120b7816006612f1090919063ffffffff16565b8073ffffffffffffffffffffffffffffffffffffffff167fe94479a9f7e1952cc78f2d6baab678adc1b772d936c6583def489e524cb6669260405160405180910390a250565b8173ffffffffffffffffffffffffffffffffffffffff168373ffffffffffffffffffffffffffffffffffffffff16141561216c576040517f08c379a000000000000000000000000000000000000000000000000000000000815260040161216390614915565b60405180910390fd5b80600260008573ffffffffffffffffffffffffffffffffffffffff1673ffffffffffffffffffffffffffffffffffffffff16815260200190815260200160002060008473ffffffffffffffffffffffffffffffffffffffff1673ffffffffffffffffffffffffffffffffffffffff16815260200190815260200160002060006101000a81548160ff0219169083151502179055508173ffffffffffffffffffffffffffffffffffffffff168373ffffffffffffffffffffffffffffffffffffffff167f17307eab39ab6107e8899845ad3d59bd9653f200f220920489ca2b5937696c318360405161225d9190613409565b60405180910390a3505050565b60008073ffffffffffffffffffffffffffffffffffffffff168273ffffffffffffffffffffffffffffffffffffffff1614156122db576040517f08c379a00000000000000000000000000000000000000000000000000000000081526004016122d2906149a7565b60405180910390fd5b8260000160008373ffffffffffffffffffffffffffffffffffffffff1673ffffffffffffffffffffffffffffffffffffffff16815260200190815260200160002060009054906101000a900460ff16905092915050565b80600490805190602001906123489291906131b4565b5050565b600073ffffffffffffffffffffffffffffffffffffffff168473ffffffffffffffffffffffffffffffffffffffff1614156123bc576040517f08c379a00000000000000000000000000000000000000000000000000000000081526004016123b3906146ca565b60405180910390fd5b8151835114612400576040517f08c379a00000000000000000000000000000000000000000000000000000000081526004016123f79061441b565b60405180910390fd5b600061240a611573565b905061241b81600087878787612a62565b60005b84518110156124d55783818151811061243a57612439614198565b5b60200260200101516001600087848151811061245957612458614198565b5b6020026020010151815260200190815260200160002060008873ffffffffffffffffffffffffffffffffffffffff1673ffffffffffffffffffffffffffffffffffffffff16815260200190815260200160002060008282546124bb919061455f565b9250508190555080806124cd906141f6565b91505061241e565b508473ffffffffffffffffffffffffffffffffffffffff16600073ffffffffffffffffffffffffffffffffffffffff168273ffffffffffffffffffffffffffffffffffffffff167f4a39dc06d4c0dbc64b70af90fd698a233a518aa5d07e595d983b8c0526c8f7fb878760405161254d9291906145b5565b60405180910390a461256481600087878787612ac0565b61257381600087878787612ac8565b5050505050565b600073ffffffffffffffffffffffffffffffffffffffff168473ffffffffffffffffffffffffffffffffffffffff1614156125ea576040517f08c379a00000000000000000000000000000000000000000000000000000000081526004016125e1906144ad565b60405180910390fd5b60006125f4611573565b9050600061260185612caf565b9050600061260e85612caf565b905061261e838989858589612a62565b60006001600088815260200190815260200160002060008a73ffffffffffffffffffffffffffffffffffffffff1673ffffffffffffffffffffffffffffffffffffffff168152602001908152602001600020549050858110156126b6576040517f08c379a00000000000000000000000000000000000000000000000000000000081526004016126ad9061453f565b60405180910390fd5b8581036001600089815260200190815260200160002060008b73ffffffffffffffffffffffffffffffffffffffff1673ffffffffffffffffffffffffffffffffffffffff16815260200190815260200160002081905550856001600089815260200190815260200160002060008a73ffffffffffffffffffffffffffffffffffffffff1673ffffffffffffffffffffffffffffffffffffffff168152602001908152602001600020600082825461276d919061455f565b925050819055508773ffffffffffffffffffffffffffffffffffffffff168973ffffffffffffffffffffffffffffffffffffffff168573ffffffffffffffffffffffffffffffffffffffff167fc3d58168c5ae7397731d063d5bbf3d657854427343f4c083240f7aacaa2d0f628a8a6040516127ea9291906146ea565b60405180910390a4612800848a8a86868a612ac0565b61280e848a8a8a8a8a612d29565b505050505050505050565b600073ffffffffffffffffffffffffffffffffffffffff168373ffffffffffffffffffffffffffffffffffffffff161415612889576040517f08c379a000000000000000000000000000000000000000000000000000000000815260040161288090614785565b60405180910390fd5b6000612893611573565b905060006128a084612caf565b905060006128ad84612caf565b90506128cd83876000858560405180602001604052806000815250612a62565b60006001600087815260200190815260200160002060008873ffffffffffffffffffffffffffffffffffffffff1673ffffffffffffffffffffffffffffffffffffffff16815260200190815260200160002054905084811015612965576040517f08c379a000000000000000000000000000000000000000000000000000000000815260040161295c90614817565b60405180910390fd5b8481036001600088815260200190815260200160002060008973ffffffffffffffffffffffffffffffffffffffff1673ffffffffffffffffffffffffffffffffffffffff16815260200190815260200160002081905550600073ffffffffffffffffffffffffffffffffffffffff168773ffffffffffffffffffffffffffffffffffffffff168573ffffffffffffffffffffffffffffffffffffffff167fc3d58168c5ae7397731d063d5bbf3d657854427343f4c083240f7aacaa2d0f628989604051612a339291906146ea565b60405180910390a4612a5984886000868660405180602001604052806000815250612ac0565b50505050505050565b612a6a610cab565b15612aaa576040517f08c379a0000000000000000000000000000000000000000000000000000000008152600401612aa190614883565b60405180910390fd5b612ab8868686868686612fb7565b505050505050565b505050505050565b612ae78473ffffffffffffffffffffffffffffffffffffffff16613189565b15612ca7578373ffffffffffffffffffffffffffffffffffffffff1663bc197c8187878686866040518663ffffffff1660e01b8152600401612b2d959493929190614a1c565b602060405180830381600087803b158015612b4757600080fd5b505af1925050508015612b7857506040513d601f19601f82011682018060405250810190612b759190614a99565b60015b612c1e57612b84614ad3565b806308c379a01415612be15750612b99614af5565b80612ba45750612be3565b806040517f08c379a0000000000000000000000000000000000000000000000000000000008152600401612bd8919061363b565b60405180910390fd5b505b6040517f08c379a0000000000000000000000000000000000000000000000000000000008152600401612c1590614bfd565b60405180910390fd5b63bc197c8160e01b7bffffffffffffffffffffffffffffffffffffffffffffffffffffffff1916817bffffffffffffffffffffffffffffffffffffffffffffffffffffffff191614612ca5576040517f08c379a0000000000000000000000000000000000000000000000000000000008152600401612c9c90614c8f565b60405180910390fd5b505b505050505050565b60606000600167ffffffffffffffff811115612cce57612ccd61343f565b5b604051908082528060200260200182016040528015612cfc5781602001602082028036833780820191505090505b5090508281600081518110612d1457612d13614198565b5b60200260200101818152505080915050919050565b612d488473ffffffffffffffffffffffffffffffffffffffff16613189565b15612f08578373ffffffffffffffffffffffffffffffffffffffff1663f23a6e6187878686866040518663ffffffff1660e01b8152600401612d8e959493929190614caf565b602060405180830381600087803b158015612da857600080fd5b505af1925050508015612dd957506040513d601f19601f82011682018060405250810190612dd69190614a99565b60015b612e7f57612de5614ad3565b806308c379a01415612e425750612dfa614af5565b80612e055750612e44565b806040517f08c379a0000000000000000000000000000000000000000000000000000000008152600401612e39919061363b565b60405180910390fd5b505b6040517f08c379a0000000000000000000000000000000000000000000000000000000008152600401612e7690614bfd565b60405180910390fd5b63f23a6e6160e01b7bffffffffffffffffffffffffffffffffffffffffffffffffffffffff1916817bffffffffffffffffffffffffffffffffffffffffffffffffffffffff191614612f06576040517f08c379a0000000000000000000000000000000000000000000000000000000008152600401612efd90614c8f565b60405180910390fd5b505b505050505050565b612f1a828261226a565b612f59576040517f08c379a0000000000000000000000000000000000000000000000000000000008152600401612f5090614d7b565b60405180910390fd5b60008260000160008373ffffffffffffffffffffffffffffffffffffffff1673ffffffffffffffffffffffffffffffffffffffff16815260200190815260200160002060006101000a81548160ff0219169083151502179055505050565b612fc58686868686866131ac565b600073ffffffffffffffffffffffffffffffffffffffff168573ffffffffffffffffffffffffffffffffffffffff1614156130775760005b83518110156130755782818151811061301957613018614198565b5b60200260200101516005600086848151811061303857613037614198565b5b60200260200101518152602001908152602001600020600082825461305d919061455f565b925050819055508061306e906141f6565b9050612ffd565b505b600073ffffffffffffffffffffffffffffffffffffffff168473ffffffffffffffffffffffffffffffffffffffff1614156131815760005b835181101561317f5760008482815181106130cd576130cc614198565b5b6020026020010151905060008483815181106130ec576130eb614198565b5b6020026020010151905060006005600084815260200190815260200160002054905081811015613151576040517f08c379a000000000000000000000000000000000000000000000000000000000815260040161314890614e0d565b60405180910390fd5b818103600560008581526020019081526020016000208190555050505080613178906141f6565b90506130af565b505b505050505050565b6000808273ffffffffffffffffffffffffffffffffffffffff163b119050919050565b505050505050565b8280546131c090613f44565b90600052602060002090601f0160209004810192826131e25760008555613229565b82601f106131fb57805160ff1916838001178555613229565b82800160010185558215613229579182015b8281111561322857825182559160200191906001019061320d565b5b509050613236919061323a565b5090565b5b8082111561325357600081600090555060010161323b565b5090565b6000604051905090565b600080fd5b600080fd5b600073ffffffffffffffffffffffffffffffffffffffff82169050919050565b60006132968261326b565b9050919050565b6132a68161328b565b81146132b157600080fd5b50565b6000813590506132c38161329d565b92915050565b6000819050919050565b6132dc816132c9565b81146132e757600080fd5b50565b6000813590506132f9816132d3565b92915050565b6000806040838503121561331657613315613261565b5b6000613324858286016132b4565b9250506020613335858286016132ea565b9150509250929050565b613348816132c9565b82525050565b6000602082019050613363600083018461333f565b92915050565b60007fffffffff0000000000000000000000000000000000000000000000000000000082169050919050565b61339e81613369565b81146133a957600080fd5b50565b6000813590506133bb81613395565b92915050565b6000602082840312156133d7576133d6613261565b5b60006133e5848285016133ac565b91505092915050565b60008115159050919050565b613403816133ee565b82525050565b600060208201905061341e60008301846133fa565b92915050565b600080fd5b600080fd5b6000601f19601f8301169050919050565b7f4e487b7100000000000000000000000000000000000000000000000000000000600052604160045260246000fd5b6134778261342e565b810181811067ffffffffffffffff821117156134965761349561343f565b5b80604052505050565b60006134a9613257565b90506134b5828261346e565b919050565b600067ffffffffffffffff8211156134d5576134d461343f565b5b6134de8261342e565b9050602081019050919050565b82818337600083830152505050565b600061350d613508846134ba565b61349f565b90508281526020810184848401111561352957613528613429565b5b6135348482856134eb565b509392505050565b600082601f83011261355157613550613424565b5b81356135618482602086016134fa565b91505092915050565b6000602082840312156135805761357f613261565b5b600082013567ffffffffffffffff81111561359e5761359d613266565b5b6135aa8482850161353c565b91505092915050565b600081519050919050565b600082825260208201905092915050565b60005b838110156135ed5780820151818401526020810190506135d2565b838111156135fc576000848401525b50505050565b600061360d826135b3565b61361781856135be565b93506136278185602086016135cf565b6136308161342e565b840191505092915050565b600060208201905081810360008301526136558184613602565b905092915050565b60006020828403121561367357613672613261565b5b6000613681848285016132ea565b91505092915050565b600067ffffffffffffffff8211156136a5576136a461343f565b5b602082029050602081019050919050565b600080fd5b60006136ce6136c98461368a565b61349f565b905080838252602082019050602084028301858111156136f1576136f06136b6565b5b835b8181101561371a578061370688826132ea565b8452602084019350506020810190506136f3565b5050509392505050565b600082601f83011261373957613738613424565b5b81356137498482602086016136bb565b91505092915050565b600067ffffffffffffffff82111561376d5761376c61343f565b5b6137768261342e565b9050602081019050919050565b600061379661379184613752565b61349f565b9050828152602081018484840111156137b2576137b1613429565b5b6137bd8482856134eb565b509392505050565b600082601f8301126137da576137d9613424565b5b81356137ea848260208601613783565b91505092915050565b600080600080600060a0868803121561380f5761380e613261565b5b600061381d888289016132b4565b955050602061382e888289016132b4565b945050604086013567ffffffffffffffff81111561384f5761384e613266565b5b61385b88828901613724565b935050606086013567ffffffffffffffff81111561387c5761387b613266565b5b61388888828901613724565b925050608086013567ffffffffffffffff8111156138a9576138a8613266565b5b6138b5888289016137c5565b9150509295509295909350565b6000806000606084860312156138db576138da613261565b5b60006138e9868287016132ea565b93505060206138fa868287016132ea565b925050604084013567ffffffffffffffff81111561391b5761391a613266565b5b6139278682870161353c565b9150509250925092565b600067ffffffffffffffff82111561394c5761394b61343f565b5b602082029050602081019050919050565b600061397061396b84613931565b61349f565b90508083825260208201905060208402830185811115613993576139926136b6565b5b835b818110156139bc57806139a888826132b4565b845260208401935050602081019050613995565b5050509392505050565b600082601f8301126139db576139da613424565b5b81356139eb84826020860161395d565b91505092915050565b60008060408385031215613a0b57613a0a613261565b5b600083013567ffffffffffffffff811115613a2957613a28613266565b5b613a35858286016139c6565b925050602083013567ffffffffffffffff811115613a5657613a55613266565b5b613a6285828601613724565b9150509250929050565b600081519050919050565b600082825260208201905092915050565b6000819050602082019050919050565b613aa1816132c9565b82525050565b6000613ab38383613a98565b60208301905092915050565b6000602082019050919050565b6000613ad782613a6c565b613ae18185613a77565b9350613aec83613a88565b8060005b83811015613b1d578151613b048882613aa7565b9750613b0f83613abf565b925050600181019050613af0565b5085935050505092915050565b60006020820190508181036000830152613b448184613acc565b905092915050565b600080600060608486031215613b6557613b64613261565b5b6000613b73868287016132b4565b935050602084013567ffffffffffffffff811115613b9457613b93613266565b5b613ba086828701613724565b925050604084013567ffffffffffffffff811115613bc157613bc0613266565b5b613bcd86828701613724565b9150509250925092565b600080600060608486031215613bf057613bef613261565b5b6000613bfe868287016132ea565b9350506020613c0f868287016132b4565b9250506040613c20868287016132ea565b9150509250925092565b613c338161328b565b82525050565b6000602082019050613c4e6000830184613c2a565b92915050565b600060208284031215613c6a57613c69613261565b5b6000613c78848285016132b4565b91505092915050565b613c8a816133ee565b8114613c9557600080fd5b50565b600081359050613ca781613c81565b92915050565b60008060408385031215613cc457613cc3613261565b5b6000613cd2858286016132b4565b9250506020613ce385828601613c98565b9150509250929050565b60008060408385031215613d0457613d03613261565b5b6000613d12858286016132b4565b9250506020613d23858286016132b4565b9150509250929050565b600080600080600060a08688031215613d4957613d48613261565b5b6000613d57888289016132b4565b9550506020613d68888289016132b4565b9450506040613d79888289016132ea565b9350506060613d8a888289016132ea565b925050608086013567ffffffffffffffff811115613dab57613daa613266565b5b613db7888289016137c5565b9150509295509295909350565b600080600060608486031215613ddd57613ddc613261565b5b6000613deb868287016132b4565b9350506020613dfc868287016132ea565b9250506040613e0d868287016132ea565b9150509250925092565b7f455243313135353a2061646472657373207a65726f206973206e6f742061207660008201527f616c6964206f776e657200000000000000000000000000000000000000000000602082015250565b6000613e73602a836135be565b9150613e7e82613e17565b604082019050919050565b60006020820190508181036000830152613ea281613e66565b9050919050565b7f4f776e61626c653a2063616c6c6572206973206e6f7420746865206f776e6572600082015250565b6000613edf6020836135be565b9150613eea82613ea9565b602082019050919050565b60006020820190508181036000830152613f0e81613ed2565b9050919050565b7f4e487b7100000000000000000000000000000000000000000000000000000000600052602260045260246000fd5b60006002820490506001821680613f5c57607f821691505b60208210811415613f7057613f6f613f15565b5b50919050565b7f455243313135353a2063616c6c6572206973206e6f7420746f6b656e206f776e60008201527f6572206e6f7220617070726f7665640000000000000000000000000000000000602082015250565b6000613fd2602f836135be565b9150613fdd82613f76565b604082019050919050565b6000602082019050818103600083015261400181613fc5565b9050919050565b7f4d696e746572526f6c653a2063616c6c657220646f6573206e6f74206861766560008201527f20746865204d696e74657220726f6c6500000000000000000000000000000000602082015250565b60006140646030836135be565b915061406f82614008565b604082019050919050565b6000602082019050818103600083015261409381614057565b9050919050565b7f455243313135353a20746f6b656e20616c726561647920637265617465640000600082015250565b60006140d0601e836135be565b91506140db8261409a565b602082019050919050565b600060208201905081810360008301526140ff816140c3565b9050919050565b7f455243313135353a206163636f756e747320616e6420696473206c656e67746860008201527f206d69736d617463680000000000000000000000000000000000000000000000602082015250565b60006141626029836135be565b915061416d82614106565b604082019050919050565b6000602082019050818103600083015261419181614155565b9050919050565b7f4e487b7100000000000000000000000000000000000000000000000000000000600052603260045260246000fd5b7f4e487b7100000000000000000000000000000000000000000000000000000000600052601160045260246000fd5b6000614201826132c9565b91507fffffffffffffffffffffffffffffffffffffffffffffffffffffffffffffffff821415614234576142336141c7565b5b600182019050919050565b7f455243313135353a206e6f6e6578697374656e7420746f6b656e000000000000600082015250565b6000614275601a836135be565b91506142808261423f565b602082019050919050565b600060208201905081810360008301526142a481614268565b9050919050565b7f4f776e61626c653a206e6577206f776e657220697320746865207a65726f206160008201527f6464726573730000000000000000000000000000000000000000000000000000602082015250565b60006143076026836135be565b9150614312826142ab565b604082019050919050565b60006020820190508181036000830152614336816142fa565b9050919050565b7f526f6c65733a206163636f756e7420616c72656164792068617320726f6c6500600082015250565b6000614373601f836135be565b915061437e8261433d565b602082019050919050565b600060208201905081810360008301526143a281614366565b9050919050565b7f455243313135353a2069647320616e6420616d6f756e7473206c656e6774682060008201527f6d69736d61746368000000000000000000000000000000000000000000000000602082015250565b60006144056028836135be565b9150614410826143a9565b604082019050919050565b60006020820190508181036000830152614434816143f8565b9050919050565b7f455243313135353a207472616e7366657220746f20746865207a65726f20616460008201527f6472657373000000000000000000000000000000000000000000000000000000602082015250565b60006144976025836135be565b91506144a28261443b565b604082019050919050565b600060208201905081810360008301526144c68161448a565b9050919050565b7f455243313135353a20696e73756666696369656e742062616c616e636520666f60008201527f72207472616e7366657200000000000000000000000000000000000000000000602082015250565b6000614529602a836135be565b9150614534826144cd565b604082019050919050565b600060208201905081810360008301526145588161451c565b9050919050565b600061456a826132c9565b9150614575836132c9565b9250827fffffffffffffffffffffffffffffffffffffffffffffffffffffffffffffffff038211156145aa576145a96141c7565b5b828201905092915050565b600060408201905081810360008301526145cf8185613acc565b905081810360208301526145e38184613acc565b90509392505050565b7f5061757361626c653a206e6f7420706175736564000000000000000000000000600082015250565b60006146226014836135be565b915061462d826145ec565b602082019050919050565b6000602082019050818103600083015261465181614615565b9050919050565b7f455243313135353a206d696e7420746f20746865207a65726f2061646472657360008201527f7300000000000000000000000000000000000000000000000000000000000000602082015250565b60006146b46021836135be565b91506146bf82614658565b604082019050919050565b600060208201905081810360008301526146e3816146a7565b9050919050565b60006040820190506146ff600083018561333f565b61470c602083018461333f565b9392505050565b7f455243313135353a206275726e2066726f6d20746865207a65726f206164647260008201527f6573730000000000000000000000000000000000000000000000000000000000602082015250565b600061476f6023836135be565b915061477a82614713565b604082019050919050565b6000602082019050818103600083015261479e81614762565b9050919050565b7f455243313135353a206275726e20616d6f756e7420657863656564732062616c60008201527f616e636500000000000000000000000000000000000000000000000000000000602082015250565b60006148016024836135be565b915061480c826147a5565b604082019050919050565b60006020820190508181036000830152614830816147f4565b9050919050565b7f5061757361626c653a2070617573656400000000000000000000000000000000600082015250565b600061486d6010836135be565b915061487882614837565b602082019050919050565b6000602082019050818103600083015261489c81614860565b9050919050565b7f455243313135353a2073657474696e6720617070726f76616c2073746174757360008201527f20666f722073656c660000000000000000000000000000000000000000000000602082015250565b60006148ff6029836135be565b915061490a826148a3565b604082019050919050565b6000602082019050818103600083015261492e816148f2565b9050919050565b7f526f6c65733a206163636f756e7420697320746865207a65726f20616464726560008201527f7373000000000000000000000000000000000000000000000000000000000000602082015250565b60006149916022836135be565b915061499c82614935565b604082019050919050565b600060208201905081810360008301526149c081614984565b9050919050565b600081519050919050565b600082825260208201905092915050565b60006149ee826149c7565b6149f881856149d2565b9350614a088185602086016135cf565b614a118161342e565b840191505092915050565b600060a082019050614a316000830188613c2a565b614a3e6020830187613c2a565b8181036040830152614a508186613acc565b90508181036060830152614a648185613acc565b90508181036080830152614a7881846149e3565b90509695505050505050565b600081519050614a9381613395565b92915050565b600060208284031215614aaf57614aae613261565b5b6000614abd84828501614a84565b91505092915050565b60008160e01c9050919050565b600060033d1115614af25760046000803e614aef600051614ac6565b90505b90565b600060443d1015614b0557614b88565b614b0d613257565b60043d036004823e80513d602482011167ffffffffffffffff82111715614b35575050614b88565b808201805167ffffffffffffffff811115614b535750505050614b88565b80602083010160043d038501811115614b70575050505050614b88565b614b7f8260200185018661346e565b82955050505050505b90565b7f455243313135353a207472616e7366657220746f206e6f6e204552433131353560008201527f526563656976657220696d706c656d656e746572000000000000000000000000602082015250565b6000614be76034836135be565b9150614bf282614b8b565b604082019050919050565b60006020820190508181036000830152614c1681614bda565b9050919050565b7f455243313135353a204552433131353552656365697665722072656a6563746560008201527f6420746f6b656e73000000000000000000000000000000000000000000000000602082015250565b6000614c796028836135be565b9150614c8482614c1d565b604082019050919050565b60006020820190508181036000830152614ca881614c6c565b9050919050565b600060a082019050614cc46000830188613c2a565b614cd16020830187613c2a565b614cde604083018661333f565b614ceb606083018561333f565b8181036080830152614cfd81846149e3565b90509695505050505050565b7f526f6c65733a206163636f756e7420646f6573206e6f74206861766520726f6c60008201527f6500000000000000000000000000000000000000000000000000000000000000602082015250565b6000614d656021836135be565b9150614d7082614d09565b604082019050919050565b60006020820190508181036000830152614d9481614d58565b9050919050565b7f455243313135353a206275726e20616d6f756e74206578636565647320746f7460008201527f616c537570706c79000000000000000000000000000000000000000000000000602082015250565b6000614df76028836135be565b9150614e0282614d9b565b604082019050919050565b60006020820190508181036000830152614e2681614dea565b905091905056fea2646970667358221220515253c5841914a5823ab73dcac975f4b870e76d14ff9d2964d1cd65ab90774964736f6c63430008090033",
  "linkReferences": {},
  "deployedLinkReferences": {}
}