{
  "_format": "hh-sol-artifact-1",
  "contractName": "ERC721Token",
  "sourceName": "contracts/token/ERC721/ERC721Token.sol",
  "abi": [
    {
      "inputs": [
        {
          "internalType": "string",
          "name": "name",
          "type": "string"
        },
        {
          "internalType": "string",
          "name": "symbol",
          "type": "string"
        }
      ],
      "stateMutability": "nonpayable",
      "type": "constructor"
    },
    {
      "anonymous": false,
      "inputs": [
        {
          "indexed": true,
          "internalType": "address",
          "name": "owner",
          "type": "address"
        },
        {
          "indexed": true,
          "internalType": "address",
          "name": "approved",
          "type": "address"
        },
        {
          "indexed": true,
          "internalType": "uint256",
          "name": "tokenId",
          "type": "uint256"
        }
      ],
      "name": "Approval",
      "type": "event"
    },
    {
      "anonymous": false,
      "inputs": [
        {
          "indexed": true,
          "internalType": "address",
          "name": "owner",
          "type": "address"
        },
        {
          "indexed": true,
          "internalType": "address",
          "name": "operator",
          "type": "address"
        },
        {
          "indexed": false,
          "internalType": "bool",
          "name": "approved",
          "type": "bool"
        }
      ],
      "name": "ApprovalForAll",
      "type": "event"
    },
    {
      "anonymous": false,
      "inputs": [
        {
          "indexed": true,
          "internalType": "address",
          "name": "account",
          "type": "address"
        }
      ],
      "name": "MinterAdded",
      "type": "event"
    },
    {
      "anonymous": false,
      "inputs": [
        {
          "indexed": true,
          "internalType": "address",
          "name": "account",
          "type": "address"
        }
      ],
      "name": "MinterRemoved",
      "type": "event"
    },
    {
      "anonymous": false,
      "inputs": [
        {
          "indexed": true,
          "internalType": "address",
          "name": "previousOwner",
          "type": "address"
        },
        {
          "indexed": true,
          "internalType": "address",
          "name": "newOwner",
          "type": "address"
        }
      ],
      "name": "OwnershipTransferred",
      "type": "event"
    },
    {
      "anonymous": false,
      "inputs": [
        {
          "indexed": false,
          "internalType": "address",
          "name": "account",
          "type": "address"
        }
      ],
      "name": "Paused",
      "type": "event"
    },
    {
      "anonymous": false,
      "inputs": [
        {
          "indexed": true,
          "internalType": "address",
          "name": "from",
          "type": "address"
        },
        {
          "indexed": true,
          "internalType": "address",
          "name": "to",
          "type": "address"
        },
        {
          "indexed": true,
          "internalType": "uint256",
          "name": "tokenId",
          "type": "uint256"
        }
      ],
      "name": "Transfer",
      "type": "event"
    },
    {
      "anonymous": false,
      "inputs": [
        {
          "indexed": false,
          "internalType": "address",
          "name": "account",
          "type": "address"
        }
      ],
      "name": "Unpaused",
      "type": "event"
    },
    {
      "inputs": [
        {
          "internalType": "address",
          "name": "account",
          "type": "address"
        }
      ],
      "name": "addMinter",
      "outputs": [],
      "stateMutability": "nonpayable",
      "type": "function"
    },
    {
      "inputs": [
        {
          "internalType": "address",
          "name": "to",
          "type": "address"
        },
        {
          "internalType": "uint256",
          "name": "tokenId",
          "type": "uint256"
        }
      ],
      "name": "approve",
      "outputs": [],
      "stateMutability": "nonpayable",
      "type": "function"
    },
    {
      "inputs": [
        {
          "internalType": "address",
          "name": "owner",
          "type": "address"
        }
      ],
      "name": "balanceOf",
      "outputs": [
        {
          "internalType": "uint256",
          "name": "",
          "type": "uint256"
        }
      ],
      "stateMutability": "view",
      "type": "function"
    },
    {
      "inputs": [
        {
          "internalType": "address",
          "name": "to",
          "type": "address"
        },
        {
          "internalType": "uint256[]",
          "name": "tokenIds",
          "type": "uint256[]"
        },
        {
          "internalType": "string[]",
          "name": "tokenURIs",
          "type": "string[]"
        }
      ],
      "name": "batchMintWithTokenURI",
      "outputs": [
        {
          "internalType": "bool",
          "name": "",
          "type": "bool"
        }
      ],
      "stateMutability": "nonpayable",
      "type": "function"
    },
    {
      "inputs": [
        {
          "internalType": "address",
          "name": "to",
          "type": "address"
        },
        {
          "internalType": "uint256[]",
          "name": "tokenIds",
          "type": "uint256[]"
        },
        {
          "internalType": "string",
          "name": "tokenURI",
          "type": "string"
        }
      ],
      "name": "batchMintWithTokenUriLight",
      "outputs": [
        {
          "internalType": "bool",
          "name": "",
          "type": "bool"
        }
      ],
      "stateMutability": "nonpayable",
      "type": "function"
    },
    {
      "inputs": [
        {
          "internalType": "uint256",
          "name": "tokenId",
          "type": "uint256"
        }
      ],
      "name": "burn",
      "outputs": [],
      "stateMutability": "nonpayable",
      "type": "function"
    },
    {
      "inputs": [
        {
          "internalType": "uint256",
          "name": "tokenId",
          "type": "uint256"
        }
      ],
      "name": "getApproved",
      "outputs": [
        {
          "internalType": "address",
          "name": "",
          "type": "address"
        }
      ],
      "stateMutability": "view",
      "type": "function"
    },
    {
      "inputs": [
        {
          "internalType": "address",
          "name": "owner",
          "type": "address"
        },
        {
          "internalType": "address",
          "name": "operator",
          "type": "address"
        }
      ],
      "name": "isApprovedForAll",
      "outputs": [
        {
          "internalType": "bool",
          "name": "",
          "type": "bool"
        }
      ],
      "stateMutability": "view",
      "type": "function"
    },
    {
      "inputs": [
        {
          "internalType": "address",
          "name": "account",
          "type": "address"
        }
      ],
      "name": "isMinter",
      "outputs": [
        {
          "internalType": "bool",
          "name": "",
          "type": "bool"
        }
      ],
      "stateMutability": "view",
      "type": "function"
    },
    {
      "inputs": [
        {
          "internalType": "address",
          "name": "to",
          "type": "address"
        },
        {
          "internalType": "uint256",
          "name": "tokenId",
          "type": "uint256"
        },
        {
          "internalType": "string",
          "name": "uri_",
          "type": "string"
        }
      ],
      "name": "mintWithTokenURI",
      "outputs": [
        {
          "internalType": "bool",
          "name": "",
          "type": "bool"
        }
      ],
      "stateMutability": "nonpayable",
      "type": "function"
    },
    {
      "inputs": [],
      "name": "name",
      "outputs": [
        {
          "internalType": "string",
          "name": "",
          "type": "string"
        }
      ],
      "stateMutability": "view",
      "type": "function"
    },
    {
      "inputs": [],
      "name": "owner",
      "outputs": [
        {
          "internalType": "address",
          "name": "",
          "type": "address"
        }
      ],
      "stateMutability": "view",
      "type": "function"
    },
    {
      "inputs": [
        {
          "internalType": "uint256",
          "name": "tokenId",
          "type": "uint256"
        }
      ],
      "name": "ownerOf",
      "outputs": [
        {
          "internalType": "address",
          "name": "",
          "type": "address"
        }
      ],
      "stateMutability": "view",
      "type": "function"
    },
    {
      "inputs": [],
      "name": "pause",
      "outputs": [],
      "stateMutability": "nonpayable",
      "type": "function"
    },
    {
      "inputs": [],
      "name": "paused",
      "outputs": [
        {
          "internalType": "bool",
          "name": "",
          "type": "bool"
        }
      ],
      "stateMutability": "view",
      "type": "function"
    },
    {
      "inputs": [],
      "name": "renounceMinter",
      "outputs": [],
      "stateMutability": "nonpayable",
      "type": "function"
    },
    {
      "inputs": [],
      "name": "renounceOwnership",
      "outputs": [],
      "stateMutability": "nonpayable",
      "type": "function"
    },
    {
      "inputs": [
        {
          "internalType": "address",
          "name": "to",
          "type": "address"
        },
        {
          "internalType": "uint256",
          "name": "tokenId",
          "type": "uint256"
        },
        {
          "internalType": "string",
          "name": "uri",
          "type": "string"
        }
      ],
      "name": "safeMint",
      "outputs": [],
      "stateMutability": "nonpayable",
      "type": "function"
    },
    {
      "inputs": [
        {
          "internalType": "address",
          "name": "from",
          "type": "address"
        },
        {
          "internalType": "address",
          "name": "to",
          "type": "address"
        },
        {
          "internalType": "uint256",
          "name": "tokenId",
          "type": "uint256"
        }
      ],
      "name": "safeTransferFrom",
      "outputs": [],
      "stateMutability": "nonpayable",
      "type": "function"
    },
    {
      "inputs": [
        {
          "internalType": "address",
          "name": "from",
          "type": "address"
        },
        {
          "internalType": "address",
          "name": "to",
          "type": "address"
        },
        {
          "internalType": "uint256",
          "name": "tokenId",
          "type": "uint256"
        },
        {
          "internalType": "bytes",
          "name": "data",
          "type": "bytes"
        }
      ],
      "name": "safeTransferFrom",
      "outputs": [],
      "stateMutability": "nonpayable",
      "type": "function"
    },
    {
      "inputs": [
        {
          "internalType": "address",
          "name": "operator",
          "type": "address"
        },
        {
          "internalType": "bool",
          "name": "approved",
          "type": "bool"
        }
      ],
      "name": "setApprovalForAll",
      "outputs": [],
      "stateMutability": "nonpayable",
      "type": "function"
    },
    {
      "inputs": [
        {
          "internalType": "bytes4",
          "name": "interfaceId",
          "type": "bytes4"
        }
      ],
      "name": "supportsInterface",
      "outputs": [
        {
          "internalType": "bool",
          "name": "",
          "type": "bool"
        }
      ],
      "stateMutability": "view",
      "type": "function"
    },
    {
      "inputs": [],
      "name": "symbol",
      "outputs": [
        {
          "internalType": "string",
          "name": "",
          "type": "string"
        }
      ],
      "stateMutability": "view",
      "type": "function"
    },
    {
      "inputs": [
        {
          "internalType": "uint256",
          "name": "tokenId",
          "type": "uint256"
        }
      ],
      "name": "tokenURI",
      "outputs": [
        {
          "internalType": "string",
          "name": "",
          "type": "string"
        }
      ],
      "stateMutability": "view",
      "type": "function"
    },
    {
      "inputs": [
        {
          "internalType": "address",
          "name": "from",
          "type": "address"
        },
        {
          "internalType": "address",
          "name": "to",
          "type": "address"
        },
        {
          "internalType": "uint256",
          "name": "tokenId",
          "type": "uint256"
        }
      ],
      "name": "transferFrom",
      "outputs": [],
      "stateMutability": "nonpayable",
      "type": "function"
    },
    {
      "inputs": [
        {
          "internalType": "address",
          "name": "newOwner",
          "type": "address"
        }
      ],
      "name": "transferOwnership",
      "outputs": [],
      "stateMutability": "nonpayable",
      "type": "function"
    },
    {
      "inputs": [],
      "name": "unpause",
      "outputs": [],
      "stateMutability": "nonpayable",
      "type": "function"
    }
  ],
  "bytecode": "0x60806040523480156200001157600080fd5b50604051620049b3380380620049b38339818101604052810190620000379190620005bb565b81818160009080519060200190620000519291906200036e565b5080600190805190602001906200006a9291906200036e565b5050506000600760006101000a81548160ff021916908315150217905550620000a86200009c620000c160201b60201c565b620000c960201b60201c565b620000b9336200018f60201b60201c565b5050620007c0565b600033905090565b6000600760019054906101000a900473ffffffffffffffffffffffffffffffffffffffff16905081600760016101000a81548173ffffffffffffffffffffffffffffffffffffffff021916908373ffffffffffffffffffffffffffffffffffffffff1602179055508173ffffffffffffffffffffffffffffffffffffffff168173ffffffffffffffffffffffffffffffffffffffff167f8be0079c531659141344cd1fd0a4f28419497f9722a3daafe3b4186f6b6457e060405160405180910390a35050565b620001aa816008620001f060201b620012501790919060201c565b8073ffffffffffffffffffffffffffffffffffffffff167f6ae172837ea30b801fbfcdd4108aa1d5bf8ff775444fd70256b44e6bf3dfc3f660405160405180910390a250565b620002028282620002a360201b60201c565b1562000245576040517f08c379a00000000000000000000000000000000000000000000000000000000081526004016200023c90620006a1565b60405180910390fd5b60018260000160008373ffffffffffffffffffffffffffffffffffffffff1673ffffffffffffffffffffffffffffffffffffffff16815260200190815260200160002060006101000a81548160ff0219169083151502179055505050565b60008073ffffffffffffffffffffffffffffffffffffffff168273ffffffffffffffffffffffffffffffffffffffff16141562000317576040517f08c379a00000000000000000000000000000000000000000000000000000000081526004016200030e9062000739565b60405180910390fd5b8260000160008373ffffffffffffffffffffffffffffffffffffffff1673ffffffffffffffffffffffffffffffffffffffff16815260200190815260200160002060009054906101000a900460ff16905092915050565b8280546200037c906200078a565b90600052602060002090601f016020900481019282620003a05760008555620003ec565b82601f10620003bb57805160ff1916838001178555620003ec565b82800160010185558215620003ec579182015b82811115620003eb578251825591602001919060010190620003ce565b5b509050620003fb9190620003ff565b5090565b5b808211156200041a57600081600090555060010162000400565b5090565b6000604051905090565b600080fd5b600080fd5b600080fd5b600080fd5b6000601f19601f8301169050919050565b7f4e487b7100000000000000000000000000000000000000000000000000000000600052604160045260246000fd5b62000487826200043c565b810181811067ffffffffffffffff82111715620004a957620004a86200044d565b5b80604052505050565b6000620004be6200041e565b9050620004cc82826200047c565b919050565b600067ffffffffffffffff821115620004ef57620004ee6200044d565b5b620004fa826200043c565b9050602081019050919050565b60005b83811015620005275780820151818401526020810190506200050a565b8381111562000537576000848401525b50505050565b6000620005546200054e84620004d1565b620004b2565b90508281526020810184848401111562000573576200057262000437565b5b6200058084828562000507565b509392505050565b600082601f830112620005a0576200059f62000432565b5b8151620005b28482602086016200053d565b91505092915050565b60008060408385031215620005d557620005d462000428565b5b600083015167ffffffffffffffff811115620005f657620005f56200042d565b5b620006048582860162000588565b925050602083015167ffffffffffffffff8111156200062857620006276200042d565b5b620006368582860162000588565b9150509250929050565b600082825260208201905092915050565b7f526f6c65733a206163636f756e7420616c72656164792068617320726f6c6500600082015250565b600062000689601f8362000640565b9150620006968262000651565b602082019050919050565b60006020820190508181036000830152620006bc816200067a565b9050919050565b7f526f6c65733a206163636f756e7420697320746865207a65726f20616464726560008201527f7373000000000000000000000000000000000000000000000000000000000000602082015250565b60006200072160228362000640565b91506200072e82620006c3565b604082019050919050565b60006020820190508181036000830152620007548162000712565b9050919050565b7f4e487b7100000000000000000000000000000000000000000000000000000000600052602260045260246000fd5b60006002820490506001821680620007a357607f821691505b60208210811415620007ba57620007b96200075b565b5b50919050565b6141e380620007d06000396000f3fe608060405234801561001057600080fd5b50600436106101a95760003560e01c80638456cb59116100f9578063acbdacda11610097578063c87b56dd11610071578063c87b56dd14610492578063cd279c7c146104c2578063e985e9c5146104de578063f2fde38b1461050e576101a9565b8063acbdacda14610416578063b88d4fde14610446578063be4f1ba914610462576101a9565b8063983b2d56116100d3578063983b2d56146103a457806398650275146103c0578063a22cb465146103ca578063aa271e1a146103e6576101a9565b80638456cb591461035e5780638da5cb5b1461036857806395d89b4114610386576101a9565b806342842e0e116101665780635c975abb116101405780635c975abb146102d65780636352211e146102f457806370a0823114610324578063715018a614610354576101a9565b806342842e0e1461026e57806342966c681461028a57806350bb4e7f146102a6576101a9565b806301ffc9a7146101ae57806306fdde03146101de578063081812fc146101fc578063095ea7b31461022c57806323b872dd146102485780633f4ba83a14610264575b600080fd5b6101c860048036038101906101c391906128a1565b61052a565b6040516101d591906128e9565b60405180910390f35b6101e661060c565b6040516101f3919061299d565b60405180910390f35b610216600480360381019061021191906129f5565b61069e565b6040516102239190612a63565b60405180910390f35b61024660048036038101906102419190612aaa565b610723565b005b610262600480360381019061025d9190612aea565b61083b565b005b61026c61089b565b005b61028860048036038101906102839190612aea565b610921565b005b6102a4600480360381019061029f91906129f5565b610941565b005b6102c060048036038101906102bb9190612c72565b61099d565b6040516102cd91906128e9565b60405180910390f35b6102de610a06565b6040516102eb91906128e9565b60405180910390f35b61030e600480360381019061030991906129f5565b610a1d565b60405161031b9190612a63565b60405180910390f35b61033e60048036038101906103399190612ce1565b610acf565b60405161034b9190612d1d565b60405180910390f35b61035c610b87565b005b610366610c0f565b005b610370610c95565b60405161037d9190612a63565b60405180910390f35b61038e610cbf565b60405161039b919061299d565b60405180910390f35b6103be60048036038101906103b99190612ce1565b610d51565b005b6103c8610da5565b005b6103e460048036038101906103df9190612d64565b610db0565b005b61040060048036038101906103fb9190612ce1565b610dc6565b60405161040d91906128e9565b60405180910390f35b610430600480360381019061042b9190612f4d565b610de3565b60405161043d91906128e9565b60405180910390f35b610460600480360381019061045b9190613079565b610efe565b005b61047c600480360381019061047791906130fc565b610f60565b60405161048991906128e9565b60405180910390f35b6104ac60048036038101906104a791906129f5565b61101d565b6040516104b9919061299d565b60405180910390f35b6104dc60048036038101906104d79190612c72565b61102f565b005b6104f860048036038101906104f39190613187565b6110c4565b60405161050591906128e9565b60405180910390f35b61052860048036038101906105239190612ce1565b611158565b005b60007f80ac58cd000000000000000000000000000000000000000000000000000000007bffffffffffffffffffffffffffffffffffffffffffffffffffffffff1916827bffffffffffffffffffffffffffffffffffffffffffffffffffffffff191614806105f557507f5b5e139f000000000000000000000000000000000000000000000000000000007bffffffffffffffffffffffffffffffffffffffffffffffffffffffff1916827bffffffffffffffffffffffffffffffffffffffffffffffffffffffff1916145b806106055750610604826112f8565b5b9050919050565b60606000805461061b906131f6565b80601f0160208091040260200160405190810160405280929190818152602001828054610647906131f6565b80156106945780601f1061066957610100808354040283529160200191610694565b820191906000526020600020905b81548152906001019060200180831161067757829003601f168201915b5050505050905090565b60006106a982611362565b6106e8576040517f08c379a00000000000000000000000000000000000000000000000000000000081526004016106df9061329a565b60405180910390fd5b6004600083815260200190815260200160002060009054906101000a900473ffffffffffffffffffffffffffffffffffffffff169050919050565b600061072e82610a1d565b90508073ffffffffffffffffffffffffffffffffffffffff168373ffffffffffffffffffffffffffffffffffffffff16141561079f576040517f08c379a00000000000000000000000000000000000000000000000000000000081526004016107969061332c565b60405180910390fd5b8073ffffffffffffffffffffffffffffffffffffffff166107be6113ce565b73ffffffffffffffffffffffffffffffffffffffff1614806107ed57506107ec816107e76113ce565b6110c4565b5b61082c576040517f08c379a0000000000000000000000000000000000000000000000000000000008152600401610823906133be565b60405180910390fd5b61083683836113d6565b505050565b61084c6108466113ce565b8261148f565b61088b576040517f08c379a000000000000000000000000000000000000000000000000000000000815260040161088290613450565b60405180910390fd5b610896838383611524565b505050565b6108a36113ce565b73ffffffffffffffffffffffffffffffffffffffff166108c1610c95565b73ffffffffffffffffffffffffffffffffffffffff1614610917576040517f08c379a000000000000000000000000000000000000000000000000000000000815260040161090e906134bc565b60405180910390fd5b61091f61178b565b565b61093c83838360405180602001604052806000815250610efe565b505050565b61095261094c6113ce565b8261148f565b610991576040517f08c379a000000000000000000000000000000000000000000000000000000000815260040161098890613450565b60405180910390fd5b61099a8161182d565b50565b60006109a833610dc6565b6109e7576040517f08c379a00000000000000000000000000000000000000000000000000000000081526004016109de9061354e565b60405180910390fd5b6109f18484611839565b6109fb8383611a13565b600190509392505050565b6000600760009054906101000a900460ff16905090565b6000806002600084815260200190815260200160002060009054906101000a900473ffffffffffffffffffffffffffffffffffffffff169050600073ffffffffffffffffffffffffffffffffffffffff168173ffffffffffffffffffffffffffffffffffffffff161415610ac6576040517f08c379a0000000000000000000000000000000000000000000000000000000008152600401610abd906135e0565b60405180910390fd5b80915050919050565b60008073ffffffffffffffffffffffffffffffffffffffff168273ffffffffffffffffffffffffffffffffffffffff161415610b40576040517f08c379a0000000000000000000000000000000000000000000000000000000008152600401610b3790613672565b60405180910390fd5b600360008373ffffffffffffffffffffffffffffffffffffffff1673ffffffffffffffffffffffffffffffffffffffff168152602001908152602001600020549050919050565b610b8f6113ce565b73ffffffffffffffffffffffffffffffffffffffff16610bad610c95565b73ffffffffffffffffffffffffffffffffffffffff1614610c03576040517f08c379a0000000000000000000000000000000000000000000000000000000008152600401610bfa906134bc565b60405180910390fd5b610c0d6000611a87565b565b610c176113ce565b73ffffffffffffffffffffffffffffffffffffffff16610c35610c95565b73ffffffffffffffffffffffffffffffffffffffff1614610c8b576040517f08c379a0000000000000000000000000000000000000000000000000000000008152600401610c82906134bc565b60405180910390fd5b610c93611b4d565b565b6000600760019054906101000a900473ffffffffffffffffffffffffffffffffffffffff16905090565b606060018054610cce906131f6565b80601f0160208091040260200160405190810160405280929190818152602001828054610cfa906131f6565b8015610d475780601f10610d1c57610100808354040283529160200191610d47565b820191906000526020600020905b815481529060010190602001808311610d2a57829003601f168201915b5050505050905090565b610d5a33610dc6565b610d99576040517f08c379a0000000000000000000000000000000000000000000000000000000008152600401610d909061354e565b60405180910390fd5b610da281611bf0565b50565b610dae33611c4a565b565b610dc2610dbb6113ce565b8383611ca4565b5050565b6000610ddc826008611e1190919063ffffffff16565b9050919050565b6000610dee33610dc6565b610e2d576040517f08c379a0000000000000000000000000000000000000000000000000000000008152600401610e249061354e565b60405180910390fd5b8151835114610e71576040517f08c379a0000000000000000000000000000000000000000000000000000000008152600401610e68906136de565b60405180910390fd5b60005b8351811015610ef257610ea185858381518110610e9457610e936136fe565b5b6020026020010151611839565b610edf848281518110610eb757610eb66136fe565b5b6020026020010151848381518110610ed257610ed16136fe565b5b6020026020010151611a13565b8080610eea9061375c565b915050610e74565b50600190509392505050565b610f0f610f096113ce565b8361148f565b610f4e576040517f08c379a0000000000000000000000000000000000000000000000000000000008152600401610f4590613450565b60405180910390fd5b610f5a84848484611ed9565b50505050565b6000610f6b33610dc6565b610faa576040517f08c379a0000000000000000000000000000000000000000000000000000000008152600401610fa19061354e565b60405180910390fd5b60005b835181101561101157610fda85858381518110610fcd57610fcc6136fe565b5b6020026020010151611839565b610ffe848281518110610ff057610fef6136fe565b5b602002602001015184611a13565b80806110099061375c565b915050610fad565b50600190509392505050565b606061102882611f35565b9050919050565b6110376113ce565b73ffffffffffffffffffffffffffffffffffffffff16611055610c95565b73ffffffffffffffffffffffffffffffffffffffff16146110ab576040517f08c379a00000000000000000000000000000000000000000000000000000000081526004016110a2906134bc565b60405180910390fd5b6110b58383612087565b6110bf8282611a13565b505050565b6000600560008473ffffffffffffffffffffffffffffffffffffffff1673ffffffffffffffffffffffffffffffffffffffff16815260200190815260200160002060008373ffffffffffffffffffffffffffffffffffffffff1673ffffffffffffffffffffffffffffffffffffffff16815260200190815260200160002060009054906101000a900460ff16905092915050565b6111606113ce565b73ffffffffffffffffffffffffffffffffffffffff1661117e610c95565b73ffffffffffffffffffffffffffffffffffffffff16146111d4576040517f08c379a00000000000000000000000000000000000000000000000000000000081526004016111cb906134bc565b60405180910390fd5b600073ffffffffffffffffffffffffffffffffffffffff168173ffffffffffffffffffffffffffffffffffffffff161415611244576040517f08c379a000000000000000000000000000000000000000000000000000000000815260040161123b90613817565b60405180910390fd5b61124d81611a87565b50565b61125a8282611e11565b1561129a576040517f08c379a000000000000000000000000000000000000000000000000000000000815260040161129190613883565b60405180910390fd5b60018260000160008373ffffffffffffffffffffffffffffffffffffffff1673ffffffffffffffffffffffffffffffffffffffff16815260200190815260200160002060006101000a81548160ff0219169083151502179055505050565b60007f01ffc9a7000000000000000000000000000000000000000000000000000000007bffffffffffffffffffffffffffffffffffffffffffffffffffffffff1916827bffffffffffffffffffffffffffffffffffffffffffffffffffffffff1916149050919050565b60008073ffffffffffffffffffffffffffffffffffffffff166002600084815260200190815260200160002060009054906101000a900473ffffffffffffffffffffffffffffffffffffffff1673ffffffffffffffffffffffffffffffffffffffff1614159050919050565b600033905090565b816004600083815260200190815260200160002060006101000a81548173ffffffffffffffffffffffffffffffffffffffff021916908373ffffffffffffffffffffffffffffffffffffffff160217905550808273ffffffffffffffffffffffffffffffffffffffff1661144983610a1d565b73ffffffffffffffffffffffffffffffffffffffff167f8c5be1e5ebec7d5bd14f71427d1e84f3dd0314c0f7b2291e5b200ac8c7c3b92560405160405180910390a45050565b60008061149b83610a1d565b90508073ffffffffffffffffffffffffffffffffffffffff168473ffffffffffffffffffffffffffffffffffffffff1614806114dd57506114dc81856110c4565b5b8061151b57508373ffffffffffffffffffffffffffffffffffffffff166115038461069e565b73ffffffffffffffffffffffffffffffffffffffff16145b91505092915050565b8273ffffffffffffffffffffffffffffffffffffffff1661154482610a1d565b73ffffffffffffffffffffffffffffffffffffffff161461159a576040517f08c379a000000000000000000000000000000000000000000000000000000000815260040161159190613915565b60405180910390fd5b600073ffffffffffffffffffffffffffffffffffffffff168273ffffffffffffffffffffffffffffffffffffffff16141561160a576040517f08c379a0000000000000000000000000000000000000000000000000000000008152600401611601906139a7565b60405180910390fd5b6116158383836120a5565b6116206000826113d6565b6001600360008573ffffffffffffffffffffffffffffffffffffffff1673ffffffffffffffffffffffffffffffffffffffff168152602001908152602001600020600082825461167091906139c7565b925050819055506001600360008473ffffffffffffffffffffffffffffffffffffffff1673ffffffffffffffffffffffffffffffffffffffff16815260200190815260200160002060008282546116c791906139fb565b92505081905550816002600083815260200190815260200160002060006101000a81548173ffffffffffffffffffffffffffffffffffffffff021916908373ffffffffffffffffffffffffffffffffffffffff160217905550808273ffffffffffffffffffffffffffffffffffffffff168473ffffffffffffffffffffffffffffffffffffffff167fddf252ad1be2c89b69c2b068fc378daa952ba7f163c4a11628f55a4df523b3ef60405160405180910390a46117868383836120fd565b505050565b611793610a06565b6117d2576040517f08c379a00000000000000000000000000000000000000000000000000000000081526004016117c990613a9d565b60405180910390fd5b6000600760006101000a81548160ff0219169083151502179055507f5db9ee0a495bf2e6ff9c91a7834c1ba4fdd244a5e8aa4e537bd38aeae4b073aa6118166113ce565b6040516118239190612a63565b60405180910390a1565b61183681612102565b50565b600073ffffffffffffffffffffffffffffffffffffffff168273ffffffffffffffffffffffffffffffffffffffff1614156118a9576040517f08c379a00000000000000000000000000000000000000000000000000000000081526004016118a090613b09565b60405180910390fd5b6118b281611362565b156118f2576040517f08c379a00000000000000000000000000000000000000000000000000000000081526004016118e990613b75565b60405180910390fd5b6118fe600083836120a5565b6001600360008473ffffffffffffffffffffffffffffffffffffffff1673ffffffffffffffffffffffffffffffffffffffff168152602001908152602001600020600082825461194e91906139fb565b92505081905550816002600083815260200190815260200160002060006101000a81548173ffffffffffffffffffffffffffffffffffffffff021916908373ffffffffffffffffffffffffffffffffffffffff160217905550808273ffffffffffffffffffffffffffffffffffffffff16600073ffffffffffffffffffffffffffffffffffffffff167fddf252ad1be2c89b69c2b068fc378daa952ba7f163c4a11628f55a4df523b3ef60405160405180910390a4611a0f600083836120fd565b5050565b611a1c82611362565b611a5b576040517f08c379a0000000000000000000000000000000000000000000000000000000008152600401611a5290613c07565b60405180910390fd5b80600660008481526020019081526020016000209080519060200190611a82929190612752565b505050565b6000600760019054906101000a900473ffffffffffffffffffffffffffffffffffffffff16905081600760016101000a81548173ffffffffffffffffffffffffffffffffffffffff021916908373ffffffffffffffffffffffffffffffffffffffff1602179055508173ffffffffffffffffffffffffffffffffffffffff168173ffffffffffffffffffffffffffffffffffffffff167f8be0079c531659141344cd1fd0a4f28419497f9722a3daafe3b4186f6b6457e060405160405180910390a35050565b611b55610a06565b15611b95576040517f08c379a0000000000000000000000000000000000000000000000000000000008152600401611b8c90613c73565b60405180910390fd5b6001600760006101000a81548160ff0219169083151502179055507f62e78cea01bee320cd4e420270b5ea74000d11b0c9f74754ebdbfc544b05a258611bd96113ce565b604051611be69190612a63565b60405180910390a1565b611c0481600861125090919063ffffffff16565b8073ffffffffffffffffffffffffffffffffffffffff167f6ae172837ea30b801fbfcdd4108aa1d5bf8ff775444fd70256b44e6bf3dfc3f660405160405180910390a250565b611c5e81600861215590919063ffffffff16565b8073ffffffffffffffffffffffffffffffffffffffff167fe94479a9f7e1952cc78f2d6baab678adc1b772d936c6583def489e524cb6669260405160405180910390a250565b8173ffffffffffffffffffffffffffffffffffffffff168373ffffffffffffffffffffffffffffffffffffffff161415611d13576040517f08c379a0000000000000000000000000000000000000000000000000000000008152600401611d0a90613cdf565b60405180910390fd5b80600560008573ffffffffffffffffffffffffffffffffffffffff1673ffffffffffffffffffffffffffffffffffffffff16815260200190815260200160002060008473ffffffffffffffffffffffffffffffffffffffff1673ffffffffffffffffffffffffffffffffffffffff16815260200190815260200160002060006101000a81548160ff0219169083151502179055508173ffffffffffffffffffffffffffffffffffffffff168373ffffffffffffffffffffffffffffffffffffffff167f17307eab39ab6107e8899845ad3d59bd9653f200f220920489ca2b5937696c3183604051611e0491906128e9565b60405180910390a3505050565b60008073ffffffffffffffffffffffffffffffffffffffff168273ffffffffffffffffffffffffffffffffffffffff161415611e82576040517f08c379a0000000000000000000000000000000000000000000000000000000008152600401611e7990613d71565b60405180910390fd5b8260000160008373ffffffffffffffffffffffffffffffffffffffff1673ffffffffffffffffffffffffffffffffffffffff16815260200190815260200160002060009054906101000a900460ff16905092915050565b611ee4848484611524565b611ef0848484846121fc565b611f2f576040517f08c379a0000000000000000000000000000000000000000000000000000000008152600401611f2690613e03565b60405180910390fd5b50505050565b6060611f4082611362565b611f7f576040517f08c379a0000000000000000000000000000000000000000000000000000000008152600401611f7690613e95565b60405180910390fd5b6000600660008481526020019081526020016000208054611f9f906131f6565b80601f0160208091040260200160405190810160405280929190818152602001828054611fcb906131f6565b80156120185780601f10611fed57610100808354040283529160200191612018565b820191906000526020600020905b815481529060010190602001808311611ffb57829003601f168201915b505050505090506000612029612393565b905060008151141561203f578192505050612082565b60008251111561207457808260405160200161205c929190613ef1565b60405160208183030381529060405292505050612082565b61207d846123aa565b925050505b919050565b6120a1828260405180602001604052806000815250612451565b5050565b6120ad610a06565b156120ed576040517f08c379a00000000000000000000000000000000000000000000000000000000081526004016120e490613c73565b60405180910390fd5b6120f88383836124ac565b505050565b505050565b61210b816124b1565b600060066000838152602001908152602001600020805461212b906131f6565b9050146121525760066000828152602001908152602001600020600061215191906127d8565b5b50565b61215f8282611e11565b61219e576040517f08c379a000000000000000000000000000000000000000000000000000000000815260040161219590613f87565b60405180910390fd5b60008260000160008373ffffffffffffffffffffffffffffffffffffffff1673ffffffffffffffffffffffffffffffffffffffff16815260200190815260200160002060006101000a81548160ff0219169083151502179055505050565b600061221d8473ffffffffffffffffffffffffffffffffffffffff166125ce565b15612386578373ffffffffffffffffffffffffffffffffffffffff1663150b7a026122466113ce565b8786866040518563ffffffff1660e01b81526004016122689493929190613ffc565b602060405180830381600087803b15801561228257600080fd5b505af19250505080156122b357506040513d601f19601f820116820180604052508101906122b0919061405d565b60015b612336573d80600081146122e3576040519150601f19603f3d011682016040523d82523d6000602084013e6122e8565b606091505b5060008151141561232e576040517f08c379a000000000000000000000000000000000000000000000000000000000815260040161232590613e03565b60405180910390fd5b805181602001fd5b63150b7a0260e01b7bffffffffffffffffffffffffffffffffffffffffffffffffffffffff1916817bffffffffffffffffffffffffffffffffffffffffffffffffffffffff19161491505061238b565b600190505b949350505050565b606060405180602001604052806000815250905090565b60606123b582611362565b6123f4576040517f08c379a00000000000000000000000000000000000000000000000000000000081526004016123eb906140fc565b60405180910390fd5b60006123fe612393565b9050600081511161241e5760405180602001604052806000815250612449565b80612428846125f1565b604051602001612439929190613ef1565b6040516020818303038152906040525b915050919050565b61245b8383611839565b61246860008484846121fc565b6124a7576040517f08c379a000000000000000000000000000000000000000000000000000000000815260040161249e90613e03565b60405180910390fd5b505050565b505050565b60006124bc82610a1d565b90506124ca816000846120a5565b6124d56000836113d6565b6001600360008373ffffffffffffffffffffffffffffffffffffffff1673ffffffffffffffffffffffffffffffffffffffff168152602001908152602001600020600082825461252591906139c7565b925050819055506002600083815260200190815260200160002060006101000a81549073ffffffffffffffffffffffffffffffffffffffff021916905581600073ffffffffffffffffffffffffffffffffffffffff168273ffffffffffffffffffffffffffffffffffffffff167fddf252ad1be2c89b69c2b068fc378daa952ba7f163c4a11628f55a4df523b3ef60405160405180910390a46125ca816000846120fd565b5050565b6000808273ffffffffffffffffffffffffffffffffffffffff163b119050919050565b60606000821415612639576040518060400160405280600181526020017f3000000000000000000000000000000000000000000000000000000000000000815250905061274d565b600082905060005b6000821461266b5780806126549061375c565b915050600a82612664919061414b565b9150612641565b60008167ffffffffffffffff81111561268757612686612b47565b5b6040519080825280601f01601f1916602001820160405280156126b95781602001600182028036833780820191505090505b5090505b60008514612746576001826126d291906139c7565b9150600a856126e1919061417c565b60306126ed91906139fb565b60f81b818381518110612703576127026136fe565b5b60200101907effffffffffffffffffffffffffffffffffffffffffffffffffffffffffffff1916908160001a905350600a8561273f919061414b565b94506126bd565b8093505050505b919050565b82805461275e906131f6565b90600052602060002090601f01602090048101928261278057600085556127c7565b82601f1061279957805160ff19168380011785556127c7565b828001600101855582156127c7579182015b828111156127c65782518255916020019190600101906127ab565b5b5090506127d49190612818565b5090565b5080546127e4906131f6565b6000825580601f106127f65750612815565b601f0160209004906000526020600020908101906128149190612818565b5b50565b5b80821115612831576000816000905550600101612819565b5090565b6000604051905090565b600080fd5b600080fd5b60007fffffffff0000000000000000000000000000000000000000000000000000000082169050919050565b61287e81612849565b811461288957600080fd5b50565b60008135905061289b81612875565b92915050565b6000602082840312156128b7576128b661283f565b5b60006128c58482850161288c565b91505092915050565b60008115159050919050565b6128e3816128ce565b82525050565b60006020820190506128fe60008301846128da565b92915050565b600081519050919050565b600082825260208201905092915050565b60005b8381101561293e578082015181840152602081019050612923565b8381111561294d576000848401525b50505050565b6000601f19601f8301169050919050565b600061296f82612904565b612979818561290f565b9350612989818560208601612920565b61299281612953565b840191505092915050565b600060208201905081810360008301526129b78184612964565b905092915050565b6000819050919050565b6129d2816129bf565b81146129dd57600080fd5b50565b6000813590506129ef816129c9565b92915050565b600060208284031215612a0b57612a0a61283f565b5b6000612a19848285016129e0565b91505092915050565b600073ffffffffffffffffffffffffffffffffffffffff82169050919050565b6000612a4d82612a22565b9050919050565b612a5d81612a42565b82525050565b6000602082019050612a786000830184612a54565b92915050565b612a8781612a42565b8114612a9257600080fd5b50565b600081359050612aa481612a7e565b92915050565b60008060408385031215612ac157612ac061283f565b5b6000612acf85828601612a95565b9250506020612ae0858286016129e0565b9150509250929050565b600080600060608486031215612b0357612b0261283f565b5b6000612b1186828701612a95565b9350506020612b2286828701612a95565b9250506040612b33868287016129e0565b9150509250925092565b600080fd5b600080fd5b7f4e487b7100000000000000000000000000000000000000000000000000000000600052604160045260246000fd5b612b7f82612953565b810181811067ffffffffffffffff82111715612b9e57612b9d612b47565b5b80604052505050565b6000612bb1612835565b9050612bbd8282612b76565b919050565b600067ffffffffffffffff821115612bdd57612bdc612b47565b5b612be682612953565b9050602081019050919050565b82818337600083830152505050565b6000612c15612c1084612bc2565b612ba7565b905082815260208101848484011115612c3157612c30612b42565b5b612c3c848285612bf3565b509392505050565b600082601f830112612c5957612c58612b3d565b5b8135612c69848260208601612c02565b91505092915050565b600080600060608486031215612c8b57612c8a61283f565b5b6000612c9986828701612a95565b9350506020612caa868287016129e0565b925050604084013567ffffffffffffffff811115612ccb57612cca612844565b5b612cd786828701612c44565b9150509250925092565b600060208284031215612cf757612cf661283f565b5b6000612d0584828501612a95565b91505092915050565b612d17816129bf565b82525050565b6000602082019050612d326000830184612d0e565b92915050565b612d41816128ce565b8114612d4c57600080fd5b50565b600081359050612d5e81612d38565b92915050565b60008060408385031215612d7b57612d7a61283f565b5b6000612d8985828601612a95565b9250506020612d9a85828601612d4f565b9150509250929050565b600067ffffffffffffffff821115612dbf57612dbe612b47565b5b602082029050602081019050919050565b600080fd5b6000612de8612de384612da4565b612ba7565b90508083825260208201905060208402830185811115612e0b57612e0a612dd0565b5b835b81811015612e345780612e2088826129e0565b845260208401935050602081019050612e0d565b5050509392505050565b600082601f830112612e5357612e52612b3d565b5b8135612e63848260208601612dd5565b91505092915050565b600067ffffffffffffffff821115612e8757612e86612b47565b5b602082029050602081019050919050565b6000612eab612ea684612e6c565b612ba7565b90508083825260208201905060208402830185811115612ece57612ecd612dd0565b5b835b81811015612f1557803567ffffffffffffffff811115612ef357612ef2612b3d565b5b808601612f008982612c44565b85526020850194505050602081019050612ed0565b5050509392505050565b600082601f830112612f3457612f33612b3d565b5b8135612f44848260208601612e98565b91505092915050565b600080600060608486031215612f6657612f6561283f565b5b6000612f7486828701612a95565b935050602084013567ffffffffffffffff811115612f9557612f94612844565b5b612fa186828701612e3e565b925050604084013567ffffffffffffffff811115612fc257612fc1612844565b5b612fce86828701612f1f565b9150509250925092565b600067ffffffffffffffff821115612ff357612ff2612b47565b5b612ffc82612953565b9050602081019050919050565b600061301c61301784612fd8565b612ba7565b90508281526020810184848401111561303857613037612b42565b5b613043848285612bf3565b509392505050565b600082601f8301126130605761305f612b3d565b5b8135613070848260208601613009565b91505092915050565b600080600080608085870312156130935761309261283f565b5b60006130a187828801612a95565b94505060206130b287828801612a95565b93505060406130c3878288016129e0565b925050606085013567ffffffffffffffff8111156130e4576130e3612844565b5b6130f08782880161304b565b91505092959194509250565b6000806000606084860312156131155761311461283f565b5b600061312386828701612a95565b935050602084013567ffffffffffffffff81111561314457613143612844565b5b61315086828701612e3e565b925050604084013567ffffffffffffffff81111561317157613170612844565b5b61317d86828701612c44565b9150509250925092565b6000806040838503121561319e5761319d61283f565b5b60006131ac85828601612a95565b92505060206131bd85828601612a95565b9150509250929050565b7f4e487b7100000000000000000000000000000000000000000000000000000000600052602260045260246000fd5b6000600282049050600182168061320e57607f821691505b60208210811415613222576132216131c7565b5b50919050565b7f4552433732313a20617070726f76656420717565727920666f72206e6f6e657860008201527f697374656e7420746f6b656e0000000000000000000000000000000000000000602082015250565b6000613284602c8361290f565b915061328f82613228565b604082019050919050565b600060208201905081810360008301526132b381613277565b9050919050565b7f4552433732313a20617070726f76616c20746f2063757272656e74206f776e6560008201527f7200000000000000000000000000000000000000000000000000000000000000602082015250565b600061331660218361290f565b9150613321826132ba565b604082019050919050565b6000602082019050818103600083015261334581613309565b9050919050565b7f4552433732313a20617070726f76652063616c6c6572206973206e6f7420746f60008201527f6b656e206f776e6572206e6f7220617070726f76656420666f7220616c6c0000602082015250565b60006133a8603e8361290f565b91506133b38261334c565b604082019050919050565b600060208201905081810360008301526133d78161339b565b9050919050565b7f4552433732313a2063616c6c6572206973206e6f7420746f6b656e206f776e6560008201527f72206e6f7220617070726f766564000000000000000000000000000000000000602082015250565b600061343a602e8361290f565b9150613445826133de565b604082019050919050565b600060208201905081810360008301526134698161342d565b9050919050565b7f4f776e61626c653a2063616c6c6572206973206e6f7420746865206f776e6572600082015250565b60006134a660208361290f565b91506134b182613470565b602082019050919050565b600060208201905081810360008301526134d581613499565b9050919050565b7f4d696e746572526f6c653a2063616c6c657220646f6573206e6f74206861766560008201527f20746865204d696e74657220726f6c6500000000000000000000000000000000602082015250565b600061353860308361290f565b9150613543826134dc565b604082019050919050565b600060208201905081810360008301526135678161352b565b9050919050565b7f4552433732313a206f776e657220717565727920666f72206e6f6e657869737460008201527f656e7420746f6b656e0000000000000000000000000000000000000000000000602082015250565b60006135ca60298361290f565b91506135d58261356e565b604082019050919050565b600060208201905081810360008301526135f9816135bd565b9050919050565b7f4552433732313a2061646472657373207a65726f206973206e6f74206120766160008201527f6c6964206f776e65720000000000000000000000000000000000000000000000602082015250565b600061365c60298361290f565b915061366782613600565b604082019050919050565b6000602082019050818103600083015261368b8161364f565b9050919050565b7f6172726179206c656e67746820697320646966666572656e7400000000000000600082015250565b60006136c860198361290f565b91506136d382613692565b602082019050919050565b600060208201905081810360008301526136f7816136bb565b9050919050565b7f4e487b7100000000000000000000000000000000000000000000000000000000600052603260045260246000fd5b7f4e487b7100000000000000000000000000000000000000000000000000000000600052601160045260246000fd5b6000613767826129bf565b91507fffffffffffffffffffffffffffffffffffffffffffffffffffffffffffffffff82141561379a5761379961372d565b5b600182019050919050565b7f4f776e61626c653a206e6577206f776e657220697320746865207a65726f206160008201527f6464726573730000000000000000000000000000000000000000000000000000602082015250565b600061380160268361290f565b915061380c826137a5565b604082019050919050565b60006020820190508181036000830152613830816137f4565b9050919050565b7f526f6c65733a206163636f756e7420616c72656164792068617320726f6c6500600082015250565b600061386d601f8361290f565b915061387882613837565b602082019050919050565b6000602082019050818103600083015261389c81613860565b9050919050565b7f4552433732313a207472616e736665722066726f6d20696e636f72726563742060008201527f6f776e6572000000000000000000000000000000000000000000000000000000602082015250565b60006138ff60258361290f565b915061390a826138a3565b604082019050919050565b6000602082019050818103600083015261392e816138f2565b9050919050565b7f4552433732313a207472616e7366657220746f20746865207a65726f2061646460008201527f7265737300000000000000000000000000000000000000000000000000000000602082015250565b600061399160248361290f565b915061399c82613935565b604082019050919050565b600060208201905081810360008301526139c081613984565b9050919050565b60006139d2826129bf565b91506139dd836129bf565b9250828210156139f0576139ef61372d565b5b828203905092915050565b6000613a06826129bf565b9150613a11836129bf565b9250827fffffffffffffffffffffffffffffffffffffffffffffffffffffffffffffffff03821115613a4657613a4561372d565b5b828201905092915050565b7f5061757361626c653a206e6f7420706175736564000000000000000000000000600082015250565b6000613a8760148361290f565b9150613a9282613a51565b602082019050919050565b60006020820190508181036000830152613ab681613a7a565b9050919050565b7f4552433732313a206d696e7420746f20746865207a65726f2061646472657373600082015250565b6000613af360208361290f565b9150613afe82613abd565b602082019050919050565b60006020820190508181036000830152613b2281613ae6565b9050919050565b7f4552433732313a20746f6b656e20616c7265616479206d696e74656400000000600082015250565b6000613b5f601c8361290f565b9150613b6a82613b29565b602082019050919050565b60006020820190508181036000830152613b8e81613b52565b9050919050565b7f45524337323155524953746f726167653a2055524920736574206f66206e6f6e60008201527f6578697374656e7420746f6b656e000000000000000000000000000000000000602082015250565b6000613bf1602e8361290f565b9150613bfc82613b95565b604082019050919050565b60006020820190508181036000830152613c2081613be4565b9050919050565b7f5061757361626c653a2070617573656400000000000000000000000000000000600082015250565b6000613c5d60108361290f565b9150613c6882613c27565b602082019050919050565b60006020820190508181036000830152613c8c81613c50565b9050919050565b7f4552433732313a20617070726f766520746f2063616c6c657200000000000000600082015250565b6000613cc960198361290f565b9150613cd482613c93565b602082019050919050565b60006020820190508181036000830152613cf881613cbc565b9050919050565b7f526f6c65733a206163636f756e7420697320746865207a65726f20616464726560008201527f7373000000000000000000000000000000000000000000000000000000000000602082015250565b6000613d5b60228361290f565b9150613d6682613cff565b604082019050919050565b60006020820190508181036000830152613d8a81613d4e565b9050919050565b7f4552433732313a207472616e7366657220746f206e6f6e20455243373231526560008201527f63656976657220696d706c656d656e7465720000000000000000000000000000602082015250565b6000613ded60328361290f565b9150613df882613d91565b604082019050919050565b60006020820190508181036000830152613e1c81613de0565b9050919050565b7f45524337323155524953746f726167653a2055524920717565727920666f722060008201527f6e6f6e6578697374656e7420746f6b656e000000000000000000000000000000602082015250565b6000613e7f60318361290f565b9150613e8a82613e23565b604082019050919050565b60006020820190508181036000830152613eae81613e72565b9050919050565b600081905092915050565b6000613ecb82612904565b613ed58185613eb5565b9350613ee5818560208601612920565b80840191505092915050565b6000613efd8285613ec0565b9150613f098284613ec0565b91508190509392505050565b7f526f6c65733a206163636f756e7420646f6573206e6f74206861766520726f6c60008201527f6500000000000000000000000000000000000000000000000000000000000000602082015250565b6000613f7160218361290f565b9150613f7c82613f15565b604082019050919050565b60006020820190508181036000830152613fa081613f64565b9050919050565b600081519050919050565b600082825260208201905092915050565b6000613fce82613fa7565b613fd88185613fb2565b9350613fe8818560208601612920565b613ff181612953565b840191505092915050565b60006080820190506140116000830187612a54565b61401e6020830186612a54565b61402b6040830185612d0e565b818103606083015261403d8184613fc3565b905095945050505050565b60008151905061405781612875565b92915050565b6000602082840312156140735761407261283f565b5b600061408184828501614048565b91505092915050565b7f4552433732314d657461646174613a2055524920717565727920666f72206e6f60008201527f6e6578697374656e7420746f6b656e0000000000000000000000000000000000602082015250565b60006140e6602f8361290f565b91506140f18261408a565b604082019050919050565b60006020820190508181036000830152614115816140d9565b9050919050565b7f4e487b7100000000000000000000000000000000000000000000000000000000600052601260045260246000fd5b6000614156826129bf565b9150614161836129bf565b9250826141715761417061411c565b5b828204905092915050565b6000614187826129bf565b9150614192836129bf565b9250826141a2576141a161411c565b5b82820690509291505056fea2646970667358221220e3f702d9c5dde13cc778fcebf3db9b7906a684fb9df8726f298df5c6adc2f04764736f6c63430008090033",
  "linkReferences": {},
  "deployedLinkReferences": {}
}