{
  "_format": "hh-sol-artifact-1",
  "contractName": "ERC721Token",
  "sourceName": "contracts/token/ERC721/ERC721Token.sol",
  "abi": [
    {
      "inputs": [
        {
          "internalType": "string",
          "name": "name",
          "type": "string"
        },
        {
          "internalType": "string",
          "name": "symbol",
          "type": "string"
        }
      ],
      "stateMutability": "nonpayable",
      "type": "constructor"
    },
    {
      "anonymous": false,
      "inputs": [
        {
          "indexed": true,
          "internalType": "address",
          "name": "owner",
          "type": "address"
        },
        {
          "indexed": true,
          "internalType": "address",
          "name": "approved",
          "type": "address"
        },
        {
          "indexed": true,
          "internalType": "uint256",
          "name": "tokenId",
          "type": "uint256"
        }
      ],
      "name": "Approval",
      "type": "event"
    },
    {
      "anonymous": false,
      "inputs": [
        {
          "indexed": true,
          "internalType": "address",
          "name": "owner",
          "type": "address"
        },
        {
          "indexed": true,
          "internalType": "address",
          "name": "operator",
          "type": "address"
        },
        {
          "indexed": false,
          "internalType": "bool",
          "name": "approved",
          "type": "bool"
        }
      ],
      "name": "ApprovalForAll",
      "type": "event"
    },
    {
      "anonymous": false,
      "inputs": [
        {
          "indexed": true,
          "internalType": "address",
          "name": "account",
          "type": "address"
        }
      ],
      "name": "MinterAdded",
      "type": "event"
    },
    {
      "anonymous": false,
      "inputs": [
        {
          "indexed": true,
          "internalType": "address",
          "name": "account",
          "type": "address"
        }
      ],
      "name": "MinterRemoved",
      "type": "event"
    },
    {
      "anonymous": false,
      "inputs": [
        {
          "indexed": true,
          "internalType": "address",
          "name": "previousOwner",
          "type": "address"
        },
        {
          "indexed": true,
          "internalType": "address",
          "name": "newOwner",
          "type": "address"
        }
      ],
      "name": "OwnershipTransferred",
      "type": "event"
    },
    {
      "anonymous": false,
      "inputs": [
        {
          "indexed": false,
          "internalType": "address",
          "name": "account",
          "type": "address"
        }
      ],
      "name": "Paused",
      "type": "event"
    },
    {
      "anonymous": false,
      "inputs": [
        {
          "indexed": true,
          "internalType": "address",
          "name": "from",
          "type": "address"
        },
        {
          "indexed": true,
          "internalType": "address",
          "name": "to",
          "type": "address"
        },
        {
          "indexed": true,
          "internalType": "uint256",
          "name": "tokenId",
          "type": "uint256"
        }
      ],
      "name": "Transfer",
      "type": "event"
    },
    {
      "anonymous": false,
      "inputs": [
        {
          "indexed": false,
          "internalType": "address",
          "name": "account",
          "type": "address"
        }
      ],
      "name": "Unpaused",
      "type": "event"
    },
    {
      "inputs": [
        {
          "internalType": "address",
          "name": "account",
          "type": "address"
        }
      ],
      "name": "addMinter",
      "outputs": [],
      "stateMutability": "nonpayable",
      "type": "function"
    },
    {
      "inputs": [
        {
          "internalType": "address",
          "name": "to",
          "type": "address"
        },
        {
          "internalType": "uint256",
          "name": "tokenId",
          "type": "uint256"
        }
      ],
      "name": "approve",
      "outputs": [],
      "stateMutability": "nonpayable",
      "type": "function"
    },
    {
      "inputs": [
        {
          "internalType": "address",
          "name": "owner",
          "type": "address"
        }
      ],
      "name": "balanceOf",
      "outputs": [
        {
          "internalType": "uint256",
          "name": "",
          "type": "uint256"
        }
      ],
      "stateMutability": "view",
      "type": "function"
    },
    {
      "inputs": [
        {
          "internalType": "address",
          "name": "to",
          "type": "address"
        },
        {
          "internalType": "uint256[]",
          "name": "tokenIds",
          "type": "uint256[]"
        },
        {
          "internalType": "string[]",
          "name": "tokenURIs",
          "type": "string[]"
        }
      ],
      "name": "batchMintWithTokenURI",
      "outputs": [
        {
          "internalType": "bool",
          "name": "",
          "type": "bool"
        }
      ],
      "stateMutability": "nonpayable",
      "type": "function"
    },
    {
      "inputs": [
        {
          "internalType": "uint256",
          "name": "tokenId",
          "type": "uint256"
        }
      ],
      "name": "burn",
      "outputs": [],
      "stateMutability": "nonpayable",
      "type": "function"
    },
    {
      "inputs": [
        {
          "internalType": "uint256",
          "name": "tokenId",
          "type": "uint256"
        }
      ],
      "name": "getApproved",
      "outputs": [
        {
          "internalType": "address",
          "name": "",
          "type": "address"
        }
      ],
      "stateMutability": "view",
      "type": "function"
    },
    {
      "inputs": [
        {
          "internalType": "address",
          "name": "owner",
          "type": "address"
        },
        {
          "internalType": "address",
          "name": "operator",
          "type": "address"
        }
      ],
      "name": "isApprovedForAll",
      "outputs": [
        {
          "internalType": "bool",
          "name": "",
          "type": "bool"
        }
      ],
      "stateMutability": "view",
      "type": "function"
    },
    {
      "inputs": [
        {
          "internalType": "address",
          "name": "account",
          "type": "address"
        }
      ],
      "name": "isMinter",
      "outputs": [
        {
          "internalType": "bool",
          "name": "",
          "type": "bool"
        }
      ],
      "stateMutability": "view",
      "type": "function"
    },
    {
      "inputs": [
        {
          "internalType": "address",
          "name": "to",
          "type": "address"
        },
        {
          "internalType": "uint256",
          "name": "tokenId",
          "type": "uint256"
        },
        {
          "internalType": "string",
          "name": "uri_",
          "type": "string"
        }
      ],
      "name": "mintWithTokenURI",
      "outputs": [
        {
          "internalType": "bool",
          "name": "",
          "type": "bool"
        }
      ],
      "stateMutability": "nonpayable",
      "type": "function"
    },
    {
      "inputs": [],
      "name": "name",
      "outputs": [
        {
          "internalType": "string",
          "name": "",
          "type": "string"
        }
      ],
      "stateMutability": "view",
      "type": "function"
    },
    {
      "inputs": [],
      "name": "owner",
      "outputs": [
        {
          "internalType": "address",
          "name": "",
          "type": "address"
        }
      ],
      "stateMutability": "view",
      "type": "function"
    },
    {
      "inputs": [
        {
          "internalType": "uint256",
          "name": "tokenId",
          "type": "uint256"
        }
      ],
      "name": "ownerOf",
      "outputs": [
        {
          "internalType": "address",
          "name": "",
          "type": "address"
        }
      ],
      "stateMutability": "view",
      "type": "function"
    },
    {
      "inputs": [],
      "name": "pause",
      "outputs": [],
      "stateMutability": "nonpayable",
      "type": "function"
    },
    {
      "inputs": [],
      "name": "paused",
      "outputs": [
        {
          "internalType": "bool",
          "name": "",
          "type": "bool"
        }
      ],
      "stateMutability": "view",
      "type": "function"
    },
    {
      "inputs": [],
      "name": "renounceMinter",
      "outputs": [],
      "stateMutability": "nonpayable",
      "type": "function"
    },
    {
      "inputs": [],
      "name": "renounceOwnership",
      "outputs": [],
      "stateMutability": "nonpayable",
      "type": "function"
    },
    {
      "inputs": [
        {
          "internalType": "address",
          "name": "to",
          "type": "address"
        },
        {
          "internalType": "uint256",
          "name": "tokenId",
          "type": "uint256"
        },
        {
          "internalType": "string",
          "name": "uri",
          "type": "string"
        }
      ],
      "name": "safeMint",
      "outputs": [],
      "stateMutability": "nonpayable",
      "type": "function"
    },
    {
      "inputs": [
        {
          "internalType": "address",
          "name": "from",
          "type": "address"
        },
        {
          "internalType": "address",
          "name": "to",
          "type": "address"
        },
        {
          "internalType": "uint256",
          "name": "tokenId",
          "type": "uint256"
        }
      ],
      "name": "safeTransferFrom",
      "outputs": [],
      "stateMutability": "nonpayable",
      "type": "function"
    },
    {
      "inputs": [
        {
          "internalType": "address",
          "name": "from",
          "type": "address"
        },
        {
          "internalType": "address",
          "name": "to",
          "type": "address"
        },
        {
          "internalType": "uint256",
          "name": "tokenId",
          "type": "uint256"
        },
        {
          "internalType": "bytes",
          "name": "data",
          "type": "bytes"
        }
      ],
      "name": "safeTransferFrom",
      "outputs": [],
      "stateMutability": "nonpayable",
      "type": "function"
    },
    {
      "inputs": [
        {
          "internalType": "address",
          "name": "operator",
          "type": "address"
        },
        {
          "internalType": "bool",
          "name": "approved",
          "type": "bool"
        }
      ],
      "name": "setApprovalForAll",
      "outputs": [],
      "stateMutability": "nonpayable",
      "type": "function"
    },
    {
      "inputs": [
        {
          "internalType": "bytes4",
          "name": "interfaceId",
          "type": "bytes4"
        }
      ],
      "name": "supportsInterface",
      "outputs": [
        {
          "internalType": "bool",
          "name": "",
          "type": "bool"
        }
      ],
      "stateMutability": "view",
      "type": "function"
    },
    {
      "inputs": [],
      "name": "symbol",
      "outputs": [
        {
          "internalType": "string",
          "name": "",
          "type": "string"
        }
      ],
      "stateMutability": "view",
      "type": "function"
    },
    {
      "inputs": [
        {
          "internalType": "uint256",
          "name": "tokenId",
          "type": "uint256"
        }
      ],
      "name": "tokenURI",
      "outputs": [
        {
          "internalType": "string",
          "name": "",
          "type": "string"
        }
      ],
      "stateMutability": "view",
      "type": "function"
    },
    {
      "inputs": [
        {
          "internalType": "address",
          "name": "from",
          "type": "address"
        },
        {
          "internalType": "address",
          "name": "to",
          "type": "address"
        },
        {
          "internalType": "uint256",
          "name": "tokenId",
          "type": "uint256"
        }
      ],
      "name": "transferFrom",
      "outputs": [],
      "stateMutability": "nonpayable",
      "type": "function"
    },
    {
      "inputs": [
        {
          "internalType": "address",
          "name": "newOwner",
          "type": "address"
        }
      ],
      "name": "transferOwnership",
      "outputs": [],
      "stateMutability": "nonpayable",
      "type": "function"
    },
    {
      "inputs": [],
      "name": "unpause",
      "outputs": [],
      "stateMutability": "nonpayable",
      "type": "function"
    }
  ],
  "bytecode": "0x60806040523480156200001157600080fd5b50604051620026e2380380620026e28339810160408190526200003491620003b6565b8151829082906200004d90600090602085019062000243565b5080516200006390600190602084019062000243565b50506007805460ff19169055506200007b336200008e565b6200008633620000e8565b50506200045d565b600780546001600160a01b03838116610100818102610100600160a81b031985161790945560405193909204169182907f8be0079c531659141344cd1fd0a4f28419497f9722a3daafe3b4186f6b6457e090600090a35050565b620001038160086200013a60201b62000b341790919060201c565b6040516001600160a01b038216907f6ae172837ea30b801fbfcdd4108aa1d5bf8ff775444fd70256b44e6bf3dfc3f690600090a250565b620001468282620001be565b15620001995760405162461bcd60e51b815260206004820152601f60248201527f526f6c65733a206163636f756e7420616c72656164792068617320726f6c650060448201526064015b60405180910390fd5b6001600160a01b0316600090815260209190915260409020805460ff19166001179055565b60006001600160a01b038216620002235760405162461bcd60e51b815260206004820152602260248201527f526f6c65733a206163636f756e7420697320746865207a65726f206164647265604482015261737360f01b606482015260840162000190565b506001600160a01b03166000908152602091909152604090205460ff1690565b828054620002519062000420565b90600052602060002090601f016020900481019282620002755760008555620002c0565b82601f106200029057805160ff1916838001178555620002c0565b82800160010185558215620002c0579182015b82811115620002c0578251825591602001919060010190620002a3565b50620002ce929150620002d2565b5090565b5b80821115620002ce5760008155600101620002d3565b634e487b7160e01b600052604160045260246000fd5b600082601f8301126200031157600080fd5b81516001600160401b03808211156200032e576200032e620002e9565b604051601f8301601f19908116603f01168101908282118183101715620003595762000359620002e9565b816040528381526020925086838588010111156200037657600080fd5b600091505b838210156200039a57858201830151818301840152908201906200037b565b83821115620003ac5760008385830101525b9695505050505050565b60008060408385031215620003ca57600080fd5b82516001600160401b0380821115620003e257600080fd5b620003f086838701620002ff565b935060208501519150808211156200040757600080fd5b506200041685828601620002ff565b9150509250929050565b600181811c908216806200043557607f821691505b602082108114156200045757634e487b7160e01b600052602260045260246000fd5b50919050565b612275806200046d6000396000f3fe608060405234801561001057600080fd5b506004361061018e5760003560e01c80638456cb59116100de578063aa271e1a11610097578063c87b56dd11610071578063c87b56dd14610338578063cd279c7c1461034b578063e985e9c51461035e578063f2fde38b1461039a57600080fd5b8063aa271e1a146102ff578063acbdacda14610312578063b88d4fde1461032557600080fd5b80638456cb59146102ab5780638da5cb5b146102b357806395d89b41146102c9578063983b2d56146102d157806398650275146102e4578063a22cb465146102ec57600080fd5b806342842e0e1161014b5780635c975abb116101255780635c975abb146102645780636352211e1461026f57806370a0823114610282578063715018a6146102a357600080fd5b806342842e0e1461022b57806342966c681461023e57806350bb4e7f1461025157600080fd5b806301ffc9a71461019357806306fdde03146101bb578063081812fc146101d0578063095ea7b3146101fb57806323b872dd146102105780633f4ba83a14610223575b600080fd5b6101a66101a1366004611aee565b6103ad565b60405190151581526020015b60405180910390f35b6101c36103ff565b6040516101b29190611b63565b6101e36101de366004611b76565b610491565b6040516001600160a01b0390911681526020016101b2565b61020e610209366004611bab565b61052b565b005b61020e61021e366004611bd5565b610641565b61020e610673565b61020e610239366004611bd5565b6106ad565b61020e61024c366004611b76565b6106c8565b6101a661025f366004611cd0565b6106f9565b60075460ff166101a6565b6101e361027d366004611b76565b61073e565b610295610290366004611d27565b6107b5565b6040519081526020016101b2565b61020e61083b565b61020e610875565b60075461010090046001600160a01b03166101e3565b6101c36108ad565b61020e6102df366004611d27565b6108bc565b61020e6108ea565b61020e6102fa366004611d42565b6108f3565b6101a661030d366004611d27565b610902565b6101a6610320366004611e32565b61090f565b61020e610333366004611ef3565b610a0f565b6101c3610346366004611b76565b610a47565b61020e610359366004611cd0565b610a52565b6101a661036c366004611f6f565b6001600160a01b03918216600090815260056020908152604080832093909416825291909152205460ff1690565b61020e6103a8366004611d27565b610a96565b60006001600160e01b031982166380ac58cd60e01b14806103de57506001600160e01b03198216635b5e139f60e01b145b806103f957506301ffc9a760e01b6001600160e01b03198316145b92915050565b60606000805461040e90611fa2565b80601f016020809104026020016040519081016040528092919081815260200182805461043a90611fa2565b80156104875780601f1061045c57610100808354040283529160200191610487565b820191906000526020600020905b81548152906001019060200180831161046a57829003601f168201915b5050505050905090565b6000818152600260205260408120546001600160a01b031661050f5760405162461bcd60e51b815260206004820152602c60248201527f4552433732313a20617070726f76656420717565727920666f72206e6f6e657860448201526b34b9ba32b73a103a37b5b2b760a11b60648201526084015b60405180910390fd5b506000908152600460205260409020546001600160a01b031690565b60006105368261073e565b9050806001600160a01b0316836001600160a01b031614156105a45760405162461bcd60e51b815260206004820152602160248201527f4552433732313a20617070726f76616c20746f2063757272656e74206f776e656044820152603960f91b6064820152608401610506565b336001600160a01b03821614806105c057506105c0813361036c565b6106325760405162461bcd60e51b815260206004820152603e60248201527f4552433732313a20617070726f76652063616c6c6572206973206e6f7420746f60448201527f6b656e206f776e6572206e6f7220617070726f76656420666f7220616c6c00006064820152608401610506565b61063c8383610bb0565b505050565b61064c335b82610c1e565b6106685760405162461bcd60e51b815260040161050690611fdd565b61063c838383610c9d565b6007546001600160a01b036101009091041633146106a35760405162461bcd60e51b81526004016105069061202b565b6106ab610e44565b565b61063c83838360405180602001604052806000815250610a0f565b6106d133610646565b6106ed5760405162461bcd60e51b815260040161050690611fdd565b6106f681610ed7565b50565b600061070433610902565b6107205760405162461bcd60e51b815260040161050690612060565b61072a8484610ee0565b610734838361102e565b5060019392505050565b6000818152600260205260408120546001600160a01b0316806103f95760405162461bcd60e51b815260206004820152602960248201527f4552433732313a206f776e657220717565727920666f72206e6f6e657869737460448201526832b73a103a37b5b2b760b91b6064820152608401610506565b60006001600160a01b03821661081f5760405162461bcd60e51b815260206004820152602960248201527f4552433732313a2061646472657373207a65726f206973206e6f7420612076616044820152683634b21037bbb732b960b91b6064820152608401610506565b506001600160a01b031660009081526003602052604090205490565b6007546001600160a01b0361010090910416331461086b5760405162461bcd60e51b81526004016105069061202b565b6106ab60006110c8565b6007546001600160a01b036101009091041633146108a55760405162461bcd60e51b81526004016105069061202b565b6106ab611122565b60606001805461040e90611fa2565b6108c533610902565b6108e15760405162461bcd60e51b815260040161050690612060565b6106f68161119d565b6106ab336111df565b6108fe338383611221565b5050565b60006103f96008836112f0565b600061091a33610902565b6109365760405162461bcd60e51b815260040161050690612060565b81518351146109875760405162461bcd60e51b815260206004820152601960248201527f6172726179206c656e67746820697320646966666572656e74000000000000006044820152606401610506565b60005b8351811015610a04576109b6858583815181106109a9576109a96120b0565b6020026020010151610ee0565b6109f28482815181106109cb576109cb6120b0565b60200260200101518483815181106109e5576109e56120b0565b602002602001015161102e565b806109fc816120dc565b91505061098a565b506001949350505050565b610a193383610c1e565b610a355760405162461bcd60e51b815260040161050690611fdd565b610a4184848484611373565b50505050565b60606103f9826113a6565b6007546001600160a01b03610100909104163314610a825760405162461bcd60e51b81526004016105069061202b565b610a8c8383611525565b61063c828261102e565b6007546001600160a01b03610100909104163314610ac65760405162461bcd60e51b81526004016105069061202b565b6001600160a01b038116610b2b5760405162461bcd60e51b815260206004820152602660248201527f4f776e61626c653a206e6577206f776e657220697320746865207a65726f206160448201526564647265737360d01b6064820152608401610506565b6106f6816110c8565b610b3e82826112f0565b15610b8b5760405162461bcd60e51b815260206004820152601f60248201527f526f6c65733a206163636f756e7420616c72656164792068617320726f6c65006044820152606401610506565b6001600160a01b0316600090815260209190915260409020805460ff19166001179055565b600081815260046020526040902080546001600160a01b0319166001600160a01b0384169081179091558190610be58261073e565b6001600160a01b03167f8c5be1e5ebec7d5bd14f71427d1e84f3dd0314c0f7b2291e5b200ac8c7c3b92560405160405180910390a45050565b600080610c2a8361073e565b9050806001600160a01b0316846001600160a01b03161480610c7157506001600160a01b0380821660009081526005602090815260408083209388168352929052205460ff165b80610c955750836001600160a01b0316610c8a84610491565b6001600160a01b0316145b949350505050565b826001600160a01b0316610cb08261073e565b6001600160a01b031614610d145760405162461bcd60e51b815260206004820152602560248201527f4552433732313a207472616e736665722066726f6d20696e636f72726563742060448201526437bbb732b960d91b6064820152608401610506565b6001600160a01b038216610d765760405162461bcd60e51b8152602060048201526024808201527f4552433732313a207472616e7366657220746f20746865207a65726f206164646044820152637265737360e01b6064820152608401610506565b610d8183838361153f565b610d8c600082610bb0565b6001600160a01b0383166000908152600360205260408120805460019290610db59084906120f7565b90915550506001600160a01b0382166000908152600360205260408120805460019290610de390849061210e565b909155505060008181526002602052604080822080546001600160a01b0319166001600160a01b0386811691821790925591518493918716917fddf252ad1be2c89b69c2b068fc378daa952ba7f163c4a11628f55a4df523b3ef91a4505050565b60075460ff16610e8d5760405162461bcd60e51b815260206004820152601460248201527314185d5cd8589b194e881b9bdd081c185d5cd95960621b6044820152606401610506565b6007805460ff191690557f5db9ee0a495bf2e6ff9c91a7834c1ba4fdd244a5e8aa4e537bd38aeae4b073aa335b6040516001600160a01b03909116815260200160405180910390a1565b6106f681611585565b6001600160a01b038216610f365760405162461bcd60e51b815260206004820181905260248201527f4552433732313a206d696e7420746f20746865207a65726f20616464726573736044820152606401610506565b6000818152600260205260409020546001600160a01b031615610f9b5760405162461bcd60e51b815260206004820152601c60248201527f4552433732313a20746f6b656e20616c7265616479206d696e746564000000006044820152606401610506565b610fa76000838361153f565b6001600160a01b0382166000908152600360205260408120805460019290610fd090849061210e565b909155505060008181526002602052604080822080546001600160a01b0319166001600160a01b03861690811790915590518392907fddf252ad1be2c89b69c2b068fc378daa952ba7f163c4a11628f55a4df523b3ef908290a45050565b6000828152600260205260409020546001600160a01b03166110a95760405162461bcd60e51b815260206004820152602e60248201527f45524337323155524953746f726167653a2055524920736574206f66206e6f6e60448201526d32bc34b9ba32b73a103a37b5b2b760911b6064820152608401610506565b6000828152600660209081526040909120825161063c92840190611a09565b600780546001600160a01b03838116610100818102610100600160a81b031985161790945560405193909204169182907f8be0079c531659141344cd1fd0a4f28419497f9722a3daafe3b4186f6b6457e090600090a35050565b60075460ff16156111685760405162461bcd60e51b815260206004820152601060248201526f14185d5cd8589b194e881c185d5cd95960821b6044820152606401610506565b6007805460ff191660011790557f62e78cea01bee320cd4e420270b5ea74000d11b0c9f74754ebdbfc544b05a258610eba3390565b6111a8600882610b34565b6040516001600160a01b038216907f6ae172837ea30b801fbfcdd4108aa1d5bf8ff775444fd70256b44e6bf3dfc3f690600090a250565b6111ea6008826115c5565b6040516001600160a01b038216907fe94479a9f7e1952cc78f2d6baab678adc1b772d936c6583def489e524cb6669290600090a250565b816001600160a01b0316836001600160a01b031614156112835760405162461bcd60e51b815260206004820152601960248201527f4552433732313a20617070726f766520746f2063616c6c6572000000000000006044820152606401610506565b6001600160a01b03838116600081815260056020908152604080832094871680845294825291829020805460ff191686151590811790915591519182527f17307eab39ab6107e8899845ad3d59bd9653f200f220920489ca2b5937696c31910160405180910390a3505050565b60006001600160a01b0382166113535760405162461bcd60e51b815260206004820152602260248201527f526f6c65733a206163636f756e7420697320746865207a65726f206164647265604482015261737360f01b6064820152608401610506565b506001600160a01b03166000908152602091909152604090205460ff1690565b61137e848484610c9d565b61138a84848484611647565b610a415760405162461bcd60e51b815260040161050690612126565b6000818152600260205260409020546060906001600160a01b03166114275760405162461bcd60e51b815260206004820152603160248201527f45524337323155524953746f726167653a2055524920717565727920666f72206044820152703737b732bc34b9ba32b73a103a37b5b2b760791b6064820152608401610506565b6000828152600660205260408120805461144090611fa2565b80601f016020809104026020016040519081016040528092919081815260200182805461146c90611fa2565b80156114b95780601f1061148e576101008083540402835291602001916114b9565b820191906000526020600020905b81548152906001019060200180831161149c57829003601f168201915b5050505050905060006114d760408051602081019091526000815290565b90508051600014156114ea575092915050565b81511561151c578082604051602001611504929190612178565b60405160208183030381529060405292505050919050565b610c9584611749565b6108fe828260405180602001604052806000815250611831565b60075460ff161561063c5760405162461bcd60e51b815260206004820152601060248201526f14185d5cd8589b194e881c185d5cd95960821b6044820152606401610506565b61158e81611864565b600081815260066020526040902080546115a790611fa2565b1590506106f65760008181526006602052604081206106f691611a8d565b6115cf82826112f0565b6116255760405162461bcd60e51b815260206004820152602160248201527f526f6c65733a206163636f756e7420646f6573206e6f74206861766520726f6c6044820152606560f81b6064820152608401610506565b6001600160a01b0316600090815260209190915260409020805460ff19169055565b60006001600160a01b0384163b15610a0457604051630a85bd0160e11b81526001600160a01b0385169063150b7a029061168b9033908990889088906004016121a7565b602060405180830381600087803b1580156116a557600080fd5b505af19250505080156116d5575060408051601f3d908101601f191682019092526116d2918101906121e4565b60015b61172f573d808015611703576040519150601f19603f3d011682016040523d82523d6000602084013e611708565b606091505b5080516117275760405162461bcd60e51b815260040161050690612126565b805181602001fd5b6001600160e01b031916630a85bd0160e11b149050610c95565b6000818152600260205260409020546060906001600160a01b03166117c85760405162461bcd60e51b815260206004820152602f60248201527f4552433732314d657461646174613a2055524920717565727920666f72206e6f60448201526e3732bc34b9ba32b73a103a37b5b2b760891b6064820152608401610506565b60006117df60408051602081019091526000815290565b905060008151116117ff576040518060200160405280600081525061182a565b806118098461190b565b60405160200161181a929190612178565b6040516020818303038152906040525b9392505050565b61183b8383610ee0565b6118486000848484611647565b61063c5760405162461bcd60e51b815260040161050690612126565b600061186f8261073e565b905061187d8160008461153f565b611888600083610bb0565b6001600160a01b03811660009081526003602052604081208054600192906118b19084906120f7565b909155505060008281526002602052604080822080546001600160a01b0319169055518391906001600160a01b038416907fddf252ad1be2c89b69c2b068fc378daa952ba7f163c4a11628f55a4df523b3ef908390a45050565b60608161192f5750506040805180820190915260018152600360fc1b602082015290565b8160005b81156119595780611943816120dc565b91506119529050600a83612217565b9150611933565b60008167ffffffffffffffff81111561197457611974611c11565b6040519080825280601f01601f19166020018201604052801561199e576020820181803683370190505b5090505b8415610c95576119b36001836120f7565b91506119c0600a8661222b565b6119cb90603061210e565b60f81b8183815181106119e0576119e06120b0565b60200101906001600160f81b031916908160001a905350611a02600a86612217565b94506119a2565b828054611a1590611fa2565b90600052602060002090601f016020900481019282611a375760008555611a7d565b82601f10611a5057805160ff1916838001178555611a7d565b82800160010185558215611a7d579182015b82811115611a7d578251825591602001919060010190611a62565b50611a89929150611ac3565b5090565b508054611a9990611fa2565b6000825580601f10611aa9575050565b601f0160209004906000526020600020908101906106f691905b5b80821115611a895760008155600101611ac4565b6001600160e01b0319811681146106f657600080fd5b600060208284031215611b0057600080fd5b813561182a81611ad8565b60005b83811015611b26578181015183820152602001611b0e565b83811115610a415750506000910152565b60008151808452611b4f816020860160208601611b0b565b601f01601f19169290920160200192915050565b60208152600061182a6020830184611b37565b600060208284031215611b8857600080fd5b5035919050565b80356001600160a01b0381168114611ba657600080fd5b919050565b60008060408385031215611bbe57600080fd5b611bc783611b8f565b946020939093013593505050565b600080600060608486031215611bea57600080fd5b611bf384611b8f565b9250611c0160208501611b8f565b9150604084013590509250925092565b634e487b7160e01b600052604160045260246000fd5b604051601f8201601f1916810167ffffffffffffffff81118282101715611c5057611c50611c11565b604052919050565b600067ffffffffffffffff831115611c7257611c72611c11565b611c85601f8401601f1916602001611c27565b9050828152838383011115611c9957600080fd5b828260208301376000602084830101529392505050565b600082601f830112611cc157600080fd5b61182a83833560208501611c58565b600080600060608486031215611ce557600080fd5b611cee84611b8f565b925060208401359150604084013567ffffffffffffffff811115611d1157600080fd5b611d1d86828701611cb0565b9150509250925092565b600060208284031215611d3957600080fd5b61182a82611b8f565b60008060408385031215611d5557600080fd5b611d5e83611b8f565b915060208301358015158114611d7357600080fd5b809150509250929050565b600067ffffffffffffffff821115611d9857611d98611c11565b5060051b60200190565b600082601f830112611db357600080fd5b81356020611dc8611dc383611d7e565b611c27565b82815260059290921b84018101918181019086841115611de757600080fd5b8286015b84811015611e2757803567ffffffffffffffff811115611e0b5760008081fd5b611e198986838b0101611cb0565b845250918301918301611deb565b509695505050505050565b600080600060608486031215611e4757600080fd5b611e5084611b8f565b925060208085013567ffffffffffffffff80821115611e6e57600080fd5b818701915087601f830112611e8257600080fd5b8135611e90611dc382611d7e565b81815260059190911b8301840190848101908a831115611eaf57600080fd5b938501935b82851015611ecd57843582529385019390850190611eb4565b965050506040870135925080831115611ee557600080fd5b5050611d1d86828701611da2565b60008060008060808587031215611f0957600080fd5b611f1285611b8f565b9350611f2060208601611b8f565b925060408501359150606085013567ffffffffffffffff811115611f4357600080fd5b8501601f81018713611f5457600080fd5b611f6387823560208401611c58565b91505092959194509250565b60008060408385031215611f8257600080fd5b611f8b83611b8f565b9150611f9960208401611b8f565b90509250929050565b600181811c90821680611fb657607f821691505b60208210811415611fd757634e487b7160e01b600052602260045260246000fd5b50919050565b6020808252602e908201527f4552433732313a2063616c6c6572206973206e6f7420746f6b656e206f776e6560408201526d1c881b9bdc88185c1c1c9bdd995960921b606082015260800190565b6020808252818101527f4f776e61626c653a2063616c6c6572206973206e6f7420746865206f776e6572604082015260600190565b60208082526030908201527f4d696e746572526f6c653a2063616c6c657220646f6573206e6f74206861766560408201526f20746865204d696e74657220726f6c6560801b606082015260800190565b634e487b7160e01b600052603260045260246000fd5b634e487b7160e01b600052601160045260246000fd5b60006000198214156120f0576120f06120c6565b5060010190565b600082821015612109576121096120c6565b500390565b60008219821115612121576121216120c6565b500190565b60208082526032908201527f4552433732313a207472616e7366657220746f206e6f6e20455243373231526560408201527131b2b4bb32b91034b6b83632b6b2b73a32b960711b606082015260800190565b6000835161218a818460208801611b0b565b83519083019061219e818360208801611b0b565b01949350505050565b6001600160a01b03858116825284166020820152604081018390526080606082018190526000906121da90830184611b37565b9695505050505050565b6000602082840312156121f657600080fd5b815161182a81611ad8565b634e487b7160e01b600052601260045260246000fd5b60008261222657612226612201565b500490565b60008261223a5761223a612201565b50069056fea264697066735822122078768bb87864913ff763e9a5c81de2199e2532a101672a1a3a17b51d7f7ffe3764736f6c63430008090033",
  "linkReferences": {},
  "deployedLinkReferences": {}
}