{
  "_format": "hh-sol-artifact-1",
  "contractName": "ERC721Token",
  "sourceName": "contracts/token/ERC721/ERC721Token.sol",
  "abi": [
    {
      "inputs": [
        {
          "internalType": "string",
          "name": "name",
          "type": "string"
        },
        {
          "internalType": "string",
          "name": "symbol",
          "type": "string"
        }
      ],
      "stateMutability": "nonpayable",
      "type": "constructor"
    },
    {
      "anonymous": false,
      "inputs": [
        {
          "indexed": true,
          "internalType": "address",
          "name": "owner",
          "type": "address"
        },
        {
          "indexed": true,
          "internalType": "address",
          "name": "approved",
          "type": "address"
        },
        {
          "indexed": true,
          "internalType": "uint256",
          "name": "tokenId",
          "type": "uint256"
        }
      ],
      "name": "Approval",
      "type": "event"
    },
    {
      "anonymous": false,
      "inputs": [
        {
          "indexed": true,
          "internalType": "address",
          "name": "owner",
          "type": "address"
        },
        {
          "indexed": true,
          "internalType": "address",
          "name": "operator",
          "type": "address"
        },
        {
          "indexed": false,
          "internalType": "bool",
          "name": "approved",
          "type": "bool"
        }
      ],
      "name": "ApprovalForAll",
      "type": "event"
    },
    {
      "anonymous": false,
      "inputs": [
        {
          "indexed": true,
          "internalType": "address",
          "name": "account",
          "type": "address"
        }
      ],
      "name": "MinterAdded",
      "type": "event"
    },
    {
      "anonymous": false,
      "inputs": [
        {
          "indexed": true,
          "internalType": "address",
          "name": "account",
          "type": "address"
        }
      ],
      "name": "MinterRemoved",
      "type": "event"
    },
    {
      "anonymous": false,
      "inputs": [
        {
          "indexed": true,
          "internalType": "address",
          "name": "previousOwner",
          "type": "address"
        },
        {
          "indexed": true,
          "internalType": "address",
          "name": "newOwner",
          "type": "address"
        }
      ],
      "name": "OwnershipTransferred",
      "type": "event"
    },
    {
      "anonymous": false,
      "inputs": [
        {
          "indexed": false,
          "internalType": "address",
          "name": "account",
          "type": "address"
        }
      ],
      "name": "Paused",
      "type": "event"
    },
    {
      "anonymous": false,
      "inputs": [
        {
          "indexed": true,
          "internalType": "address",
          "name": "from",
          "type": "address"
        },
        {
          "indexed": true,
          "internalType": "address",
          "name": "to",
          "type": "address"
        },
        {
          "indexed": true,
          "internalType": "uint256",
          "name": "tokenId",
          "type": "uint256"
        }
      ],
      "name": "Transfer",
      "type": "event"
    },
    {
      "anonymous": false,
      "inputs": [
        {
          "indexed": false,
          "internalType": "address",
          "name": "account",
          "type": "address"
        }
      ],
      "name": "Unpaused",
      "type": "event"
    },
    {
      "inputs": [
        {
          "internalType": "address",
          "name": "account",
          "type": "address"
        }
      ],
      "name": "addMinter",
      "outputs": [],
      "stateMutability": "nonpayable",
      "type": "function"
    },
    {
      "inputs": [
        {
          "internalType": "address",
          "name": "to",
          "type": "address"
        },
        {
          "internalType": "uint256",
          "name": "tokenId",
          "type": "uint256"
        }
      ],
      "name": "approve",
      "outputs": [],
      "stateMutability": "nonpayable",
      "type": "function"
    },
    {
      "inputs": [
        {
          "internalType": "address",
          "name": "owner",
          "type": "address"
        }
      ],
      "name": "balanceOf",
      "outputs": [
        {
          "internalType": "uint256",
          "name": "",
          "type": "uint256"
        }
      ],
      "stateMutability": "view",
      "type": "function"
    },
    {
      "inputs": [
        {
          "internalType": "address",
          "name": "to",
          "type": "address"
        },
        {
          "internalType": "uint256[]",
          "name": "tokenId",
          "type": "uint256[]"
        },
        {
          "internalType": "string[]",
          "name": "tokenURI",
          "type": "string[]"
        }
      ],
      "name": "batchMintWithTokenURI",
      "outputs": [
        {
          "internalType": "bool",
          "name": "",
          "type": "bool"
        }
      ],
      "stateMutability": "nonpayable",
      "type": "function"
    },
    {
      "inputs": [
        {
          "internalType": "uint256",
          "name": "tokenId",
          "type": "uint256"
        }
      ],
      "name": "burn",
      "outputs": [],
      "stateMutability": "nonpayable",
      "type": "function"
    },
    {
      "inputs": [
        {
          "internalType": "uint256",
          "name": "tokenId",
          "type": "uint256"
        }
      ],
      "name": "getApproved",
      "outputs": [
        {
          "internalType": "address",
          "name": "",
          "type": "address"
        }
      ],
      "stateMutability": "view",
      "type": "function"
    },
    {
      "inputs": [
        {
          "internalType": "address",
          "name": "owner",
          "type": "address"
        },
        {
          "internalType": "address",
          "name": "operator",
          "type": "address"
        }
      ],
      "name": "isApprovedForAll",
      "outputs": [
        {
          "internalType": "bool",
          "name": "",
          "type": "bool"
        }
      ],
      "stateMutability": "view",
      "type": "function"
    },
    {
      "inputs": [
        {
          "internalType": "address",
          "name": "account",
          "type": "address"
        }
      ],
      "name": "isMinter",
      "outputs": [
        {
          "internalType": "bool",
          "name": "",
          "type": "bool"
        }
      ],
      "stateMutability": "view",
      "type": "function"
    },
    {
      "inputs": [
        {
          "internalType": "address",
          "name": "to",
          "type": "address"
        },
        {
          "internalType": "uint256",
          "name": "tokenId",
          "type": "uint256"
        },
        {
          "internalType": "string",
          "name": "tokenURI",
          "type": "string"
        }
      ],
      "name": "mintWithTokenURI",
      "outputs": [
        {
          "internalType": "bool",
          "name": "",
          "type": "bool"
        }
      ],
      "stateMutability": "nonpayable",
      "type": "function"
    },
    {
      "inputs": [],
      "name": "name",
      "outputs": [
        {
          "internalType": "string",
          "name": "",
          "type": "string"
        }
      ],
      "stateMutability": "view",
      "type": "function"
    },
    {
      "inputs": [],
      "name": "owner",
      "outputs": [
        {
          "internalType": "address",
          "name": "",
          "type": "address"
        }
      ],
      "stateMutability": "view",
      "type": "function"
    },
    {
      "inputs": [
        {
          "internalType": "uint256",
          "name": "tokenId",
          "type": "uint256"
        }
      ],
      "name": "ownerOf",
      "outputs": [
        {
          "internalType": "address",
          "name": "",
          "type": "address"
        }
      ],
      "stateMutability": "view",
      "type": "function"
    },
    {
      "inputs": [],
      "name": "pause",
      "outputs": [],
      "stateMutability": "nonpayable",
      "type": "function"
    },
    {
      "inputs": [],
      "name": "paused",
      "outputs": [
        {
          "internalType": "bool",
          "name": "",
          "type": "bool"
        }
      ],
      "stateMutability": "view",
      "type": "function"
    },
    {
      "inputs": [],
      "name": "renounceMinter",
      "outputs": [],
      "stateMutability": "nonpayable",
      "type": "function"
    },
    {
      "inputs": [],
      "name": "renounceOwnership",
      "outputs": [],
      "stateMutability": "nonpayable",
      "type": "function"
    },
    {
      "inputs": [
        {
          "internalType": "address",
          "name": "to",
          "type": "address"
        },
        {
          "internalType": "uint256",
          "name": "tokenId",
          "type": "uint256"
        },
        {
          "internalType": "string",
          "name": "uri",
          "type": "string"
        }
      ],
      "name": "safeMint",
      "outputs": [],
      "stateMutability": "nonpayable",
      "type": "function"
    },
    {
      "inputs": [
        {
          "internalType": "address",
          "name": "from",
          "type": "address"
        },
        {
          "internalType": "address",
          "name": "to",
          "type": "address"
        },
        {
          "internalType": "uint256",
          "name": "tokenId",
          "type": "uint256"
        }
      ],
      "name": "safeTransferFrom",
      "outputs": [],
      "stateMutability": "nonpayable",
      "type": "function"
    },
    {
      "inputs": [
        {
          "internalType": "address",
          "name": "from",
          "type": "address"
        },
        {
          "internalType": "address",
          "name": "to",
          "type": "address"
        },
        {
          "internalType": "uint256",
          "name": "tokenId",
          "type": "uint256"
        },
        {
          "internalType": "bytes",
          "name": "data",
          "type": "bytes"
        }
      ],
      "name": "safeTransferFrom",
      "outputs": [],
      "stateMutability": "nonpayable",
      "type": "function"
    },
    {
      "inputs": [
        {
          "internalType": "address",
          "name": "operator",
          "type": "address"
        },
        {
          "internalType": "bool",
          "name": "approved",
          "type": "bool"
        }
      ],
      "name": "setApprovalForAll",
      "outputs": [],
      "stateMutability": "nonpayable",
      "type": "function"
    },
    {
      "inputs": [
        {
          "internalType": "bytes4",
          "name": "interfaceId",
          "type": "bytes4"
        }
      ],
      "name": "supportsInterface",
      "outputs": [
        {
          "internalType": "bool",
          "name": "",
          "type": "bool"
        }
      ],
      "stateMutability": "view",
      "type": "function"
    },
    {
      "inputs": [],
      "name": "symbol",
      "outputs": [
        {
          "internalType": "string",
          "name": "",
          "type": "string"
        }
      ],
      "stateMutability": "view",
      "type": "function"
    },
    {
      "inputs": [
        {
          "internalType": "uint256",
          "name": "tokenId",
          "type": "uint256"
        }
      ],
      "name": "tokenURI",
      "outputs": [
        {
          "internalType": "string",
          "name": "",
          "type": "string"
        }
      ],
      "stateMutability": "view",
      "type": "function"
    },
    {
      "inputs": [
        {
          "internalType": "address",
          "name": "from",
          "type": "address"
        },
        {
          "internalType": "address",
          "name": "to",
          "type": "address"
        },
        {
          "internalType": "uint256",
          "name": "tokenId",
          "type": "uint256"
        }
      ],
      "name": "transferFrom",
      "outputs": [],
      "stateMutability": "nonpayable",
      "type": "function"
    },
    {
      "inputs": [
        {
          "internalType": "address",
          "name": "newOwner",
          "type": "address"
        }
      ],
      "name": "transferOwnership",
      "outputs": [],
      "stateMutability": "nonpayable",
      "type": "function"
    },
    {
      "inputs": [],
      "name": "unpause",
      "outputs": [],
      "stateMutability": "nonpayable",
      "type": "function"
    }
  ],
  "bytecode": "0x60806040523480156200001157600080fd5b5060405162004820380380620048208339818101604052810190620000379190620005bb565b81818160009080519060200190620000519291906200036e565b5080600190805190602001906200006a9291906200036e565b5050506000600760006101000a81548160ff021916908315150217905550620000a86200009c620000c160201b60201c565b620000c960201b60201c565b620000b9336200018f60201b60201c565b5050620007c0565b600033905090565b6000600760019054906101000a900473ffffffffffffffffffffffffffffffffffffffff16905081600760016101000a81548173ffffffffffffffffffffffffffffffffffffffff021916908373ffffffffffffffffffffffffffffffffffffffff1602179055508173ffffffffffffffffffffffffffffffffffffffff168173ffffffffffffffffffffffffffffffffffffffff167f8be0079c531659141344cd1fd0a4f28419497f9722a3daafe3b4186f6b6457e060405160405180910390a35050565b620001aa816008620001f060201b620011481790919060201c565b8073ffffffffffffffffffffffffffffffffffffffff167f6ae172837ea30b801fbfcdd4108aa1d5bf8ff775444fd70256b44e6bf3dfc3f660405160405180910390a250565b620002028282620002a360201b60201c565b1562000245576040517f08c379a00000000000000000000000000000000000000000000000000000000081526004016200023c90620006a1565b60405180910390fd5b60018260000160008373ffffffffffffffffffffffffffffffffffffffff1673ffffffffffffffffffffffffffffffffffffffff16815260200190815260200160002060006101000a81548160ff0219169083151502179055505050565b60008073ffffffffffffffffffffffffffffffffffffffff168273ffffffffffffffffffffffffffffffffffffffff16141562000317576040517f08c379a00000000000000000000000000000000000000000000000000000000081526004016200030e9062000739565b60405180910390fd5b8260000160008373ffffffffffffffffffffffffffffffffffffffff1673ffffffffffffffffffffffffffffffffffffffff16815260200190815260200160002060009054906101000a900460ff16905092915050565b8280546200037c906200078a565b90600052602060002090601f016020900481019282620003a05760008555620003ec565b82601f10620003bb57805160ff1916838001178555620003ec565b82800160010185558215620003ec579182015b82811115620003eb578251825591602001919060010190620003ce565b5b509050620003fb9190620003ff565b5090565b5b808211156200041a57600081600090555060010162000400565b5090565b6000604051905090565b600080fd5b600080fd5b600080fd5b600080fd5b6000601f19601f8301169050919050565b7f4e487b7100000000000000000000000000000000000000000000000000000000600052604160045260246000fd5b62000487826200043c565b810181811067ffffffffffffffff82111715620004a957620004a86200044d565b5b80604052505050565b6000620004be6200041e565b9050620004cc82826200047c565b919050565b600067ffffffffffffffff821115620004ef57620004ee6200044d565b5b620004fa826200043c565b9050602081019050919050565b60005b83811015620005275780820151818401526020810190506200050a565b8381111562000537576000848401525b50505050565b6000620005546200054e84620004d1565b620004b2565b90508281526020810184848401111562000573576200057262000437565b5b6200058084828562000507565b509392505050565b600082601f830112620005a0576200059f62000432565b5b8151620005b28482602086016200053d565b91505092915050565b60008060408385031215620005d557620005d462000428565b5b600083015167ffffffffffffffff811115620005f657620005f56200042d565b5b620006048582860162000588565b925050602083015167ffffffffffffffff8111156200062857620006276200042d565b5b620006368582860162000588565b9150509250929050565b600082825260208201905092915050565b7f526f6c65733a206163636f756e7420616c72656164792068617320726f6c6500600082015250565b600062000689601f8362000640565b9150620006968262000651565b602082019050919050565b60006020820190508181036000830152620006bc816200067a565b9050919050565b7f526f6c65733a206163636f756e7420697320746865207a65726f20616464726560008201527f7373000000000000000000000000000000000000000000000000000000000000602082015250565b60006200072160228362000640565b91506200072e82620006c3565b604082019050919050565b60006020820190508181036000830152620007548162000712565b9050919050565b7f4e487b7100000000000000000000000000000000000000000000000000000000600052602260045260246000fd5b60006002820490506001821680620007a357607f821691505b60208210811415620007ba57620007b96200075b565b5b50919050565b61405080620007d06000396000f3fe608060405234801561001057600080fd5b506004361061018e5760003560e01c80638456cb59116100de578063aa271e1a11610097578063c87b56dd11610071578063c87b56dd14610447578063cd279c7c14610477578063e985e9c514610493578063f2fde38b146104c35761018e565b8063aa271e1a146103cb578063acbdacda146103fb578063b88d4fde1461042b5761018e565b80638456cb59146103435780638da5cb5b1461034d57806395d89b411461036b578063983b2d561461038957806398650275146103a5578063a22cb465146103af5761018e565b806342842e0e1161014b5780635c975abb116101255780635c975abb146102bb5780636352211e146102d957806370a0823114610309578063715018a6146103395761018e565b806342842e0e1461025357806342966c681461026f57806350bb4e7f1461028b5761018e565b806301ffc9a71461019357806306fdde03146101c3578063081812fc146101e1578063095ea7b31461021157806323b872dd1461022d5780633f4ba83a14610249575b600080fd5b6101ad60048036038101906101a89190612799565b6104df565b6040516101ba91906127e1565b60405180910390f35b6101cb6105c1565b6040516101d89190612895565b60405180910390f35b6101fb60048036038101906101f691906128ed565b610653565b604051610208919061295b565b60405180910390f35b61022b600480360381019061022691906129a2565b6106d8565b005b610247600480360381019061024291906129e2565b6107f0565b005b610251610850565b005b61026d600480360381019061026891906129e2565b6108d6565b005b610289600480360381019061028491906128ed565b6108f6565b005b6102a560048036038101906102a09190612b6a565b610952565b6040516102b291906127e1565b60405180910390f35b6102c36109bb565b6040516102d091906127e1565b60405180910390f35b6102f360048036038101906102ee91906128ed565b6109d2565b604051610300919061295b565b60405180910390f35b610323600480360381019061031e9190612bd9565b610a84565b6040516103309190612c15565b60405180910390f35b610341610b3c565b005b61034b610bc4565b005b610355610c4a565b604051610362919061295b565b60405180910390f35b610373610c74565b6040516103809190612895565b60405180910390f35b6103a3600480360381019061039e9190612bd9565b610d06565b005b6103ad610d5a565b005b6103c960048036038101906103c49190612c5c565b610d65565b005b6103e560048036038101906103e09190612bd9565b610d7b565b6040516103f291906127e1565b60405180910390f35b61041560048036038101906104109190612e45565b610d98565b60405161042291906127e1565b60405180910390f35b61044560048036038101906104409190612f71565b610eb3565b005b610461600480360381019061045c91906128ed565b610f15565b60405161046e9190612895565b60405180910390f35b610491600480360381019061048c9190612b6a565b610f27565b005b6104ad60048036038101906104a89190612ff4565b610fbc565b6040516104ba91906127e1565b60405180910390f35b6104dd60048036038101906104d89190612bd9565b611050565b005b60007f80ac58cd000000000000000000000000000000000000000000000000000000007bffffffffffffffffffffffffffffffffffffffffffffffffffffffff1916827bffffffffffffffffffffffffffffffffffffffffffffffffffffffff191614806105aa57507f5b5e139f000000000000000000000000000000000000000000000000000000007bffffffffffffffffffffffffffffffffffffffffffffffffffffffff1916827bffffffffffffffffffffffffffffffffffffffffffffffffffffffff1916145b806105ba57506105b9826111f0565b5b9050919050565b6060600080546105d090613063565b80601f01602080910402602001604051908101604052809291908181526020018280546105fc90613063565b80156106495780601f1061061e57610100808354040283529160200191610649565b820191906000526020600020905b81548152906001019060200180831161062c57829003601f168201915b5050505050905090565b600061065e8261125a565b61069d576040517f08c379a000000000000000000000000000000000000000000000000000000000815260040161069490613107565b60405180910390fd5b6004600083815260200190815260200160002060009054906101000a900473ffffffffffffffffffffffffffffffffffffffff169050919050565b60006106e3826109d2565b90508073ffffffffffffffffffffffffffffffffffffffff168373ffffffffffffffffffffffffffffffffffffffff161415610754576040517f08c379a000000000000000000000000000000000000000000000000000000000815260040161074b90613199565b60405180910390fd5b8073ffffffffffffffffffffffffffffffffffffffff166107736112c6565b73ffffffffffffffffffffffffffffffffffffffff1614806107a257506107a18161079c6112c6565b610fbc565b5b6107e1576040517f08c379a00000000000000000000000000000000000000000000000000000000081526004016107d89061322b565b60405180910390fd5b6107eb83836112ce565b505050565b6108016107fb6112c6565b82611387565b610840576040517f08c379a0000000000000000000000000000000000000000000000000000000008152600401610837906132bd565b60405180910390fd5b61084b83838361141c565b505050565b6108586112c6565b73ffffffffffffffffffffffffffffffffffffffff16610876610c4a565b73ffffffffffffffffffffffffffffffffffffffff16146108cc576040517f08c379a00000000000000000000000000000000000000000000000000000000081526004016108c390613329565b60405180910390fd5b6108d4611683565b565b6108f183838360405180602001604052806000815250610eb3565b505050565b6109076109016112c6565b82611387565b610946576040517f08c379a000000000000000000000000000000000000000000000000000000000815260040161093d906132bd565b60405180910390fd5b61094f81611725565b50565b600061095d33610d7b565b61099c576040517f08c379a0000000000000000000000000000000000000000000000000000000008152600401610993906133bb565b60405180910390fd5b6109a68484611731565b6109b0838361190b565b600190509392505050565b6000600760009054906101000a900460ff16905090565b6000806002600084815260200190815260200160002060009054906101000a900473ffffffffffffffffffffffffffffffffffffffff169050600073ffffffffffffffffffffffffffffffffffffffff168173ffffffffffffffffffffffffffffffffffffffff161415610a7b576040517f08c379a0000000000000000000000000000000000000000000000000000000008152600401610a729061344d565b60405180910390fd5b80915050919050565b60008073ffffffffffffffffffffffffffffffffffffffff168273ffffffffffffffffffffffffffffffffffffffff161415610af5576040517f08c379a0000000000000000000000000000000000000000000000000000000008152600401610aec906134df565b60405180910390fd5b600360008373ffffffffffffffffffffffffffffffffffffffff1673ffffffffffffffffffffffffffffffffffffffff168152602001908152602001600020549050919050565b610b446112c6565b73ffffffffffffffffffffffffffffffffffffffff16610b62610c4a565b73ffffffffffffffffffffffffffffffffffffffff1614610bb8576040517f08c379a0000000000000000000000000000000000000000000000000000000008152600401610baf90613329565b60405180910390fd5b610bc2600061197f565b565b610bcc6112c6565b73ffffffffffffffffffffffffffffffffffffffff16610bea610c4a565b73ffffffffffffffffffffffffffffffffffffffff1614610c40576040517f08c379a0000000000000000000000000000000000000000000000000000000008152600401610c3790613329565b60405180910390fd5b610c48611a45565b565b6000600760019054906101000a900473ffffffffffffffffffffffffffffffffffffffff16905090565b606060018054610c8390613063565b80601f0160208091040260200160405190810160405280929190818152602001828054610caf90613063565b8015610cfc5780601f10610cd157610100808354040283529160200191610cfc565b820191906000526020600020905b815481529060010190602001808311610cdf57829003601f168201915b5050505050905090565b610d0f33610d7b565b610d4e576040517f08c379a0000000000000000000000000000000000000000000000000000000008152600401610d45906133bb565b60405180910390fd5b610d5781611ae8565b50565b610d6333611b42565b565b610d77610d706112c6565b8383611b9c565b5050565b6000610d91826008611d0990919063ffffffff16565b9050919050565b6000610da333610d7b565b610de2576040517f08c379a0000000000000000000000000000000000000000000000000000000008152600401610dd9906133bb565b60405180910390fd5b8151835114610e26576040517f08c379a0000000000000000000000000000000000000000000000000000000008152600401610e1d9061354b565b60405180910390fd5b60005b8351811015610ea757610e5685858381518110610e4957610e4861356b565b5b6020026020010151611731565b610e94848281518110610e6c57610e6b61356b565b5b6020026020010151848381518110610e8757610e8661356b565b5b602002602001015161190b565b8080610e9f906135c9565b915050610e29565b50600190509392505050565b610ec4610ebe6112c6565b83611387565b610f03576040517f08c379a0000000000000000000000000000000000000000000000000000000008152600401610efa906132bd565b60405180910390fd5b610f0f84848484611dd1565b50505050565b6060610f2082611e2d565b9050919050565b610f2f6112c6565b73ffffffffffffffffffffffffffffffffffffffff16610f4d610c4a565b73ffffffffffffffffffffffffffffffffffffffff1614610fa3576040517f08c379a0000000000000000000000000000000000000000000000000000000008152600401610f9a90613329565b60405180910390fd5b610fad8383611f7f565b610fb7828261190b565b505050565b6000600560008473ffffffffffffffffffffffffffffffffffffffff1673ffffffffffffffffffffffffffffffffffffffff16815260200190815260200160002060008373ffffffffffffffffffffffffffffffffffffffff1673ffffffffffffffffffffffffffffffffffffffff16815260200190815260200160002060009054906101000a900460ff16905092915050565b6110586112c6565b73ffffffffffffffffffffffffffffffffffffffff16611076610c4a565b73ffffffffffffffffffffffffffffffffffffffff16146110cc576040517f08c379a00000000000000000000000000000000000000000000000000000000081526004016110c390613329565b60405180910390fd5b600073ffffffffffffffffffffffffffffffffffffffff168173ffffffffffffffffffffffffffffffffffffffff16141561113c576040517f08c379a000000000000000000000000000000000000000000000000000000000815260040161113390613684565b60405180910390fd5b6111458161197f565b50565b6111528282611d09565b15611192576040517f08c379a0000000000000000000000000000000000000000000000000000000008152600401611189906136f0565b60405180910390fd5b60018260000160008373ffffffffffffffffffffffffffffffffffffffff1673ffffffffffffffffffffffffffffffffffffffff16815260200190815260200160002060006101000a81548160ff0219169083151502179055505050565b60007f01ffc9a7000000000000000000000000000000000000000000000000000000007bffffffffffffffffffffffffffffffffffffffffffffffffffffffff1916827bffffffffffffffffffffffffffffffffffffffffffffffffffffffff1916149050919050565b60008073ffffffffffffffffffffffffffffffffffffffff166002600084815260200190815260200160002060009054906101000a900473ffffffffffffffffffffffffffffffffffffffff1673ffffffffffffffffffffffffffffffffffffffff1614159050919050565b600033905090565b816004600083815260200190815260200160002060006101000a81548173ffffffffffffffffffffffffffffffffffffffff021916908373ffffffffffffffffffffffffffffffffffffffff160217905550808273ffffffffffffffffffffffffffffffffffffffff16611341836109d2565b73ffffffffffffffffffffffffffffffffffffffff167f8c5be1e5ebec7d5bd14f71427d1e84f3dd0314c0f7b2291e5b200ac8c7c3b92560405160405180910390a45050565b600080611393836109d2565b90508073ffffffffffffffffffffffffffffffffffffffff168473ffffffffffffffffffffffffffffffffffffffff1614806113d557506113d48185610fbc565b5b8061141357508373ffffffffffffffffffffffffffffffffffffffff166113fb84610653565b73ffffffffffffffffffffffffffffffffffffffff16145b91505092915050565b8273ffffffffffffffffffffffffffffffffffffffff1661143c826109d2565b73ffffffffffffffffffffffffffffffffffffffff1614611492576040517f08c379a000000000000000000000000000000000000000000000000000000000815260040161148990613782565b60405180910390fd5b600073ffffffffffffffffffffffffffffffffffffffff168273ffffffffffffffffffffffffffffffffffffffff161415611502576040517f08c379a00000000000000000000000000000000000000000000000000000000081526004016114f990613814565b60405180910390fd5b61150d838383611f9d565b6115186000826112ce565b6001600360008573ffffffffffffffffffffffffffffffffffffffff1673ffffffffffffffffffffffffffffffffffffffff16815260200190815260200160002060008282546115689190613834565b925050819055506001600360008473ffffffffffffffffffffffffffffffffffffffff1673ffffffffffffffffffffffffffffffffffffffff16815260200190815260200160002060008282546115bf9190613868565b92505081905550816002600083815260200190815260200160002060006101000a81548173ffffffffffffffffffffffffffffffffffffffff021916908373ffffffffffffffffffffffffffffffffffffffff160217905550808273ffffffffffffffffffffffffffffffffffffffff168473ffffffffffffffffffffffffffffffffffffffff167fddf252ad1be2c89b69c2b068fc378daa952ba7f163c4a11628f55a4df523b3ef60405160405180910390a461167e838383611ff5565b505050565b61168b6109bb565b6116ca576040517f08c379a00000000000000000000000000000000000000000000000000000000081526004016116c19061390a565b60405180910390fd5b6000600760006101000a81548160ff0219169083151502179055507f5db9ee0a495bf2e6ff9c91a7834c1ba4fdd244a5e8aa4e537bd38aeae4b073aa61170e6112c6565b60405161171b919061295b565b60405180910390a1565b61172e81611ffa565b50565b600073ffffffffffffffffffffffffffffffffffffffff168273ffffffffffffffffffffffffffffffffffffffff1614156117a1576040517f08c379a000000000000000000000000000000000000000000000000000000000815260040161179890613976565b60405180910390fd5b6117aa8161125a565b156117ea576040517f08c379a00000000000000000000000000000000000000000000000000000000081526004016117e1906139e2565b60405180910390fd5b6117f660008383611f9d565b6001600360008473ffffffffffffffffffffffffffffffffffffffff1673ffffffffffffffffffffffffffffffffffffffff16815260200190815260200160002060008282546118469190613868565b92505081905550816002600083815260200190815260200160002060006101000a81548173ffffffffffffffffffffffffffffffffffffffff021916908373ffffffffffffffffffffffffffffffffffffffff160217905550808273ffffffffffffffffffffffffffffffffffffffff16600073ffffffffffffffffffffffffffffffffffffffff167fddf252ad1be2c89b69c2b068fc378daa952ba7f163c4a11628f55a4df523b3ef60405160405180910390a461190760008383611ff5565b5050565b6119148261125a565b611953576040517f08c379a000000000000000000000000000000000000000000000000000000000815260040161194a90613a74565b60405180910390fd5b8060066000848152602001908152602001600020908051906020019061197a92919061264a565b505050565b6000600760019054906101000a900473ffffffffffffffffffffffffffffffffffffffff16905081600760016101000a81548173ffffffffffffffffffffffffffffffffffffffff021916908373ffffffffffffffffffffffffffffffffffffffff1602179055508173ffffffffffffffffffffffffffffffffffffffff168173ffffffffffffffffffffffffffffffffffffffff167f8be0079c531659141344cd1fd0a4f28419497f9722a3daafe3b4186f6b6457e060405160405180910390a35050565b611a4d6109bb565b15611a8d576040517f08c379a0000000000000000000000000000000000000000000000000000000008152600401611a8490613ae0565b60405180910390fd5b6001600760006101000a81548160ff0219169083151502179055507f62e78cea01bee320cd4e420270b5ea74000d11b0c9f74754ebdbfc544b05a258611ad16112c6565b604051611ade919061295b565b60405180910390a1565b611afc81600861114890919063ffffffff16565b8073ffffffffffffffffffffffffffffffffffffffff167f6ae172837ea30b801fbfcdd4108aa1d5bf8ff775444fd70256b44e6bf3dfc3f660405160405180910390a250565b611b5681600861204d90919063ffffffff16565b8073ffffffffffffffffffffffffffffffffffffffff167fe94479a9f7e1952cc78f2d6baab678adc1b772d936c6583def489e524cb6669260405160405180910390a250565b8173ffffffffffffffffffffffffffffffffffffffff168373ffffffffffffffffffffffffffffffffffffffff161415611c0b576040517f08c379a0000000000000000000000000000000000000000000000000000000008152600401611c0290613b4c565b60405180910390fd5b80600560008573ffffffffffffffffffffffffffffffffffffffff1673ffffffffffffffffffffffffffffffffffffffff16815260200190815260200160002060008473ffffffffffffffffffffffffffffffffffffffff1673ffffffffffffffffffffffffffffffffffffffff16815260200190815260200160002060006101000a81548160ff0219169083151502179055508173ffffffffffffffffffffffffffffffffffffffff168373ffffffffffffffffffffffffffffffffffffffff167f17307eab39ab6107e8899845ad3d59bd9653f200f220920489ca2b5937696c3183604051611cfc91906127e1565b60405180910390a3505050565b60008073ffffffffffffffffffffffffffffffffffffffff168273ffffffffffffffffffffffffffffffffffffffff161415611d7a576040517f08c379a0000000000000000000000000000000000000000000000000000000008152600401611d7190613bde565b60405180910390fd5b8260000160008373ffffffffffffffffffffffffffffffffffffffff1673ffffffffffffffffffffffffffffffffffffffff16815260200190815260200160002060009054906101000a900460ff16905092915050565b611ddc84848461141c565b611de8848484846120f4565b611e27576040517f08c379a0000000000000000000000000000000000000000000000000000000008152600401611e1e90613c70565b60405180910390fd5b50505050565b6060611e388261125a565b611e77576040517f08c379a0000000000000000000000000000000000000000000000000000000008152600401611e6e90613d02565b60405180910390fd5b6000600660008481526020019081526020016000208054611e9790613063565b80601f0160208091040260200160405190810160405280929190818152602001828054611ec390613063565b8015611f105780601f10611ee557610100808354040283529160200191611f10565b820191906000526020600020905b815481529060010190602001808311611ef357829003601f168201915b505050505090506000611f2161228b565b9050600081511415611f37578192505050611f7a565b600082511115611f6c578082604051602001611f54929190613d5e565b60405160208183030381529060405292505050611f7a565b611f75846122a2565b925050505b919050565b611f99828260405180602001604052806000815250612349565b5050565b611fa56109bb565b15611fe5576040517f08c379a0000000000000000000000000000000000000000000000000000000008152600401611fdc90613ae0565b60405180910390fd5b611ff08383836123a4565b505050565b505050565b612003816123a9565b600060066000838152602001908152602001600020805461202390613063565b90501461204a5760066000828152602001908152602001600020600061204991906126d0565b5b50565b6120578282611d09565b612096576040517f08c379a000000000000000000000000000000000000000000000000000000000815260040161208d90613df4565b60405180910390fd5b60008260000160008373ffffffffffffffffffffffffffffffffffffffff1673ffffffffffffffffffffffffffffffffffffffff16815260200190815260200160002060006101000a81548160ff0219169083151502179055505050565b60006121158473ffffffffffffffffffffffffffffffffffffffff166124c6565b1561227e578373ffffffffffffffffffffffffffffffffffffffff1663150b7a0261213e6112c6565b8786866040518563ffffffff1660e01b81526004016121609493929190613e69565b602060405180830381600087803b15801561217a57600080fd5b505af19250505080156121ab57506040513d601f19601f820116820180604052508101906121a89190613eca565b60015b61222e573d80600081146121db576040519150601f19603f3d011682016040523d82523d6000602084013e6121e0565b606091505b50600081511415612226576040517f08c379a000000000000000000000000000000000000000000000000000000000815260040161221d90613c70565b60405180910390fd5b805181602001fd5b63150b7a0260e01b7bffffffffffffffffffffffffffffffffffffffffffffffffffffffff1916817bffffffffffffffffffffffffffffffffffffffffffffffffffffffff191614915050612283565b600190505b949350505050565b606060405180602001604052806000815250905090565b60606122ad8261125a565b6122ec576040517f08c379a00000000000000000000000000000000000000000000000000000000081526004016122e390613f69565b60405180910390fd5b60006122f661228b565b905060008151116123165760405180602001604052806000815250612341565b80612320846124e9565b604051602001612331929190613d5e565b6040516020818303038152906040525b915050919050565b6123538383611731565b61236060008484846120f4565b61239f576040517f08c379a000000000000000000000000000000000000000000000000000000000815260040161239690613c70565b60405180910390fd5b505050565b505050565b60006123b4826109d2565b90506123c281600084611f9d565b6123cd6000836112ce565b6001600360008373ffffffffffffffffffffffffffffffffffffffff1673ffffffffffffffffffffffffffffffffffffffff168152602001908152602001600020600082825461241d9190613834565b925050819055506002600083815260200190815260200160002060006101000a81549073ffffffffffffffffffffffffffffffffffffffff021916905581600073ffffffffffffffffffffffffffffffffffffffff168273ffffffffffffffffffffffffffffffffffffffff167fddf252ad1be2c89b69c2b068fc378daa952ba7f163c4a11628f55a4df523b3ef60405160405180910390a46124c281600084611ff5565b5050565b6000808273ffffffffffffffffffffffffffffffffffffffff163b119050919050565b60606000821415612531576040518060400160405280600181526020017f30000000000000000000000000000000000000000000000000000000000000008152509050612645565b600082905060005b6000821461256357808061254c906135c9565b915050600a8261255c9190613fb8565b9150612539565b60008167ffffffffffffffff81111561257f5761257e612a3f565b5b6040519080825280601f01601f1916602001820160405280156125b15781602001600182028036833780820191505090505b5090505b6000851461263e576001826125ca9190613834565b9150600a856125d99190613fe9565b60306125e59190613868565b60f81b8183815181106125fb576125fa61356b565b5b60200101907effffffffffffffffffffffffffffffffffffffffffffffffffffffffffffff1916908160001a905350600a856126379190613fb8565b94506125b5565b8093505050505b919050565b82805461265690613063565b90600052602060002090601f01602090048101928261267857600085556126bf565b82601f1061269157805160ff19168380011785556126bf565b828001600101855582156126bf579182015b828111156126be5782518255916020019190600101906126a3565b5b5090506126cc9190612710565b5090565b5080546126dc90613063565b6000825580601f106126ee575061270d565b601f01602090049060005260206000209081019061270c9190612710565b5b50565b5b80821115612729576000816000905550600101612711565b5090565b6000604051905090565b600080fd5b600080fd5b60007fffffffff0000000000000000000000000000000000000000000000000000000082169050919050565b61277681612741565b811461278157600080fd5b50565b6000813590506127938161276d565b92915050565b6000602082840312156127af576127ae612737565b5b60006127bd84828501612784565b91505092915050565b60008115159050919050565b6127db816127c6565b82525050565b60006020820190506127f660008301846127d2565b92915050565b600081519050919050565b600082825260208201905092915050565b60005b8381101561283657808201518184015260208101905061281b565b83811115612845576000848401525b50505050565b6000601f19601f8301169050919050565b6000612867826127fc565b6128718185612807565b9350612881818560208601612818565b61288a8161284b565b840191505092915050565b600060208201905081810360008301526128af818461285c565b905092915050565b6000819050919050565b6128ca816128b7565b81146128d557600080fd5b50565b6000813590506128e7816128c1565b92915050565b60006020828403121561290357612902612737565b5b6000612911848285016128d8565b91505092915050565b600073ffffffffffffffffffffffffffffffffffffffff82169050919050565b60006129458261291a565b9050919050565b6129558161293a565b82525050565b6000602082019050612970600083018461294c565b92915050565b61297f8161293a565b811461298a57600080fd5b50565b60008135905061299c81612976565b92915050565b600080604083850312156129b9576129b8612737565b5b60006129c78582860161298d565b92505060206129d8858286016128d8565b9150509250929050565b6000806000606084860312156129fb576129fa612737565b5b6000612a098682870161298d565b9350506020612a1a8682870161298d565b9250506040612a2b868287016128d8565b9150509250925092565b600080fd5b600080fd5b7f4e487b7100000000000000000000000000000000000000000000000000000000600052604160045260246000fd5b612a778261284b565b810181811067ffffffffffffffff82111715612a9657612a95612a3f565b5b80604052505050565b6000612aa961272d565b9050612ab58282612a6e565b919050565b600067ffffffffffffffff821115612ad557612ad4612a3f565b5b612ade8261284b565b9050602081019050919050565b82818337600083830152505050565b6000612b0d612b0884612aba565b612a9f565b905082815260208101848484011115612b2957612b28612a3a565b5b612b34848285612aeb565b509392505050565b600082601f830112612b5157612b50612a35565b5b8135612b61848260208601612afa565b91505092915050565b600080600060608486031215612b8357612b82612737565b5b6000612b918682870161298d565b9350506020612ba2868287016128d8565b925050604084013567ffffffffffffffff811115612bc357612bc261273c565b5b612bcf86828701612b3c565b9150509250925092565b600060208284031215612bef57612bee612737565b5b6000612bfd8482850161298d565b91505092915050565b612c0f816128b7565b82525050565b6000602082019050612c2a6000830184612c06565b92915050565b612c39816127c6565b8114612c4457600080fd5b50565b600081359050612c5681612c30565b92915050565b60008060408385031215612c7357612c72612737565b5b6000612c818582860161298d565b9250506020612c9285828601612c47565b9150509250929050565b600067ffffffffffffffff821115612cb757612cb6612a3f565b5b602082029050602081019050919050565b600080fd5b6000612ce0612cdb84612c9c565b612a9f565b90508083825260208201905060208402830185811115612d0357612d02612cc8565b5b835b81811015612d2c5780612d1888826128d8565b845260208401935050602081019050612d05565b5050509392505050565b600082601f830112612d4b57612d4a612a35565b5b8135612d5b848260208601612ccd565b91505092915050565b600067ffffffffffffffff821115612d7f57612d7e612a3f565b5b602082029050602081019050919050565b6000612da3612d9e84612d64565b612a9f565b90508083825260208201905060208402830185811115612dc657612dc5612cc8565b5b835b81811015612e0d57803567ffffffffffffffff811115612deb57612dea612a35565b5b808601612df88982612b3c565b85526020850194505050602081019050612dc8565b5050509392505050565b600082601f830112612e2c57612e2b612a35565b5b8135612e3c848260208601612d90565b91505092915050565b600080600060608486031215612e5e57612e5d612737565b5b6000612e6c8682870161298d565b935050602084013567ffffffffffffffff811115612e8d57612e8c61273c565b5b612e9986828701612d36565b925050604084013567ffffffffffffffff811115612eba57612eb961273c565b5b612ec686828701612e17565b9150509250925092565b600067ffffffffffffffff821115612eeb57612eea612a3f565b5b612ef48261284b565b9050602081019050919050565b6000612f14612f0f84612ed0565b612a9f565b905082815260208101848484011115612f3057612f2f612a3a565b5b612f3b848285612aeb565b509392505050565b600082601f830112612f5857612f57612a35565b5b8135612f68848260208601612f01565b91505092915050565b60008060008060808587031215612f8b57612f8a612737565b5b6000612f998782880161298d565b9450506020612faa8782880161298d565b9350506040612fbb878288016128d8565b925050606085013567ffffffffffffffff811115612fdc57612fdb61273c565b5b612fe887828801612f43565b91505092959194509250565b6000806040838503121561300b5761300a612737565b5b60006130198582860161298d565b925050602061302a8582860161298d565b9150509250929050565b7f4e487b7100000000000000000000000000000000000000000000000000000000600052602260045260246000fd5b6000600282049050600182168061307b57607f821691505b6020821081141561308f5761308e613034565b5b50919050565b7f4552433732313a20617070726f76656420717565727920666f72206e6f6e657860008201527f697374656e7420746f6b656e0000000000000000000000000000000000000000602082015250565b60006130f1602c83612807565b91506130fc82613095565b604082019050919050565b60006020820190508181036000830152613120816130e4565b9050919050565b7f4552433732313a20617070726f76616c20746f2063757272656e74206f776e6560008201527f7200000000000000000000000000000000000000000000000000000000000000602082015250565b6000613183602183612807565b915061318e82613127565b604082019050919050565b600060208201905081810360008301526131b281613176565b9050919050565b7f4552433732313a20617070726f76652063616c6c6572206973206e6f7420746f60008201527f6b656e206f776e6572206e6f7220617070726f76656420666f7220616c6c0000602082015250565b6000613215603e83612807565b9150613220826131b9565b604082019050919050565b6000602082019050818103600083015261324481613208565b9050919050565b7f4552433732313a2063616c6c6572206973206e6f7420746f6b656e206f776e6560008201527f72206e6f7220617070726f766564000000000000000000000000000000000000602082015250565b60006132a7602e83612807565b91506132b28261324b565b604082019050919050565b600060208201905081810360008301526132d68161329a565b9050919050565b7f4f776e61626c653a2063616c6c6572206973206e6f7420746865206f776e6572600082015250565b6000613313602083612807565b915061331e826132dd565b602082019050919050565b6000602082019050818103600083015261334281613306565b9050919050565b7f4d696e746572526f6c653a2063616c6c657220646f6573206e6f74206861766560008201527f20746865204d696e74657220726f6c6500000000000000000000000000000000602082015250565b60006133a5603083612807565b91506133b082613349565b604082019050919050565b600060208201905081810360008301526133d481613398565b9050919050565b7f4552433732313a206f776e657220717565727920666f72206e6f6e657869737460008201527f656e7420746f6b656e0000000000000000000000000000000000000000000000602082015250565b6000613437602983612807565b9150613442826133db565b604082019050919050565b600060208201905081810360008301526134668161342a565b9050919050565b7f4552433732313a2061646472657373207a65726f206973206e6f74206120766160008201527f6c6964206f776e65720000000000000000000000000000000000000000000000602082015250565b60006134c9602983612807565b91506134d48261346d565b604082019050919050565b600060208201905081810360008301526134f8816134bc565b9050919050565b7f6172726179206c656e67746820697320646966666572656e7400000000000000600082015250565b6000613535601983612807565b9150613540826134ff565b602082019050919050565b6000602082019050818103600083015261356481613528565b9050919050565b7f4e487b7100000000000000000000000000000000000000000000000000000000600052603260045260246000fd5b7f4e487b7100000000000000000000000000000000000000000000000000000000600052601160045260246000fd5b60006135d4826128b7565b91507fffffffffffffffffffffffffffffffffffffffffffffffffffffffffffffffff8214156136075761360661359a565b5b600182019050919050565b7f4f776e61626c653a206e6577206f776e657220697320746865207a65726f206160008201527f6464726573730000000000000000000000000000000000000000000000000000602082015250565b600061366e602683612807565b915061367982613612565b604082019050919050565b6000602082019050818103600083015261369d81613661565b9050919050565b7f526f6c65733a206163636f756e7420616c72656164792068617320726f6c6500600082015250565b60006136da601f83612807565b91506136e5826136a4565b602082019050919050565b60006020820190508181036000830152613709816136cd565b9050919050565b7f4552433732313a207472616e736665722066726f6d20696e636f72726563742060008201527f6f776e6572000000000000000000000000000000000000000000000000000000602082015250565b600061376c602583612807565b915061377782613710565b604082019050919050565b6000602082019050818103600083015261379b8161375f565b9050919050565b7f4552433732313a207472616e7366657220746f20746865207a65726f2061646460008201527f7265737300000000000000000000000000000000000000000000000000000000602082015250565b60006137fe602483612807565b9150613809826137a2565b604082019050919050565b6000602082019050818103600083015261382d816137f1565b9050919050565b600061383f826128b7565b915061384a836128b7565b92508282101561385d5761385c61359a565b5b828203905092915050565b6000613873826128b7565b915061387e836128b7565b9250827fffffffffffffffffffffffffffffffffffffffffffffffffffffffffffffffff038211156138b3576138b261359a565b5b828201905092915050565b7f5061757361626c653a206e6f7420706175736564000000000000000000000000600082015250565b60006138f4601483612807565b91506138ff826138be565b602082019050919050565b60006020820190508181036000830152613923816138e7565b9050919050565b7f4552433732313a206d696e7420746f20746865207a65726f2061646472657373600082015250565b6000613960602083612807565b915061396b8261392a565b602082019050919050565b6000602082019050818103600083015261398f81613953565b9050919050565b7f4552433732313a20746f6b656e20616c7265616479206d696e74656400000000600082015250565b60006139cc601c83612807565b91506139d782613996565b602082019050919050565b600060208201905081810360008301526139fb816139bf565b9050919050565b7f45524337323155524953746f726167653a2055524920736574206f66206e6f6e60008201527f6578697374656e7420746f6b656e000000000000000000000000000000000000602082015250565b6000613a5e602e83612807565b9150613a6982613a02565b604082019050919050565b60006020820190508181036000830152613a8d81613a51565b9050919050565b7f5061757361626c653a2070617573656400000000000000000000000000000000600082015250565b6000613aca601083612807565b9150613ad582613a94565b602082019050919050565b60006020820190508181036000830152613af981613abd565b9050919050565b7f4552433732313a20617070726f766520746f2063616c6c657200000000000000600082015250565b6000613b36601983612807565b9150613b4182613b00565b602082019050919050565b60006020820190508181036000830152613b6581613b29565b9050919050565b7f526f6c65733a206163636f756e7420697320746865207a65726f20616464726560008201527f7373000000000000000000000000000000000000000000000000000000000000602082015250565b6000613bc8602283612807565b9150613bd382613b6c565b604082019050919050565b60006020820190508181036000830152613bf781613bbb565b9050919050565b7f4552433732313a207472616e7366657220746f206e6f6e20455243373231526560008201527f63656976657220696d706c656d656e7465720000000000000000000000000000602082015250565b6000613c5a603283612807565b9150613c6582613bfe565b604082019050919050565b60006020820190508181036000830152613c8981613c4d565b9050919050565b7f45524337323155524953746f726167653a2055524920717565727920666f722060008201527f6e6f6e6578697374656e7420746f6b656e000000000000000000000000000000602082015250565b6000613cec603183612807565b9150613cf782613c90565b604082019050919050565b60006020820190508181036000830152613d1b81613cdf565b9050919050565b600081905092915050565b6000613d38826127fc565b613d428185613d22565b9350613d52818560208601612818565b80840191505092915050565b6000613d6a8285613d2d565b9150613d768284613d2d565b91508190509392505050565b7f526f6c65733a206163636f756e7420646f6573206e6f74206861766520726f6c60008201527f6500000000000000000000000000000000000000000000000000000000000000602082015250565b6000613dde602183612807565b9150613de982613d82565b604082019050919050565b60006020820190508181036000830152613e0d81613dd1565b9050919050565b600081519050919050565b600082825260208201905092915050565b6000613e3b82613e14565b613e458185613e1f565b9350613e55818560208601612818565b613e5e8161284b565b840191505092915050565b6000608082019050613e7e600083018761294c565b613e8b602083018661294c565b613e986040830185612c06565b8181036060830152613eaa8184613e30565b905095945050505050565b600081519050613ec48161276d565b92915050565b600060208284031215613ee057613edf612737565b5b6000613eee84828501613eb5565b91505092915050565b7f4552433732314d657461646174613a2055524920717565727920666f72206e6f60008201527f6e6578697374656e7420746f6b656e0000000000000000000000000000000000602082015250565b6000613f53602f83612807565b9150613f5e82613ef7565b604082019050919050565b60006020820190508181036000830152613f8281613f46565b9050919050565b7f4e487b7100000000000000000000000000000000000000000000000000000000600052601260045260246000fd5b6000613fc3826128b7565b9150613fce836128b7565b925082613fde57613fdd613f89565b5b828204905092915050565b6000613ff4826128b7565b9150613fff836128b7565b92508261400f5761400e613f89565b5b82820690509291505056fea264697066735822122029e8ef9dda75cfb1028310b70335ebc5da960ea665c5140cce06ff318e9c021064736f6c63430008090033",
  "linkReferences": {},
  "deployedLinkReferences": {}
}