{
  "contractName": "KIP17Token",
  "abi": [
    {
      "constant": true,
      "inputs": [
        {
          "name": "interfaceId",
          "type": "bytes4"
        }
      ],
      "name": "supportsInterface",
      "outputs": [
        {
          "name": "",
          "type": "bool"
        }
      ],
      "payable": false,
      "stateMutability": "view",
      "type": "function"
    },
    {
      "constant": true,
      "inputs": [],
      "name": "name",
      "outputs": [
        {
          "name": "",
          "type": "string"
        }
      ],
      "payable": false,
      "stateMutability": "view",
      "type": "function"
    },
    {
      "constant": true,
      "inputs": [
        {
          "name": "tokenId",
          "type": "uint256"
        }
      ],
      "name": "getApproved",
      "outputs": [
        {
          "name": "",
          "type": "address"
        }
      ],
      "payable": false,
      "stateMutability": "view",
      "type": "function"
    },
    {
      "constant": false,
      "inputs": [
        {
          "name": "to",
          "type": "address"
        },
        {
          "name": "tokenId",
          "type": "uint256"
        }
      ],
      "name": "approve",
      "outputs": [],
      "payable": false,
      "stateMutability": "nonpayable",
      "type": "function"
    },
    {
      "constant": true,
      "inputs": [],
      "name": "totalSupply",
      "outputs": [
        {
          "name": "",
          "type": "uint256"
        }
      ],
      "payable": false,
      "stateMutability": "view",
      "type": "function"
    },
    {
      "constant": false,
      "inputs": [
        {
          "name": "from",
          "type": "address"
        },
        {
          "name": "to",
          "type": "address"
        },
        {
          "name": "tokenId",
          "type": "uint256"
        }
      ],
      "name": "transferFrom",
      "outputs": [],
      "payable": false,
      "stateMutability": "nonpayable",
      "type": "function"
    },
    {
      "constant": true,
      "inputs": [
        {
          "name": "owner",
          "type": "address"
        },
        {
          "name": "index",
          "type": "uint256"
        }
      ],
      "name": "tokenOfOwnerByIndex",
      "outputs": [
        {
          "name": "",
          "type": "uint256"
        }
      ],
      "payable": false,
      "stateMutability": "view",
      "type": "function"
    },
    {
      "constant": false,
      "inputs": [],
      "name": "unpause",
      "outputs": [],
      "payable": false,
      "stateMutability": "nonpayable",
      "type": "function"
    },
    {
      "constant": false,
      "inputs": [
        {
          "name": "to",
          "type": "address"
        },
        {
          "name": "tokenId",
          "type": "uint256"
        }
      ],
      "name": "mint",
      "outputs": [
        {
          "name": "",
          "type": "bool"
        }
      ],
      "payable": false,
      "stateMutability": "nonpayable",
      "type": "function"
    },
    {
      "constant": false,
      "inputs": [
        {
          "name": "from",
          "type": "address"
        },
        {
          "name": "to",
          "type": "address"
        },
        {
          "name": "tokenId",
          "type": "uint256"
        }
      ],
      "name": "safeTransferFrom",
      "outputs": [],
      "payable": false,
      "stateMutability": "nonpayable",
      "type": "function"
    },
    {
      "constant": false,
      "inputs": [
        {
          "name": "tokenId",
          "type": "uint256"
        }
      ],
      "name": "burn",
      "outputs": [],
      "payable": false,
      "stateMutability": "nonpayable",
      "type": "function"
    },
    {
      "constant": true,
      "inputs": [
        {
          "name": "account",
          "type": "address"
        }
      ],
      "name": "isPauser",
      "outputs": [
        {
          "name": "",
          "type": "bool"
        }
      ],
      "payable": false,
      "stateMutability": "view",
      "type": "function"
    },
    {
      "constant": true,
      "inputs": [
        {
          "name": "index",
          "type": "uint256"
        }
      ],
      "name": "tokenByIndex",
      "outputs": [
        {
          "name": "",
          "type": "uint256"
        }
      ],
      "payable": false,
      "stateMutability": "view",
      "type": "function"
    },
    {
      "constant": false,
      "inputs": [
        {
          "name": "to",
          "type": "address"
        },
        {
          "name": "tokenId",
          "type": "uint256"
        },
        {
          "name": "tokenURI",
          "type": "string"
        }
      ],
      "name": "mintWithTokenURI",
      "outputs": [
        {
          "name": "",
          "type": "bool"
        }
      ],
      "payable": false,
      "stateMutability": "nonpayable",
      "type": "function"
    },
    {
      "constant": true,
      "inputs": [],
      "name": "paused",
      "outputs": [
        {
          "name": "",
          "type": "bool"
        }
      ],
      "payable": false,
      "stateMutability": "view",
      "type": "function"
    },
    {
      "constant": true,
      "inputs": [
        {
          "name": "tokenId",
          "type": "uint256"
        }
      ],
      "name": "ownerOf",
      "outputs": [
        {
          "name": "",
          "type": "address"
        }
      ],
      "payable": false,
      "stateMutability": "view",
      "type": "function"
    },
    {
      "constant": false,
      "inputs": [],
      "name": "renouncePauser",
      "outputs": [],
      "payable": false,
      "stateMutability": "nonpayable",
      "type": "function"
    },
    {
      "constant": true,
      "inputs": [
        {
          "name": "owner",
          "type": "address"
        }
      ],
      "name": "balanceOf",
      "outputs": [
        {
          "name": "",
          "type": "uint256"
        }
      ],
      "payable": false,
      "stateMutability": "view",
      "type": "function"
    },
    {
      "constant": false,
      "inputs": [],
      "name": "renounceOwnership",
      "outputs": [],
      "payable": false,
      "stateMutability": "nonpayable",
      "type": "function"
    },
    {
      "constant": false,
      "inputs": [
        {
          "name": "account",
          "type": "address"
        }
      ],
      "name": "addPauser",
      "outputs": [],
      "payable": false,
      "stateMutability": "nonpayable",
      "type": "function"
    },
    {
      "constant": false,
      "inputs": [],
      "name": "pause",
      "outputs": [],
      "payable": false,
      "stateMutability": "nonpayable",
      "type": "function"
    },
    {
      "constant": true,
      "inputs": [],
      "name": "owner",
      "outputs": [
        {
          "name": "",
          "type": "address"
        }
      ],
      "payable": false,
      "stateMutability": "view",
      "type": "function"
    },
    {
      "constant": true,
      "inputs": [],
      "name": "isOwner",
      "outputs": [
        {
          "name": "",
          "type": "bool"
        }
      ],
      "payable": false,
      "stateMutability": "view",
      "type": "function"
    },
    {
      "constant": true,
      "inputs": [],
      "name": "symbol",
      "outputs": [
        {
          "name": "",
          "type": "string"
        }
      ],
      "payable": false,
      "stateMutability": "view",
      "type": "function"
    },
    {
      "constant": false,
      "inputs": [
        {
          "name": "account",
          "type": "address"
        }
      ],
      "name": "addMinter",
      "outputs": [],
      "payable": false,
      "stateMutability": "nonpayable",
      "type": "function"
    },
    {
      "constant": false,
      "inputs": [],
      "name": "renounceMinter",
      "outputs": [],
      "payable": false,
      "stateMutability": "nonpayable",
      "type": "function"
    },
    {
      "constant": false,
      "inputs": [
        {
          "name": "to",
          "type": "address"
        },
        {
          "name": "approved",
          "type": "bool"
        }
      ],
      "name": "setApprovalForAll",
      "outputs": [],
      "payable": false,
      "stateMutability": "nonpayable",
      "type": "function"
    },
    {
      "constant": true,
      "inputs": [
        {
          "name": "account",
          "type": "address"
        }
      ],
      "name": "isMinter",
      "outputs": [
        {
          "name": "",
          "type": "bool"
        }
      ],
      "payable": false,
      "stateMutability": "view",
      "type": "function"
    },
    {
      "constant": false,
      "inputs": [
        {
          "name": "to",
          "type": "address"
        },
        {
          "name": "tokenIds",
          "type": "uint256[]"
        },
        {
          "name": "tokenURIs",
          "type": "string[]"
        }
      ],
      "name": "batchMintWithTokenURI",
      "outputs": [
        {
          "name": "",
          "type": "bool"
        }
      ],
      "payable": false,
      "stateMutability": "nonpayable",
      "type": "function"
    },
    {
      "constant": false,
      "inputs": [
        {
          "name": "from",
          "type": "address"
        },
        {
          "name": "to",
          "type": "address"
        },
        {
          "name": "tokenId",
          "type": "uint256"
        },
        {
          "name": "_data",
          "type": "bytes"
        }
      ],
      "name": "safeTransferFrom",
      "outputs": [],
      "payable": false,
      "stateMutability": "nonpayable",
      "type": "function"
    },
    {
      "constant": false,
      "inputs": [
        {
          "name": "to",
          "type": "address"
        },
        {
          "name": "tokenIds",
          "type": "uint256[]"
        },
        {
          "name": "tokenURI",
          "type": "string"
        }
      ],
      "name": "batchMintWithTokenUriLight",
      "outputs": [
        {
          "name": "",
          "type": "bool"
        }
      ],
      "payable": false,
      "stateMutability": "nonpayable",
      "type": "function"
    },
    {
      "constant": true,
      "inputs": [
        {
          "name": "tokenId",
          "type": "uint256"
        }
      ],
      "name": "tokenURI",
      "outputs": [
        {
          "name": "",
          "type": "string"
        }
      ],
      "payable": false,
      "stateMutability": "view",
      "type": "function"
    },
    {
      "constant": true,
      "inputs": [
        {
          "name": "owner",
          "type": "address"
        },
        {
          "name": "operator",
          "type": "address"
        }
      ],
      "name": "isApprovedForAll",
      "outputs": [
        {
          "name": "",
          "type": "bool"
        }
      ],
      "payable": false,
      "stateMutability": "view",
      "type": "function"
    },
    {
      "constant": false,
      "inputs": [
        {
          "name": "newOwner",
          "type": "address"
        }
      ],
      "name": "transferOwnership",
      "outputs": [],
      "payable": false,
      "stateMutability": "nonpayable",
      "type": "function"
    },
    {
      "inputs": [
        {
          "name": "name",
          "type": "string"
        },
        {
          "name": "symbol",
          "type": "string"
        }
      ],
      "payable": false,
      "stateMutability": "nonpayable",
      "type": "constructor"
    },
    {
      "anonymous": false,
      "inputs": [
        {
          "indexed": false,
          "name": "account",
          "type": "address"
        }
      ],
      "name": "Paused",
      "type": "event"
    },
    {
      "anonymous": false,
      "inputs": [
        {
          "indexed": false,
          "name": "account",
          "type": "address"
        }
      ],
      "name": "Unpaused",
      "type": "event"
    },
    {
      "anonymous": false,
      "inputs": [
        {
          "indexed": true,
          "name": "account",
          "type": "address"
        }
      ],
      "name": "PauserAdded",
      "type": "event"
    },
    {
      "anonymous": false,
      "inputs": [
        {
          "indexed": true,
          "name": "account",
          "type": "address"
        }
      ],
      "name": "PauserRemoved",
      "type": "event"
    },
    {
      "anonymous": false,
      "inputs": [
        {
          "indexed": true,
          "name": "account",
          "type": "address"
        }
      ],
      "name": "MinterAdded",
      "type": "event"
    },
    {
      "anonymous": false,
      "inputs": [
        {
          "indexed": true,
          "name": "account",
          "type": "address"
        }
      ],
      "name": "MinterRemoved",
      "type": "event"
    },
    {
      "anonymous": false,
      "inputs": [
        {
          "indexed": true,
          "name": "previousOwner",
          "type": "address"
        },
        {
          "indexed": true,
          "name": "newOwner",
          "type": "address"
        }
      ],
      "name": "OwnershipTransferred",
      "type": "event"
    },
    {
      "anonymous": false,
      "inputs": [
        {
          "indexed": true,
          "name": "from",
          "type": "address"
        },
        {
          "indexed": true,
          "name": "to",
          "type": "address"
        },
        {
          "indexed": true,
          "name": "tokenId",
          "type": "uint256"
        }
      ],
      "name": "Transfer",
      "type": "event"
    },
    {
      "anonymous": false,
      "inputs": [
        {
          "indexed": true,
          "name": "owner",
          "type": "address"
        },
        {
          "indexed": true,
          "name": "approved",
          "type": "address"
        },
        {
          "indexed": true,
          "name": "tokenId",
          "type": "uint256"
        }
      ],
      "name": "Approval",
      "type": "event"
    },
    {
      "anonymous": false,
      "inputs": [
        {
          "indexed": true,
          "name": "owner",
          "type": "address"
        },
        {
          "indexed": true,
          "name": "operator",
          "type": "address"
        },
        {
          "indexed": false,
          "name": "approved",
          "type": "bool"
        }
      ],
      "name": "ApprovalForAll",
      "type": "event"
    }
  ],
  "bytecode": "0x60806040523480156200001157600080fd5b50604051620033c3380380620033c38339810180604052620000379190810190620004e5565b81818181620000536301ffc9a760e01b620001c560201b60201c565b6200006b6380ac58cd60e01b620001c560201b60201c565b6200008363780e9d6360e01b620001c560201b60201c565b815162000098906009906020850190620003e4565b508051620000ae90600a906020840190620003e4565b50620000c7635b5e139f60e01b620001c560201b60201c565b5050600c80546001600160a01b0319163317908190556040516001600160a01b0391909116906000907f8be0079c531659141344cd1fd0a4f28419497f9722a3daafe3b4186f6b6457e0908290a3505062000128336200026a60201b60201c565b6200014063eab83e2060e01b620001c560201b60201c565b6200015863fac27f4660e01b620001c560201b60201c565b620001706342966c6860e01b620001c560201b60201c565b6200018133620002bc60201b60201c565b600f805460ff19169055620001bd7f4d5507ff00000000000000000000000000000000000000000000000000000000620001c5602090811b901c565b5050620006f1565b7fffffffff0000000000000000000000000000000000000000000000000000000080821614156200022d576040517f08c379a0000000000000000000000000000000000000000000000000000000008152600401620002249062000642565b60405180910390fd5b7fffffffff00000000000000000000000000000000000000000000000000000000166000908152602081905260409020805460ff19166001179055565b6200028581600d6200030e60201b620016171790919060201c565b6040516001600160a01b038216907f6ae172837ea30b801fbfcdd4108aa1d5bf8ff775444fd70256b44e6bf3dfc3f690600090a250565b620002d781600e6200030e60201b620016171790919060201c565b6040516001600160a01b038216907f6719d08c1888103bea251a4ed56406bd0c3e69723c8a1686e017e7bbe159b6f890600090a250565b6200032082826200037f60201b60201c565b156200035a576040517f08c379a000000000000000000000000000000000000000000000000000000000815260040162000224906200062a565b6001600160a01b0316600090815260209190915260409020805460ff19166001179055565b60006001600160a01b038216620003c4576040517f08c379a0000000000000000000000000000000000000000000000000000000008152600401620002249062000654565b506001600160a01b03166000908152602091909152604090205460ff1690565b828054600181600116156101000203166002900490600052602060002090601f016020900481019282601f106200042757805160ff191683800117855562000457565b8280016001018555821562000457579182015b82811115620004575782518255916020019190600101906200043a565b506200046592915062000469565b5090565b6200048691905b8082111562000465576000815560010162000470565b90565b600082601f8301126200049b57600080fd5b8151620004b2620004ac826200068d565b62000666565b91508082526020830160208301858383011115620004cf57600080fd5b620004dc838284620006be565b50505092915050565b60008060408385031215620004f957600080fd5b82516001600160401b038111156200051057600080fd5b6200051e8582860162000489565b92505060208301516001600160401b038111156200053b57600080fd5b620005498582860162000489565b9150509250929050565b600062000562601f83620006b5565b7f526f6c65733a206163636f756e7420616c72656164792068617320726f6c6500815260200192915050565b60006200059d601b83620006b5565b7f4b495031333a20696e76616c696420696e746572666163652069640000000000815260200192915050565b6000620005d8602283620006b5565b7f526f6c65733a206163636f756e7420697320746865207a65726f20616464726581527f7373000000000000000000000000000000000000000000000000000000000000602082015260400192915050565b602080825281016200063c8162000553565b92915050565b602080825281016200063c816200058e565b602080825281016200063c81620005c9565b6040518181016001600160401b03811182821017156200068557600080fd5b604052919050565b60006001600160401b03821115620006a457600080fd5b506020601f91909101601f19160190565b90815260200190565b60005b83811015620006db578181015183820152602001620006c1565b83811115620006eb576000848401525b50505050565b612cc280620007016000396000f3fe608060405234801561001057600080fd5b50600436106102065760003560e01c806370a082311161011a57806398650275116100ad578063b88d4fde1161007c578063b88d4fde146103f8578063be4f1ba91461040b578063c87b56dd1461041e578063e985e9c514610431578063f2fde38b1461044457610206565b806398650275146103b7578063a22cb465146103bf578063aa271e1a146103d2578063acbdacda146103e557610206565b80638da5cb5b116100e95780638da5cb5b1461038c5780638f32d59b1461039457806395d89b411461039c578063983b2d56146103a457610206565b806370a0823114610356578063715018a61461036957806382dc1ec4146103715780638456cb591461038457610206565b806340c10f191161019d5780634f6ccce71161016c5780634f6ccce71461030d57806350bb4e7f146103205780635c975abb146103335780636352211e1461033b5780636ef8d66d1461034e57610206565b806340c10f19146102c157806342842e0e146102d457806342966c68146102e757806346fbf68e146102fa57610206565b806318160ddd116101d957806318160ddd1461027e57806323b872dd146102935780632f745c59146102a65780633f4ba83a146102b957610206565b806301ffc9a71461020b57806306fdde0314610234578063081812fc14610249578063095ea7b314610269575b600080fd5b61021e610219366004611fbc565b610457565b60405161022b919061298d565b60405180910390f35b61023c610476565b60405161022b919061299b565b61025c610257366004611ff8565b61050d565b60405161022b919061292d565b61027c610277366004611f5a565b61055c565b005b610286610590565b60405161022b9190612b7c565b61027c6102a1366004611d7e565b610596565b6102866102b4366004611f5a565b6105cc565b61027c610630565b61021e6102cf366004611f5a565b6106c1565b61027c6102e2366004611d7e565b6106fe565b61027c6102f5366004611ff8565b610719565b61021e610308366004611d26565b61074e565b61028661031b366004611ff8565b610761565b61021e61032e366004611f8a565b6107ab565b61021e6107f3565b61025c610349366004611ff8565b6107fc565b61027c610834565b610286610364366004611d26565b61083f565b61027c61088b565b61027c61037f366004611d26565b6108fc565b61027c61092d565b61025c6109b8565b61021e6109c7565b61023c6109d8565b61027c6103b2366004611d26565b610a39565b61027c610a6a565b61027c6103cd366004611f2a565b610a73565b61021e6103e0366004611d26565b610aa3565b61021e6103f3366004611e44565b610ab6565b61027c610406366004611dcb565b610b70565b61021e610419366004611eb7565b610bac565b61023c61042c366004611ff8565b610c17565b61021e61043f366004611d44565b610ce0565b61027c610452366004611d26565b610d0e565b6001600160e01b03191660009081526020819052604090205460ff1690565b60098054604080516020601f60026000196101006001881615020190951694909404938401819004810282018101909252828152606093909290918301828280156105025780601f106104d757610100808354040283529160200191610502565b820191906000526020600020905b8154815290600101906020018083116104e557829003601f168201915b505050505090505b90565b600061051882610d3e565b61054057604051600160e51b62461bcd02815260040161053790612b3c565b60405180910390fd5b506000908152600260205260409020546001600160a01b031690565b600f5460ff161561058257604051600160e51b62461bcd02815260040161053790612a3c565b61058c8282610d5b565b5050565b60075490565b600f5460ff16156105bc57604051600160e51b62461bcd02815260040161053790612a3c565b6105c7838383610e34565b505050565b60006105d78361083f565b82106105f857604051600160e51b62461bcd02815260040161053790612a4c565b6001600160a01b038316600090815260056020526040902080548390811061061c57fe5b906000526020600020015490505b92915050565b6106393361074e565b61065857604051600160e51b62461bcd028152600401610537906129ec565b600f5460ff1661067d57604051600160e51b62461bcd028152600401610537906129bc565b600f805460ff191690556040517f5db9ee0a495bf2e6ff9c91a7834c1ba4fdd244a5e8aa4e537bd38aeae4b073aa906106b790339061293b565b60405180910390a1565b60006106cc33610aa3565b6106eb57604051600160e51b62461bcd02815260040161053790612a5c565b6106f58383610e68565b50600192915050565b6105c783838360405180602001604052806000815250610b70565b6107233382610e85565b61074257604051600160e51b62461bcd02815260040161053790612aec565b61074b81610f0d565b50565b600061062a600e8363ffffffff610f1f16565b600061076b610590565b821061078c57604051600160e51b62461bcd02815260040161053790612b1c565b6007828154811061079957fe5b90600052602060002001549050919050565b60006107b633610aa3565b6107d557604051600160e51b62461bcd02815260040161053790612a5c565b6107df8484610e68565b6107e98383610f6a565b5060019392505050565b600f5460ff1690565b6000818152600160205260408120546001600160a01b03168061062a57604051600160e51b62461bcd02815260040161053790612a7c565b61083d33610fb1565b565b60006001600160a01b03821661086a57604051600160e51b62461bcd02815260040161053790612afc565b6001600160a01b038216600090815260036020526040902061062a90610ff9565b6108936109c7565b6108b257604051600160e51b62461bcd02815260040161053790612abc565b600c546040516000916001600160a01b0316907f8be0079c531659141344cd1fd0a4f28419497f9722a3daafe3b4186f6b6457e0908390a3600c80546001600160a01b0319169055565b6109053361074e565b61092457604051600160e51b62461bcd028152600401610537906129ec565b61074b81610ffd565b6109363361074e565b61095557604051600160e51b62461bcd028152600401610537906129ec565b600f5460ff161561097b57604051600160e51b62461bcd02815260040161053790612a3c565b600f805460ff191660011790556040517f62e78cea01bee320cd4e420270b5ea74000d11b0c9f74754ebdbfc544b05a258906106b790339061293b565b600c546001600160a01b031690565b600c546001600160a01b0316331490565b600a8054604080516020601f60026000196101006001881615020190951694909404938401819004810282018101909252828152606093909290918301828280156105025780601f106104d757610100808354040283529160200191610502565b610a4233610aa3565b610a6157604051600160e51b62461bcd02815260040161053790612a5c565b61074b81611045565b61083d3361108d565b600f5460ff1615610a9957604051600160e51b62461bcd02815260040161053790612a3c565b61058c82826110d5565b600061062a600d8363ffffffff610f1f16565b6000610ac133610aa3565b610ae057604051600160e51b62461bcd02815260040161053790612a5c565b8151835114610b0457604051600160e51b62461bcd028152600401610537906129ac565b60005b8351811015610b6557610b2d85858381518110610b2057fe5b6020026020010151610e68565b610b5d848281518110610b3c57fe5b6020026020010151848381518110610b5057fe5b6020026020010151610f6a565b600101610b07565b506001949350505050565b610b7b848484610596565b610b8784848484611170565b610ba657604051600160e51b62461bcd02815260040161053790612adc565b50505050565b6000610bb733610aa3565b610bd657604051600160e51b62461bcd02815260040161053790612a5c565b60005b8351811015610b6557610bf285858381518110610b2057fe5b610c0f848281518110610c0157fe5b602002602001015184610f6a565b600101610bd9565b6060610c2282610d3e565b610c4157604051600160e51b62461bcd028152600401610537906129dc565b6000828152600b602090815260409182902080548351601f600260001961010060018616150201909316929092049182018490048402810184019094528084529091830182828015610cd45780601f10610ca957610100808354040283529160200191610cd4565b820191906000526020600020905b815481529060010190602001808311610cb757829003601f168201915b50505050509050919050565b6001600160a01b03918216600090815260046020908152604080832093909416825291909152205460ff1690565b610d166109c7565b610d3557604051600160e51b62461bcd02815260040161053790612abc565b61074b81611391565b6000908152600160205260409020546001600160a01b0316151590565b6000610d66826107fc565b9050806001600160a01b0316836001600160a01b03161415610d9d57604051600160e51b62461bcd02815260040161053790612a1c565b336001600160a01b0382161480610db95750610db98133610ce0565b610dd857604051600160e51b62461bcd02815260040161053790612b4c565b60008281526002602052604080822080546001600160a01b0319166001600160a01b0387811691821790925591518593918516917f8c5be1e5ebec7d5bd14f71427d1e84f3dd0314c0f7b2291e5b200ac8c7c3b92591a4505050565b610e3e3382610e85565b610e5d57604051600160e51b62461bcd02815260040161053790612aac565b6105c7838383611416565b610e728282611435565b610e7c8282611502565b61058c81611540565b6000610e9082610d3e565b610eaf57604051600160e51b62461bcd02815260040161053790612b6c565b6000610eba836107fc565b9050806001600160a01b0316846001600160a01b03161480610ef55750836001600160a01b0316610eea8461050d565b6001600160a01b0316145b80610f055750610f058185610ce0565b949350505050565b61074b610f19826107fc565b82611584565b60006001600160a01b038216610f4a57604051600160e51b62461bcd02815260040161053790612acc565b506001600160a01b03166000908152602091909152604090205460ff1690565b610f7382610d3e565b610f9257604051600160e51b62461bcd02815260040161053790612a8c565b6000828152600b6020908152604090912082516105c792840190611ac3565b610fc2600e8263ffffffff6115cc16565b6040516001600160a01b038216907fcd265ebaf09df2871cc7bd4133404a235ba12eff2041bb89d9c714a2621c7c7e90600090a250565b5490565b61100e600e8263ffffffff61161716565b6040516001600160a01b038216907f6719d08c1888103bea251a4ed56406bd0c3e69723c8a1686e017e7bbe159b6f890600090a250565b611056600d8263ffffffff61161716565b6040516001600160a01b038216907f6ae172837ea30b801fbfcdd4108aa1d5bf8ff775444fd70256b44e6bf3dfc3f690600090a250565b61109e600d8263ffffffff6115cc16565b6040516001600160a01b038216907fe94479a9f7e1952cc78f2d6baab678adc1b772d936c6583def489e524cb6669290600090a250565b6001600160a01b03821633141561110157604051600160e51b62461bcd02815260040161053790612a9c565b3360008181526004602090815260408083206001600160a01b038716808552925291829020805460ff191685151517905590519091907f17307eab39ab6107e8899845ad3d59bd9653f200f220920489ca2b5937696c319061116490859061298d565b60405180910390a35050565b6000806060611187866001600160a01b0316611666565b61119657600192505050610f05565b856001600160a01b031663150b7a0260e01b338988886040516024016111bf9493929190612949565b60408051601f198184030181529181526020820180516001600160e01b03166001600160e01b03199094169390931790925290516111fd9190612921565b6000604051808303816000865af19150503d806000811461123a576040519150601f19603f3d011682016040523d82523d6000602084013e61123f565b606091505b50805191935091501580159061127d57508051600160e11b630a85bd0102906112719083016020908101908401611fda565b6001600160e01b031916145b1561128d57600192505050610f05565b856001600160a01b0316636745782b60e01b338988886040516024016112b69493929190612949565b60408051601f198184030181529181526020820180516001600160e01b03166001600160e01b03199094169390931790925290516112f49190612921565b6000604051808303816000865af19150503d8060008114611331576040519150601f19603f3d011682016040523d82523d6000602084013e611336565b606091505b50805191935091501580159061137457508051600160e01b636745782b02906113689083016020908101908401611fda565b6001600160e01b031916145b1561138457600192505050610f05565b5060009695505050505050565b6001600160a01b0381166113ba57604051600160e51b62461bcd028152600401610537906129fc565b600c546040516001600160a01b038084169216907f8be0079c531659141344cd1fd0a4f28419497f9722a3daafe3b4186f6b6457e090600090a3600c80546001600160a01b0319166001600160a01b0392909216919091179055565b61142183838361166c565b61142b8382611778565b6105c78282611502565b6001600160a01b03821661145e57604051600160e51b62461bcd02815260040161053790612a2c565b61146781610d3e565b1561148757604051600160e51b62461bcd02815260040161053790612b5c565b600081815260016020908152604080832080546001600160a01b0319166001600160a01b0387169081179091558352600390915290206114c69061186d565b60405181906001600160a01b038416906000907fddf252ad1be2c89b69c2b068fc378daa952ba7f163c4a11628f55a4df523b3ef908290a45050565b6001600160a01b0390911660009081526005602081815260408084208054868652600684529185208290559282526001810183559183529091200155565b600780546000838152600860205260408120829055600182018355919091527fa66cc928b5edb82af9bd49922954155ab7b0942694bea4ce44661d9a8736c6880155565b61158e8282611876565b6000818152600b6020526040902054600260001961010060018416150201909116041561058c576000818152600b6020526040812061058c91611b41565b6115d68282610f1f565b6115f557604051600160e51b62461bcd02815260040161053790612a6c565b6001600160a01b0316600090815260209190915260409020805460ff19169055565b6116218282610f1f565b1561164157604051600160e51b62461bcd028152600401610537906129cc565b6001600160a01b0316600090815260209190915260409020805460ff19166001179055565b3b151590565b826001600160a01b031661167f826107fc565b6001600160a01b0316146116a857604051600160e51b62461bcd02815260040161053790612b0c565b6001600160a01b0382166116d157604051600160e51b62461bcd02815260040161053790612a0c565b6116da816118a2565b6001600160a01b03831660009081526003602052604090206116fb906118dd565b6001600160a01b038216600090815260036020526040902061171c9061186d565b60008181526001602052604080822080546001600160a01b0319166001600160a01b0386811691821790925591518493918716917fddf252ad1be2c89b69c2b068fc378daa952ba7f163c4a11628f55a4df523b3ef91a4505050565b6001600160a01b0382166000908152600560205260408120546117a290600163ffffffff6118f416565b60008381526006602052604090205490915080821461183d576001600160a01b03841660009081526005602052604081208054849081106117df57fe5b906000526020600020015490508060056000876001600160a01b03166001600160a01b03168152602001908152602001600020838154811061181d57fe5b600091825260208083209091019290925591825260069052604090208190555b6001600160a01b0384166000908152600560205260409020805490611866906000198301611b85565b5050505050565b80546001019055565b611880828261193d565b61188a8282611778565b60008181526006602052604081205561058c816119f8565b6000818152600260205260409020546001600160a01b03161561074b57600090815260026020526040902080546001600160a01b0319169055565b80546118f090600163ffffffff6118f416565b9055565b600061193683836040518060400160405280601e81526020017f536166654d6174683a207375627472616374696f6e206f766572666c6f770000815250611a94565b9392505050565b816001600160a01b0316611950826107fc565b6001600160a01b03161461197957604051600160e51b62461bcd02815260040161053790612b2c565b611982816118a2565b6001600160a01b03821660009081526003602052604090206119a3906118dd565b60008181526001602052604080822080546001600160a01b0319169055518291906001600160a01b038516907fddf252ad1be2c89b69c2b068fc378daa952ba7f163c4a11628f55a4df523b3ef908390a45050565b600754600090611a0f90600163ffffffff6118f416565b60008381526008602052604081205460078054939450909284908110611a3157fe5b906000526020600020015490508060078381548110611a4c57fe5b60009182526020808320909101929092558281526008909152604090208290556007805490611a7f906000198301611b85565b50505060009182525060086020526040812055565b60008184841115611abb57604051600160e51b62461bcd028152600401610537919061299b565b505050900390565b828054600181600116156101000203166002900490600052602060002090601f016020900481019282601f10611b0457805160ff1916838001178555611b31565b82800160010185558215611b31579182015b82811115611b31578251825591602001919060010190611b16565b50611b3d929150611ba5565b5090565b50805460018160011615610100020316600290046000825580601f10611b67575061074b565b601f01602090049060005260206000209081019061074b9190611ba5565b8154818355818111156105c7576000838152602090206105c79181019083015b61050a91905b80821115611b3d5760008155600101611bab565b60006119368235612c0c565b600082601f830112611bdc57600080fd5b8135611bef611bea82612bb1565b612b8a565b81815260209384019390925082018360005b83811015611c2d5781358601611c178882611ccb565b8452506020928301929190910190600101611c01565b5050505092915050565b600082601f830112611c4857600080fd5b8135611c56611bea82612bb1565b91508181835260208401935060208101905083856020840282011115611c7b57600080fd5b60005b83811015611c2d5781611c918882611d1a565b8452506020928301929190910190600101611c7e565b60006119368235612c17565b60006119368235612c28565b60006119368251612c28565b600082601f830112611cdc57600080fd5b8135611cea611bea82612bd2565b91508082526020830160208301858383011115611d0657600080fd5b611d11838284612c46565b50505092915050565b6000611936823561050a565b600060208284031215611d3857600080fd5b6000610f058484611bbf565b60008060408385031215611d5757600080fd5b6000611d638585611bbf565b9250506020611d7485828601611bbf565b9150509250929050565b600080600060608486031215611d9357600080fd5b6000611d9f8686611bbf565b9350506020611db086828701611bbf565b9250506040611dc186828701611d1a565b9150509250925092565b60008060008060808587031215611de157600080fd5b6000611ded8787611bbf565b9450506020611dfe87828801611bbf565b9350506040611e0f87828801611d1a565b925050606085013567ffffffffffffffff811115611e2c57600080fd5b611e3887828801611ccb565b91505092959194509250565b600080600060608486031215611e5957600080fd5b6000611e658686611bbf565b935050602084013567ffffffffffffffff811115611e8257600080fd5b611e8e86828701611c37565b925050604084013567ffffffffffffffff811115611eab57600080fd5b611dc186828701611bcb565b600080600060608486031215611ecc57600080fd5b6000611ed88686611bbf565b935050602084013567ffffffffffffffff811115611ef557600080fd5b611f0186828701611c37565b925050604084013567ffffffffffffffff811115611f1e57600080fd5b611dc186828701611ccb565b60008060408385031215611f3d57600080fd5b6000611f498585611bbf565b9250506020611d7485828601611ca7565b60008060408385031215611f6d57600080fd5b6000611f798585611bbf565b9250506020611d7485828601611d1a565b600080600060608486031215611f9f57600080fd5b6000611fab8686611bbf565b9350506020611f0186828701611d1a565b600060208284031215611fce57600080fd5b6000610f058484611cb3565b600060208284031215611fec57600080fd5b6000610f058484611cbf565b60006020828403121561200a57600080fd5b6000610f058484611d1a565b61201f81612c35565b82525050565b61201f81612c0c565b61201f81612c17565b600061204282612bfa565b61204c8185612bfe565b935061205c818560208601612c52565b61206581612c7e565b9093019392505050565b600061207a82612bfa565b6120848185612c07565b9350612094818560208601612c52565b9290920192915050565b60006120ab601983612bfe565b7f6172726179206c656e67746820697320646966666572656e7400000000000000815260200192915050565b60006120e4601483612bfe565b7f5061757361626c653a206e6f7420706175736564000000000000000000000000815260200192915050565b600061211d601f83612bfe565b7f526f6c65733a206163636f756e7420616c72656164792068617320726f6c6500815260200192915050565b6000612156602e83612bfe565b7f4b495031374d657461646174613a2055524920717565727920666f72206e6f6e81527f6578697374656e7420746f6b656e000000000000000000000000000000000000602082015260400192915050565b60006121b5603083612bfe565b7f506175736572526f6c653a2063616c6c657220646f6573206e6f74206861766581527f207468652050617573657220726f6c6500000000000000000000000000000000602082015260400192915050565b6000612214602683612bfe565b7f4f776e61626c653a206e6577206f776e657220697320746865207a65726f20618152600160d01b6564647265737302602082015260400192915050565b600061225f602383612bfe565b7f4b495031373a207472616e7366657220746f20746865207a65726f20616464728152600160e81b6265737302602082015260400192915050565b60006122a7602083612bfe565b7f4b495031373a20617070726f76616c20746f2063757272656e74206f776e6572815260200192915050565b60006122e0601f83612bfe565b7f4b495031373a206d696e7420746f20746865207a65726f206164647265737300815260200192915050565b6000612319601083612bfe565b7f5061757361626c653a2070617573656400000000000000000000000000000000815260200192915050565b6000612352602a83612bfe565b7f4b49503137456e756d657261626c653a206f776e657220696e646578206f75748152600160b01b69206f6620626f756e647302602082015260400192915050565b60006123a1603083612bfe565b7f4d696e746572526f6c653a2063616c6c657220646f6573206e6f74206861766581527f20746865204d696e74657220726f6c6500000000000000000000000000000000602082015260400192915050565b6000612400602183612bfe565b7f526f6c65733a206163636f756e7420646f6573206e6f74206861766520726f6c8152600160f81b606502602082015260400192915050565b6000612446602883612bfe565b7f4b495031373a206f776e657220717565727920666f72206e6f6e6578697374658152600160c11b67373a103a37b5b2b702602082015260400192915050565b6000612493602b83612bfe565b7f4b495031374d657461646174613a2055524920736574206f66206e6f6e6578698152600160a91b6a39ba32b73a103a37b5b2b702602082015260400192915050565b60006124e3601883612bfe565b7f4b495031373a20617070726f766520746f2063616c6c65720000000000000000815260200192915050565b600061251c603083612bfe565b7f4b495031373a207472616e736665722063616c6c6572206973206e6f74206f7781527f6e6572206e6f7220617070726f76656400000000000000000000000000000000602082015260400192915050565b600061257b602083612bfe565b7f4f776e61626c653a2063616c6c6572206973206e6f7420746865206f776e6572815260200192915050565b60006125b4602283612bfe565b7f526f6c65733a206163636f756e7420697320746865207a65726f2061646472658152600160f01b61737302602082015260400192915050565b60006125fb603083612bfe565b7f4b495031373a207472616e7366657220746f206e6f6e204b495031375265636581527f6976657220696d706c656d656e74657200000000000000000000000000000000602082015260400192915050565b600061265a602f83612bfe565b7f4b495031374275726e61626c653a2063616c6c6572206973206e6f74206f776e81527f6572206e6f7220617070726f7665640000000000000000000000000000000000602082015260400192915050565b60006126b9602983612bfe565b7f4b495031373a2062616c616e636520717565727920666f7220746865207a65728152600160b81b686f206164647265737302602082015260400192915050565b6000612707602883612bfe565b7f4b495031373a207472616e73666572206f6620746f6b656e20746861742069738152600160c11b67103737ba1037bbb702602082015260400192915050565b6000612754602b83612bfe565b7f4b49503137456e756d657261626c653a20676c6f62616c20696e646578206f758152600160a81b6a74206f6620626f756e647302602082015260400192915050565b60006127a4602483612bfe565b7f4b495031373a206275726e206f6620746f6b656e2074686174206973206e6f748152600160e11b631037bbb702602082015260400192915050565b60006127ed602b83612bfe565b7f4b495031373a20617070726f76656420717565727920666f72206e6f6e6578698152600160a91b6a39ba32b73a103a37b5b2b702602082015260400192915050565b600061283d603783612bfe565b7f4b495031373a20617070726f76652063616c6c6572206973206e6f74206f776e81527f6572206e6f7220617070726f76656420666f7220616c6c000000000000000000602082015260400192915050565b600061289c601b83612bfe565b7f4b495031373a20746f6b656e20616c7265616479206d696e7465640000000000815260200192915050565b60006128d5602b83612bfe565b7f4b495031373a206f70657261746f7220717565727920666f72206e6f6e6578698152600160a91b6a39ba32b73a103a37b5b2b702602082015260400192915050565b61201f8161050a565b6000611936828461206f565b6020810161062a8284612025565b6020810161062a8284612016565b608081016129578287612025565b6129646020830186612025565b6129716040830185612918565b81810360608301526129838184612037565b9695505050505050565b6020810161062a828461202e565b602080825281016119368184612037565b6020808252810161062a8161209e565b6020808252810161062a816120d7565b6020808252810161062a81612110565b6020808252810161062a81612149565b6020808252810161062a816121a8565b6020808252810161062a81612207565b6020808252810161062a81612252565b6020808252810161062a8161229a565b6020808252810161062a816122d3565b6020808252810161062a8161230c565b6020808252810161062a81612345565b6020808252810161062a81612394565b6020808252810161062a816123f3565b6020808252810161062a81612439565b6020808252810161062a81612486565b6020808252810161062a816124d6565b6020808252810161062a8161250f565b6020808252810161062a8161256e565b6020808252810161062a816125a7565b6020808252810161062a816125ee565b6020808252810161062a8161264d565b6020808252810161062a816126ac565b6020808252810161062a816126fa565b6020808252810161062a81612747565b6020808252810161062a81612797565b6020808252810161062a816127e0565b6020808252810161062a81612830565b6020808252810161062a8161288f565b6020808252810161062a816128c8565b6020810161062a8284612918565b60405181810167ffffffffffffffff81118282101715612ba957600080fd5b604052919050565b600067ffffffffffffffff821115612bc857600080fd5b5060209081020190565b600067ffffffffffffffff821115612be957600080fd5b506020601f91909101601f19160190565b5190565b90815260200190565b919050565b600061062a82612c1c565b151590565b6001600160a01b031690565b6001600160e01b03191690565b600061062a82600061062a82612c0c565b82818337506000910152565b60005b83811015612c6d578181015183820152602001612c55565b83811115610ba65750506000910152565b601f01601f19169056fea265627a7a72305820c2181e839f283acc237a45d6d26ae8451d5ccefa592ea6b646247380748f55f56c6578706572696d656e74616cf50037",
  "source": "pragma solidity ^0.5.0;\npragma experimental ABIEncoderV2;\n\nimport \"./KIP17Full.sol\";\nimport \"./KIP17MetadataMintable.sol\";\nimport \"./KIP17Mintable.sol\";\nimport \"./KIP17Burnable.sol\";\nimport \"./KIP17Pausable.sol\";\n\ncontract KIP17Token is KIP17Full, KIP17Mintable, KIP17MetadataMintable, KIP17Burnable, KIP17Pausable {\n    constructor (string memory name, string memory symbol) public KIP17Full(name, symbol) {\n    }\n}\n",
  "sourcePath": "/Users/peter/Develop/NFT/klaytn-contracts/contracts/token/KIP17/KIP17Token.sol",
  "compiler": {
    "name": "solc",
    "version": "0.5.6+commit.b259423e.Emscripten.clang"
  },
  "schemaVersion": "3.4.7",
  "updatedAt": "2022-06-17T07:57:09.511Z",
  "devdoc": {
    "methods": {
      "balanceOf(address)": {
        "details": "Gets the balance of the specified address.",
        "params": {
          "owner": "address to query the balance of"
        },
        "return": "uint256 representing the amount owned by the passed address"
      },
      "burn(uint256)": {
        "details": "Burns a specific KIP17 token.",
        "params": {
          "tokenId": "uint256 id of the KIP17 token to be burned."
        }
      },
      "getApproved(uint256)": {
        "details": "Gets the approved address for a token ID, or zero if no address set Reverts if the token ID does not exist.",
        "params": {
          "tokenId": "uint256 ID of the token to query the approval of"
        },
        "return": "address currently approved for the given token ID"
      },
      "isApprovedForAll(address,address)": {
        "details": "Tells whether an operator is approved by a given owner.",
        "params": {
          "operator": "operator address which you want to query the approval of",
          "owner": "owner address which you want to query the approval of"
        },
        "return": "bool whether the given operator is approved by the given owner"
      },
      "isOwner()": {
        "details": "Returns true if the caller is the current owner."
      },
      "mint(address,uint256)": {
        "details": "Function to mint tokens.",
        "params": {
          "to": "The address that will receive the minted tokens.",
          "tokenId": "The token id to mint."
        },
        "return": "A boolean that indicates if the operation was successful."
      },
      "mintWithTokenURI(address,uint256,string)": {
        "details": "Function to mint tokens.",
        "params": {
          "to": "The address that will receive the minted tokens.",
          "tokenId": "The token id to mint.",
          "tokenURI": "The token URI of the minted token."
        },
        "return": "A boolean that indicates if the operation was successful."
      },
      "name()": {
        "details": "Gets the token name.",
        "return": "string representing the token name"
      },
      "owner()": {
        "details": "Returns the address of the current owner."
      },
      "ownerOf(uint256)": {
        "details": "Gets the owner of the specified token ID.",
        "params": {
          "tokenId": "uint256 ID of the token to query the owner of"
        },
        "return": "address currently marked as the owner of the given token ID"
      },
      "pause()": {
        "details": "Called by a pauser to pause, triggers stopped state."
      },
      "paused()": {
        "details": "Returns true if the contract is paused, and false otherwise."
      },
      "renounceOwnership()": {
        "details": "Leaves the contract without owner. It will not be possible to call `onlyOwner` functions anymore. Can only be called by the current owner.     * > Note: Renouncing ownership will leave the contract without an owner, thereby removing any functionality that is only available to the owner."
      },
      "safeTransferFrom(address,address,uint256)": {
        "details": "Safely transfers the ownership of a given token ID to another address If the target address is a contract, it must implement `onKIP17Received`, which is called upon a safe transfer, and return the magic value `bytes4(keccak256(\"onKIP17Received(address,address,uint256,bytes)\"))`; otherwise, the transfer is reverted. Requires the msg.sender to be the owner, approved, or operator",
        "params": {
          "from": "current owner of the token",
          "to": "address to receive the ownership of the given token ID",
          "tokenId": "uint256 ID of the token to be transferred"
        }
      },
      "safeTransferFrom(address,address,uint256,bytes)": {
        "details": "Safely transfers the ownership of a given token ID to another address If the target address is a contract, it must implement `onKIP17Received`, which is called upon a safe transfer, and return the magic value `bytes4(keccak256(\"onKIP17Received(address,address,uint256,bytes)\"))`; otherwise, the transfer is reverted. Requires the msg.sender to be the owner, approved, or operator",
        "params": {
          "_data": "bytes data to send along with a safe transfer check",
          "from": "current owner of the token",
          "to": "address to receive the ownership of the given token ID",
          "tokenId": "uint256 ID of the token to be transferred"
        }
      },
      "supportsInterface(bytes4)": {
        "details": "See `IKIP13.supportsInterface`.     * Time complexity O(1), guaranteed to always use less than 30 000 gas."
      },
      "symbol()": {
        "details": "Gets the token symbol.",
        "return": "string representing the token symbol"
      },
      "tokenByIndex(uint256)": {
        "details": "Gets the token ID at a given index of all the tokens in this contract Reverts if the index is greater or equal to the total number of tokens.",
        "params": {
          "index": "uint256 representing the index to be accessed of the tokens list"
        },
        "return": "uint256 token ID at the given index of the tokens list"
      },
      "tokenOfOwnerByIndex(address,uint256)": {
        "details": "Gets the token ID at a given index of the tokens list of the requested owner.",
        "params": {
          "index": "uint256 representing the index to be accessed of the requested tokens list",
          "owner": "address owning the tokens list to be accessed"
        },
        "return": "uint256 token ID at the given index of the tokens list owned by the requested address"
      },
      "tokenURI(uint256)": {
        "details": "Returns an URI for a given token ID. Throws if the token ID does not exist. May return an empty string.",
        "params": {
          "tokenId": "uint256 ID of the token to query"
        }
      },
      "totalSupply()": {
        "details": "Gets the total amount of tokens stored by the contract.",
        "return": "uint256 representing the total amount of tokens"
      },
      "transferOwnership(address)": {
        "details": "Transfers ownership of the contract to a new account (`newOwner`). Can only be called by the current owner."
      },
      "unpause()": {
        "details": "Called by a pauser to unpause, returns to normal state."
      }
    }
  },
  "userdoc": {
    "methods": {}
  }
}