{
  "contractName": "KIP17Token",
  "abi": [
    {
      "constant": true,
      "inputs": [
        {
          "name": "interfaceId",
          "type": "bytes4"
        }
      ],
      "name": "supportsInterface",
      "outputs": [
        {
          "name": "",
          "type": "bool"
        }
      ],
      "payable": false,
      "stateMutability": "view",
      "type": "function"
    },
    {
      "constant": true,
      "inputs": [],
      "name": "name",
      "outputs": [
        {
          "name": "",
          "type": "string"
        }
      ],
      "payable": false,
      "stateMutability": "view",
      "type": "function"
    },
    {
      "constant": true,
      "inputs": [
        {
          "name": "tokenId",
          "type": "uint256"
        }
      ],
      "name": "getApproved",
      "outputs": [
        {
          "name": "",
          "type": "address"
        }
      ],
      "payable": false,
      "stateMutability": "view",
      "type": "function"
    },
    {
      "constant": false,
      "inputs": [
        {
          "name": "to",
          "type": "address"
        },
        {
          "name": "tokenId",
          "type": "uint256"
        }
      ],
      "name": "approve",
      "outputs": [],
      "payable": false,
      "stateMutability": "nonpayable",
      "type": "function"
    },
    {
      "constant": true,
      "inputs": [],
      "name": "totalSupply",
      "outputs": [
        {
          "name": "",
          "type": "uint256"
        }
      ],
      "payable": false,
      "stateMutability": "view",
      "type": "function"
    },
    {
      "constant": false,
      "inputs": [
        {
          "name": "from",
          "type": "address"
        },
        {
          "name": "to",
          "type": "address"
        },
        {
          "name": "tokenId",
          "type": "uint256"
        }
      ],
      "name": "transferFrom",
      "outputs": [],
      "payable": false,
      "stateMutability": "nonpayable",
      "type": "function"
    },
    {
      "constant": true,
      "inputs": [
        {
          "name": "owner",
          "type": "address"
        },
        {
          "name": "index",
          "type": "uint256"
        }
      ],
      "name": "tokenOfOwnerByIndex",
      "outputs": [
        {
          "name": "",
          "type": "uint256"
        }
      ],
      "payable": false,
      "stateMutability": "view",
      "type": "function"
    },
    {
      "constant": false,
      "inputs": [],
      "name": "unpause",
      "outputs": [],
      "payable": false,
      "stateMutability": "nonpayable",
      "type": "function"
    },
    {
      "constant": false,
      "inputs": [
        {
          "name": "to",
          "type": "address"
        },
        {
          "name": "tokenId",
          "type": "uint256"
        }
      ],
      "name": "mint",
      "outputs": [
        {
          "name": "",
          "type": "bool"
        }
      ],
      "payable": false,
      "stateMutability": "nonpayable",
      "type": "function"
    },
    {
      "constant": false,
      "inputs": [
        {
          "name": "from",
          "type": "address"
        },
        {
          "name": "to",
          "type": "address"
        },
        {
          "name": "tokenId",
          "type": "uint256"
        }
      ],
      "name": "safeTransferFrom",
      "outputs": [],
      "payable": false,
      "stateMutability": "nonpayable",
      "type": "function"
    },
    {
      "constant": false,
      "inputs": [
        {
          "name": "tokenId",
          "type": "uint256"
        }
      ],
      "name": "burn",
      "outputs": [],
      "payable": false,
      "stateMutability": "nonpayable",
      "type": "function"
    },
    {
      "constant": true,
      "inputs": [
        {
          "name": "account",
          "type": "address"
        }
      ],
      "name": "isPauser",
      "outputs": [
        {
          "name": "",
          "type": "bool"
        }
      ],
      "payable": false,
      "stateMutability": "view",
      "type": "function"
    },
    {
      "constant": true,
      "inputs": [
        {
          "name": "index",
          "type": "uint256"
        }
      ],
      "name": "tokenByIndex",
      "outputs": [
        {
          "name": "",
          "type": "uint256"
        }
      ],
      "payable": false,
      "stateMutability": "view",
      "type": "function"
    },
    {
      "constant": false,
      "inputs": [
        {
          "name": "to",
          "type": "address"
        },
        {
          "name": "tokenId",
          "type": "uint256"
        },
        {
          "name": "tokenURI",
          "type": "string"
        }
      ],
      "name": "mintWithTokenURI",
      "outputs": [
        {
          "name": "",
          "type": "bool"
        }
      ],
      "payable": false,
      "stateMutability": "nonpayable",
      "type": "function"
    },
    {
      "constant": true,
      "inputs": [],
      "name": "paused",
      "outputs": [
        {
          "name": "",
          "type": "bool"
        }
      ],
      "payable": false,
      "stateMutability": "view",
      "type": "function"
    },
    {
      "constant": true,
      "inputs": [
        {
          "name": "tokenId",
          "type": "uint256"
        }
      ],
      "name": "ownerOf",
      "outputs": [
        {
          "name": "",
          "type": "address"
        }
      ],
      "payable": false,
      "stateMutability": "view",
      "type": "function"
    },
    {
      "constant": false,
      "inputs": [],
      "name": "renouncePauser",
      "outputs": [],
      "payable": false,
      "stateMutability": "nonpayable",
      "type": "function"
    },
    {
      "constant": true,
      "inputs": [
        {
          "name": "owner",
          "type": "address"
        }
      ],
      "name": "balanceOf",
      "outputs": [
        {
          "name": "",
          "type": "uint256"
        }
      ],
      "payable": false,
      "stateMutability": "view",
      "type": "function"
    },
    {
      "constant": false,
      "inputs": [
        {
          "name": "account",
          "type": "address"
        }
      ],
      "name": "addPauser",
      "outputs": [],
      "payable": false,
      "stateMutability": "nonpayable",
      "type": "function"
    },
    {
      "constant": false,
      "inputs": [],
      "name": "pause",
      "outputs": [],
      "payable": false,
      "stateMutability": "nonpayable",
      "type": "function"
    },
    {
      "constant": true,
      "inputs": [],
      "name": "symbol",
      "outputs": [
        {
          "name": "",
          "type": "string"
        }
      ],
      "payable": false,
      "stateMutability": "view",
      "type": "function"
    },
    {
      "constant": false,
      "inputs": [
        {
          "name": "account",
          "type": "address"
        }
      ],
      "name": "addMinter",
      "outputs": [],
      "payable": false,
      "stateMutability": "nonpayable",
      "type": "function"
    },
    {
      "constant": false,
      "inputs": [],
      "name": "renounceMinter",
      "outputs": [],
      "payable": false,
      "stateMutability": "nonpayable",
      "type": "function"
    },
    {
      "constant": false,
      "inputs": [
        {
          "name": "to",
          "type": "address"
        },
        {
          "name": "approved",
          "type": "bool"
        }
      ],
      "name": "setApprovalForAll",
      "outputs": [],
      "payable": false,
      "stateMutability": "nonpayable",
      "type": "function"
    },
    {
      "constant": true,
      "inputs": [
        {
          "name": "account",
          "type": "address"
        }
      ],
      "name": "isMinter",
      "outputs": [
        {
          "name": "",
          "type": "bool"
        }
      ],
      "payable": false,
      "stateMutability": "view",
      "type": "function"
    },
    {
      "constant": false,
      "inputs": [
        {
          "name": "to",
          "type": "address"
        },
        {
          "name": "tokenIds",
          "type": "uint256[]"
        },
        {
          "name": "tokenURIs",
          "type": "string[]"
        }
      ],
      "name": "batchMintWithTokenURI",
      "outputs": [
        {
          "name": "",
          "type": "bool"
        }
      ],
      "payable": false,
      "stateMutability": "nonpayable",
      "type": "function"
    },
    {
      "constant": false,
      "inputs": [
        {
          "name": "from",
          "type": "address"
        },
        {
          "name": "to",
          "type": "address"
        },
        {
          "name": "tokenId",
          "type": "uint256"
        },
        {
          "name": "_data",
          "type": "bytes"
        }
      ],
      "name": "safeTransferFrom",
      "outputs": [],
      "payable": false,
      "stateMutability": "nonpayable",
      "type": "function"
    },
    {
      "constant": true,
      "inputs": [
        {
          "name": "tokenId",
          "type": "uint256"
        }
      ],
      "name": "tokenURI",
      "outputs": [
        {
          "name": "",
          "type": "string"
        }
      ],
      "payable": false,
      "stateMutability": "view",
      "type": "function"
    },
    {
      "constant": true,
      "inputs": [
        {
          "name": "owner",
          "type": "address"
        },
        {
          "name": "operator",
          "type": "address"
        }
      ],
      "name": "isApprovedForAll",
      "outputs": [
        {
          "name": "",
          "type": "bool"
        }
      ],
      "payable": false,
      "stateMutability": "view",
      "type": "function"
    },
    {
      "inputs": [
        {
          "name": "name",
          "type": "string"
        },
        {
          "name": "symbol",
          "type": "string"
        }
      ],
      "payable": false,
      "stateMutability": "nonpayable",
      "type": "constructor"
    },
    {
      "anonymous": false,
      "inputs": [
        {
          "indexed": false,
          "name": "account",
          "type": "address"
        }
      ],
      "name": "Paused",
      "type": "event"
    },
    {
      "anonymous": false,
      "inputs": [
        {
          "indexed": false,
          "name": "account",
          "type": "address"
        }
      ],
      "name": "Unpaused",
      "type": "event"
    },
    {
      "anonymous": false,
      "inputs": [
        {
          "indexed": true,
          "name": "account",
          "type": "address"
        }
      ],
      "name": "PauserAdded",
      "type": "event"
    },
    {
      "anonymous": false,
      "inputs": [
        {
          "indexed": true,
          "name": "account",
          "type": "address"
        }
      ],
      "name": "PauserRemoved",
      "type": "event"
    },
    {
      "anonymous": false,
      "inputs": [
        {
          "indexed": true,
          "name": "account",
          "type": "address"
        }
      ],
      "name": "MinterAdded",
      "type": "event"
    },
    {
      "anonymous": false,
      "inputs": [
        {
          "indexed": true,
          "name": "account",
          "type": "address"
        }
      ],
      "name": "MinterRemoved",
      "type": "event"
    },
    {
      "anonymous": false,
      "inputs": [
        {
          "indexed": true,
          "name": "from",
          "type": "address"
        },
        {
          "indexed": true,
          "name": "to",
          "type": "address"
        },
        {
          "indexed": true,
          "name": "tokenId",
          "type": "uint256"
        }
      ],
      "name": "Transfer",
      "type": "event"
    },
    {
      "anonymous": false,
      "inputs": [
        {
          "indexed": true,
          "name": "owner",
          "type": "address"
        },
        {
          "indexed": true,
          "name": "approved",
          "type": "address"
        },
        {
          "indexed": true,
          "name": "tokenId",
          "type": "uint256"
        }
      ],
      "name": "Approval",
      "type": "event"
    },
    {
      "anonymous": false,
      "inputs": [
        {
          "indexed": true,
          "name": "owner",
          "type": "address"
        },
        {
          "indexed": true,
          "name": "operator",
          "type": "address"
        },
        {
          "indexed": false,
          "name": "approved",
          "type": "bool"
        }
      ],
      "name": "ApprovalForAll",
      "type": "event"
    }
  ],
  "bytecode": "0x60806040523480156200001157600080fd5b506040516200306338038062003063833981018060405262000037919081019062000499565b81818181620000536301ffc9a760e01b6200017960201b60201c565b6200006b6380ac58cd60e01b6200017960201b60201c565b6200008363780e9d6360e01b6200017960201b60201c565b81516200009890600990602085019062000398565b508051620000ae90600a90602084019062000398565b50620000c7635b5e139f60e01b6200017960201b60201c565b50505050620000dc336200021e60201b60201c565b620000f463eab83e2060e01b6200017960201b60201c565b6200010c63fac27f4660e01b6200017960201b60201c565b620001246342966c6860e01b6200017960201b60201c565b62000135336200027060201b60201c565b600e805460ff19169055620001717f4d5507ff0000000000000000000000000000000000000000000000000000000062000179602090811b901c565b5050620006a5565b7fffffffff000000000000000000000000000000000000000000000000000000008082161415620001e1576040517f08c379a0000000000000000000000000000000000000000000000000000000008152600401620001d890620005f6565b60405180910390fd5b7fffffffff00000000000000000000000000000000000000000000000000000000166000908152602081905260409020805460ff19166001179055565b6200023981600c620002c260201b620013f11790919060201c565b6040516001600160a01b038216907f6ae172837ea30b801fbfcdd4108aa1d5bf8ff775444fd70256b44e6bf3dfc3f690600090a250565b6200028b81600d620002c260201b620013f11790919060201c565b6040516001600160a01b038216907f6719d08c1888103bea251a4ed56406bd0c3e69723c8a1686e017e7bbe159b6f890600090a250565b620002d482826200033360201b60201c565b156200030e576040517f08c379a0000000000000000000000000000000000000000000000000000000008152600401620001d890620005de565b6001600160a01b0316600090815260209190915260409020805460ff19166001179055565b60006001600160a01b03821662000378576040517f08c379a0000000000000000000000000000000000000000000000000000000008152600401620001d89062000608565b506001600160a01b03166000908152602091909152604090205460ff1690565b828054600181600116156101000203166002900490600052602060002090601f016020900481019282601f10620003db57805160ff19168380011785556200040b565b828001600101855582156200040b579182015b828111156200040b578251825591602001919060010190620003ee565b50620004199291506200041d565b5090565b6200043a91905b8082111562000419576000815560010162000424565b90565b600082601f8301126200044f57600080fd5b815162000466620004608262000641565b6200061a565b915080825260208301602083018583830111156200048357600080fd5b6200049083828462000672565b50505092915050565b60008060408385031215620004ad57600080fd5b82516001600160401b03811115620004c457600080fd5b620004d2858286016200043d565b92505060208301516001600160401b03811115620004ef57600080fd5b620004fd858286016200043d565b9150509250929050565b600062000516601f8362000669565b7f526f6c65733a206163636f756e7420616c72656164792068617320726f6c6500815260200192915050565b600062000551601b8362000669565b7f4b495031333a20696e76616c696420696e746572666163652069640000000000815260200192915050565b60006200058c60228362000669565b7f526f6c65733a206163636f756e7420697320746865207a65726f20616464726581527f7373000000000000000000000000000000000000000000000000000000000000602082015260400192915050565b60208082528101620005f08162000507565b92915050565b60208082528101620005f08162000542565b60208082528101620005f0816200057d565b6040518181016001600160401b03811182821017156200063957600080fd5b604052919050565b60006001600160401b038211156200065857600080fd5b506020601f91909101601f19160190565b90815260200190565b60005b838110156200068f57818101518382015260200162000675565b838111156200069f576000848401525b50505050565b6129ae80620006b56000396000f3fe608060405234801561001057600080fd5b50600436106101cf5760003560e01c80635c975abb11610104578063983b2d56116100a2578063acbdacda11610071578063acbdacda14610396578063b88d4fde146103a9578063c87b56dd146103bc578063e985e9c5146103cf576101cf565b8063983b2d56146103555780639865027514610368578063a22cb46514610370578063aa271e1a14610383576101cf565b806370a08231116100de57806370a082311461031f57806382dc1ec4146103325780638456cb591461034557806395d89b411461034d576101cf565b80635c975abb146102fc5780636352211e146103045780636ef8d66d14610317576101cf565b80633f4ba83a1161017157806342966c681161014b57806342966c68146102b057806346fbf68e146102c35780634f6ccce7146102d657806350bb4e7f146102e9576101cf565b80633f4ba83a1461028257806340c10f191461028a57806342842e0e1461029d576101cf565b8063095ea7b3116101ad578063095ea7b31461023257806318160ddd1461024757806323b872dd1461025c5780632f745c591461026f576101cf565b806301ffc9a7146101d457806306fdde03146101fd578063081812fc14610212575b600080fd5b6101e76101e2366004611d4c565b6103e2565b6040516101f49190612699565b60405180910390f35b610205610401565b6040516101f491906126a7565b610225610220366004611d88565b610498565b6040516101f49190612639565b610245610240366004611cc1565b6104e7565b005b61024f61051b565b6040516101f49190612868565b61024561026a366004611b58565b610521565b61024f61027d366004611cc1565b610557565b6102456105bb565b6101e7610298366004611cc1565b61064c565b6102456102ab366004611b58565b610689565b6102456102be366004611d88565b6106a4565b6101e76102d1366004611b00565b6106d9565b61024f6102e4366004611d88565b6106ec565b6101e76102f7366004611cf1565b610736565b6101e761077e565b610225610312366004611d88565b610787565b6102456107bf565b61024f61032d366004611b00565b6107ca565b610245610340366004611b00565b610816565b610245610847565b6102056108d2565b610245610363366004611b00565b610933565b610245610964565b61024561037e366004611c91565b61096d565b6101e7610391366004611b00565b61099d565b6101e76103a4366004611c1e565b6109b0565b6102456103b7366004611ba5565b610a6a565b6102056103ca366004611d88565b610aa6565b6101e76103dd366004611b1e565b610b6f565b6001600160e01b03191660009081526020819052604090205460ff1690565b60098054604080516020601f600260001961010060018816150201909516949094049384018190048102820181019092528281526060939092909183018282801561048d5780601f106104625761010080835404028352916020019161048d565b820191906000526020600020905b81548152906001019060200180831161047057829003601f168201915b505050505090505b90565b60006104a382610b9d565b6104cb57604051600160e51b62461bcd0281526004016104c290612828565b60405180910390fd5b506000908152600260205260409020546001600160a01b031690565b600e5460ff161561050d57604051600160e51b62461bcd0281526004016104c290612738565b6105178282610bba565b5050565b60075490565b600e5460ff161561054757604051600160e51b62461bcd0281526004016104c290612738565b610552838383610c93565b505050565b6000610562836107ca565b821061058357604051600160e51b62461bcd0281526004016104c290612748565b6001600160a01b03831660009081526005602052604090208054839081106105a757fe5b906000526020600020015490505b92915050565b6105c4336106d9565b6105e357604051600160e51b62461bcd0281526004016104c2906126f8565b600e5460ff1661060857604051600160e51b62461bcd0281526004016104c2906126c8565b600e805460ff191690556040517f5db9ee0a495bf2e6ff9c91a7834c1ba4fdd244a5e8aa4e537bd38aeae4b073aa90610642903390612647565b60405180910390a1565b60006106573361099d565b61067657604051600160e51b62461bcd0281526004016104c290612758565b6106808383610cc7565b50600192915050565b61055283838360405180602001604052806000815250610a6a565b6106ae3382610ce4565b6106cd57604051600160e51b62461bcd0281526004016104c2906127d8565b6106d681610d6c565b50565b60006105b5600d8363ffffffff610d7e16565b60006106f661051b565b821061071757604051600160e51b62461bcd0281526004016104c290612808565b6007828154811061072457fe5b90600052602060002001549050919050565b60006107413361099d565b61076057604051600160e51b62461bcd0281526004016104c290612758565b61076a8484610cc7565b6107748383610dc9565b5060019392505050565b600e5460ff1690565b6000818152600160205260408120546001600160a01b0316806105b557604051600160e51b62461bcd0281526004016104c290612778565b6107c833610e10565b565b60006001600160a01b0382166107f557604051600160e51b62461bcd0281526004016104c2906127e8565b6001600160a01b03821660009081526003602052604090206105b590610e58565b61081f336106d9565b61083e57604051600160e51b62461bcd0281526004016104c2906126f8565b6106d681610e5c565b610850336106d9565b61086f57604051600160e51b62461bcd0281526004016104c2906126f8565b600e5460ff161561089557604051600160e51b62461bcd0281526004016104c290612738565b600e805460ff191660011790556040517f62e78cea01bee320cd4e420270b5ea74000d11b0c9f74754ebdbfc544b05a25890610642903390612647565b600a8054604080516020601f600260001961010060018816150201909516949094049384018190048102820181019092528281526060939092909183018282801561048d5780601f106104625761010080835404028352916020019161048d565b61093c3361099d565b61095b57604051600160e51b62461bcd0281526004016104c290612758565b6106d681610ea4565b6107c833610eec565b600e5460ff161561099357604051600160e51b62461bcd0281526004016104c290612738565b6105178282610f34565b60006105b5600c8363ffffffff610d7e16565b60006109bb3361099d565b6109da57604051600160e51b62461bcd0281526004016104c290612758565b81518351146109fe57604051600160e51b62461bcd0281526004016104c2906126b8565b60005b8351811015610a5f57610a2785858381518110610a1a57fe5b6020026020010151610cc7565b610a57848281518110610a3657fe5b6020026020010151848381518110610a4a57fe5b6020026020010151610dc9565b600101610a01565b506001949350505050565b610a75848484610521565b610a8184848484610fcf565b610aa057604051600160e51b62461bcd0281526004016104c2906127c8565b50505050565b6060610ab182610b9d565b610ad057604051600160e51b62461bcd0281526004016104c2906126e8565b6000828152600b602090815260409182902080548351601f600260001961010060018616150201909316929092049182018490048402810184019094528084529091830182828015610b635780601f10610b3857610100808354040283529160200191610b63565b820191906000526020600020905b815481529060010190602001808311610b4657829003601f168201915b50505050509050919050565b6001600160a01b03918216600090815260046020908152604080832093909416825291909152205460ff1690565b6000908152600160205260409020546001600160a01b0316151590565b6000610bc582610787565b9050806001600160a01b0316836001600160a01b03161415610bfc57604051600160e51b62461bcd0281526004016104c290612718565b336001600160a01b0382161480610c185750610c188133610b6f565b610c3757604051600160e51b62461bcd0281526004016104c290612838565b60008281526002602052604080822080546001600160a01b0319166001600160a01b0387811691821790925591518593918516917f8c5be1e5ebec7d5bd14f71427d1e84f3dd0314c0f7b2291e5b200ac8c7c3b92591a4505050565b610c9d3382610ce4565b610cbc57604051600160e51b62461bcd0281526004016104c2906127a8565b6105528383836111f0565b610cd1828261120f565b610cdb82826112dc565b6105178161131a565b6000610cef82610b9d565b610d0e57604051600160e51b62461bcd0281526004016104c290612858565b6000610d1983610787565b9050806001600160a01b0316846001600160a01b03161480610d545750836001600160a01b0316610d4984610498565b6001600160a01b0316145b80610d645750610d648185610b6f565b949350505050565b6106d6610d7882610787565b8261135e565b60006001600160a01b038216610da957604051600160e51b62461bcd0281526004016104c2906127b8565b506001600160a01b03166000908152602091909152604090205460ff1690565b610dd282610b9d565b610df157604051600160e51b62461bcd0281526004016104c290612788565b6000828152600b6020908152604090912082516105529284019061189d565b610e21600d8263ffffffff6113a616565b6040516001600160a01b038216907fcd265ebaf09df2871cc7bd4133404a235ba12eff2041bb89d9c714a2621c7c7e90600090a250565b5490565b610e6d600d8263ffffffff6113f116565b6040516001600160a01b038216907f6719d08c1888103bea251a4ed56406bd0c3e69723c8a1686e017e7bbe159b6f890600090a250565b610eb5600c8263ffffffff6113f116565b6040516001600160a01b038216907f6ae172837ea30b801fbfcdd4108aa1d5bf8ff775444fd70256b44e6bf3dfc3f690600090a250565b610efd600c8263ffffffff6113a616565b6040516001600160a01b038216907fe94479a9f7e1952cc78f2d6baab678adc1b772d936c6583def489e524cb6669290600090a250565b6001600160a01b038216331415610f6057604051600160e51b62461bcd0281526004016104c290612798565b3360008181526004602090815260408083206001600160a01b038716808552925291829020805460ff191685151517905590519091907f17307eab39ab6107e8899845ad3d59bd9653f200f220920489ca2b5937696c3190610fc3908590612699565b60405180910390a35050565b6000806060610fe6866001600160a01b0316611440565b610ff557600192505050610d64565b856001600160a01b031663150b7a0260e01b3389888860405160240161101e9493929190612655565b60408051601f198184030181529181526020820180516001600160e01b03166001600160e01b031990941693909317909252905161105c919061262d565b6000604051808303816000865af19150503d8060008114611099576040519150601f19603f3d011682016040523d82523d6000602084013e61109e565b606091505b5080519193509150158015906110dc57508051600160e11b630a85bd0102906110d09083016020908101908401611d6a565b6001600160e01b031916145b156110ec57600192505050610d64565b856001600160a01b0316636745782b60e01b338988886040516024016111159493929190612655565b60408051601f198184030181529181526020820180516001600160e01b03166001600160e01b0319909416939093179092529051611153919061262d565b6000604051808303816000865af19150503d8060008114611190576040519150601f19603f3d011682016040523d82523d6000602084013e611195565b606091505b5080519193509150158015906111d357508051600160e01b636745782b02906111c79083016020908101908401611d6a565b6001600160e01b031916145b156111e357600192505050610d64565b5060009695505050505050565b6111fb838383611446565b6112058382611552565b61055282826112dc565b6001600160a01b03821661123857604051600160e51b62461bcd0281526004016104c290612728565b61124181610b9d565b1561126157604051600160e51b62461bcd0281526004016104c290612848565b600081815260016020908152604080832080546001600160a01b0319166001600160a01b0387169081179091558352600390915290206112a090611647565b60405181906001600160a01b038416906000907fddf252ad1be2c89b69c2b068fc378daa952ba7f163c4a11628f55a4df523b3ef908290a45050565b6001600160a01b0390911660009081526005602081815260408084208054868652600684529185208290559282526001810183559183529091200155565b600780546000838152600860205260408120829055600182018355919091527fa66cc928b5edb82af9bd49922954155ab7b0942694bea4ce44661d9a8736c6880155565b6113688282611650565b6000818152600b60205260409020546002600019610100600184161502019091160415610517576000818152600b602052604081206105179161191b565b6113b08282610d7e565b6113cf57604051600160e51b62461bcd0281526004016104c290612768565b6001600160a01b0316600090815260209190915260409020805460ff19169055565b6113fb8282610d7e565b1561141b57604051600160e51b62461bcd0281526004016104c2906126d8565b6001600160a01b0316600090815260209190915260409020805460ff19166001179055565b3b151590565b826001600160a01b031661145982610787565b6001600160a01b03161461148257604051600160e51b62461bcd0281526004016104c2906127f8565b6001600160a01b0382166114ab57604051600160e51b62461bcd0281526004016104c290612708565b6114b48161167c565b6001600160a01b03831660009081526003602052604090206114d5906116b7565b6001600160a01b03821660009081526003602052604090206114f690611647565b60008181526001602052604080822080546001600160a01b0319166001600160a01b0386811691821790925591518493918716917fddf252ad1be2c89b69c2b068fc378daa952ba7f163c4a11628f55a4df523b3ef91a4505050565b6001600160a01b03821660009081526005602052604081205461157c90600163ffffffff6116ce16565b600083815260066020526040902054909150808214611617576001600160a01b03841660009081526005602052604081208054849081106115b957fe5b906000526020600020015490508060056000876001600160a01b03166001600160a01b0316815260200190815260200160002083815481106115f757fe5b600091825260208083209091019290925591825260069052604090208190555b6001600160a01b038416600090815260056020526040902080549061164090600019830161195f565b5050505050565b80546001019055565b61165a8282611717565b6116648282611552565b600081815260066020526040812055610517816117d2565b6000818152600260205260409020546001600160a01b0316156106d657600090815260026020526040902080546001600160a01b0319169055565b80546116ca90600163ffffffff6116ce16565b9055565b600061171083836040518060400160405280601e81526020017f536166654d6174683a207375627472616374696f6e206f766572666c6f77000081525061186e565b9392505050565b816001600160a01b031661172a82610787565b6001600160a01b03161461175357604051600160e51b62461bcd0281526004016104c290612818565b61175c8161167c565b6001600160a01b038216600090815260036020526040902061177d906116b7565b60008181526001602052604080822080546001600160a01b0319169055518291906001600160a01b038516907fddf252ad1be2c89b69c2b068fc378daa952ba7f163c4a11628f55a4df523b3ef908390a45050565b6007546000906117e990600163ffffffff6116ce16565b6000838152600860205260408120546007805493945090928490811061180b57fe5b90600052602060002001549050806007838154811061182657fe5b6000918252602080832090910192909255828152600890915260409020829055600780549061185990600019830161195f565b50505060009182525060086020526040812055565b6000818484111561189557604051600160e51b62461bcd0281526004016104c291906126a7565b505050900390565b828054600181600116156101000203166002900490600052602060002090601f016020900481019282601f106118de57805160ff191683800117855561190b565b8280016001018555821561190b579182015b8281111561190b5782518255916020019190600101906118f0565b5061191792915061197f565b5090565b50805460018160011615610100020316600290046000825580601f1061194157506106d6565b601f0160209004906000526020600020908101906106d6919061197f565b815481835581811115610552576000838152602090206105529181019083015b61049591905b808211156119175760008155600101611985565b600061171082356128f8565b600082601f8301126119b657600080fd5b81356119c96119c48261289d565b612876565b81815260209384019390925082018360005b83811015611a0757813586016119f18882611aa5565b84525060209283019291909101906001016119db565b5050505092915050565b600082601f830112611a2257600080fd5b8135611a306119c48261289d565b91508181835260208401935060208101905083856020840282011115611a5557600080fd5b60005b83811015611a075781611a6b8882611af4565b8452506020928301929190910190600101611a58565b60006117108235612903565b60006117108235612914565b60006117108251612914565b600082601f830112611ab657600080fd5b8135611ac46119c4826128be565b91508082526020830160208301858383011115611ae057600080fd5b611aeb838284612932565b50505092915050565b60006117108235610495565b600060208284031215611b1257600080fd5b6000610d648484611999565b60008060408385031215611b3157600080fd5b6000611b3d8585611999565b9250506020611b4e85828601611999565b9150509250929050565b600080600060608486031215611b6d57600080fd5b6000611b798686611999565b9350506020611b8a86828701611999565b9250506040611b9b86828701611af4565b9150509250925092565b60008060008060808587031215611bbb57600080fd5b6000611bc78787611999565b9450506020611bd887828801611999565b9350506040611be987828801611af4565b925050606085013567ffffffffffffffff811115611c0657600080fd5b611c1287828801611aa5565b91505092959194509250565b600080600060608486031215611c3357600080fd5b6000611c3f8686611999565b935050602084013567ffffffffffffffff811115611c5c57600080fd5b611c6886828701611a11565b925050604084013567ffffffffffffffff811115611c8557600080fd5b611b9b868287016119a5565b60008060408385031215611ca457600080fd5b6000611cb08585611999565b9250506020611b4e85828601611a81565b60008060408385031215611cd457600080fd5b6000611ce08585611999565b9250506020611b4e85828601611af4565b600080600060608486031215611d0657600080fd5b6000611d128686611999565b9350506020611d2386828701611af4565b925050604084013567ffffffffffffffff811115611d4057600080fd5b611b9b86828701611aa5565b600060208284031215611d5e57600080fd5b6000610d648484611a8d565b600060208284031215611d7c57600080fd5b6000610d648484611a99565b600060208284031215611d9a57600080fd5b6000610d648484611af4565b611daf81612921565b82525050565b611daf816128f8565b611daf81612903565b6000611dd2826128e6565b611ddc81856128ea565b9350611dec81856020860161293e565b611df58161296a565b9093019392505050565b6000611e0a826128e6565b611e1481856128f3565b9350611e2481856020860161293e565b9290920192915050565b6000611e3b6019836128ea565b7f6172726179206c656e67746820697320646966666572656e7400000000000000815260200192915050565b6000611e746014836128ea565b7f5061757361626c653a206e6f7420706175736564000000000000000000000000815260200192915050565b6000611ead601f836128ea565b7f526f6c65733a206163636f756e7420616c72656164792068617320726f6c6500815260200192915050565b6000611ee6602e836128ea565b7f4b495031374d657461646174613a2055524920717565727920666f72206e6f6e81527f6578697374656e7420746f6b656e000000000000000000000000000000000000602082015260400192915050565b6000611f456030836128ea565b7f506175736572526f6c653a2063616c6c657220646f6573206e6f74206861766581527f207468652050617573657220726f6c6500000000000000000000000000000000602082015260400192915050565b6000611fa46023836128ea565b7f4b495031373a207472616e7366657220746f20746865207a65726f20616464728152600160e81b6265737302602082015260400192915050565b6000611fec6020836128ea565b7f4b495031373a20617070726f76616c20746f2063757272656e74206f776e6572815260200192915050565b6000612025601f836128ea565b7f4b495031373a206d696e7420746f20746865207a65726f206164647265737300815260200192915050565b600061205e6010836128ea565b7f5061757361626c653a2070617573656400000000000000000000000000000000815260200192915050565b6000612097602a836128ea565b7f4b49503137456e756d657261626c653a206f776e657220696e646578206f75748152600160b01b69206f6620626f756e647302602082015260400192915050565b60006120e66030836128ea565b7f4d696e746572526f6c653a2063616c6c657220646f6573206e6f74206861766581527f20746865204d696e74657220726f6c6500000000000000000000000000000000602082015260400192915050565b60006121456021836128ea565b7f526f6c65733a206163636f756e7420646f6573206e6f74206861766520726f6c8152600160f81b606502602082015260400192915050565b600061218b6028836128ea565b7f4b495031373a206f776e657220717565727920666f72206e6f6e6578697374658152600160c11b67373a103a37b5b2b702602082015260400192915050565b60006121d8602b836128ea565b7f4b495031374d657461646174613a2055524920736574206f66206e6f6e6578698152600160a91b6a39ba32b73a103a37b5b2b702602082015260400192915050565b60006122286018836128ea565b7f4b495031373a20617070726f766520746f2063616c6c65720000000000000000815260200192915050565b60006122616030836128ea565b7f4b495031373a207472616e736665722063616c6c6572206973206e6f74206f7781527f6e6572206e6f7220617070726f76656400000000000000000000000000000000602082015260400192915050565b60006122c06022836128ea565b7f526f6c65733a206163636f756e7420697320746865207a65726f2061646472658152600160f01b61737302602082015260400192915050565b60006123076030836128ea565b7f4b495031373a207472616e7366657220746f206e6f6e204b495031375265636581527f6976657220696d706c656d656e74657200000000000000000000000000000000602082015260400192915050565b6000612366602f836128ea565b7f4b495031374275726e61626c653a2063616c6c6572206973206e6f74206f776e81527f6572206e6f7220617070726f7665640000000000000000000000000000000000602082015260400192915050565b60006123c56029836128ea565b7f4b495031373a2062616c616e636520717565727920666f7220746865207a65728152600160b81b686f206164647265737302602082015260400192915050565b60006124136028836128ea565b7f4b495031373a207472616e73666572206f6620746f6b656e20746861742069738152600160c11b67103737ba1037bbb702602082015260400192915050565b6000612460602b836128ea565b7f4b49503137456e756d657261626c653a20676c6f62616c20696e646578206f758152600160a81b6a74206f6620626f756e647302602082015260400192915050565b60006124b06024836128ea565b7f4b495031373a206275726e206f6620746f6b656e2074686174206973206e6f748152600160e11b631037bbb702602082015260400192915050565b60006124f9602b836128ea565b7f4b495031373a20617070726f76656420717565727920666f72206e6f6e6578698152600160a91b6a39ba32b73a103a37b5b2b702602082015260400192915050565b60006125496037836128ea565b7f4b495031373a20617070726f76652063616c6c6572206973206e6f74206f776e81527f6572206e6f7220617070726f76656420666f7220616c6c000000000000000000602082015260400192915050565b60006125a8601b836128ea565b7f4b495031373a20746f6b656e20616c7265616479206d696e7465640000000000815260200192915050565b60006125e1602b836128ea565b7f4b495031373a206f70657261746f7220717565727920666f72206e6f6e6578698152600160a91b6a39ba32b73a103a37b5b2b702602082015260400192915050565b611daf81610495565b60006117108284611dff565b602081016105b58284611db5565b602081016105b58284611da6565b608081016126638287611db5565b6126706020830186611db5565b61267d6040830185612624565b818103606083015261268f8184611dc7565b9695505050505050565b602081016105b58284611dbe565b602080825281016117108184611dc7565b602080825281016105b581611e2e565b602080825281016105b581611e67565b602080825281016105b581611ea0565b602080825281016105b581611ed9565b602080825281016105b581611f38565b602080825281016105b581611f97565b602080825281016105b581611fdf565b602080825281016105b581612018565b602080825281016105b581612051565b602080825281016105b58161208a565b602080825281016105b5816120d9565b602080825281016105b581612138565b602080825281016105b58161217e565b602080825281016105b5816121cb565b602080825281016105b58161221b565b602080825281016105b581612254565b602080825281016105b5816122b3565b602080825281016105b5816122fa565b602080825281016105b581612359565b602080825281016105b5816123b8565b602080825281016105b581612406565b602080825281016105b581612453565b602080825281016105b5816124a3565b602080825281016105b5816124ec565b602080825281016105b58161253c565b602080825281016105b58161259b565b602080825281016105b5816125d4565b602081016105b58284612624565b60405181810167ffffffffffffffff8111828210171561289557600080fd5b604052919050565b600067ffffffffffffffff8211156128b457600080fd5b5060209081020190565b600067ffffffffffffffff8211156128d557600080fd5b506020601f91909101601f19160190565b5190565b90815260200190565b919050565b60006105b582612908565b151590565b6001600160a01b031690565b6001600160e01b03191690565b60006105b58260006105b5826128f8565b82818337506000910152565b60005b83811015612959578181015183820152602001612941565b83811115610aa05750506000910152565b601f01601f19169056fea265627a7a72305820a55342339b2dced07c26fe610ed9a50d3a3f0014338de88750587cf0db84989c6c6578706572696d656e74616cf50037",
  "source": "pragma solidity ^0.5.0;\npragma experimental ABIEncoderV2;\n\nimport \"./KIP17Full.sol\";\nimport \"./KIP17MetadataMintable.sol\";\nimport \"./KIP17Mintable.sol\";\nimport \"./KIP17Burnable.sol\";\nimport \"./KIP17Pausable.sol\";\n\ncontract KIP17Token is KIP17Full, KIP17Mintable, KIP17MetadataMintable, KIP17Burnable, KIP17Pausable {\n    constructor (string memory name, string memory symbol) public KIP17Full(name, symbol) {\n    }\n}\n",
  "sourcePath": "/Users/peter/Develop/NFT/klaytn-contracts/contracts/token/KIP17/KIP17Token.sol",
  "compiler": {
    "name": "solc",
    "version": "0.5.6+commit.b259423e.Emscripten.clang"
  },
  "schemaVersion": "3.4.7",
  "updatedAt": "2022-06-16T08:54:53.279Z",
  "devdoc": {
    "methods": {
      "balanceOf(address)": {
        "details": "Gets the balance of the specified address.",
        "params": {
          "owner": "address to query the balance of"
        },
        "return": "uint256 representing the amount owned by the passed address"
      },
      "burn(uint256)": {
        "details": "Burns a specific KIP17 token.",
        "params": {
          "tokenId": "uint256 id of the KIP17 token to be burned."
        }
      },
      "getApproved(uint256)": {
        "details": "Gets the approved address for a token ID, or zero if no address set Reverts if the token ID does not exist.",
        "params": {
          "tokenId": "uint256 ID of the token to query the approval of"
        },
        "return": "address currently approved for the given token ID"
      },
      "isApprovedForAll(address,address)": {
        "details": "Tells whether an operator is approved by a given owner.",
        "params": {
          "operator": "operator address which you want to query the approval of",
          "owner": "owner address which you want to query the approval of"
        },
        "return": "bool whether the given operator is approved by the given owner"
      },
      "mint(address,uint256)": {
        "details": "Function to mint tokens.",
        "params": {
          "to": "The address that will receive the minted tokens.",
          "tokenId": "The token id to mint."
        },
        "return": "A boolean that indicates if the operation was successful."
      },
      "mintWithTokenURI(address,uint256,string)": {
        "details": "Function to mint tokens.",
        "params": {
          "to": "The address that will receive the minted tokens.",
          "tokenId": "The token id to mint.",
          "tokenURI": "The token URI of the minted token."
        },
        "return": "A boolean that indicates if the operation was successful."
      },
      "name()": {
        "details": "Gets the token name.",
        "return": "string representing the token name"
      },
      "ownerOf(uint256)": {
        "details": "Gets the owner of the specified token ID.",
        "params": {
          "tokenId": "uint256 ID of the token to query the owner of"
        },
        "return": "address currently marked as the owner of the given token ID"
      },
      "pause()": {
        "details": "Called by a pauser to pause, triggers stopped state."
      },
      "paused()": {
        "details": "Returns true if the contract is paused, and false otherwise."
      },
      "safeTransferFrom(address,address,uint256)": {
        "details": "Safely transfers the ownership of a given token ID to another address If the target address is a contract, it must implement `onKIP17Received`, which is called upon a safe transfer, and return the magic value `bytes4(keccak256(\"onKIP17Received(address,address,uint256,bytes)\"))`; otherwise, the transfer is reverted. Requires the msg.sender to be the owner, approved, or operator",
        "params": {
          "from": "current owner of the token",
          "to": "address to receive the ownership of the given token ID",
          "tokenId": "uint256 ID of the token to be transferred"
        }
      },
      "safeTransferFrom(address,address,uint256,bytes)": {
        "details": "Safely transfers the ownership of a given token ID to another address If the target address is a contract, it must implement `onKIP17Received`, which is called upon a safe transfer, and return the magic value `bytes4(keccak256(\"onKIP17Received(address,address,uint256,bytes)\"))`; otherwise, the transfer is reverted. Requires the msg.sender to be the owner, approved, or operator",
        "params": {
          "_data": "bytes data to send along with a safe transfer check",
          "from": "current owner of the token",
          "to": "address to receive the ownership of the given token ID",
          "tokenId": "uint256 ID of the token to be transferred"
        }
      },
      "supportsInterface(bytes4)": {
        "details": "See `IKIP13.supportsInterface`.     * Time complexity O(1), guaranteed to always use less than 30 000 gas."
      },
      "symbol()": {
        "details": "Gets the token symbol.",
        "return": "string representing the token symbol"
      },
      "tokenByIndex(uint256)": {
        "details": "Gets the token ID at a given index of all the tokens in this contract Reverts if the index is greater or equal to the total number of tokens.",
        "params": {
          "index": "uint256 representing the index to be accessed of the tokens list"
        },
        "return": "uint256 token ID at the given index of the tokens list"
      },
      "tokenOfOwnerByIndex(address,uint256)": {
        "details": "Gets the token ID at a given index of the tokens list of the requested owner.",
        "params": {
          "index": "uint256 representing the index to be accessed of the requested tokens list",
          "owner": "address owning the tokens list to be accessed"
        },
        "return": "uint256 token ID at the given index of the tokens list owned by the requested address"
      },
      "tokenURI(uint256)": {
        "details": "Returns an URI for a given token ID. Throws if the token ID does not exist. May return an empty string.",
        "params": {
          "tokenId": "uint256 ID of the token to query"
        }
      },
      "totalSupply()": {
        "details": "Gets the total amount of tokens stored by the contract.",
        "return": "uint256 representing the total amount of tokens"
      },
      "unpause()": {
        "details": "Called by a pauser to unpause, returns to normal state."
      }
    }
  },
  "userdoc": {
    "methods": {}
  }
}