{
  "contractName": "KIP37Token",
  "abi": [
    {
      "constant": true,
      "inputs": [
        {
          "name": "_id",
          "type": "uint256"
        }
      ],
      "name": "paused",
      "outputs": [
        {
          "name": "",
          "type": "bool"
        }
      ],
      "payable": false,
      "stateMutability": "view",
      "type": "function"
    },
    {
      "constant": true,
      "inputs": [
        {
          "name": "account",
          "type": "address"
        },
        {
          "name": "id",
          "type": "uint256"
        }
      ],
      "name": "balanceOf",
      "outputs": [
        {
          "name": "",
          "type": "uint256"
        }
      ],
      "payable": false,
      "stateMutability": "view",
      "type": "function"
    },
    {
      "constant": true,
      "inputs": [
        {
          "name": "interfaceId",
          "type": "bytes4"
        }
      ],
      "name": "supportsInterface",
      "outputs": [
        {
          "name": "",
          "type": "bool"
        }
      ],
      "payable": false,
      "stateMutability": "view",
      "type": "function"
    },
    {
      "constant": true,
      "inputs": [],
      "name": "name",
      "outputs": [
        {
          "name": "",
          "type": "string"
        }
      ],
      "payable": false,
      "stateMutability": "view",
      "type": "function"
    },
    {
      "constant": true,
      "inputs": [
        {
          "name": "tokenId",
          "type": "uint256"
        }
      ],
      "name": "uri",
      "outputs": [
        {
          "name": "",
          "type": "string"
        }
      ],
      "payable": false,
      "stateMutability": "view",
      "type": "function"
    },
    {
      "constant": false,
      "inputs": [
        {
          "name": "_id",
          "type": "uint256"
        }
      ],
      "name": "pause",
      "outputs": [],
      "payable": false,
      "stateMutability": "nonpayable",
      "type": "function"
    },
    {
      "constant": false,
      "inputs": [
        {
          "name": "from",
          "type": "address"
        },
        {
          "name": "to",
          "type": "address"
        },
        {
          "name": "ids",
          "type": "uint256[]"
        },
        {
          "name": "amounts",
          "type": "uint256[]"
        },
        {
          "name": "data",
          "type": "bytes"
        }
      ],
      "name": "safeBatchTransferFrom",
      "outputs": [],
      "payable": false,
      "stateMutability": "nonpayable",
      "type": "function"
    },
    {
      "constant": false,
      "inputs": [],
      "name": "unpause",
      "outputs": [],
      "payable": false,
      "stateMutability": "nonpayable",
      "type": "function"
    },
    {
      "constant": true,
      "inputs": [
        {
          "name": "account",
          "type": "address"
        }
      ],
      "name": "isPauser",
      "outputs": [
        {
          "name": "",
          "type": "bool"
        }
      ],
      "payable": false,
      "stateMutability": "view",
      "type": "function"
    },
    {
      "constant": false,
      "inputs": [
        {
          "name": "_id",
          "type": "uint256"
        },
        {
          "name": "_initialSupply",
          "type": "uint256"
        },
        {
          "name": "_uri",
          "type": "string"
        }
      ],
      "name": "create",
      "outputs": [
        {
          "name": "",
          "type": "bool"
        }
      ],
      "payable": false,
      "stateMutability": "nonpayable",
      "type": "function"
    },
    {
      "constant": true,
      "inputs": [
        {
          "name": "accounts",
          "type": "address[]"
        },
        {
          "name": "ids",
          "type": "uint256[]"
        }
      ],
      "name": "balanceOfBatch",
      "outputs": [
        {
          "name": "",
          "type": "uint256[]"
        }
      ],
      "payable": false,
      "stateMutability": "view",
      "type": "function"
    },
    {
      "constant": true,
      "inputs": [],
      "name": "paused",
      "outputs": [
        {
          "name": "",
          "type": "bool"
        }
      ],
      "payable": false,
      "stateMutability": "view",
      "type": "function"
    },
    {
      "constant": false,
      "inputs": [
        {
          "name": "account",
          "type": "address"
        },
        {
          "name": "ids",
          "type": "uint256[]"
        },
        {
          "name": "values",
          "type": "uint256[]"
        }
      ],
      "name": "burnBatch",
      "outputs": [],
      "payable": false,
      "stateMutability": "nonpayable",
      "type": "function"
    },
    {
      "constant": false,
      "inputs": [],
      "name": "renouncePauser",
      "outputs": [],
      "payable": false,
      "stateMutability": "nonpayable",
      "type": "function"
    },
    {
      "constant": false,
      "inputs": [
        {
          "name": "account",
          "type": "address"
        }
      ],
      "name": "addPauser",
      "outputs": [],
      "payable": false,
      "stateMutability": "nonpayable",
      "type": "function"
    },
    {
      "constant": false,
      "inputs": [
        {
          "name": "_id",
          "type": "uint256"
        },
        {
          "name": "_to",
          "type": "address"
        },
        {
          "name": "_value",
          "type": "uint256"
        }
      ],
      "name": "mint",
      "outputs": [],
      "payable": false,
      "stateMutability": "nonpayable",
      "type": "function"
    },
    {
      "constant": false,
      "inputs": [],
      "name": "pause",
      "outputs": [],
      "payable": false,
      "stateMutability": "nonpayable",
      "type": "function"
    },
    {
      "constant": false,
      "inputs": [
        {
          "name": "account",
          "type": "address"
        }
      ],
      "name": "addMinter",
      "outputs": [],
      "payable": false,
      "stateMutability": "nonpayable",
      "type": "function"
    },
    {
      "constant": false,
      "inputs": [],
      "name": "renounceMinter",
      "outputs": [],
      "payable": false,
      "stateMutability": "nonpayable",
      "type": "function"
    },
    {
      "constant": false,
      "inputs": [
        {
          "name": "operator",
          "type": "address"
        },
        {
          "name": "approved",
          "type": "bool"
        }
      ],
      "name": "setApprovalForAll",
      "outputs": [],
      "payable": false,
      "stateMutability": "nonpayable",
      "type": "function"
    },
    {
      "constant": true,
      "inputs": [
        {
          "name": "account",
          "type": "address"
        }
      ],
      "name": "isMinter",
      "outputs": [
        {
          "name": "",
          "type": "bool"
        }
      ],
      "payable": false,
      "stateMutability": "view",
      "type": "function"
    },
    {
      "constant": true,
      "inputs": [
        {
          "name": "_tokenId",
          "type": "uint256"
        }
      ],
      "name": "totalSupply",
      "outputs": [
        {
          "name": "",
          "type": "uint256"
        }
      ],
      "payable": false,
      "stateMutability": "view",
      "type": "function"
    },
    {
      "constant": true,
      "inputs": [
        {
          "name": "",
          "type": "uint256"
        }
      ],
      "name": "creators",
      "outputs": [
        {
          "name": "",
          "type": "address"
        }
      ],
      "payable": false,
      "stateMutability": "view",
      "type": "function"
    },
    {
      "constant": false,
      "inputs": [
        {
          "name": "_to",
          "type": "address"
        },
        {
          "name": "_ids",
          "type": "uint256[]"
        },
        {
          "name": "_values",
          "type": "uint256[]"
        }
      ],
      "name": "mintBatch",
      "outputs": [],
      "payable": false,
      "stateMutability": "nonpayable",
      "type": "function"
    },
    {
      "constant": true,
      "inputs": [
        {
          "name": "account",
          "type": "address"
        },
        {
          "name": "operator",
          "type": "address"
        }
      ],
      "name": "isApprovedForAll",
      "outputs": [
        {
          "name": "",
          "type": "bool"
        }
      ],
      "payable": false,
      "stateMutability": "view",
      "type": "function"
    },
    {
      "constant": false,
      "inputs": [
        {
          "name": "from",
          "type": "address"
        },
        {
          "name": "to",
          "type": "address"
        },
        {
          "name": "id",
          "type": "uint256"
        },
        {
          "name": "amount",
          "type": "uint256"
        },
        {
          "name": "data",
          "type": "bytes"
        }
      ],
      "name": "safeTransferFrom",
      "outputs": [],
      "payable": false,
      "stateMutability": "nonpayable",
      "type": "function"
    },
    {
      "constant": false,
      "inputs": [
        {
          "name": "account",
          "type": "address"
        },
        {
          "name": "id",
          "type": "uint256"
        },
        {
          "name": "value",
          "type": "uint256"
        }
      ],
      "name": "burn",
      "outputs": [],
      "payable": false,
      "stateMutability": "nonpayable",
      "type": "function"
    },
    {
      "constant": false,
      "inputs": [
        {
          "name": "_id",
          "type": "uint256"
        }
      ],
      "name": "unpause",
      "outputs": [],
      "payable": false,
      "stateMutability": "nonpayable",
      "type": "function"
    },
    {
      "inputs": [
        {
          "name": "uri",
          "type": "string"
        },
        {
          "name": "_name",
          "type": "string"
        }
      ],
      "payable": false,
      "stateMutability": "nonpayable",
      "type": "constructor"
    },
    {
      "anonymous": false,
      "inputs": [
        {
          "indexed": true,
          "name": "account",
          "type": "address"
        }
      ],
      "name": "MinterAdded",
      "type": "event"
    },
    {
      "anonymous": false,
      "inputs": [
        {
          "indexed": true,
          "name": "account",
          "type": "address"
        }
      ],
      "name": "MinterRemoved",
      "type": "event"
    },
    {
      "anonymous": false,
      "inputs": [
        {
          "indexed": false,
          "name": "tokenId",
          "type": "uint256"
        },
        {
          "indexed": false,
          "name": "account",
          "type": "address"
        }
      ],
      "name": "Paused",
      "type": "event"
    },
    {
      "anonymous": false,
      "inputs": [
        {
          "indexed": false,
          "name": "tokenId",
          "type": "uint256"
        },
        {
          "indexed": false,
          "name": "account",
          "type": "address"
        }
      ],
      "name": "Unpaused",
      "type": "event"
    },
    {
      "anonymous": false,
      "inputs": [
        {
          "indexed": false,
          "name": "account",
          "type": "address"
        }
      ],
      "name": "Paused",
      "type": "event"
    },
    {
      "anonymous": false,
      "inputs": [
        {
          "indexed": false,
          "name": "account",
          "type": "address"
        }
      ],
      "name": "Unpaused",
      "type": "event"
    },
    {
      "anonymous": false,
      "inputs": [
        {
          "indexed": true,
          "name": "account",
          "type": "address"
        }
      ],
      "name": "PauserAdded",
      "type": "event"
    },
    {
      "anonymous": false,
      "inputs": [
        {
          "indexed": true,
          "name": "account",
          "type": "address"
        }
      ],
      "name": "PauserRemoved",
      "type": "event"
    },
    {
      "anonymous": false,
      "inputs": [
        {
          "indexed": true,
          "name": "operator",
          "type": "address"
        },
        {
          "indexed": true,
          "name": "from",
          "type": "address"
        },
        {
          "indexed": true,
          "name": "to",
          "type": "address"
        },
        {
          "indexed": false,
          "name": "id",
          "type": "uint256"
        },
        {
          "indexed": false,
          "name": "value",
          "type": "uint256"
        }
      ],
      "name": "TransferSingle",
      "type": "event"
    },
    {
      "anonymous": false,
      "inputs": [
        {
          "indexed": true,
          "name": "operator",
          "type": "address"
        },
        {
          "indexed": true,
          "name": "from",
          "type": "address"
        },
        {
          "indexed": true,
          "name": "to",
          "type": "address"
        },
        {
          "indexed": false,
          "name": "ids",
          "type": "uint256[]"
        },
        {
          "indexed": false,
          "name": "values",
          "type": "uint256[]"
        }
      ],
      "name": "TransferBatch",
      "type": "event"
    },
    {
      "anonymous": false,
      "inputs": [
        {
          "indexed": true,
          "name": "account",
          "type": "address"
        },
        {
          "indexed": true,
          "name": "operator",
          "type": "address"
        },
        {
          "indexed": false,
          "name": "approved",
          "type": "bool"
        }
      ],
      "name": "ApprovalForAll",
      "type": "event"
    },
    {
      "anonymous": false,
      "inputs": [
        {
          "indexed": false,
          "name": "value",
          "type": "string"
        },
        {
          "indexed": true,
          "name": "id",
          "type": "uint256"
        }
      ],
      "name": "URI",
      "type": "event"
    }
  ],
  "bytecode": "0x60806040523480156200001157600080fd5b5060405162003fc738038062003fc7833981018060405260408110156200003757600080fd5b8101908080516401000000008111156200005057600080fd5b820160208101848111156200006457600080fd5b81516401000000008111828201871017156200007f57600080fd5b505092919060200180516401000000008111156200009c57600080fd5b82016020810184811115620000b057600080fd5b8151640100000000811182820187101715620000cb57600080fd5b50509291905050508181620000ed6301ffc9a760e01b620001dc60201b60201c565b620000fe82620002ab60201b60201c565b8051620001139060059060208401906200048f565b506200012c636433ca1f60e01b620001dc60201b60201c565b62000144630e89341c60e01b620001dc60201b60201c565b50506200015e639e094e9e60e01b620001dc60201b60201c565b6200016f33620002c460201b60201c565b6007805460ff19169055620001ab7f0e8ffdb700000000000000000000000000000000000000000000000000000000620001dc602090811b901c565b620001bc336200031660201b60201c565b620001d463dfd9d9ec60e01b620001dc60201b60201c565b505062000534565b7fffffffff0000000000000000000000000000000000000000000000000000000080821614156200026e57604080517f08c379a000000000000000000000000000000000000000000000000000000000815260206004820152601b60248201527f4b495031333a20696e76616c696420696e746572666163652069640000000000604482015290519081900360640190fd5b7fffffffff00000000000000000000000000000000000000000000000000000000166000908152602081905260409020805460ff19166001179055565b8051620002c09060049060208401906200048f565b5050565b620002df8160066200036860201b620035ec1790919060201c565b6040516001600160a01b038216907f6719d08c1888103bea251a4ed56406bd0c3e69723c8a1686e017e7bbe159b6f890600090a250565b620003318160096200036860201b620035ec1790919060201c565b6040516001600160a01b038216907f6ae172837ea30b801fbfcdd4108aa1d5bf8ff775444fd70256b44e6bf3dfc3f690600090a250565b6200037a82826200040c60201b60201c565b15620003e757604080517f08c379a000000000000000000000000000000000000000000000000000000000815260206004820152601f60248201527f526f6c65733a206163636f756e7420616c72656164792068617320726f6c6500604482015290519081900360640190fd5b6001600160a01b0316600090815260209190915260409020805460ff19166001179055565b60006001600160a01b0382166200046f576040517f08c379a000000000000000000000000000000000000000000000000000000000815260040180806020018281038252602281526020018062003fa56022913960400191505060405180910390fd5b506001600160a01b03166000908152602091909152604090205460ff1690565b828054600181600116156101000203166002900490600052602060002090601f016020900481019282601f10620004d257805160ff191683800117855562000502565b8280016001018555821562000502579182015b8281111562000502578251825591602001919060010190620004e5565b506200051092915062000514565b5090565b6200053191905b808211156200051057600081556001016200051b565b90565b613a6180620005446000396000f3fe608060405234801561001057600080fd5b50600436106101c25760003560e01c806382dc1ec4116100f9578063bd85b03911610097578063e985e9c511610071578063e985e9c514610ad6578063f242432a14610b04578063f5298aca14610bcd578063fabc1cbc14610bff576101c2565b8063bd85b0391461094d578063cd53d08e1461096a578063d81d0a15146109a3576101c2565b8063983b2d56116100d3578063983b2d56146108cb57806398650275146108f1578063a22cb465146108f9578063aa271e1a14610927576101c2565b806382dc1ec41461086b578063836a1040146108915780638456cb59146108c3576101c2565b80633f4ba83a116101665780634e1273f4116101405780634e1273f4146105b55780635c975abb146107285780636b20c454146107305780636ef8d66d14610863576101c2565b80633f4ba83a146104d757806346fbf68e146104df5780634b068c7814610505576101c2565b806306fdde03116101a257806306fdde031461025d5780630e89341c146102da578063136439dd146102f75780632eb2c2d614610316576101c2565b8062dde10e146101c7578062fdd58e146101f857806301ffc9a714610236575b600080fd5b6101e4600480360360208110156101dd57600080fd5b5035610c1c565b604080519115158252519081900360200190f35b6102246004803603604081101561020e57600080fd5b506001600160a01b038135169060200135610c34565b60408051918252519081900360200190f35b6101e46004803603602081101561024c57600080fd5b50356001600160e01b031916610ca6565b610265610cc5565b6040805160208082528351818301528351919283929083019185019080838360005b8381101561029f578181015183820152602001610287565b50505050905090810190601f1680156102cc5780820380516001836020036101000a031916815260200191505b509250505060405180910390f35b610265600480360360208110156102f057600080fd5b5035610d53565b6103146004803603602081101561030d57600080fd5b5035610e95565b005b610314600480360360a081101561032c57600080fd5b6001600160a01b038235811692602081013590911691810190606081016040820135600160201b81111561035f57600080fd5b82018360208201111561037157600080fd5b803590602001918460208302840111600160201b8311171561039257600080fd5b9190808060200260200160405190810160405280939291908181526020018383602002808284376000920191909152509295949360208101935035915050600160201b8111156103e157600080fd5b8201836020820111156103f357600080fd5b803590602001918460208302840111600160201b8311171561041457600080fd5b9190808060200260200160405190810160405280939291908181526020018383602002808284376000920191909152509295949360208101935035915050600160201b81111561046357600080fd5b82018360208201111561047557600080fd5b803590602001918460018302840111600160201b8311171561049657600080fd5b91908080601f016020809104026020016040519081016040528093929190818152602001838380828437600092019190915250929550610f9d945050505050565b6103146112e2565b6101e4600480360360208110156104f557600080fd5b50356001600160a01b03166113c2565b6101e46004803603606081101561051b57600080fd5b813591602081013591810190606081016040820135600160201b81111561054157600080fd5b82018360208201111561055357600080fd5b803590602001918460018302840111600160201b8311171561057457600080fd5b91908080601f0160208091040260200160405190810160405280939291908181526020018383808284376000920191909152509295506113db945050505050565b6106d8600480360360408110156105cb57600080fd5b810190602081018135600160201b8111156105e557600080fd5b8201836020820111156105f757600080fd5b803590602001918460208302840111600160201b8311171561061857600080fd5b9190808060200260200160405190810160405280939291908181526020018383602002808284376000920191909152509295949360208101935035915050600160201b81111561066757600080fd5b82018360208201111561067957600080fd5b803590602001918460208302840111600160201b8311171561069a57600080fd5b919080806020026020016040519081016040528093929190818152602001838360200280828437600092019190915250929550611588945050505050565b60408051602080825283518183015283519192839290830191858101910280838360005b838110156107145781810151838201526020016106fc565b505050509050019250505060405180910390f35b6101e46116f5565b6103146004803603606081101561074657600080fd5b6001600160a01b038235169190810190604081016020820135600160201b81111561077057600080fd5b82018360208201111561078257600080fd5b803590602001918460208302840111600160201b831117156107a357600080fd5b9190808060200260200160405190810160405280939291908181526020018383602002808284376000920191909152509295949360208101935035915050600160201b8111156107f257600080fd5b82018360208201111561080457600080fd5b803590602001918460208302840111600160201b8311171561082557600080fd5b9190808060200260200160405190810160405280939291908181526020018383602002808284376000920191909152509295506116ff945050505050565b61031461177b565b6103146004803603602081101561088157600080fd5b50356001600160a01b0316611786565b610314600480360360608110156108a757600080fd5b508035906001600160a01b0360208201351690604001356117d9565b610314611898565b610314600480360360208110156108e157600080fd5b50356001600160a01b031661197c565b6103146119cc565b6103146004803603604081101561090f57600080fd5b506001600160a01b03813516906020013515156119d5565b6101e46004803603602081101561093d57600080fd5b50356001600160a01b0316611ac7565b6102246004803603602081101561096357600080fd5b5035611ada565b6109876004803603602081101561098057600080fd5b5035611aec565b604080516001600160a01b039092168252519081900360200190f35b610314600480360360608110156109b957600080fd5b6001600160a01b038235169190810190604081016020820135600160201b8111156109e357600080fd5b8201836020820111156109f557600080fd5b803590602001918460208302840111600160201b83111715610a1657600080fd5b9190808060200260200160405190810160405280939291908181526020018383602002808284376000920191909152509295949360208101935035915050600160201b811115610a6557600080fd5b820183602082011115610a7757600080fd5b803590602001918460208302840111600160201b83111715610a9857600080fd5b919080806020026020016040519081016040528093929190818152602001838360200280828437600092019190915250929550611b07945050505050565b6101e460048036036040811015610aec57600080fd5b506001600160a01b0381358116916020013516611bee565b610314600480360360a0811015610b1a57600080fd5b6001600160a01b03823581169260208101359091169160408201359160608101359181019060a081016080820135600160201b811115610b5957600080fd5b820183602082011115610b6b57600080fd5b803590602001918460018302840111600160201b83111715610b8c57600080fd5b91908080601f016020809104026020016040519081016040528093929190818152602001838380828437600092019190915250929550611c1c945050505050565b61031460048036036060811015610be357600080fd5b506001600160a01b038135169060208101359060400135611e31565b61031460048036036020811015610c1557600080fd5b5035611ea8565b60008181526008602052604090205460ff165b919050565b60006001600160a01b038316610c7e57604051600160e51b62461bcd0281526004018080602001828103825260298152602001806137a36029913960400191505060405180910390fd5b5060009081526001602090815260408083206001600160a01b03949094168352929052205490565b6001600160e01b03191660009081526020819052604090205460ff1690565b6005805460408051602060026001851615610100026000190190941693909304601f81018490048402820184019092528181529291830182828015610d4b5780601f10610d2057610100808354040283529160200191610d4b565b820191906000526020600020905b815481529060010190602001808311610d2e57829003601f168201915b505050505081565b6000818152600b60209081526040918290208054835160026001831615610100026000190190921691909104601f81018490048402820184019094528381526060938493919291830182828015610deb5780601f10610dc057610100808354040283529160200191610deb565b820191906000526020600020905b815481529060010190602001808311610dce57829003601f168201915b505050505090508051600014610e02579050610c2f565b6004805460408051602060026001851615610100026000190190941693909304601f81018490048402820184019092528181529291830182828015610e885780601f10610e5d57610100808354040283529160200191610e88565b820191906000526020600020905b815481529060010190602001808311610e6b57829003601f168201915b5050505050915050919050565b610e9e336113c2565b610edc57604051600160e51b62461bcd0281526004018080602001828103825260308152602001806137306030913960400191505060405180910390fd5b60008181526008602052604090205460ff1615610f435760408051600160e51b62461bcd02815260206004820152601d60248201527f4b495033375061757361626c653a20616c726561647920706175736564000000604482015290519081900360640190fd5b600081815260086020908152604091829020805460ff191660011790558151838152339181019190915281517fabdb1c9133626eb4f8c5f2ec7e3c60a969a2fb148a0c341a3cf6597242c8f8f5929181900390910190a150565b8151835114610fe057604051600160e51b62461bcd0281526004018080602001828103825260268152602001806137f36026913960400191505060405180910390fd5b6001600160a01b03841661102857604051600160e51b62461bcd02815260040180806020018281038252602381526020018061398c6023913960400191505060405180910390fd5b611030611fb1565b6001600160a01b0316856001600160a01b0316148061105b575061105b85611056611fb1565b611bee565b61109957604051600160e51b62461bcd0281526004018080602001828103825260308152602001806138196030913960400191505060405180910390fd5b60006110a3611fb1565b90506110b3818787878787611fb5565b60005b84518110156111b45760008582815181106110cd57fe5b6020026020010151905060008583815181106110e557fe5b6020026020010151905061115281604051806060016040528060288152602001613849602891396001600086815260200190815260200160002060008d6001600160a01b03166001600160a01b03168152602001908152602001600020546120869092919063ffffffff16565b60008381526001602090815260408083206001600160a01b038e811685529252808320939093558a16815220546111899082612120565b60009283526001602081815260408086206001600160a01b038d1687529091529093205550016110b6565b50846001600160a01b0316866001600160a01b0316826001600160a01b03167f4a39dc06d4c0dbc64b70af90fd698a233a518aa5d07e595d983b8c0526c8f7fb8787604051808060200180602001838103835285818151815260200191508051906020019060200280838360005b8381101561123a578181015183820152602001611222565b50505050905001838103825284818151815260200191508051906020019060200280838360005b83811015611279578181015183820152602001611261565b5050505090500194505050505060405180910390a461129c81878787878761217d565b6112da57604051600160e51b62461bcd0281526004018080602001828103825260368152602001806139af6036913960400191505060405180910390fd5b505050505050565b6112eb336113c2565b61132957604051600160e51b62461bcd0281526004018080602001828103825260308152602001806137306030913960400191505060405180910390fd5b60075460ff166113835760408051600160e51b62461bcd02815260206004820152601460248201527f5061757361626c653a206e6f7420706175736564000000000000000000000000604482015290519081900360640190fd5b6007805460ff191690556040805133815290517f5db9ee0a495bf2e6ff9c91a7834c1ba4fdd244a5e8aa4e537bd38aeae4b073aa9181900360200190a1565b60006113d560068363ffffffff61267016565b92915050565b60006113e633611ac7565b61142457604051600160e51b62461bcd0281526004018080602001828103825260308152602001806138716030913960400191505060405180910390fd5b61142d846126da565b156114825760408051600160e51b62461bcd02815260206004820152601c60248201527f4b495033373a20746f6b656e20616c7265616479206372656174656400000000604482015290519081900360640190fd5b6000848152600a6020908152604080832080546001600160a01b0319163390811790915581519283019091529181526114bf9190869086906126f7565b815115611581576000848152600b6020908152604090912083516114e592850190613670565b50837f6bb7ff708619ba0610cba295a58592e0451dee2622938c8755667688daf3529b836040518080602001828103825283818151815260200191508051906020019080838360005b8381101561154657818101518382015260200161152e565b50505050905090810190601f1680156115735780820380516001836020036101000a031916815260200191505b509250505060405180910390a25b9392505050565b606081518351146115cd57604051600160e51b62461bcd0281526004018080602001828103825260278152602001806137096027913960400191505060405180910390fd5b606083516040519080825280602002602001820160405280156115fa578160200160208202803883390190505b50905060005b84518110156116ed5760006001600160a01b031685828151811061162057fe5b60200260200101516001600160a01b0316141561167157604051600160e51b62461bcd02815260040180806020018281038252602f8152602001806139e5602f913960400191505060405180910390fd5b6001600085838151811061168157fe5b6020026020010151815260200190815260200160002060008683815181106116a557fe5b60200260200101516001600160a01b03166001600160a01b03168152602001908152602001600020548282815181106116da57fe5b6020908102919091010152600101611600565b509392505050565b60075460ff165b90565b611707611fb1565b6001600160a01b0316836001600160a01b0316148061172d575061172d83611056611fb1565b61176b57604051600160e51b62461bcd0281526004018080602001828103825260278152602001806139656027913960400191505060405180910390fd5b611776838383612894565b505050565b61178433612ba5565b565b61178f336113c2565b6117cd57604051600160e51b62461bcd0281526004018080602001828103825260308152602001806137306030913960400191505060405180910390fd5b6117d681612bed565b50565b6117e233611ac7565b61182057604051600160e51b62461bcd0281526004018080602001828103825260308152602001806138716030913960400191505060405180910390fd5b611829836126da565b61187d5760408051600160e51b62461bcd02815260206004820152601860248201527f4b495033373a206e6f6e6578697374656e7420746f6b656e0000000000000000604482015290519081900360640190fd5b611776828483604051806020016040528060008152506126f7565b6118a1336113c2565b6118df57604051600160e51b62461bcd0281526004018080602001828103825260308152602001806137306030913960400191505060405180910390fd5b60075460ff161561193a5760408051600160e51b62461bcd02815260206004820152601060248201527f5061757361626c653a2070617573656400000000000000000000000000000000604482015290519081900360640190fd5b6007805460ff191660011790556040805133815290517f62e78cea01bee320cd4e420270b5ea74000d11b0c9f74754ebdbfc544b05a2589181900360200190a1565b61198533611ac7565b6119c357604051600160e51b62461bcd0281526004018080602001828103825260308152602001806138716030913960400191505060405180910390fd5b6117d681612c35565b61178433612c7d565b816001600160a01b03166119e7611fb1565b6001600160a01b03161415611a3057604051600160e51b62461bcd0281526004018080602001828103825260278152602001806138ec6027913960400191505060405180910390fd5b8060026000611a3d611fb1565b6001600160a01b03908116825260208083019390935260409182016000908120918716808252919093529120805460ff191692151592909217909155611a81611fb1565b60408051841515815290516001600160a01b0392909216917f17307eab39ab6107e8899845ad3d59bd9653f200f220920489ca2b5937696c319181900360200190a35050565b60006113d560098363ffffffff61267016565b60009081526003602052604090205490565b600a602052600090815260409020546001600160a01b031681565b611b1033611ac7565b611b4e57604051600160e51b62461bcd0281526004018080602001828103825260308152602001806138716030913960400191505060405180910390fd5b60005b8251811015611bd257611b76838281518110611b6957fe5b60200260200101516126da565b611bca5760408051600160e51b62461bcd02815260206004820152601860248201527f4b495033373a206e6f6e6578697374656e7420746f6b656e0000000000000000604482015290519081900360640190fd5b600101611b51565b5061177683838360405180602001604052806000815250612cc5565b6001600160a01b03918216600090815260026020908152604080832093909416825291909152205460ff1690565b6001600160a01b038416611c6457604051600160e51b62461bcd02815260040180806020018281038252602381526020018061398c6023913960400191505060405180910390fd5b611c6c611fb1565b6001600160a01b0316856001600160a01b03161480611c925750611c9285611056611fb1565b611cd057604051600160e51b62461bcd0281526004018080602001828103825260278152602001806139656027913960400191505060405180910390fd5b6000611cda611fb1565b9050611cfa818787611ceb88612fda565b611cf488612fda565b87611fb5565b611d47836040518060600160405280602881526020016138496028913960008781526001602090815260408083206001600160a01b038d168452909152902054919063ffffffff61208616565b60008581526001602090815260408083206001600160a01b038b81168552925280832093909355871681522054611d7e9084612120565b60008581526001602090815260408083206001600160a01b03808b168086529184529382902094909455805188815291820187905280518a8416938616927fc3d58168c5ae7397731d063d5bbf3d657854427343f4c083240f7aacaa2d0f6292908290030190a4611df381878787878761301e565b6112da57604051600160e51b62461bcd0281526004018080602001828103825260308152602001806139356030913960400191505060405180910390fd5b611e39611fb1565b6001600160a01b0316836001600160a01b03161480611e5f5750611e5f83611056611fb1565b611e9d57604051600160e51b62461bcd0281526004018080602001828103825260278152602001806139656027913960400191505060405180910390fd5b6117768383836133ea565b611eb1336113c2565b611eef57604051600160e51b62461bcd0281526004018080602001828103825260308152602001806137306030913960400191505060405180910390fd5b60008181526008602052604090205460ff161515600114611f5a5760408051600160e51b62461bcd02815260206004820152601f60248201527f4b495033375061757361626c653a20616c726561647920756e70617573656400604482015290519081900360640190fd5b600081815260086020908152604091829020805460ff191690558151838152339181019190915281517ffe9b5e5216db9de81757f43d20f846bea509c040a560d136b8263dd8cd764238929181900390910190a150565b3390565b611fbd6116f5565b15611ffc57604051600160e51b62461bcd02815260040180806020018281038252602a8152602001806138c2602a913960400191505060405180910390fd5b60005b835181101561207d576008600085838151811061201857fe5b60209081029190910181015182528101919091526040016000205460ff161561207557604051600160e51b62461bcd028152600401808060200182810382526022815260200180613a146022913960400191505060405180910390fd5b600101611fff565b50505050505050565b6000818484111561211857604051600160e51b62461bcd0281526004018080602001828103825283818151815260200191508051906020019080838360005b838110156120dd5781810151838201526020016120c5565b50505050905090810190601f16801561210a5780820380516001836020036101000a031916815260200191505b509250505060405180910390fd5b505050900390565b6000828201838110156115815760408051600160e51b62461bcd02815260206004820152601b60248201527f536166654d6174683a206164646974696f6e206f766572666c6f770000000000604482015290519081900360640190fd5b6000806060612194876001600160a01b031661357c565b6121a357600192505050612666565b866001600160a01b031663bc197c8160e01b8a8a89898960405160240180866001600160a01b03166001600160a01b03168152602001856001600160a01b03166001600160a01b03168152602001806020018060200180602001848103845287818151815260200191508051906020019060200280838360005b8381101561223557818101518382015260200161221d565b50505050905001848103835286818151815260200191508051906020019060200280838360005b8381101561227457818101518382015260200161225c565b50505050905001848103825285818151815260200191508051906020019080838360005b838110156122b0578181015183820152602001612298565b50505050905090810190601f1680156122dd5780820380516001836020036101000a031916815260200191505b5098505050505050505050604051602081830303815290604052906001600160e01b0319166020820180516001600160e01b0383818316178352505050506040518082805190602001908083835b6020831061234a5780518252601f19909201916020918201910161232b565b6001836020036101000a0380198251168184511680821785525050505050509050019150506000604051808303816000865af19150503d80600081146123ac576040519150601f19603f3d011682016040523d82523d6000602084013e6123b1565b606091505b5080519193509150158015906123f157508051600160e01b63bc197c810290602080840191908110156123e357600080fd5b50516001600160e01b031916145b1561240157600192505050612666565b866001600160a01b0316639b49e33260e01b8a8a89898960405160240180866001600160a01b03166001600160a01b03168152602001856001600160a01b03166001600160a01b03168152602001806020018060200180602001848103845287818151815260200191508051906020019060200280838360005b8381101561249357818101518382015260200161247b565b50505050905001848103835286818151815260200191508051906020019060200280838360005b838110156124d25781810151838201526020016124ba565b50505050905001848103825285818151815260200191508051906020019080838360005b8381101561250e5781810151838201526020016124f6565b50505050905090810190601f16801561253b5780820380516001836020036101000a031916815260200191505b5098505050505050505050604051602081830303815290604052906001600160e01b0319166020820180516001600160e01b0383818316178352505050506040518082805190602001908083835b602083106125a85780518252601f199092019160209182019101612589565b6001836020036101000a0380198251168184511680821785525050505050509050019150506000604051808303816000865af19150503d806000811461260a576040519150601f19603f3d011682016040523d82523d6000602084013e61260f565b606091505b50805191935091501580159061264f57508051600160e11b634da4f19902906020808401919081101561264157600080fd5b50516001600160e01b031916145b1561265f57600192505050612666565b6000925050505b9695505050505050565b60006001600160a01b0382166126ba57604051600160e51b62461bcd0281526004018080602001828103825260228152602001806139136022913960400191505060405180910390fd5b506001600160a01b03166000908152602091909152604090205460ff1690565b6000908152600a60205260409020546001600160a01b0316151590565b6001600160a01b0384166127555760408051600160e51b62461bcd02815260206004820152601f60248201527f4b495033373a206d696e7420746f20746865207a65726f206164647265737300604482015290519081900360640190fd5b600061275f611fb1565b905061277181600087611ceb88612fda565b60008481526001602090815260408083206001600160a01b03891684529091529020546127a4908463ffffffff61212016565b60008581526001602090815260408083206001600160a01b038a1684528252808320939093558682526003905220546127e3908463ffffffff61212016565b600085815260036020908152604080832093909355825187815290810186905282516001600160a01b03808a1694908616927fc3d58168c5ae7397731d063d5bbf3d657854427343f4c083240f7aacaa2d0f62929081900390910190a461284f8160008787878761301e565b61288d57604051600160e51b62461bcd0281526004018080602001828103825260308152602001806139356030913960400191505060405180910390fd5b5050505050565b6001600160a01b0383166128dc57604051600160e51b62461bcd0281526004018080602001828103825260218152602001806137826021913960400191505060405180910390fd5b805182511461291f57604051600160e51b62461bcd0281526004018080602001828103825260268152602001806137f36026913960400191505060405180910390fd5b6000612929611fb1565b905061294981856000868660405180602001604052806000815250611fb5565b60005b8351811015612ac4576129de83828151811061296457fe5b6020026020010151604051806060016040528060228152602001613760602291396001600088868151811061299557fe5b602002602001015181526020019081526020016000206000896001600160a01b03166001600160a01b03168152602001908152602001600020546120869092919063ffffffff16565b600160008684815181106129ee57fe5b602002602001015181526020019081526020016000206000876001600160a01b03166001600160a01b0316815260200190815260200160002081905550612a91838281518110612a3a57fe5b60200260200101516040518060600160405280602781526020016137cc6027913960036000888681518110612a6b57fe5b60200260200101518152602001908152602001600020546120869092919063ffffffff16565b60036000868481518110612aa157fe5b60209081029190910181015182528101919091526040016000205560010161294c565b5060006001600160a01b0316846001600160a01b0316826001600160a01b03167f4a39dc06d4c0dbc64b70af90fd698a233a518aa5d07e595d983b8c0526c8f7fb8686604051808060200180602001838103835285818151815260200191508051906020019060200280838360005b83811015612b4b578181015183820152602001612b33565b50505050905001838103825284818151815260200191508051906020019060200280838360005b83811015612b8a578181015183820152602001612b72565b5050505090500194505050505060405180910390a450505050565b612bb660068263ffffffff61358216565b6040516001600160a01b038216907fcd265ebaf09df2871cc7bd4133404a235ba12eff2041bb89d9c714a2621c7c7e90600090a250565b612bfe60068263ffffffff6135ec16565b6040516001600160a01b038216907f6719d08c1888103bea251a4ed56406bd0c3e69723c8a1686e017e7bbe159b6f890600090a250565b612c4660098263ffffffff6135ec16565b6040516001600160a01b038216907f6ae172837ea30b801fbfcdd4108aa1d5bf8ff775444fd70256b44e6bf3dfc3f690600090a250565b612c8e60098263ffffffff61358216565b6040516001600160a01b038216907fe94479a9f7e1952cc78f2d6baab678adc1b772d936c6583def489e524cb6669290600090a250565b6001600160a01b038416612d235760408051600160e51b62461bcd02815260206004820152601f60248201527f4b495033373a206d696e7420746f20746865207a65726f206164647265737300604482015290519081900360640190fd5b8151835114612d6657604051600160e51b62461bcd0281526004018080602001828103825260268152602001806137f36026913960400191505060405180910390fd5b6000612d70611fb1565b9050612d8181600087878787611fb5565b60005b8451811015612eb257612dfc60016000878481518110612da057fe5b602002602001015181526020019081526020016000206000886001600160a01b03166001600160a01b0316815260200190815260200160002054858381518110612de657fe5b602002602001015161212090919063ffffffff16565b60016000878481518110612e0c57fe5b602002602001015181526020019081526020016000206000886001600160a01b03166001600160a01b0316815260200190815260200160002081905550612e7f60036000878481518110612e5c57fe5b6020026020010151815260200190815260200160002054858381518110612de657fe5b60036000878481518110612e8f57fe5b602090810291909101810151825281019190915260400160002055600101612d84565b50846001600160a01b031660006001600160a01b0316826001600160a01b03167f4a39dc06d4c0dbc64b70af90fd698a233a518aa5d07e595d983b8c0526c8f7fb8787604051808060200180602001838103835285818151815260200191508051906020019060200280838360005b83811015612f39578181015183820152602001612f21565b50505050905001838103825284818151815260200191508051906020019060200280838360005b83811015612f78578181015183820152602001612f60565b5050505090500194505050505060405180910390a4612f9c8160008787878761217d565b61288d57604051600160e51b62461bcd0281526004018080602001828103825260368152602001806139af6036913960400191505060405180910390fd5b60408051600180825281830190925260609182919060208083019080388339019050509050828160008151811061300d57fe5b602090810291909101015292915050565b6000806060613035876001600160a01b031661357c565b61304457600192505050612666565b866001600160a01b031663f23a6e6160e01b8a8a89898960405160240180866001600160a01b03166001600160a01b03168152602001856001600160a01b03166001600160a01b0316815260200184815260200183815260200180602001828103825283818151815260200191508051906020019080838360005b838110156130d75781810151838201526020016130bf565b50505050905090810190601f1680156131045780820380516001836020036101000a031916815260200191505b509650505050505050604051602081830303815290604052906001600160e01b0319166020820180516001600160e01b0383818316178352505050506040518082805190602001908083835b6020831061316f5780518252601f199092019160209182019101613150565b6001836020036101000a0380198251168184511680821785525050505050509050019150506000604051808303816000865af19150503d80600081146131d1576040519150601f19603f3d011682016040523d82523d6000602084013e6131d6565b606091505b50805191935091501580159061321657508051600160e01b63f23a6e6102906020808401919081101561320857600080fd5b50516001600160e01b031916145b1561322657600192505050612666565b866001600160a01b031663e78b332560e01b8a8a89898960405160240180866001600160a01b03166001600160a01b03168152602001856001600160a01b03166001600160a01b0316815260200184815260200183815260200180602001828103825283818151815260200191508051906020019080838360005b838110156132b95781810151838201526020016132a1565b50505050905090810190601f1680156132e65780820380516001836020036101000a031916815260200191505b509650505050505050604051602081830303815290604052906001600160e01b0319166020820180516001600160e01b0383818316178352505050506040518082805190602001908083835b602083106133515780518252601f199092019160209182019101613332565b6001836020036101000a0380198251168184511680821785525050505050509050019150506000604051808303816000865af19150503d80600081146133b3576040519150601f19603f3d011682016040523d82523d6000602084013e6133b8565b606091505b50805191935091501580159061264f57508051600160e01b63e78b332502906020808401919081101561264157600080fd5b6001600160a01b03831661343257604051600160e51b62461bcd0281526004018080602001828103825260218152602001806137826021913960400191505060405180910390fd5b600061343c611fb1565b905061346c8185600061344e87612fda565b61345787612fda565b60405180602001604052806000815250611fb5565b6134b9826040518060600160405280602281526020016137606022913960008681526001602090815260408083206001600160a01b038b168452909152902054919063ffffffff61208616565b60008481526001602090815260408083206001600160a01b038916845282529182902092909255805160608101909152602780825261351992859291906137cc90830139600086815260036020526040902054919063ffffffff61208616565b6000848152600360209081526040808320939093558251868152908101859052825191926001600160a01b0388811693908616927fc3d58168c5ae7397731d063d5bbf3d657854427343f4c083240f7aacaa2d0f6292908290030190a450505050565b3b151590565b61358c8282612670565b6135ca57604051600160e51b62461bcd0281526004018080602001828103825260218152602001806138a16021913960400191505060405180910390fd5b6001600160a01b0316600090815260209190915260409020805460ff19169055565b6135f68282612670565b1561364b5760408051600160e51b62461bcd02815260206004820152601f60248201527f526f6c65733a206163636f756e7420616c72656164792068617320726f6c6500604482015290519081900360640190fd5b6001600160a01b0316600090815260209190915260409020805460ff19166001179055565b828054600181600116156101000203166002900490600052602060002090601f016020900481019282601f106136b157805160ff19168380011785556136de565b828001600101855582156136de579182015b828111156136de5782518255916020019190600101906136c3565b506136ea9291506136ee565b5090565b6116fc91905b808211156136ea57600081556001016136f456fe4b495033373a206163636f756e747320616e6420696473206c656e677468206d69736d61746368506175736572526f6c653a2063616c6c657220646f6573206e6f742068617665207468652050617573657220726f6c654b495033373a206275726e20616d6f756e7420657863656564732062616c616e63654b495033373a206275726e2066726f6d20746865207a65726f20616464726573734b495033373a2062616c616e636520717565727920666f7220746865207a65726f20616464726573734b495033373a206275726e20616d6f756e74206578636565647320746f74616c20737570706c794b495033373a2069647320616e6420616d6f756e7473206c656e677468206d69736d617463684b495033373a207472616e736665722063616c6c6572206973206e6f74206f776e6572206e6f7220617070726f7665644b495033373a20696e73756666696369656e742062616c616e636520666f72207472616e736665724d696e746572526f6c653a2063616c6c657220646f6573206e6f74206861766520746865204d696e74657220726f6c65526f6c65733a206163636f756e7420646f6573206e6f74206861766520726f6c654b495033375061757361626c653a20746f6b656e207472616e73666572207768696c65207061757365644b495033373a2073657474696e6720617070726f76616c2073746174757320666f722073656c66526f6c65733a206163636f756e7420697320746865207a65726f20616464726573734b495033373a207472616e7366657220746f206e6f6e204b49503337526563656976657220696d706c656d656e7465724b495033373a2063616c6c6572206973206e6f74206f776e6572206e6f7220617070726f7665644b495033373a207472616e7366657220746f20746865207a65726f20616464726573734b495033373a206261746368207472616e7366657220746f206e6f6e204b49503337526563656976657220696d706c656d656e7465724b495033373a2062617463682062616c616e636520717565727920666f7220746865207a65726f20616464726573734b495033375061757361626c653a2074686520746f6b656e20697320706175736564a165627a7a72305820e7fdb6f822ce3126c3359ddad3e3a4d21f8e235e9543b738969bd0ec99854fc20029526f6c65733a206163636f756e7420697320746865207a65726f2061646472657373",
  "source": "pragma solidity ^0.5.0;\r\n\r\nimport \"./KIP37.sol\";\r\nimport \"./KIP37Burnable.sol\";\r\nimport \"./KIP37Pausable.sol\";\r\nimport \"./KIP37Mintable.sol\";\r\n\r\ncontract KIP37Token is KIP37, KIP37Burnable, KIP37Pausable, KIP37Mintable {\r\n    constructor(string memory uri, string memory _name) public KIP37(uri, _name) {}\r\n}\r\n",
  "sourcePath": "/Users/peter/Develop/NFT/klaytn-contracts/contracts/token/KIP37/KIP37Token.sol",
  "compiler": {
    "name": "solc",
    "version": "0.5.6+commit.b259423e.Emscripten.clang"
  },
  "schemaVersion": "3.4.4",
  "updatedAt": "2022-05-10T02:03:23.485Z",
  "devdoc": {
    "methods": {
      "balanceOf(address,uint256)": {
        "details": "See {IKIP37-balanceOf}.     * Requirements:     * - `account` cannot be the zero address."
      },
      "balanceOfBatch(address[],uint256[])": {
        "details": "See {IKIP37-balanceOfBatch}.     * Requirements:     * - `accounts` and `ids` must have the same length."
      },
      "create(uint256,uint256,string)": {
        "details": "Throws if `msg.sender` is not allowed to create.   Throws if the token id is already used.",
        "params": {
          "_id": "The token id to create.",
          "_initialSupply": "The amount of tokens being minted.",
          "_uri": "The token URI of the created token."
        },
        "return": "A boolean that indicates if the operation was successful."
      },
      "isApprovedForAll(address,address)": {
        "details": "See {IKIP37-isApprovedForAll}."
      },
      "mint(uint256,address,uint256)": {
        "details": "Throws if `msg.sender` is not allowed to mint.   MUST emit an event `TransferSingle`.",
        "params": {
          "_id": "The token id to mint.",
          "_to": "The address that will receive the minted tokens.",
          "_value": "The quantity of tokens being minted."
        }
      },
      "mintBatch(address,uint256[],uint256[])": {
        "details": "Throws if `msg.sender` is not allowed to mint.   MUST emit one or more `TransferSingle` events or a single `TransferBatch` event.   MUST revert if the length of `_ids` is not the same as the length of `_values`.",
        "params": {
          "_ids": "The list of the token ids to mint.",
          "_to": "The address that will receive the minted tokens.",
          "_values": "The list of quantities of tokens being minted."
        }
      },
      "pause()": {
        "details": "Called by a pauser to pause, triggers stopped state."
      },
      "pause(uint256)": {
        "details": "Throws if `msg.sender` is not allowed to pause.   Throws if the specific token is paused."
      },
      "paused()": {
        "details": "Returns true if the contract is paused, and false otherwise."
      },
      "paused(uint256)": {
        "return": "True if the specific token is paused, false otherwise"
      },
      "safeBatchTransferFrom(address,address,uint256[],uint256[],bytes)": {
        "details": "See {IKIP37-safeBatchTransferFrom}."
      },
      "safeTransferFrom(address,address,uint256,uint256,bytes)": {
        "details": "See {IKIP37-safeTransferFrom}."
      },
      "setApprovalForAll(address,bool)": {
        "details": "See {IKIP37-setApprovalForAll}."
      },
      "supportsInterface(bytes4)": {
        "details": "See `IKIP13.supportsInterface`.     * Time complexity O(1), guaranteed to always use less than 30 000 gas."
      },
      "unpause()": {
        "details": "Called by a pauser to unpause, returns to normal state."
      },
      "unpause(uint256)": {
        "details": "Throws if `msg.sender` is not allowed to unpause.   Throws if the specific token is not paused."
      },
      "uri(uint256)": {
        "details": "See {IKIP37MetadataURI-uri}.     * This implementation returns the same URI for *all* token types. It relies on the token type ID substituion mechanism http://kips.klaytn.com/KIPs/kip-37#metadata     * Clients calling this function must replace the `\\{id\\}` substring with the actual token type ID."
      }
    }
  },
  "userdoc": {
    "methods": {
      "create(uint256,uint256,string)": {
        "notice": "Creates a new token type and assigns _initialSupply to the minter."
      },
      "mint(uint256,address,uint256)": {
        "notice": "Mints tokens of the specific token type `_id` and assigns the tokens according to the variables `_to` and `_value`."
      },
      "mintBatch(address,uint256[],uint256[])": {
        "notice": "Mints multiple KIP37 tokens of the specific token types `_ids` in a batch and assigns the tokens according to the variables `_to` and `_values`."
      },
      "pause(uint256)": {
        "notice": "Pauses actions related to transfer and approval of the specific token."
      },
      "paused(uint256)": {
        "notice": "Checks whether the specific token is paused."
      },
      "unpause(uint256)": {
        "notice": "Resumes from the paused state of the specific token."
      }
    }
  }
}