{
  "contractName": "KIP37Token",
  "abi": [
    {
      "constant": true,
      "inputs": [
        {
          "name": "_id",
          "type": "uint256"
        }
      ],
      "name": "paused",
      "outputs": [
        {
          "name": "",
          "type": "bool"
        }
      ],
      "payable": false,
      "stateMutability": "view",
      "type": "function"
    },
    {
      "constant": true,
      "inputs": [
        {
          "name": "account",
          "type": "address"
        },
        {
          "name": "id",
          "type": "uint256"
        }
      ],
      "name": "balanceOf",
      "outputs": [
        {
          "name": "",
          "type": "uint256"
        }
      ],
      "payable": false,
      "stateMutability": "view",
      "type": "function"
    },
    {
      "constant": true,
      "inputs": [
        {
          "name": "interfaceId",
          "type": "bytes4"
        }
      ],
      "name": "supportsInterface",
      "outputs": [
        {
          "name": "",
          "type": "bool"
        }
      ],
      "payable": false,
      "stateMutability": "view",
      "type": "function"
    },
    {
      "constant": true,
      "inputs": [],
      "name": "name",
      "outputs": [
        {
          "name": "",
          "type": "string"
        }
      ],
      "payable": false,
      "stateMutability": "view",
      "type": "function"
    },
    {
      "constant": true,
      "inputs": [
        {
          "name": "tokenId",
          "type": "uint256"
        }
      ],
      "name": "uri",
      "outputs": [
        {
          "name": "",
          "type": "string"
        }
      ],
      "payable": false,
      "stateMutability": "view",
      "type": "function"
    },
    {
      "constant": false,
      "inputs": [
        {
          "name": "_id",
          "type": "uint256"
        }
      ],
      "name": "pause",
      "outputs": [],
      "payable": false,
      "stateMutability": "nonpayable",
      "type": "function"
    },
    {
      "constant": false,
      "inputs": [
        {
          "name": "from",
          "type": "address"
        },
        {
          "name": "to",
          "type": "address"
        },
        {
          "name": "ids",
          "type": "uint256[]"
        },
        {
          "name": "amounts",
          "type": "uint256[]"
        },
        {
          "name": "data",
          "type": "bytes"
        }
      ],
      "name": "safeBatchTransferFrom",
      "outputs": [],
      "payable": false,
      "stateMutability": "nonpayable",
      "type": "function"
    },
    {
      "constant": false,
      "inputs": [],
      "name": "unpause",
      "outputs": [],
      "payable": false,
      "stateMutability": "nonpayable",
      "type": "function"
    },
    {
      "constant": true,
      "inputs": [
        {
          "name": "account",
          "type": "address"
        }
      ],
      "name": "isPauser",
      "outputs": [
        {
          "name": "",
          "type": "bool"
        }
      ],
      "payable": false,
      "stateMutability": "view",
      "type": "function"
    },
    {
      "constant": false,
      "inputs": [
        {
          "name": "_id",
          "type": "uint256"
        },
        {
          "name": "_initialSupply",
          "type": "uint256"
        },
        {
          "name": "_uri",
          "type": "string"
        }
      ],
      "name": "create",
      "outputs": [
        {
          "name": "",
          "type": "bool"
        }
      ],
      "payable": false,
      "stateMutability": "nonpayable",
      "type": "function"
    },
    {
      "constant": true,
      "inputs": [
        {
          "name": "accounts",
          "type": "address[]"
        },
        {
          "name": "ids",
          "type": "uint256[]"
        }
      ],
      "name": "balanceOfBatch",
      "outputs": [
        {
          "name": "",
          "type": "uint256[]"
        }
      ],
      "payable": false,
      "stateMutability": "view",
      "type": "function"
    },
    {
      "constant": true,
      "inputs": [],
      "name": "paused",
      "outputs": [
        {
          "name": "",
          "type": "bool"
        }
      ],
      "payable": false,
      "stateMutability": "view",
      "type": "function"
    },
    {
      "constant": false,
      "inputs": [
        {
          "name": "account",
          "type": "address"
        },
        {
          "name": "ids",
          "type": "uint256[]"
        },
        {
          "name": "values",
          "type": "uint256[]"
        }
      ],
      "name": "burnBatch",
      "outputs": [],
      "payable": false,
      "stateMutability": "nonpayable",
      "type": "function"
    },
    {
      "constant": false,
      "inputs": [],
      "name": "renouncePauser",
      "outputs": [],
      "payable": false,
      "stateMutability": "nonpayable",
      "type": "function"
    },
    {
      "constant": false,
      "inputs": [],
      "name": "renounceOwnership",
      "outputs": [],
      "payable": false,
      "stateMutability": "nonpayable",
      "type": "function"
    },
    {
      "constant": false,
      "inputs": [
        {
          "name": "account",
          "type": "address"
        }
      ],
      "name": "addPauser",
      "outputs": [],
      "payable": false,
      "stateMutability": "nonpayable",
      "type": "function"
    },
    {
      "constant": false,
      "inputs": [
        {
          "name": "_id",
          "type": "uint256"
        },
        {
          "name": "_to",
          "type": "address"
        },
        {
          "name": "_value",
          "type": "uint256"
        }
      ],
      "name": "mint",
      "outputs": [],
      "payable": false,
      "stateMutability": "nonpayable",
      "type": "function"
    },
    {
      "constant": false,
      "inputs": [],
      "name": "pause",
      "outputs": [],
      "payable": false,
      "stateMutability": "nonpayable",
      "type": "function"
    },
    {
      "constant": true,
      "inputs": [],
      "name": "owner",
      "outputs": [
        {
          "name": "",
          "type": "address"
        }
      ],
      "payable": false,
      "stateMutability": "view",
      "type": "function"
    },
    {
      "constant": true,
      "inputs": [],
      "name": "isOwner",
      "outputs": [
        {
          "name": "",
          "type": "bool"
        }
      ],
      "payable": false,
      "stateMutability": "view",
      "type": "function"
    },
    {
      "constant": false,
      "inputs": [
        {
          "name": "account",
          "type": "address"
        }
      ],
      "name": "addMinter",
      "outputs": [],
      "payable": false,
      "stateMutability": "nonpayable",
      "type": "function"
    },
    {
      "constant": false,
      "inputs": [],
      "name": "renounceMinter",
      "outputs": [],
      "payable": false,
      "stateMutability": "nonpayable",
      "type": "function"
    },
    {
      "constant": false,
      "inputs": [
        {
          "name": "operator",
          "type": "address"
        },
        {
          "name": "approved",
          "type": "bool"
        }
      ],
      "name": "setApprovalForAll",
      "outputs": [],
      "payable": false,
      "stateMutability": "nonpayable",
      "type": "function"
    },
    {
      "constant": true,
      "inputs": [
        {
          "name": "account",
          "type": "address"
        }
      ],
      "name": "isMinter",
      "outputs": [
        {
          "name": "",
          "type": "bool"
        }
      ],
      "payable": false,
      "stateMutability": "view",
      "type": "function"
    },
    {
      "constant": true,
      "inputs": [
        {
          "name": "_tokenId",
          "type": "uint256"
        }
      ],
      "name": "totalSupply",
      "outputs": [
        {
          "name": "",
          "type": "uint256"
        }
      ],
      "payable": false,
      "stateMutability": "view",
      "type": "function"
    },
    {
      "constant": false,
      "inputs": [
        {
          "name": "newname",
          "type": "string"
        }
      ],
      "name": "setName",
      "outputs": [],
      "payable": false,
      "stateMutability": "nonpayable",
      "type": "function"
    },
    {
      "constant": true,
      "inputs": [
        {
          "name": "",
          "type": "uint256"
        }
      ],
      "name": "creators",
      "outputs": [
        {
          "name": "",
          "type": "address"
        }
      ],
      "payable": false,
      "stateMutability": "view",
      "type": "function"
    },
    {
      "constant": false,
      "inputs": [
        {
          "name": "_to",
          "type": "address"
        },
        {
          "name": "_ids",
          "type": "uint256[]"
        },
        {
          "name": "_values",
          "type": "uint256[]"
        }
      ],
      "name": "mintBatch",
      "outputs": [],
      "payable": false,
      "stateMutability": "nonpayable",
      "type": "function"
    },
    {
      "constant": true,
      "inputs": [
        {
          "name": "account",
          "type": "address"
        },
        {
          "name": "operator",
          "type": "address"
        }
      ],
      "name": "isApprovedForAll",
      "outputs": [
        {
          "name": "",
          "type": "bool"
        }
      ],
      "payable": false,
      "stateMutability": "view",
      "type": "function"
    },
    {
      "constant": false,
      "inputs": [
        {
          "name": "from",
          "type": "address"
        },
        {
          "name": "to",
          "type": "address"
        },
        {
          "name": "id",
          "type": "uint256"
        },
        {
          "name": "amount",
          "type": "uint256"
        },
        {
          "name": "data",
          "type": "bytes"
        }
      ],
      "name": "safeTransferFrom",
      "outputs": [],
      "payable": false,
      "stateMutability": "nonpayable",
      "type": "function"
    },
    {
      "constant": false,
      "inputs": [
        {
          "name": "newOwner",
          "type": "address"
        }
      ],
      "name": "transferOwnership",
      "outputs": [],
      "payable": false,
      "stateMutability": "nonpayable",
      "type": "function"
    },
    {
      "constant": false,
      "inputs": [
        {
          "name": "account",
          "type": "address"
        },
        {
          "name": "id",
          "type": "uint256"
        },
        {
          "name": "value",
          "type": "uint256"
        }
      ],
      "name": "burn",
      "outputs": [],
      "payable": false,
      "stateMutability": "nonpayable",
      "type": "function"
    },
    {
      "constant": false,
      "inputs": [
        {
          "name": "_id",
          "type": "uint256"
        }
      ],
      "name": "unpause",
      "outputs": [],
      "payable": false,
      "stateMutability": "nonpayable",
      "type": "function"
    },
    {
      "inputs": [
        {
          "name": "uri",
          "type": "string"
        },
        {
          "name": "_name",
          "type": "string"
        }
      ],
      "payable": false,
      "stateMutability": "nonpayable",
      "type": "constructor"
    },
    {
      "anonymous": false,
      "inputs": [
        {
          "indexed": true,
          "name": "account",
          "type": "address"
        }
      ],
      "name": "MinterAdded",
      "type": "event"
    },
    {
      "anonymous": false,
      "inputs": [
        {
          "indexed": true,
          "name": "account",
          "type": "address"
        }
      ],
      "name": "MinterRemoved",
      "type": "event"
    },
    {
      "anonymous": false,
      "inputs": [
        {
          "indexed": false,
          "name": "tokenId",
          "type": "uint256"
        },
        {
          "indexed": false,
          "name": "account",
          "type": "address"
        }
      ],
      "name": "Paused",
      "type": "event"
    },
    {
      "anonymous": false,
      "inputs": [
        {
          "indexed": false,
          "name": "tokenId",
          "type": "uint256"
        },
        {
          "indexed": false,
          "name": "account",
          "type": "address"
        }
      ],
      "name": "Unpaused",
      "type": "event"
    },
    {
      "anonymous": false,
      "inputs": [
        {
          "indexed": false,
          "name": "account",
          "type": "address"
        }
      ],
      "name": "Paused",
      "type": "event"
    },
    {
      "anonymous": false,
      "inputs": [
        {
          "indexed": false,
          "name": "account",
          "type": "address"
        }
      ],
      "name": "Unpaused",
      "type": "event"
    },
    {
      "anonymous": false,
      "inputs": [
        {
          "indexed": true,
          "name": "account",
          "type": "address"
        }
      ],
      "name": "PauserAdded",
      "type": "event"
    },
    {
      "anonymous": false,
      "inputs": [
        {
          "indexed": true,
          "name": "account",
          "type": "address"
        }
      ],
      "name": "PauserRemoved",
      "type": "event"
    },
    {
      "anonymous": false,
      "inputs": [
        {
          "indexed": true,
          "name": "previousOwner",
          "type": "address"
        },
        {
          "indexed": true,
          "name": "newOwner",
          "type": "address"
        }
      ],
      "name": "OwnershipTransferred",
      "type": "event"
    },
    {
      "anonymous": false,
      "inputs": [
        {
          "indexed": true,
          "name": "operator",
          "type": "address"
        },
        {
          "indexed": true,
          "name": "from",
          "type": "address"
        },
        {
          "indexed": true,
          "name": "to",
          "type": "address"
        },
        {
          "indexed": false,
          "name": "id",
          "type": "uint256"
        },
        {
          "indexed": false,
          "name": "value",
          "type": "uint256"
        }
      ],
      "name": "TransferSingle",
      "type": "event"
    },
    {
      "anonymous": false,
      "inputs": [
        {
          "indexed": true,
          "name": "operator",
          "type": "address"
        },
        {
          "indexed": true,
          "name": "from",
          "type": "address"
        },
        {
          "indexed": true,
          "name": "to",
          "type": "address"
        },
        {
          "indexed": false,
          "name": "ids",
          "type": "uint256[]"
        },
        {
          "indexed": false,
          "name": "values",
          "type": "uint256[]"
        }
      ],
      "name": "TransferBatch",
      "type": "event"
    },
    {
      "anonymous": false,
      "inputs": [
        {
          "indexed": true,
          "name": "account",
          "type": "address"
        },
        {
          "indexed": true,
          "name": "operator",
          "type": "address"
        },
        {
          "indexed": false,
          "name": "approved",
          "type": "bool"
        }
      ],
      "name": "ApprovalForAll",
      "type": "event"
    },
    {
      "anonymous": false,
      "inputs": [
        {
          "indexed": false,
          "name": "value",
          "type": "string"
        },
        {
          "indexed": true,
          "name": "id",
          "type": "uint256"
        }
      ],
      "name": "URI",
      "type": "event"
    }
  ],
  "bytecode": "0x60806040523480156200001157600080fd5b506040516200439938038062004399833981018060405260408110156200003757600080fd5b8101908080516401000000008111156200005057600080fd5b820160208101848111156200006457600080fd5b81516401000000008111828201871017156200007f57600080fd5b505092919060200180516401000000008111156200009c57600080fd5b82016020810184811115620000b057600080fd5b8151640100000000811182820187101715620000cb57600080fd5b50509291905050508181620000ed6301ffc9a760e01b6200022860201b60201c565b600180546001600160a01b0319163317908190556040516001600160a01b0391909116906000907f8be0079c531659141344cd1fd0a4f28419497f9722a3daafe3b4186f6b6457e0908290a36200014a82620002f760201b60201c565b80516200015f906006906020840190620004db565b5062000178636433ca1f60e01b6200022860201b60201c565b62000190630e89341c60e01b6200022860201b60201c565b5050620001aa639e094e9e60e01b6200022860201b60201c565b620001bb336200031060201b60201c565b6008805460ff19169055620001f77f0e8ffdb70000000000000000000000000000000000000000000000000000000062000228602090811b901c565b62000208336200036260201b60201c565b6200022063dfd9d9ec60e01b6200022860201b60201c565b505062000580565b7fffffffff000000000000000000000000000000000000000000000000000000008082161415620002ba57604080517f08c379a000000000000000000000000000000000000000000000000000000000815260206004820152601b60248201527f4b495031333a20696e76616c696420696e746572666163652069640000000000604482015290519081900360640190fd5b7fffffffff00000000000000000000000000000000000000000000000000000000166000908152602081905260409020805460ff19166001179055565b80516200030c906005906020840190620004db565b5050565b6200032b816007620003b460201b6200394c1790919060201c565b6040516001600160a01b038216907f6719d08c1888103bea251a4ed56406bd0c3e69723c8a1686e017e7bbe159b6f890600090a250565b6200037d81600a620003b460201b6200394c1790919060201c565b6040516001600160a01b038216907f6ae172837ea30b801fbfcdd4108aa1d5bf8ff775444fd70256b44e6bf3dfc3f690600090a250565b620003c682826200045860201b60201c565b156200043357604080517f08c379a000000000000000000000000000000000000000000000000000000000815260206004820152601f60248201527f526f6c65733a206163636f756e7420616c72656164792068617320726f6c6500604482015290519081900360640190fd5b6001600160a01b0316600090815260209190915260409020805460ff19166001179055565b60006001600160a01b038216620004bb576040517f08c379a0000000000000000000000000000000000000000000000000000000008152600401808060200182810382526022815260200180620043776022913960400191505060405180910390fd5b506001600160a01b03166000908152602091909152604090205460ff1690565b828054600181600116156101000203166002900490600052602060002090601f016020900481019282601f106200051e57805160ff19168380011785556200054e565b828001600101855582156200054e579182015b828111156200054e57825182559160200191906001019062000531565b506200055c92915062000560565b5090565b6200057d91905b808211156200055c576000815560010162000567565b90565b613de780620005906000396000f3fe608060405234801561001057600080fd5b50600436106101f95760003560e01c8063836a10401161011a578063bd85b039116100ad578063e985e9c51161007c578063e985e9c514610bc9578063f242432a14610bf7578063f2fde38b14610cc0578063f5298aca14610ce6578063fabc1cbc14610d18576101f9565b8063bd85b039146109b8578063c47f0027146109d5578063cd53d08e14610a79578063d81d0a1514610a96576101f9565b8063983b2d56116100e9578063983b2d5614610936578063986502751461095c578063a22cb46514610964578063aa271e1a14610992576101f9565b8063836a1040146108d05780638456cb59146109025780638da5cb5b1461090a5780638f32d59b1461092e576101f9565b806346fbf68e116101925780636b20c454116101615780636b20c454146107675780636ef8d66d1461089a578063715018a6146108a257806382dc1ec4146108aa576101f9565b806346fbf68e146105165780634b068c781461053c5780634e1273f4146105ec5780635c975abb1461075f576101f9565b80630e89341c116101ce5780630e89341c14610311578063136439dd1461032e5780632eb2c2d61461034d5780633f4ba83a1461050e576101f9565b8062dde10e146101fe578062fdd58e1461022f57806301ffc9a71461026d57806306fdde0314610294575b600080fd5b61021b6004803603602081101561021457600080fd5b5035610d35565b604080519115158252519081900360200190f35b61025b6004803603604081101561024557600080fd5b506001600160a01b038135169060200135610d4d565b60408051918252519081900360200190f35b61021b6004803603602081101561028357600080fd5b50356001600160e01b031916610dbf565b61029c610dde565b6040805160208082528351818301528351919283929083019185019080838360005b838110156102d65781810151838201526020016102be565b50505050905090810190601f1680156103035780820380516001836020036101000a031916815260200191505b509250505060405180910390f35b61029c6004803603602081101561032757600080fd5b5035610e6c565b61034b6004803603602081101561034457600080fd5b5035610fae565b005b61034b600480360360a081101561036357600080fd5b6001600160a01b038235811692602081013590911691810190606081016040820135600160201b81111561039657600080fd5b8201836020820111156103a857600080fd5b803590602001918460208302840111600160201b831117156103c957600080fd5b9190808060200260200160405190810160405280939291908181526020018383602002808284376000920191909152509295949360208101935035915050600160201b81111561041857600080fd5b82018360208201111561042a57600080fd5b803590602001918460208302840111600160201b8311171561044b57600080fd5b9190808060200260200160405190810160405280939291908181526020018383602002808284376000920191909152509295949360208101935035915050600160201b81111561049a57600080fd5b8201836020820111156104ac57600080fd5b803590602001918460018302840111600160201b831117156104cd57600080fd5b91908080601f0160208091040260200160405190810160405280939291908181526020018383808284376000920191909152509295506110b6945050505050565b61034b611400565b61021b6004803603602081101561052c57600080fd5b50356001600160a01b03166114e0565b61021b6004803603606081101561055257600080fd5b813591602081013591810190606081016040820135600160201b81111561057857600080fd5b82018360208201111561058a57600080fd5b803590602001918460018302840111600160201b831117156105ab57600080fd5b91908080601f0160208091040260200160405190810160405280939291908181526020018383808284376000920191909152509295506114f9945050505050565b61070f6004803603604081101561060257600080fd5b810190602081018135600160201b81111561061c57600080fd5b82018360208201111561062e57600080fd5b803590602001918460208302840111600160201b8311171561064f57600080fd5b9190808060200260200160405190810160405280939291908181526020018383602002808284376000920191909152509295949360208101935035915050600160201b81111561069e57600080fd5b8201836020820111156106b057600080fd5b803590602001918460208302840111600160201b831117156106d157600080fd5b9190808060200260200160405190810160405280939291908181526020018383602002808284376000920191909152509295506116a6945050505050565b60408051602080825283518183015283519192839290830191858101910280838360005b8381101561074b578181015183820152602001610733565b505050509050019250505060405180910390f35b61021b611813565b61034b6004803603606081101561077d57600080fd5b6001600160a01b038235169190810190604081016020820135600160201b8111156107a757600080fd5b8201836020820111156107b957600080fd5b803590602001918460208302840111600160201b831117156107da57600080fd5b9190808060200260200160405190810160405280939291908181526020018383602002808284376000920191909152509295949360208101935035915050600160201b81111561082957600080fd5b82018360208201111561083b57600080fd5b803590602001918460208302840111600160201b8311171561085c57600080fd5b91908080602002602001604051908101604052809392919081815260200183836020028082843760009201919091525092955061181d945050505050565b61034b611899565b61034b6118a4565b61034b600480360360208110156108c057600080fd5b50356001600160a01b031661194a565b61034b600480360360608110156108e657600080fd5b508035906001600160a01b03602082013516906040013561199d565b61034b611a5c565b610912611b40565b604080516001600160a01b039092168252519081900360200190f35b61021b611b4f565b61034b6004803603602081101561094c57600080fd5b50356001600160a01b0316611b60565b61034b611bb0565b61034b6004803603604081101561097a57600080fd5b506001600160a01b0381351690602001351515611bb9565b61021b600480360360208110156109a857600080fd5b50356001600160a01b0316611cab565b61025b600480360360208110156109ce57600080fd5b5035611cbe565b61034b600480360360208110156109eb57600080fd5b810190602081018135600160201b811115610a0557600080fd5b820183602082011115610a1757600080fd5b803590602001918460018302840111600160201b83111715610a3857600080fd5b91908080601f016020809104026020016040519081016040528093929190818152602001838380828437600092019190915250929550611cd0945050505050565b61091260048036036020811015610a8f57600080fd5b5035611d43565b61034b60048036036060811015610aac57600080fd5b6001600160a01b038235169190810190604081016020820135600160201b811115610ad657600080fd5b820183602082011115610ae857600080fd5b803590602001918460208302840111600160201b83111715610b0957600080fd5b9190808060200260200160405190810160405280939291908181526020018383602002808284376000920191909152509295949360208101935035915050600160201b811115610b5857600080fd5b820183602082011115610b6a57600080fd5b803590602001918460208302840111600160201b83111715610b8b57600080fd5b919080806020026020016040519081016040528093929190818152602001838360200280828437600092019190915250929550611d5e945050505050565b61021b60048036036040811015610bdf57600080fd5b506001600160a01b0381358116916020013516611e45565b61034b600480360360a0811015610c0d57600080fd5b6001600160a01b03823581169260208101359091169160408201359160608101359181019060a081016080820135600160201b811115610c4c57600080fd5b820183602082011115610c5e57600080fd5b803590602001918460018302840111600160201b83111715610c7f57600080fd5b91908080601f016020809104026020016040519081016040528093929190818152602001838380828437600092019190915250929550611e73945050505050565b61034b60048036036020811015610cd657600080fd5b50356001600160a01b0316612088565b61034b60048036036060811015610cfc57600080fd5b506001600160a01b0381351690602081013590604001356120ed565b61034b60048036036020811015610d2e57600080fd5b5035612164565b60008181526009602052604090205460ff165b919050565b60006001600160a01b038316610d9757604051600160e51b62461bcd028152600401808060200182810382526029815260200180613b296029913960400191505060405180910390fd5b5060009081526002602090815260408083206001600160a01b03949094168352929052205490565b6001600160e01b03191660009081526020819052604090205460ff1690565b6006805460408051602060026001851615610100026000190190941693909304601f81018490048402820184019092528181529291830182828015610e645780601f10610e3957610100808354040283529160200191610e64565b820191906000526020600020905b815481529060010190602001808311610e4757829003601f168201915b505050505081565b6000818152600c60209081526040918290208054835160026001831615610100026000190190921691909104601f81018490048402820184019094528381526060938493919291830182828015610f045780601f10610ed957610100808354040283529160200191610f04565b820191906000526020600020905b815481529060010190602001808311610ee757829003601f168201915b505050505090508051600014610f1b579050610d48565b6005805460408051602060026001851615610100026000190190941693909304601f81018490048402820184019092528181529291830182828015610fa15780601f10610f7657610100808354040283529160200191610fa1565b820191906000526020600020905b815481529060010190602001808311610f8457829003601f168201915b5050505050915050919050565b610fb7336114e0565b610ff557604051600160e51b62461bcd028152600401808060200182810382526030815260200180613a906030913960400191505060405180910390fd5b60008181526009602052604090205460ff161561105c5760408051600160e51b62461bcd02815260206004820152601d60248201527f4b495033375061757361626c653a20616c726561647920706175736564000000604482015290519081900360640190fd5b600081815260096020908152604091829020805460ff191660011790558151838152339181019190915281517fabdb1c9133626eb4f8c5f2ec7e3c60a969a2fb148a0c341a3cf6597242c8f8f5929181900390910190a150565b81518351146110f957604051600160e51b62461bcd028152600401808060200182810382526026815260200180613b796026913960400191505060405180910390fd5b6001600160a01b03841661114157604051600160e51b62461bcd028152600401808060200182810382526023815260200180613d126023913960400191505060405180910390fd5b61114961226d565b6001600160a01b0316856001600160a01b0316148061117457506111748561116f61226d565b611e45565b6111b257604051600160e51b62461bcd028152600401808060200182810382526030815260200180613b9f6030913960400191505060405180910390fd5b60006111bc61226d565b90506111cc818787878787612271565b60005b84518110156112d25760008582815181106111e657fe5b6020026020010151905060008583815181106111fe57fe5b6020026020010151905061126b81604051806060016040528060288152602001613bcf602891396002600086815260200190815260200160002060008d6001600160a01b03166001600160a01b03168152602001908152602001600020546123429092919063ffffffff16565b60008381526002602090815260408083206001600160a01b038e811685529252808320939093558a16815220546112a290826123dc565b60009283526002602090815260408085206001600160a01b038c16865290915290922091909155506001016111cf565b50846001600160a01b0316866001600160a01b0316826001600160a01b03167f4a39dc06d4c0dbc64b70af90fd698a233a518aa5d07e595d983b8c0526c8f7fb8787604051808060200180602001838103835285818151815260200191508051906020019060200280838360005b83811015611358578181015183820152602001611340565b50505050905001838103825284818151815260200191508051906020019060200280838360005b8381101561139757818101518382015260200161137f565b5050505090500194505050505060405180910390a46113ba818787878787612439565b6113f857604051600160e51b62461bcd028152600401808060200182810382526036815260200180613d356036913960400191505060405180910390fd5b505050505050565b611409336114e0565b61144757604051600160e51b62461bcd028152600401808060200182810382526030815260200180613a906030913960400191505060405180910390fd5b60085460ff166114a15760408051600160e51b62461bcd02815260206004820152601460248201527f5061757361626c653a206e6f7420706175736564000000000000000000000000604482015290519081900360640190fd5b6008805460ff191690556040805133815290517f5db9ee0a495bf2e6ff9c91a7834c1ba4fdd244a5e8aa4e537bd38aeae4b073aa9181900360200190a1565b60006114f360078363ffffffff61292c16565b92915050565b600061150433611cab565b61154257604051600160e51b62461bcd028152600401808060200182810382526030815260200180613bf76030913960400191505060405180910390fd5b61154b84612996565b156115a05760408051600160e51b62461bcd02815260206004820152601c60248201527f4b495033373a20746f6b656e20616c7265616479206372656174656400000000604482015290519081900360640190fd5b6000848152600b6020908152604080832080546001600160a01b0319163390811790915581519283019091529181526115dd9190869086906129b3565b81511561169f576000848152600c602090815260409091208351611603928501906139d0565b50837f6bb7ff708619ba0610cba295a58592e0451dee2622938c8755667688daf3529b836040518080602001828103825283818151815260200191508051906020019080838360005b8381101561166457818101518382015260200161164c565b50505050905090810190601f1680156116915780820380516001836020036101000a031916815260200191505b509250505060405180910390a25b9392505050565b606081518351146116eb57604051600160e51b62461bcd028152600401808060200182810382526027815260200180613a696027913960400191505060405180910390fd5b60608351604051908082528060200260200182016040528015611718578160200160208202803883390190505b50905060005b845181101561180b5760006001600160a01b031685828151811061173e57fe5b60200260200101516001600160a01b0316141561178f57604051600160e51b62461bcd02815260040180806020018281038252602f815260200180613d6b602f913960400191505060405180910390fd5b6002600085838151811061179f57fe5b6020026020010151815260200190815260200160002060008683815181106117c357fe5b60200260200101516001600160a01b03166001600160a01b03168152602001908152602001600020548282815181106117f857fe5b602090810291909101015260010161171e565b509392505050565b60085460ff165b90565b61182561226d565b6001600160a01b0316836001600160a01b0316148061184b575061184b8361116f61226d565b61188957604051600160e51b62461bcd028152600401808060200182810382526027815260200180613ceb6027913960400191505060405180910390fd5b611894838383612b50565b505050565b6118a233612e61565b565b6118ac611b4f565b6119005760408051600160e51b62461bcd02815260206004820181905260248201527f4f776e61626c653a2063616c6c6572206973206e6f7420746865206f776e6572604482015290519081900360640190fd5b6001546040516000916001600160a01b0316907f8be0079c531659141344cd1fd0a4f28419497f9722a3daafe3b4186f6b6457e0908390a3600180546001600160a01b0319169055565b611953336114e0565b61199157604051600160e51b62461bcd028152600401808060200182810382526030815260200180613a906030913960400191505060405180910390fd5b61199a81612ea9565b50565b6119a633611cab565b6119e457604051600160e51b62461bcd028152600401808060200182810382526030815260200180613bf76030913960400191505060405180910390fd5b6119ed83612996565b611a415760408051600160e51b62461bcd02815260206004820152601860248201527f4b495033373a206e6f6e6578697374656e7420746f6b656e0000000000000000604482015290519081900360640190fd5b611894828483604051806020016040528060008152506129b3565b611a65336114e0565b611aa357604051600160e51b62461bcd028152600401808060200182810382526030815260200180613a906030913960400191505060405180910390fd5b60085460ff1615611afe5760408051600160e51b62461bcd02815260206004820152601060248201527f5061757361626c653a2070617573656400000000000000000000000000000000604482015290519081900360640190fd5b6008805460ff191660011790556040805133815290517f62e78cea01bee320cd4e420270b5ea74000d11b0c9f74754ebdbfc544b05a2589181900360200190a1565b6001546001600160a01b031690565b6001546001600160a01b0316331490565b611b6933611cab565b611ba757604051600160e51b62461bcd028152600401808060200182810382526030815260200180613bf76030913960400191505060405180910390fd5b61199a81612ef1565b6118a233612f39565b816001600160a01b0316611bcb61226d565b6001600160a01b03161415611c1457604051600160e51b62461bcd028152600401808060200182810382526027815260200180613c726027913960400191505060405180910390fd5b8060036000611c2161226d565b6001600160a01b03908116825260208083019390935260409182016000908120918716808252919093529120805460ff191692151592909217909155611c6561226d565b60408051841515815290516001600160a01b0392909216917f17307eab39ab6107e8899845ad3d59bd9653f200f220920489ca2b5937696c319181900360200190a35050565b60006114f3600a8363ffffffff61292c16565b60009081526004602052604090205490565b611cd8611b4f565b611d2c5760408051600160e51b62461bcd02815260206004820181905260248201527f4f776e61626c653a2063616c6c6572206973206e6f7420746865206f776e6572604482015290519081900360640190fd5b8051611d3f9060069060208401906139d0565b5050565b600b602052600090815260409020546001600160a01b031681565b611d6733611cab565b611da557604051600160e51b62461bcd028152600401808060200182810382526030815260200180613bf76030913960400191505060405180910390fd5b60005b8251811015611e2957611dcd838281518110611dc057fe5b6020026020010151612996565b611e215760408051600160e51b62461bcd02815260206004820152601860248201527f4b495033373a206e6f6e6578697374656e7420746f6b656e0000000000000000604482015290519081900360640190fd5b600101611da8565b5061189483838360405180602001604052806000815250612f81565b6001600160a01b03918216600090815260036020908152604080832093909416825291909152205460ff1690565b6001600160a01b038416611ebb57604051600160e51b62461bcd028152600401808060200182810382526023815260200180613d126023913960400191505060405180910390fd5b611ec361226d565b6001600160a01b0316856001600160a01b03161480611ee95750611ee98561116f61226d565b611f2757604051600160e51b62461bcd028152600401808060200182810382526027815260200180613ceb6027913960400191505060405180910390fd5b6000611f3161226d565b9050611f51818787611f4288613296565b611f4b88613296565b87612271565b611f9e83604051806060016040528060288152602001613bcf6028913960008781526002602090815260408083206001600160a01b038d168452909152902054919063ffffffff61234216565b60008581526002602090815260408083206001600160a01b038b81168552925280832093909355871681522054611fd590846123dc565b60008581526002602090815260408083206001600160a01b03808b168086529184529382902094909455805188815291820187905280518a8416938616927fc3d58168c5ae7397731d063d5bbf3d657854427343f4c083240f7aacaa2d0f6292908290030190a461204a8187878787876132da565b6113f857604051600160e51b62461bcd028152600401808060200182810382526030815260200180613cbb6030913960400191505060405180910390fd5b612090611b4f565b6120e45760408051600160e51b62461bcd02815260206004820181905260248201527f4f776e61626c653a2063616c6c6572206973206e6f7420746865206f776e6572604482015290519081900360640190fd5b61199a816136a6565b6120f561226d565b6001600160a01b0316836001600160a01b0316148061211b575061211b8361116f61226d565b61215957604051600160e51b62461bcd028152600401808060200182810382526027815260200180613ceb6027913960400191505060405180910390fd5b61189483838361374a565b61216d336114e0565b6121ab57604051600160e51b62461bcd028152600401808060200182810382526030815260200180613a906030913960400191505060405180910390fd5b60008181526009602052604090205460ff1615156001146122165760408051600160e51b62461bcd02815260206004820152601f60248201527f4b495033375061757361626c653a20616c726561647920756e70617573656400604482015290519081900360640190fd5b600081815260096020908152604091829020805460ff191690558151838152339181019190915281517ffe9b5e5216db9de81757f43d20f846bea509c040a560d136b8263dd8cd764238929181900390910190a150565b3390565b612279611813565b156122b857604051600160e51b62461bcd02815260040180806020018281038252602a815260200180613c48602a913960400191505060405180910390fd5b60005b835181101561233957600960008583815181106122d457fe5b60209081029190910181015182528101919091526040016000205460ff161561233157604051600160e51b62461bcd028152600401808060200182810382526022815260200180613d9a6022913960400191505060405180910390fd5b6001016122bb565b50505050505050565b600081848411156123d457604051600160e51b62461bcd0281526004018080602001828103825283818151815260200191508051906020019080838360005b83811015612399578181015183820152602001612381565b50505050905090810190601f1680156123c65780820380516001836020036101000a031916815260200191505b509250505060405180910390fd5b505050900390565b60008282018381101561169f5760408051600160e51b62461bcd02815260206004820152601b60248201527f536166654d6174683a206164646974696f6e206f766572666c6f770000000000604482015290519081900360640190fd5b6000806060612450876001600160a01b03166138dc565b61245f57600192505050612922565b866001600160a01b031663bc197c8160e01b8a8a89898960405160240180866001600160a01b03166001600160a01b03168152602001856001600160a01b03166001600160a01b03168152602001806020018060200180602001848103845287818151815260200191508051906020019060200280838360005b838110156124f15781810151838201526020016124d9565b50505050905001848103835286818151815260200191508051906020019060200280838360005b83811015612530578181015183820152602001612518565b50505050905001848103825285818151815260200191508051906020019080838360005b8381101561256c578181015183820152602001612554565b50505050905090810190601f1680156125995780820380516001836020036101000a031916815260200191505b5098505050505050505050604051602081830303815290604052906001600160e01b0319166020820180516001600160e01b0383818316178352505050506040518082805190602001908083835b602083106126065780518252601f1990920191602091820191016125e7565b6001836020036101000a0380198251168184511680821785525050505050509050019150506000604051808303816000865af19150503d8060008114612668576040519150601f19603f3d011682016040523d82523d6000602084013e61266d565b606091505b5080519193509150158015906126ad57508051600160e01b63bc197c8102906020808401919081101561269f57600080fd5b50516001600160e01b031916145b156126bd57600192505050612922565b866001600160a01b0316639b49e33260e01b8a8a89898960405160240180866001600160a01b03166001600160a01b03168152602001856001600160a01b03166001600160a01b03168152602001806020018060200180602001848103845287818151815260200191508051906020019060200280838360005b8381101561274f578181015183820152602001612737565b50505050905001848103835286818151815260200191508051906020019060200280838360005b8381101561278e578181015183820152602001612776565b50505050905001848103825285818151815260200191508051906020019080838360005b838110156127ca5781810151838201526020016127b2565b50505050905090810190601f1680156127f75780820380516001836020036101000a031916815260200191505b5098505050505050505050604051602081830303815290604052906001600160e01b0319166020820180516001600160e01b0383818316178352505050506040518082805190602001908083835b602083106128645780518252601f199092019160209182019101612845565b6001836020036101000a0380198251168184511680821785525050505050509050019150506000604051808303816000865af19150503d80600081146128c6576040519150601f19603f3d011682016040523d82523d6000602084013e6128cb565b606091505b50805191935091501580159061290b57508051600160e11b634da4f1990290602080840191908110156128fd57600080fd5b50516001600160e01b031916145b1561291b57600192505050612922565b6000925050505b9695505050505050565b60006001600160a01b03821661297657604051600160e51b62461bcd028152600401808060200182810382526022815260200180613c996022913960400191505060405180910390fd5b506001600160a01b03166000908152602091909152604090205460ff1690565b6000908152600b60205260409020546001600160a01b0316151590565b6001600160a01b038416612a115760408051600160e51b62461bcd02815260206004820152601f60248201527f4b495033373a206d696e7420746f20746865207a65726f206164647265737300604482015290519081900360640190fd5b6000612a1b61226d565b9050612a2d81600087611f4288613296565b60008481526002602090815260408083206001600160a01b0389168452909152902054612a60908463ffffffff6123dc16565b60008581526002602090815260408083206001600160a01b038a168452825280832093909355868252600490522054612a9f908463ffffffff6123dc16565b600085815260046020908152604080832093909355825187815290810186905282516001600160a01b03808a1694908616927fc3d58168c5ae7397731d063d5bbf3d657854427343f4c083240f7aacaa2d0f62929081900390910190a4612b0b816000878787876132da565b612b4957604051600160e51b62461bcd028152600401808060200182810382526030815260200180613cbb6030913960400191505060405180910390fd5b5050505050565b6001600160a01b038316612b9857604051600160e51b62461bcd028152600401808060200182810382526021815260200180613b086021913960400191505060405180910390fd5b8051825114612bdb57604051600160e51b62461bcd028152600401808060200182810382526026815260200180613b796026913960400191505060405180910390fd5b6000612be561226d565b9050612c0581856000868660405180602001604052806000815250612271565b60005b8351811015612d8057612c9a838281518110612c2057fe5b6020026020010151604051806060016040528060228152602001613ae66022913960026000888681518110612c5157fe5b602002602001015181526020019081526020016000206000896001600160a01b03166001600160a01b03168152602001908152602001600020546123429092919063ffffffff16565b60026000868481518110612caa57fe5b602002602001015181526020019081526020016000206000876001600160a01b03166001600160a01b0316815260200190815260200160002081905550612d4d838281518110612cf657fe5b6020026020010151604051806060016040528060278152602001613b526027913960046000888681518110612d2757fe5b60200260200101518152602001908152602001600020546123429092919063ffffffff16565b60046000868481518110612d5d57fe5b602090810291909101810151825281019190915260400160002055600101612c08565b5060006001600160a01b0316846001600160a01b0316826001600160a01b03167f4a39dc06d4c0dbc64b70af90fd698a233a518aa5d07e595d983b8c0526c8f7fb8686604051808060200180602001838103835285818151815260200191508051906020019060200280838360005b83811015612e07578181015183820152602001612def565b50505050905001838103825284818151815260200191508051906020019060200280838360005b83811015612e46578181015183820152602001612e2e565b5050505090500194505050505060405180910390a450505050565b612e7260078263ffffffff6138e216565b6040516001600160a01b038216907fcd265ebaf09df2871cc7bd4133404a235ba12eff2041bb89d9c714a2621c7c7e90600090a250565b612eba60078263ffffffff61394c16565b6040516001600160a01b038216907f6719d08c1888103bea251a4ed56406bd0c3e69723c8a1686e017e7bbe159b6f890600090a250565b612f02600a8263ffffffff61394c16565b6040516001600160a01b038216907f6ae172837ea30b801fbfcdd4108aa1d5bf8ff775444fd70256b44e6bf3dfc3f690600090a250565b612f4a600a8263ffffffff6138e216565b6040516001600160a01b038216907fe94479a9f7e1952cc78f2d6baab678adc1b772d936c6583def489e524cb6669290600090a250565b6001600160a01b038416612fdf5760408051600160e51b62461bcd02815260206004820152601f60248201527f4b495033373a206d696e7420746f20746865207a65726f206164647265737300604482015290519081900360640190fd5b815183511461302257604051600160e51b62461bcd028152600401808060200182810382526026815260200180613b796026913960400191505060405180910390fd5b600061302c61226d565b905061303d81600087878787612271565b60005b845181101561316e576130b86002600087848151811061305c57fe5b602002602001015181526020019081526020016000206000886001600160a01b03166001600160a01b03168152602001908152602001600020548583815181106130a257fe5b60200260200101516123dc90919063ffffffff16565b600260008784815181106130c857fe5b602002602001015181526020019081526020016000206000886001600160a01b03166001600160a01b031681526020019081526020016000208190555061313b6004600087848151811061311857fe5b60200260200101518152602001908152602001600020548583815181106130a257fe5b6004600087848151811061314b57fe5b602090810291909101810151825281019190915260400160002055600101613040565b50846001600160a01b031660006001600160a01b0316826001600160a01b03167f4a39dc06d4c0dbc64b70af90fd698a233a518aa5d07e595d983b8c0526c8f7fb8787604051808060200180602001838103835285818151815260200191508051906020019060200280838360005b838110156131f55781810151838201526020016131dd565b50505050905001838103825284818151815260200191508051906020019060200280838360005b8381101561323457818101518382015260200161321c565b5050505090500194505050505060405180910390a461325881600087878787612439565b612b4957604051600160e51b62461bcd028152600401808060200182810382526036815260200180613d356036913960400191505060405180910390fd5b6040805160018082528183019092526060918291906020808301908038833901905050905082816000815181106132c957fe5b602090810291909101015292915050565b60008060606132f1876001600160a01b03166138dc565b61330057600192505050612922565b866001600160a01b031663f23a6e6160e01b8a8a89898960405160240180866001600160a01b03166001600160a01b03168152602001856001600160a01b03166001600160a01b0316815260200184815260200183815260200180602001828103825283818151815260200191508051906020019080838360005b8381101561339357818101518382015260200161337b565b50505050905090810190601f1680156133c05780820380516001836020036101000a031916815260200191505b509650505050505050604051602081830303815290604052906001600160e01b0319166020820180516001600160e01b0383818316178352505050506040518082805190602001908083835b6020831061342b5780518252601f19909201916020918201910161340c565b6001836020036101000a0380198251168184511680821785525050505050509050019150506000604051808303816000865af19150503d806000811461348d576040519150601f19603f3d011682016040523d82523d6000602084013e613492565b606091505b5080519193509150158015906134d257508051600160e01b63f23a6e610290602080840191908110156134c457600080fd5b50516001600160e01b031916145b156134e257600192505050612922565b866001600160a01b031663e78b332560e01b8a8a89898960405160240180866001600160a01b03166001600160a01b03168152602001856001600160a01b03166001600160a01b0316815260200184815260200183815260200180602001828103825283818151815260200191508051906020019080838360005b8381101561357557818101518382015260200161355d565b50505050905090810190601f1680156135a25780820380516001836020036101000a031916815260200191505b509650505050505050604051602081830303815290604052906001600160e01b0319166020820180516001600160e01b0383818316178352505050506040518082805190602001908083835b6020831061360d5780518252601f1990920191602091820191016135ee565b6001836020036101000a0380198251168184511680821785525050505050509050019150506000604051808303816000865af19150503d806000811461366f576040519150601f19603f3d011682016040523d82523d6000602084013e613674565b606091505b50805191935091501580159061290b57508051600160e01b63e78b33250290602080840191908110156128fd57600080fd5b6001600160a01b0381166136ee57604051600160e51b62461bcd028152600401808060200182810382526026815260200180613ac06026913960400191505060405180910390fd5b6001546040516001600160a01b038084169216907f8be0079c531659141344cd1fd0a4f28419497f9722a3daafe3b4186f6b6457e090600090a3600180546001600160a01b0319166001600160a01b0392909216919091179055565b6001600160a01b03831661379257604051600160e51b62461bcd028152600401808060200182810382526021815260200180613b086021913960400191505060405180910390fd5b600061379c61226d565b90506137cc818560006137ae87613296565b6137b787613296565b60405180602001604052806000815250612271565b61381982604051806060016040528060228152602001613ae66022913960008681526002602090815260408083206001600160a01b038b168452909152902054919063ffffffff61234216565b60008481526002602090815260408083206001600160a01b03891684528252918290209290925580516060810190915260278082526138799285929190613b5290830139600086815260046020526040902054919063ffffffff61234216565b6000848152600460209081526040808320939093558251868152908101859052825191926001600160a01b0388811693908616927fc3d58168c5ae7397731d063d5bbf3d657854427343f4c083240f7aacaa2d0f6292908290030190a450505050565b3b151590565b6138ec828261292c565b61392a57604051600160e51b62461bcd028152600401808060200182810382526021815260200180613c276021913960400191505060405180910390fd5b6001600160a01b0316600090815260209190915260409020805460ff19169055565b613956828261292c565b156139ab5760408051600160e51b62461bcd02815260206004820152601f60248201527f526f6c65733a206163636f756e7420616c72656164792068617320726f6c6500604482015290519081900360640190fd5b6001600160a01b0316600090815260209190915260409020805460ff19166001179055565b828054600181600116156101000203166002900490600052602060002090601f016020900481019282601f10613a1157805160ff1916838001178555613a3e565b82800160010185558215613a3e579182015b82811115613a3e578251825591602001919060010190613a23565b50613a4a929150613a4e565b5090565b61181a91905b80821115613a4a5760008155600101613a5456fe4b495033373a206163636f756e747320616e6420696473206c656e677468206d69736d61746368506175736572526f6c653a2063616c6c657220646f6573206e6f742068617665207468652050617573657220726f6c654f776e61626c653a206e6577206f776e657220697320746865207a65726f20616464726573734b495033373a206275726e20616d6f756e7420657863656564732062616c616e63654b495033373a206275726e2066726f6d20746865207a65726f20616464726573734b495033373a2062616c616e636520717565727920666f7220746865207a65726f20616464726573734b495033373a206275726e20616d6f756e74206578636565647320746f74616c20737570706c794b495033373a2069647320616e6420616d6f756e7473206c656e677468206d69736d617463684b495033373a207472616e736665722063616c6c6572206973206e6f74206f776e6572206e6f7220617070726f7665644b495033373a20696e73756666696369656e742062616c616e636520666f72207472616e736665724d696e746572526f6c653a2063616c6c657220646f6573206e6f74206861766520746865204d696e74657220726f6c65526f6c65733a206163636f756e7420646f6573206e6f74206861766520726f6c654b495033375061757361626c653a20746f6b656e207472616e73666572207768696c65207061757365644b495033373a2073657474696e6720617070726f76616c2073746174757320666f722073656c66526f6c65733a206163636f756e7420697320746865207a65726f20616464726573734b495033373a207472616e7366657220746f206e6f6e204b49503337526563656976657220696d706c656d656e7465724b495033373a2063616c6c6572206973206e6f74206f776e6572206e6f7220617070726f7665644b495033373a207472616e7366657220746f20746865207a65726f20616464726573734b495033373a206261746368207472616e7366657220746f206e6f6e204b49503337526563656976657220696d706c656d656e7465724b495033373a2062617463682062616c616e636520717565727920666f7220746865207a65726f20616464726573734b495033375061757361626c653a2074686520746f6b656e20697320706175736564a165627a7a72305820017f3aee0436a4abe71a05c3521ef3e4858f3693c66cad1221e5a8703b75e7040029526f6c65733a206163636f756e7420697320746865207a65726f2061646472657373",
  "source": "pragma solidity ^0.5.0;\r\n\r\nimport \"./KIP37.sol\";\r\nimport \"./KIP37Burnable.sol\";\r\nimport \"./KIP37Pausable.sol\";\r\nimport \"./KIP37Mintable.sol\";\r\n\r\ncontract KIP37Token is KIP37, KIP37Burnable, KIP37Pausable, KIP37Mintable {\r\n    constructor(string memory uri, string memory _name) public KIP37(uri, _name) {}\r\n}\r\n",
  "sourcePath": "/Users/peter/Develop/NFT/klaytn-contracts/contracts/token/KIP37/KIP37Token.sol",
  "compiler": {
    "name": "solc",
    "version": "0.5.6+commit.b259423e.Emscripten.clang"
  },
  "schemaVersion": "3.4.4",
  "updatedAt": "2022-05-11T10:03:49.384Z",
  "devdoc": {
    "methods": {
      "balanceOf(address,uint256)": {
        "details": "See {IKIP37-balanceOf}.     * Requirements:     * - `account` cannot be the zero address."
      },
      "balanceOfBatch(address[],uint256[])": {
        "details": "See {IKIP37-balanceOfBatch}.     * Requirements:     * - `accounts` and `ids` must have the same length."
      },
      "create(uint256,uint256,string)": {
        "details": "Throws if `msg.sender` is not allowed to create.   Throws if the token id is already used.",
        "params": {
          "_id": "The token id to create.",
          "_initialSupply": "The amount of tokens being minted.",
          "_uri": "The token URI of the created token."
        },
        "return": "A boolean that indicates if the operation was successful."
      },
      "isApprovedForAll(address,address)": {
        "details": "See {IKIP37-isApprovedForAll}."
      },
      "isOwner()": {
        "details": "Returns true if the caller is the current owner."
      },
      "mint(uint256,address,uint256)": {
        "details": "Throws if `msg.sender` is not allowed to mint.   MUST emit an event `TransferSingle`.",
        "params": {
          "_id": "The token id to mint.",
          "_to": "The address that will receive the minted tokens.",
          "_value": "The quantity of tokens being minted."
        }
      },
      "mintBatch(address,uint256[],uint256[])": {
        "details": "Throws if `msg.sender` is not allowed to mint.   MUST emit one or more `TransferSingle` events or a single `TransferBatch` event.   MUST revert if the length of `_ids` is not the same as the length of `_values`.",
        "params": {
          "_ids": "The list of the token ids to mint.",
          "_to": "The address that will receive the minted tokens.",
          "_values": "The list of quantities of tokens being minted."
        }
      },
      "owner()": {
        "details": "Returns the address of the current owner."
      },
      "pause()": {
        "details": "Called by a pauser to pause, triggers stopped state."
      },
      "pause(uint256)": {
        "details": "Throws if `msg.sender` is not allowed to pause.   Throws if the specific token is paused."
      },
      "paused()": {
        "details": "Returns true if the contract is paused, and false otherwise."
      },
      "paused(uint256)": {
        "return": "True if the specific token is paused, false otherwise"
      },
      "renounceOwnership()": {
        "details": "Leaves the contract without owner. It will not be possible to call `onlyOwner` functions anymore. Can only be called by the current owner.     * > Note: Renouncing ownership will leave the contract without an owner, thereby removing any functionality that is only available to the owner."
      },
      "safeBatchTransferFrom(address,address,uint256[],uint256[],bytes)": {
        "details": "See {IKIP37-safeBatchTransferFrom}."
      },
      "safeTransferFrom(address,address,uint256,uint256,bytes)": {
        "details": "See {IKIP37-safeTransferFrom}."
      },
      "setApprovalForAll(address,bool)": {
        "details": "See {IKIP37-setApprovalForAll}."
      },
      "supportsInterface(bytes4)": {
        "details": "See `IKIP13.supportsInterface`.     * Time complexity O(1), guaranteed to always use less than 30 000 gas."
      },
      "transferOwnership(address)": {
        "details": "Transfers ownership of the contract to a new account (`newOwner`). Can only be called by the current owner."
      },
      "unpause()": {
        "details": "Called by a pauser to unpause, returns to normal state."
      },
      "unpause(uint256)": {
        "details": "Throws if `msg.sender` is not allowed to unpause.   Throws if the specific token is not paused."
      },
      "uri(uint256)": {
        "details": "See {IKIP37MetadataURI-uri}.     * This implementation returns the same URI for *all* token types. It relies on the token type ID substituion mechanism http://kips.klaytn.com/KIPs/kip-37#metadata     * Clients calling this function must replace the `\\{id\\}` substring with the actual token type ID."
      }
    }
  },
  "userdoc": {
    "methods": {
      "create(uint256,uint256,string)": {
        "notice": "Creates a new token type and assigns _initialSupply to the minter."
      },
      "mint(uint256,address,uint256)": {
        "notice": "Mints tokens of the specific token type `_id` and assigns the tokens according to the variables `_to` and `_value`."
      },
      "mintBatch(address,uint256[],uint256[])": {
        "notice": "Mints multiple KIP37 tokens of the specific token types `_ids` in a batch and assigns the tokens according to the variables `_to` and `_values`."
      },
      "pause(uint256)": {
        "notice": "Pauses actions related to transfer and approval of the specific token."
      },
      "paused(uint256)": {
        "notice": "Checks whether the specific token is paused."
      },
      "unpause(uint256)": {
        "notice": "Resumes from the paused state of the specific token."
      }
    }
  }
}