{
  "contractName": "KIP37Token",
  "abi": [
    {
      "constant": true,
      "inputs": [
        {
          "name": "_id",
          "type": "uint256"
        }
      ],
      "name": "paused",
      "outputs": [
        {
          "name": "",
          "type": "bool"
        }
      ],
      "payable": false,
      "stateMutability": "view",
      "type": "function"
    },
    {
      "constant": true,
      "inputs": [
        {
          "name": "account",
          "type": "address"
        },
        {
          "name": "id",
          "type": "uint256"
        }
      ],
      "name": "balanceOf",
      "outputs": [
        {
          "name": "",
          "type": "uint256"
        }
      ],
      "payable": false,
      "stateMutability": "view",
      "type": "function"
    },
    {
      "constant": true,
      "inputs": [
        {
          "name": "interfaceId",
          "type": "bytes4"
        }
      ],
      "name": "supportsInterface",
      "outputs": [
        {
          "name": "",
          "type": "bool"
        }
      ],
      "payable": false,
      "stateMutability": "view",
      "type": "function"
    },
    {
      "constant": true,
      "inputs": [
        {
          "name": "tokenId",
          "type": "uint256"
        }
      ],
      "name": "uri",
      "outputs": [
        {
          "name": "",
          "type": "string"
        }
      ],
      "payable": false,
      "stateMutability": "view",
      "type": "function"
    },
    {
      "constant": false,
      "inputs": [
        {
          "name": "_id",
          "type": "uint256"
        }
      ],
      "name": "pause",
      "outputs": [],
      "payable": false,
      "stateMutability": "nonpayable",
      "type": "function"
    },
    {
      "constant": false,
      "inputs": [
        {
          "name": "from",
          "type": "address"
        },
        {
          "name": "to",
          "type": "address"
        },
        {
          "name": "ids",
          "type": "uint256[]"
        },
        {
          "name": "amounts",
          "type": "uint256[]"
        },
        {
          "name": "data",
          "type": "bytes"
        }
      ],
      "name": "safeBatchTransferFrom",
      "outputs": [],
      "payable": false,
      "stateMutability": "nonpayable",
      "type": "function"
    },
    {
      "constant": false,
      "inputs": [],
      "name": "unpause",
      "outputs": [],
      "payable": false,
      "stateMutability": "nonpayable",
      "type": "function"
    },
    {
      "constant": true,
      "inputs": [
        {
          "name": "account",
          "type": "address"
        }
      ],
      "name": "isPauser",
      "outputs": [
        {
          "name": "",
          "type": "bool"
        }
      ],
      "payable": false,
      "stateMutability": "view",
      "type": "function"
    },
    {
      "constant": false,
      "inputs": [
        {
          "name": "_id",
          "type": "uint256"
        },
        {
          "name": "_initialSupply",
          "type": "uint256"
        },
        {
          "name": "_uri",
          "type": "string"
        }
      ],
      "name": "create",
      "outputs": [
        {
          "name": "",
          "type": "bool"
        }
      ],
      "payable": false,
      "stateMutability": "nonpayable",
      "type": "function"
    },
    {
      "constant": true,
      "inputs": [
        {
          "name": "accounts",
          "type": "address[]"
        },
        {
          "name": "ids",
          "type": "uint256[]"
        }
      ],
      "name": "balanceOfBatch",
      "outputs": [
        {
          "name": "",
          "type": "uint256[]"
        }
      ],
      "payable": false,
      "stateMutability": "view",
      "type": "function"
    },
    {
      "constant": true,
      "inputs": [],
      "name": "paused",
      "outputs": [
        {
          "name": "",
          "type": "bool"
        }
      ],
      "payable": false,
      "stateMutability": "view",
      "type": "function"
    },
    {
      "constant": false,
      "inputs": [
        {
          "name": "account",
          "type": "address"
        },
        {
          "name": "ids",
          "type": "uint256[]"
        },
        {
          "name": "values",
          "type": "uint256[]"
        }
      ],
      "name": "burnBatch",
      "outputs": [],
      "payable": false,
      "stateMutability": "nonpayable",
      "type": "function"
    },
    {
      "constant": false,
      "inputs": [],
      "name": "renouncePauser",
      "outputs": [],
      "payable": false,
      "stateMutability": "nonpayable",
      "type": "function"
    },
    {
      "constant": false,
      "inputs": [
        {
          "name": "account",
          "type": "address"
        }
      ],
      "name": "addPauser",
      "outputs": [],
      "payable": false,
      "stateMutability": "nonpayable",
      "type": "function"
    },
    {
      "constant": false,
      "inputs": [
        {
          "name": "_id",
          "type": "uint256"
        },
        {
          "name": "_to",
          "type": "address"
        },
        {
          "name": "_value",
          "type": "uint256"
        }
      ],
      "name": "mint",
      "outputs": [],
      "payable": false,
      "stateMutability": "nonpayable",
      "type": "function"
    },
    {
      "constant": false,
      "inputs": [],
      "name": "pause",
      "outputs": [],
      "payable": false,
      "stateMutability": "nonpayable",
      "type": "function"
    },
    {
      "constant": false,
      "inputs": [
        {
          "name": "account",
          "type": "address"
        }
      ],
      "name": "addMinter",
      "outputs": [],
      "payable": false,
      "stateMutability": "nonpayable",
      "type": "function"
    },
    {
      "constant": false,
      "inputs": [],
      "name": "renounceMinter",
      "outputs": [],
      "payable": false,
      "stateMutability": "nonpayable",
      "type": "function"
    },
    {
      "constant": false,
      "inputs": [
        {
          "name": "operator",
          "type": "address"
        },
        {
          "name": "approved",
          "type": "bool"
        }
      ],
      "name": "setApprovalForAll",
      "outputs": [],
      "payable": false,
      "stateMutability": "nonpayable",
      "type": "function"
    },
    {
      "constant": true,
      "inputs": [
        {
          "name": "account",
          "type": "address"
        }
      ],
      "name": "isMinter",
      "outputs": [
        {
          "name": "",
          "type": "bool"
        }
      ],
      "payable": false,
      "stateMutability": "view",
      "type": "function"
    },
    {
      "constant": true,
      "inputs": [
        {
          "name": "_tokenId",
          "type": "uint256"
        }
      ],
      "name": "totalSupply",
      "outputs": [
        {
          "name": "",
          "type": "uint256"
        }
      ],
      "payable": false,
      "stateMutability": "view",
      "type": "function"
    },
    {
      "constant": true,
      "inputs": [
        {
          "name": "",
          "type": "uint256"
        }
      ],
      "name": "creators",
      "outputs": [
        {
          "name": "",
          "type": "address"
        }
      ],
      "payable": false,
      "stateMutability": "view",
      "type": "function"
    },
    {
      "constant": false,
      "inputs": [
        {
          "name": "_to",
          "type": "address"
        },
        {
          "name": "_ids",
          "type": "uint256[]"
        },
        {
          "name": "_values",
          "type": "uint256[]"
        }
      ],
      "name": "mintBatch",
      "outputs": [],
      "payable": false,
      "stateMutability": "nonpayable",
      "type": "function"
    },
    {
      "constant": true,
      "inputs": [
        {
          "name": "account",
          "type": "address"
        },
        {
          "name": "operator",
          "type": "address"
        }
      ],
      "name": "isApprovedForAll",
      "outputs": [
        {
          "name": "",
          "type": "bool"
        }
      ],
      "payable": false,
      "stateMutability": "view",
      "type": "function"
    },
    {
      "constant": false,
      "inputs": [
        {
          "name": "from",
          "type": "address"
        },
        {
          "name": "to",
          "type": "address"
        },
        {
          "name": "id",
          "type": "uint256"
        },
        {
          "name": "amount",
          "type": "uint256"
        },
        {
          "name": "data",
          "type": "bytes"
        }
      ],
      "name": "safeTransferFrom",
      "outputs": [],
      "payable": false,
      "stateMutability": "nonpayable",
      "type": "function"
    },
    {
      "constant": false,
      "inputs": [
        {
          "name": "account",
          "type": "address"
        },
        {
          "name": "id",
          "type": "uint256"
        },
        {
          "name": "value",
          "type": "uint256"
        }
      ],
      "name": "burn",
      "outputs": [],
      "payable": false,
      "stateMutability": "nonpayable",
      "type": "function"
    },
    {
      "constant": false,
      "inputs": [
        {
          "name": "_id",
          "type": "uint256"
        }
      ],
      "name": "unpause",
      "outputs": [],
      "payable": false,
      "stateMutability": "nonpayable",
      "type": "function"
    },
    {
      "inputs": [
        {
          "name": "uri",
          "type": "string"
        }
      ],
      "payable": false,
      "stateMutability": "nonpayable",
      "type": "constructor"
    },
    {
      "anonymous": false,
      "inputs": [
        {
          "indexed": true,
          "name": "account",
          "type": "address"
        }
      ],
      "name": "MinterAdded",
      "type": "event"
    },
    {
      "anonymous": false,
      "inputs": [
        {
          "indexed": true,
          "name": "account",
          "type": "address"
        }
      ],
      "name": "MinterRemoved",
      "type": "event"
    },
    {
      "anonymous": false,
      "inputs": [
        {
          "indexed": false,
          "name": "tokenId",
          "type": "uint256"
        },
        {
          "indexed": false,
          "name": "account",
          "type": "address"
        }
      ],
      "name": "Paused",
      "type": "event"
    },
    {
      "anonymous": false,
      "inputs": [
        {
          "indexed": false,
          "name": "tokenId",
          "type": "uint256"
        },
        {
          "indexed": false,
          "name": "account",
          "type": "address"
        }
      ],
      "name": "Unpaused",
      "type": "event"
    },
    {
      "anonymous": false,
      "inputs": [
        {
          "indexed": false,
          "name": "account",
          "type": "address"
        }
      ],
      "name": "Paused",
      "type": "event"
    },
    {
      "anonymous": false,
      "inputs": [
        {
          "indexed": false,
          "name": "account",
          "type": "address"
        }
      ],
      "name": "Unpaused",
      "type": "event"
    },
    {
      "anonymous": false,
      "inputs": [
        {
          "indexed": true,
          "name": "account",
          "type": "address"
        }
      ],
      "name": "PauserAdded",
      "type": "event"
    },
    {
      "anonymous": false,
      "inputs": [
        {
          "indexed": true,
          "name": "account",
          "type": "address"
        }
      ],
      "name": "PauserRemoved",
      "type": "event"
    },
    {
      "anonymous": false,
      "inputs": [
        {
          "indexed": true,
          "name": "operator",
          "type": "address"
        },
        {
          "indexed": true,
          "name": "from",
          "type": "address"
        },
        {
          "indexed": true,
          "name": "to",
          "type": "address"
        },
        {
          "indexed": false,
          "name": "id",
          "type": "uint256"
        },
        {
          "indexed": false,
          "name": "value",
          "type": "uint256"
        }
      ],
      "name": "TransferSingle",
      "type": "event"
    },
    {
      "anonymous": false,
      "inputs": [
        {
          "indexed": true,
          "name": "operator",
          "type": "address"
        },
        {
          "indexed": true,
          "name": "from",
          "type": "address"
        },
        {
          "indexed": true,
          "name": "to",
          "type": "address"
        },
        {
          "indexed": false,
          "name": "ids",
          "type": "uint256[]"
        },
        {
          "indexed": false,
          "name": "values",
          "type": "uint256[]"
        }
      ],
      "name": "TransferBatch",
      "type": "event"
    },
    {
      "anonymous": false,
      "inputs": [
        {
          "indexed": true,
          "name": "account",
          "type": "address"
        },
        {
          "indexed": true,
          "name": "operator",
          "type": "address"
        },
        {
          "indexed": false,
          "name": "approved",
          "type": "bool"
        }
      ],
      "name": "ApprovalForAll",
      "type": "event"
    },
    {
      "anonymous": false,
      "inputs": [
        {
          "indexed": false,
          "name": "value",
          "type": "string"
        },
        {
          "indexed": true,
          "name": "id",
          "type": "uint256"
        }
      ],
      "name": "URI",
      "type": "event"
    }
  ],
  "bytecode": "0x60806040523480156200001157600080fd5b5060405162003eb138038062003eb1833981018060405260208110156200003757600080fd5b8101908080516401000000008111156200005057600080fd5b820160208101848111156200006457600080fd5b81516401000000008111828201871017156200007f57600080fd5b505092919050505080620000a06301ffc9a760e01b6200017760201b60201c565b620000b1816200024660201b60201c565b620000c9636433ca1f60e01b6200017760201b60201c565b620000e1630e89341c60e01b6200017760201b60201c565b50620000fa639e094e9e60e01b6200017760201b60201c565b6200010b336200025f60201b60201c565b6006805460ff19169055620001477f0e8ffdb70000000000000000000000000000000000000000000000000000000062000177602090811b901c565b6200015833620002b160201b60201c565b6200017063dfd9d9ec60e01b6200017760201b60201c565b50620004cf565b7fffffffff0000000000000000000000000000000000000000000000000000000080821614156200020957604080517f08c379a000000000000000000000000000000000000000000000000000000000815260206004820152601b60248201527f4b495031333a20696e76616c696420696e746572666163652069640000000000604482015290519081900360640190fd5b7fffffffff00000000000000000000000000000000000000000000000000000000166000908152602081905260409020805460ff19166001179055565b80516200025b9060049060208401906200042a565b5050565b6200027a8160056200030360201b6200353b1790919060201c565b6040516001600160a01b038216907f6719d08c1888103bea251a4ed56406bd0c3e69723c8a1686e017e7bbe159b6f890600090a250565b620002cc8160086200030360201b6200353b1790919060201c565b6040516001600160a01b038216907f6ae172837ea30b801fbfcdd4108aa1d5bf8ff775444fd70256b44e6bf3dfc3f690600090a250565b620003158282620003a760201b60201c565b156200038257604080517f08c379a000000000000000000000000000000000000000000000000000000000815260206004820152601f60248201527f526f6c65733a206163636f756e7420616c72656164792068617320726f6c6500604482015290519081900360640190fd5b6001600160a01b0316600090815260209190915260409020805460ff19166001179055565b60006001600160a01b0382166200040a576040517f08c379a000000000000000000000000000000000000000000000000000000000815260040180806020018281038252602281526020018062003e8f6022913960400191505060405180910390fd5b506001600160a01b03166000908152602091909152604090205460ff1690565b828054600181600116156101000203166002900490600052602060002090601f016020900481019282601f106200046d57805160ff19168380011785556200049d565b828001600101855582156200049d579182015b828111156200049d57825182559160200191906001019062000480565b50620004ab929150620004af565b5090565b620004cc91905b80821115620004ab5760008155600101620004b6565b90565b6139b080620004df6000396000f3fe608060405234801561001057600080fd5b50600436106101a75760003560e01c806382dc1ec4116100f9578063bd85b03911610097578063e985e9c511610071578063e985e9c514610ab3578063f242432a14610ae1578063f5298aca14610baa578063fabc1cbc14610bdc576101a7565b8063bd85b0391461092a578063cd53d08e14610947578063d81d0a1514610980576101a7565b8063983b2d56116100d3578063983b2d56146108a857806398650275146108ce578063a22cb465146108d6578063aa271e1a14610904576101a7565b806382dc1ec414610848578063836a10401461086e5780638456cb59146108a0576101a7565b80633f4ba83a116101665780634e1273f4116101405780634e1273f4146105925780635c975abb146107055780636b20c4541461070d5780636ef8d66d14610840576101a7565b80633f4ba83a146104b457806346fbf68e146104bc5780634b068c78146104e2576101a7565b8062dde10e146101ac578062fdd58e146101dd57806301ffc9a71461021b5780630e89341c14610242578063136439dd146102d45780632eb2c2d6146102f3575b600080fd5b6101c9600480360360208110156101c257600080fd5b5035610bf9565b604080519115158252519081900360200190f35b610209600480360360408110156101f357600080fd5b506001600160a01b038135169060200135610c11565b60408051918252519081900360200190f35b6101c96004803603602081101561023157600080fd5b50356001600160e01b031916610c83565b61025f6004803603602081101561025857600080fd5b5035610ca2565b6040805160208082528351818301528351919283929083019185019080838360005b83811015610299578181015183820152602001610281565b50505050905090810190601f1680156102c65780820380516001836020036101000a031916815260200191505b509250505060405180910390f35b6102f1600480360360208110156102ea57600080fd5b5035610de4565b005b6102f1600480360360a081101561030957600080fd5b6001600160a01b038235811692602081013590911691810190606081016040820135600160201b81111561033c57600080fd5b82018360208201111561034e57600080fd5b803590602001918460208302840111600160201b8311171561036f57600080fd5b9190808060200260200160405190810160405280939291908181526020018383602002808284376000920191909152509295949360208101935035915050600160201b8111156103be57600080fd5b8201836020820111156103d057600080fd5b803590602001918460208302840111600160201b831117156103f157600080fd5b9190808060200260200160405190810160405280939291908181526020018383602002808284376000920191909152509295949360208101935035915050600160201b81111561044057600080fd5b82018360208201111561045257600080fd5b803590602001918460018302840111600160201b8311171561047357600080fd5b91908080601f016020809104026020016040519081016040528093929190818152602001838380828437600092019190915250929550610eec945050505050565b6102f1611231565b6101c9600480360360208110156104d257600080fd5b50356001600160a01b0316611311565b6101c9600480360360608110156104f857600080fd5b813591602081013591810190606081016040820135600160201b81111561051e57600080fd5b82018360208201111561053057600080fd5b803590602001918460018302840111600160201b8311171561055157600080fd5b91908080601f01602080910402602001604051908101604052809392919081815260200183838082843760009201919091525092955061132a945050505050565b6106b5600480360360408110156105a857600080fd5b810190602081018135600160201b8111156105c257600080fd5b8201836020820111156105d457600080fd5b803590602001918460208302840111600160201b831117156105f557600080fd5b9190808060200260200160405190810160405280939291908181526020018383602002808284376000920191909152509295949360208101935035915050600160201b81111561064457600080fd5b82018360208201111561065657600080fd5b803590602001918460208302840111600160201b8311171561067757600080fd5b9190808060200260200160405190810160405280939291908181526020018383602002808284376000920191909152509295506114d7945050505050565b60408051602080825283518183015283519192839290830191858101910280838360005b838110156106f15781810151838201526020016106d9565b505050509050019250505060405180910390f35b6101c9611644565b6102f16004803603606081101561072357600080fd5b6001600160a01b038235169190810190604081016020820135600160201b81111561074d57600080fd5b82018360208201111561075f57600080fd5b803590602001918460208302840111600160201b8311171561078057600080fd5b9190808060200260200160405190810160405280939291908181526020018383602002808284376000920191909152509295949360208101935035915050600160201b8111156107cf57600080fd5b8201836020820111156107e157600080fd5b803590602001918460208302840111600160201b8311171561080257600080fd5b91908080602002602001604051908101604052809392919081815260200183836020028082843760009201919091525092955061164e945050505050565b6102f16116ca565b6102f16004803603602081101561085e57600080fd5b50356001600160a01b03166116d5565b6102f16004803603606081101561088457600080fd5b508035906001600160a01b036020820135169060400135611728565b6102f16117e7565b6102f1600480360360208110156108be57600080fd5b50356001600160a01b03166118cb565b6102f161191b565b6102f1600480360360408110156108ec57600080fd5b506001600160a01b0381351690602001351515611924565b6101c96004803603602081101561091a57600080fd5b50356001600160a01b0316611a16565b6102096004803603602081101561094057600080fd5b5035611a29565b6109646004803603602081101561095d57600080fd5b5035611a3b565b604080516001600160a01b039092168252519081900360200190f35b6102f16004803603606081101561099657600080fd5b6001600160a01b038235169190810190604081016020820135600160201b8111156109c057600080fd5b8201836020820111156109d257600080fd5b803590602001918460208302840111600160201b831117156109f357600080fd5b9190808060200260200160405190810160405280939291908181526020018383602002808284376000920191909152509295949360208101935035915050600160201b811115610a4257600080fd5b820183602082011115610a5457600080fd5b803590602001918460208302840111600160201b83111715610a7557600080fd5b919080806020026020016040519081016040528093929190818152602001838360200280828437600092019190915250929550611a56945050505050565b6101c960048036036040811015610ac957600080fd5b506001600160a01b0381358116916020013516611b3d565b6102f1600480360360a0811015610af757600080fd5b6001600160a01b03823581169260208101359091169160408201359160608101359181019060a081016080820135600160201b811115610b3657600080fd5b820183602082011115610b4857600080fd5b803590602001918460018302840111600160201b83111715610b6957600080fd5b91908080601f016020809104026020016040519081016040528093929190818152602001838380828437600092019190915250929550611b6b945050505050565b6102f160048036036060811015610bc057600080fd5b506001600160a01b038135169060208101359060400135611d80565b6102f160048036036020811015610bf257600080fd5b5035611df7565b60008181526007602052604090205460ff165b919050565b60006001600160a01b038316610c5b57604051600160e51b62461bcd0281526004018080602001828103825260298152602001806136f26029913960400191505060405180910390fd5b5060009081526001602090815260408083206001600160a01b03949094168352929052205490565b6001600160e01b03191660009081526020819052604090205460ff1690565b6000818152600a60209081526040918290208054835160026001831615610100026000190190921691909104601f81018490048402820184019094528381526060938493919291830182828015610d3a5780601f10610d0f57610100808354040283529160200191610d3a565b820191906000526020600020905b815481529060010190602001808311610d1d57829003601f168201915b505050505090508051600014610d51579050610c0c565b6004805460408051602060026001851615610100026000190190941693909304601f81018490048402820184019092528181529291830182828015610dd75780601f10610dac57610100808354040283529160200191610dd7565b820191906000526020600020905b815481529060010190602001808311610dba57829003601f168201915b5050505050915050919050565b610ded33611311565b610e2b57604051600160e51b62461bcd02815260040180806020018281038252603081526020018061367f6030913960400191505060405180910390fd5b60008181526007602052604090205460ff1615610e925760408051600160e51b62461bcd02815260206004820152601d60248201527f4b495033375061757361626c653a20616c726561647920706175736564000000604482015290519081900360640190fd5b600081815260076020908152604091829020805460ff191660011790558151838152339181019190915281517fabdb1c9133626eb4f8c5f2ec7e3c60a969a2fb148a0c341a3cf6597242c8f8f5929181900390910190a150565b8151835114610f2f57604051600160e51b62461bcd0281526004018080602001828103825260268152602001806137426026913960400191505060405180910390fd5b6001600160a01b038416610f7757604051600160e51b62461bcd0281526004018080602001828103825260238152602001806138db6023913960400191505060405180910390fd5b610f7f611f00565b6001600160a01b0316856001600160a01b03161480610faa5750610faa85610fa5611f00565b611b3d565b610fe857604051600160e51b62461bcd0281526004018080602001828103825260308152602001806137686030913960400191505060405180910390fd5b6000610ff2611f00565b9050611002818787878787611f04565b60005b845181101561110357600085828151811061101c57fe5b60200260200101519050600085838151811061103457fe5b602002602001015190506110a181604051806060016040528060288152602001613798602891396001600086815260200190815260200160002060008d6001600160a01b03166001600160a01b0316815260200190815260200160002054611fd59092919063ffffffff16565b60008381526001602090815260408083206001600160a01b038e811685529252808320939093558a16815220546110d8908261206f565b60009283526001602081815260408086206001600160a01b038d168752909152909320555001611005565b50846001600160a01b0316866001600160a01b0316826001600160a01b03167f4a39dc06d4c0dbc64b70af90fd698a233a518aa5d07e595d983b8c0526c8f7fb8787604051808060200180602001838103835285818151815260200191508051906020019060200280838360005b83811015611189578181015183820152602001611171565b50505050905001838103825284818151815260200191508051906020019060200280838360005b838110156111c85781810151838201526020016111b0565b5050505090500194505050505060405180910390a46111eb8187878787876120cc565b61122957604051600160e51b62461bcd0281526004018080602001828103825260368152602001806138fe6036913960400191505060405180910390fd5b505050505050565b61123a33611311565b61127857604051600160e51b62461bcd02815260040180806020018281038252603081526020018061367f6030913960400191505060405180910390fd5b60065460ff166112d25760408051600160e51b62461bcd02815260206004820152601460248201527f5061757361626c653a206e6f7420706175736564000000000000000000000000604482015290519081900360640190fd5b6006805460ff191690556040805133815290517f5db9ee0a495bf2e6ff9c91a7834c1ba4fdd244a5e8aa4e537bd38aeae4b073aa9181900360200190a1565b600061132460058363ffffffff6125bf16565b92915050565b600061133533611a16565b61137357604051600160e51b62461bcd0281526004018080602001828103825260308152602001806137c06030913960400191505060405180910390fd5b61137c84612629565b156113d15760408051600160e51b62461bcd02815260206004820152601c60248201527f4b495033373a20746f6b656e20616c7265616479206372656174656400000000604482015290519081900360640190fd5b600084815260096020908152604080832080546001600160a01b03191633908117909155815192830190915291815261140e919086908690612646565b8151156114d0576000848152600a602090815260409091208351611434928501906135bf565b50837f6bb7ff708619ba0610cba295a58592e0451dee2622938c8755667688daf3529b836040518080602001828103825283818151815260200191508051906020019080838360005b8381101561149557818101518382015260200161147d565b50505050905090810190601f1680156114c25780820380516001836020036101000a031916815260200191505b509250505060405180910390a25b9392505050565b6060815183511461151c57604051600160e51b62461bcd0281526004018080602001828103825260278152602001806136586027913960400191505060405180910390fd5b60608351604051908082528060200260200182016040528015611549578160200160208202803883390190505b50905060005b845181101561163c5760006001600160a01b031685828151811061156f57fe5b60200260200101516001600160a01b031614156115c057604051600160e51b62461bcd02815260040180806020018281038252602f815260200180613934602f913960400191505060405180910390fd5b600160008583815181106115d057fe5b6020026020010151815260200190815260200160002060008683815181106115f457fe5b60200260200101516001600160a01b03166001600160a01b031681526020019081526020016000205482828151811061162957fe5b602090810291909101015260010161154f565b509392505050565b60065460ff165b90565b611656611f00565b6001600160a01b0316836001600160a01b0316148061167c575061167c83610fa5611f00565b6116ba57604051600160e51b62461bcd0281526004018080602001828103825260278152602001806138b46027913960400191505060405180910390fd5b6116c58383836127e3565b505050565b6116d333612af4565b565b6116de33611311565b61171c57604051600160e51b62461bcd02815260040180806020018281038252603081526020018061367f6030913960400191505060405180910390fd5b61172581612b3c565b50565b61173133611a16565b61176f57604051600160e51b62461bcd0281526004018080602001828103825260308152602001806137c06030913960400191505060405180910390fd5b61177883612629565b6117cc5760408051600160e51b62461bcd02815260206004820152601860248201527f4b495033373a206e6f6e6578697374656e7420746f6b656e0000000000000000604482015290519081900360640190fd5b6116c582848360405180602001604052806000815250612646565b6117f033611311565b61182e57604051600160e51b62461bcd02815260040180806020018281038252603081526020018061367f6030913960400191505060405180910390fd5b60065460ff16156118895760408051600160e51b62461bcd02815260206004820152601060248201527f5061757361626c653a2070617573656400000000000000000000000000000000604482015290519081900360640190fd5b6006805460ff191660011790556040805133815290517f62e78cea01bee320cd4e420270b5ea74000d11b0c9f74754ebdbfc544b05a2589181900360200190a1565b6118d433611a16565b61191257604051600160e51b62461bcd0281526004018080602001828103825260308152602001806137c06030913960400191505060405180910390fd5b61172581612b84565b6116d333612bcc565b816001600160a01b0316611936611f00565b6001600160a01b0316141561197f57604051600160e51b62461bcd02815260040180806020018281038252602781526020018061383b6027913960400191505060405180910390fd5b806002600061198c611f00565b6001600160a01b03908116825260208083019390935260409182016000908120918716808252919093529120805460ff1916921515929092179091556119d0611f00565b60408051841515815290516001600160a01b0392909216917f17307eab39ab6107e8899845ad3d59bd9653f200f220920489ca2b5937696c319181900360200190a35050565b600061132460088363ffffffff6125bf16565b60009081526003602052604090205490565b6009602052600090815260409020546001600160a01b031681565b611a5f33611a16565b611a9d57604051600160e51b62461bcd0281526004018080602001828103825260308152602001806137c06030913960400191505060405180910390fd5b60005b8251811015611b2157611ac5838281518110611ab857fe5b6020026020010151612629565b611b195760408051600160e51b62461bcd02815260206004820152601860248201527f4b495033373a206e6f6e6578697374656e7420746f6b656e0000000000000000604482015290519081900360640190fd5b600101611aa0565b506116c583838360405180602001604052806000815250612c14565b6001600160a01b03918216600090815260026020908152604080832093909416825291909152205460ff1690565b6001600160a01b038416611bb357604051600160e51b62461bcd0281526004018080602001828103825260238152602001806138db6023913960400191505060405180910390fd5b611bbb611f00565b6001600160a01b0316856001600160a01b03161480611be15750611be185610fa5611f00565b611c1f57604051600160e51b62461bcd0281526004018080602001828103825260278152602001806138b46027913960400191505060405180910390fd5b6000611c29611f00565b9050611c49818787611c3a88612f29565b611c4388612f29565b87611f04565b611c96836040518060600160405280602881526020016137986028913960008781526001602090815260408083206001600160a01b038d168452909152902054919063ffffffff611fd516565b60008581526001602090815260408083206001600160a01b038b81168552925280832093909355871681522054611ccd908461206f565b60008581526001602090815260408083206001600160a01b03808b168086529184529382902094909455805188815291820187905280518a8416938616927fc3d58168c5ae7397731d063d5bbf3d657854427343f4c083240f7aacaa2d0f6292908290030190a4611d42818787878787612f6d565b61122957604051600160e51b62461bcd0281526004018080602001828103825260308152602001806138846030913960400191505060405180910390fd5b611d88611f00565b6001600160a01b0316836001600160a01b03161480611dae5750611dae83610fa5611f00565b611dec57604051600160e51b62461bcd0281526004018080602001828103825260278152602001806138b46027913960400191505060405180910390fd5b6116c5838383613339565b611e0033611311565b611e3e57604051600160e51b62461bcd02815260040180806020018281038252603081526020018061367f6030913960400191505060405180910390fd5b60008181526007602052604090205460ff161515600114611ea95760408051600160e51b62461bcd02815260206004820152601f60248201527f4b495033375061757361626c653a20616c726561647920756e70617573656400604482015290519081900360640190fd5b600081815260076020908152604091829020805460ff191690558151838152339181019190915281517ffe9b5e5216db9de81757f43d20f846bea509c040a560d136b8263dd8cd764238929181900390910190a150565b3390565b611f0c611644565b15611f4b57604051600160e51b62461bcd02815260040180806020018281038252602a815260200180613811602a913960400191505060405180910390fd5b60005b8351811015611fcc5760076000858381518110611f6757fe5b60209081029190910181015182528101919091526040016000205460ff1615611fc457604051600160e51b62461bcd0281526004018080602001828103825260228152602001806139636022913960400191505060405180910390fd5b600101611f4e565b50505050505050565b6000818484111561206757604051600160e51b62461bcd0281526004018080602001828103825283818151815260200191508051906020019080838360005b8381101561202c578181015183820152602001612014565b50505050905090810190601f1680156120595780820380516001836020036101000a031916815260200191505b509250505060405180910390fd5b505050900390565b6000828201838110156114d05760408051600160e51b62461bcd02815260206004820152601b60248201527f536166654d6174683a206164646974696f6e206f766572666c6f770000000000604482015290519081900360640190fd5b60008060606120e3876001600160a01b03166134cb565b6120f2576001925050506125b5565b866001600160a01b031663bc197c8160e01b8a8a89898960405160240180866001600160a01b03166001600160a01b03168152602001856001600160a01b03166001600160a01b03168152602001806020018060200180602001848103845287818151815260200191508051906020019060200280838360005b8381101561218457818101518382015260200161216c565b50505050905001848103835286818151815260200191508051906020019060200280838360005b838110156121c35781810151838201526020016121ab565b50505050905001848103825285818151815260200191508051906020019080838360005b838110156121ff5781810151838201526020016121e7565b50505050905090810190601f16801561222c5780820380516001836020036101000a031916815260200191505b5098505050505050505050604051602081830303815290604052906001600160e01b0319166020820180516001600160e01b0383818316178352505050506040518082805190602001908083835b602083106122995780518252601f19909201916020918201910161227a565b6001836020036101000a0380198251168184511680821785525050505050509050019150506000604051808303816000865af19150503d80600081146122fb576040519150601f19603f3d011682016040523d82523d6000602084013e612300565b606091505b50805191935091501580159061234057508051600160e01b63bc197c8102906020808401919081101561233257600080fd5b50516001600160e01b031916145b15612350576001925050506125b5565b866001600160a01b0316639b49e33260e01b8a8a89898960405160240180866001600160a01b03166001600160a01b03168152602001856001600160a01b03166001600160a01b03168152602001806020018060200180602001848103845287818151815260200191508051906020019060200280838360005b838110156123e25781810151838201526020016123ca565b50505050905001848103835286818151815260200191508051906020019060200280838360005b83811015612421578181015183820152602001612409565b50505050905001848103825285818151815260200191508051906020019080838360005b8381101561245d578181015183820152602001612445565b50505050905090810190601f16801561248a5780820380516001836020036101000a031916815260200191505b5098505050505050505050604051602081830303815290604052906001600160e01b0319166020820180516001600160e01b0383818316178352505050506040518082805190602001908083835b602083106124f75780518252601f1990920191602091820191016124d8565b6001836020036101000a0380198251168184511680821785525050505050509050019150506000604051808303816000865af19150503d8060008114612559576040519150601f19603f3d011682016040523d82523d6000602084013e61255e565b606091505b50805191935091501580159061259e57508051600160e11b634da4f19902906020808401919081101561259057600080fd5b50516001600160e01b031916145b156125ae576001925050506125b5565b6000925050505b9695505050505050565b60006001600160a01b03821661260957604051600160e51b62461bcd0281526004018080602001828103825260228152602001806138626022913960400191505060405180910390fd5b506001600160a01b03166000908152602091909152604090205460ff1690565b6000908152600960205260409020546001600160a01b0316151590565b6001600160a01b0384166126a45760408051600160e51b62461bcd02815260206004820152601f60248201527f4b495033373a206d696e7420746f20746865207a65726f206164647265737300604482015290519081900360640190fd5b60006126ae611f00565b90506126c081600087611c3a88612f29565b60008481526001602090815260408083206001600160a01b03891684529091529020546126f3908463ffffffff61206f16565b60008581526001602090815260408083206001600160a01b038a168452825280832093909355868252600390522054612732908463ffffffff61206f16565b600085815260036020908152604080832093909355825187815290810186905282516001600160a01b03808a1694908616927fc3d58168c5ae7397731d063d5bbf3d657854427343f4c083240f7aacaa2d0f62929081900390910190a461279e81600087878787612f6d565b6127dc57604051600160e51b62461bcd0281526004018080602001828103825260308152602001806138846030913960400191505060405180910390fd5b5050505050565b6001600160a01b03831661282b57604051600160e51b62461bcd0281526004018080602001828103825260218152602001806136d16021913960400191505060405180910390fd5b805182511461286e57604051600160e51b62461bcd0281526004018080602001828103825260268152602001806137426026913960400191505060405180910390fd5b6000612878611f00565b905061289881856000868660405180602001604052806000815250611f04565b60005b8351811015612a135761292d8382815181106128b357fe5b60200260200101516040518060600160405280602281526020016136af60229139600160008886815181106128e457fe5b602002602001015181526020019081526020016000206000896001600160a01b03166001600160a01b0316815260200190815260200160002054611fd59092919063ffffffff16565b6001600086848151811061293d57fe5b602002602001015181526020019081526020016000206000876001600160a01b03166001600160a01b03168152602001908152602001600020819055506129e083828151811061298957fe5b602002602001015160405180606001604052806027815260200161371b60279139600360008886815181106129ba57fe5b6020026020010151815260200190815260200160002054611fd59092919063ffffffff16565b600360008684815181106129f057fe5b60209081029190910181015182528101919091526040016000205560010161289b565b5060006001600160a01b0316846001600160a01b0316826001600160a01b03167f4a39dc06d4c0dbc64b70af90fd698a233a518aa5d07e595d983b8c0526c8f7fb8686604051808060200180602001838103835285818151815260200191508051906020019060200280838360005b83811015612a9a578181015183820152602001612a82565b50505050905001838103825284818151815260200191508051906020019060200280838360005b83811015612ad9578181015183820152602001612ac1565b5050505090500194505050505060405180910390a450505050565b612b0560058263ffffffff6134d116565b6040516001600160a01b038216907fcd265ebaf09df2871cc7bd4133404a235ba12eff2041bb89d9c714a2621c7c7e90600090a250565b612b4d60058263ffffffff61353b16565b6040516001600160a01b038216907f6719d08c1888103bea251a4ed56406bd0c3e69723c8a1686e017e7bbe159b6f890600090a250565b612b9560088263ffffffff61353b16565b6040516001600160a01b038216907f6ae172837ea30b801fbfcdd4108aa1d5bf8ff775444fd70256b44e6bf3dfc3f690600090a250565b612bdd60088263ffffffff6134d116565b6040516001600160a01b038216907fe94479a9f7e1952cc78f2d6baab678adc1b772d936c6583def489e524cb6669290600090a250565b6001600160a01b038416612c725760408051600160e51b62461bcd02815260206004820152601f60248201527f4b495033373a206d696e7420746f20746865207a65726f206164647265737300604482015290519081900360640190fd5b8151835114612cb557604051600160e51b62461bcd0281526004018080602001828103825260268152602001806137426026913960400191505060405180910390fd5b6000612cbf611f00565b9050612cd081600087878787611f04565b60005b8451811015612e0157612d4b60016000878481518110612cef57fe5b602002602001015181526020019081526020016000206000886001600160a01b03166001600160a01b0316815260200190815260200160002054858381518110612d3557fe5b602002602001015161206f90919063ffffffff16565b60016000878481518110612d5b57fe5b602002602001015181526020019081526020016000206000886001600160a01b03166001600160a01b0316815260200190815260200160002081905550612dce60036000878481518110612dab57fe5b6020026020010151815260200190815260200160002054858381518110612d3557fe5b60036000878481518110612dde57fe5b602090810291909101810151825281019190915260400160002055600101612cd3565b50846001600160a01b031660006001600160a01b0316826001600160a01b03167f4a39dc06d4c0dbc64b70af90fd698a233a518aa5d07e595d983b8c0526c8f7fb8787604051808060200180602001838103835285818151815260200191508051906020019060200280838360005b83811015612e88578181015183820152602001612e70565b50505050905001838103825284818151815260200191508051906020019060200280838360005b83811015612ec7578181015183820152602001612eaf565b5050505090500194505050505060405180910390a4612eeb816000878787876120cc565b6127dc57604051600160e51b62461bcd0281526004018080602001828103825260368152602001806138fe6036913960400191505060405180910390fd5b604080516001808252818301909252606091829190602080830190803883390190505090508281600081518110612f5c57fe5b602090810291909101015292915050565b6000806060612f84876001600160a01b03166134cb565b612f93576001925050506125b5565b866001600160a01b031663f23a6e6160e01b8a8a89898960405160240180866001600160a01b03166001600160a01b03168152602001856001600160a01b03166001600160a01b0316815260200184815260200183815260200180602001828103825283818151815260200191508051906020019080838360005b8381101561302657818101518382015260200161300e565b50505050905090810190601f1680156130535780820380516001836020036101000a031916815260200191505b509650505050505050604051602081830303815290604052906001600160e01b0319166020820180516001600160e01b0383818316178352505050506040518082805190602001908083835b602083106130be5780518252601f19909201916020918201910161309f565b6001836020036101000a0380198251168184511680821785525050505050509050019150506000604051808303816000865af19150503d8060008114613120576040519150601f19603f3d011682016040523d82523d6000602084013e613125565b606091505b50805191935091501580159061316557508051600160e01b63f23a6e6102906020808401919081101561315757600080fd5b50516001600160e01b031916145b15613175576001925050506125b5565b866001600160a01b031663e78b332560e01b8a8a89898960405160240180866001600160a01b03166001600160a01b03168152602001856001600160a01b03166001600160a01b0316815260200184815260200183815260200180602001828103825283818151815260200191508051906020019080838360005b838110156132085781810151838201526020016131f0565b50505050905090810190601f1680156132355780820380516001836020036101000a031916815260200191505b509650505050505050604051602081830303815290604052906001600160e01b0319166020820180516001600160e01b0383818316178352505050506040518082805190602001908083835b602083106132a05780518252601f199092019160209182019101613281565b6001836020036101000a0380198251168184511680821785525050505050509050019150506000604051808303816000865af19150503d8060008114613302576040519150601f19603f3d011682016040523d82523d6000602084013e613307565b606091505b50805191935091501580159061259e57508051600160e01b63e78b332502906020808401919081101561259057600080fd5b6001600160a01b03831661338157604051600160e51b62461bcd0281526004018080602001828103825260218152602001806136d16021913960400191505060405180910390fd5b600061338b611f00565b90506133bb8185600061339d87612f29565b6133a687612f29565b60405180602001604052806000815250611f04565b613408826040518060600160405280602281526020016136af6022913960008681526001602090815260408083206001600160a01b038b168452909152902054919063ffffffff611fd516565b60008481526001602090815260408083206001600160a01b0389168452825291829020929092558051606081019091526027808252613468928592919061371b90830139600086815260036020526040902054919063ffffffff611fd516565b6000848152600360209081526040808320939093558251868152908101859052825191926001600160a01b0388811693908616927fc3d58168c5ae7397731d063d5bbf3d657854427343f4c083240f7aacaa2d0f6292908290030190a450505050565b3b151590565b6134db82826125bf565b61351957604051600160e51b62461bcd0281526004018080602001828103825260218152602001806137f06021913960400191505060405180910390fd5b6001600160a01b0316600090815260209190915260409020805460ff19169055565b61354582826125bf565b1561359a5760408051600160e51b62461bcd02815260206004820152601f60248201527f526f6c65733a206163636f756e7420616c72656164792068617320726f6c6500604482015290519081900360640190fd5b6001600160a01b0316600090815260209190915260409020805460ff19166001179055565b828054600181600116156101000203166002900490600052602060002090601f016020900481019282601f1061360057805160ff191683800117855561362d565b8280016001018555821561362d579182015b8281111561362d578251825591602001919060010190613612565b5061363992915061363d565b5090565b61164b91905b80821115613639576000815560010161364356fe4b495033373a206163636f756e747320616e6420696473206c656e677468206d69736d61746368506175736572526f6c653a2063616c6c657220646f6573206e6f742068617665207468652050617573657220726f6c654b495033373a206275726e20616d6f756e7420657863656564732062616c616e63654b495033373a206275726e2066726f6d20746865207a65726f20616464726573734b495033373a2062616c616e636520717565727920666f7220746865207a65726f20616464726573734b495033373a206275726e20616d6f756e74206578636565647320746f74616c20737570706c794b495033373a2069647320616e6420616d6f756e7473206c656e677468206d69736d617463684b495033373a207472616e736665722063616c6c6572206973206e6f74206f776e6572206e6f7220617070726f7665644b495033373a20696e73756666696369656e742062616c616e636520666f72207472616e736665724d696e746572526f6c653a2063616c6c657220646f6573206e6f74206861766520746865204d696e74657220726f6c65526f6c65733a206163636f756e7420646f6573206e6f74206861766520726f6c654b495033375061757361626c653a20746f6b656e207472616e73666572207768696c65207061757365644b495033373a2073657474696e6720617070726f76616c2073746174757320666f722073656c66526f6c65733a206163636f756e7420697320746865207a65726f20616464726573734b495033373a207472616e7366657220746f206e6f6e204b49503337526563656976657220696d706c656d656e7465724b495033373a2063616c6c6572206973206e6f74206f776e6572206e6f7220617070726f7665644b495033373a207472616e7366657220746f20746865207a65726f20616464726573734b495033373a206261746368207472616e7366657220746f206e6f6e204b49503337526563656976657220696d706c656d656e7465724b495033373a2062617463682062616c616e636520717565727920666f7220746865207a65726f20616464726573734b495033375061757361626c653a2074686520746f6b656e20697320706175736564a165627a7a723058203a6d87f5beee3856dbc5ad3adc87656edadcd75ab4c3ef8a38fdb6e6fc4d924c0029526f6c65733a206163636f756e7420697320746865207a65726f2061646472657373",
  "source": "pragma solidity ^0.5.0;\r\n\r\nimport \"./KIP37.sol\";\r\nimport \"./KIP37Burnable.sol\";\r\nimport \"./KIP37Pausable.sol\";\r\nimport \"./KIP37Mintable.sol\";\r\n\r\ncontract KIP37Token is KIP37, KIP37Burnable, KIP37Pausable, KIP37Mintable {\r\n    constructor(string memory uri) public KIP37(uri) {}\r\n}\r\n",
  "sourcePath": "/Users/peter/Documents/develop/DDVerse/klaytn-contracts/contracts/token/KIP37/KIP37Token.sol",
  "compiler": {
    "name": "solc",
    "version": "0.5.6+commit.b259423e.Emscripten.clang"
  },
  "schemaVersion": "3.4.4",
  "updatedAt": "2022-02-22T23:12:47.929Z",
  "devdoc": {
    "methods": {
      "balanceOf(address,uint256)": {
        "details": "See {IKIP37-balanceOf}.     * Requirements:     * - `account` cannot be the zero address."
      },
      "balanceOfBatch(address[],uint256[])": {
        "details": "See {IKIP37-balanceOfBatch}.     * Requirements:     * - `accounts` and `ids` must have the same length."
      },
      "create(uint256,uint256,string)": {
        "details": "Throws if `msg.sender` is not allowed to create.   Throws if the token id is already used.",
        "params": {
          "_id": "The token id to create.",
          "_initialSupply": "The amount of tokens being minted.",
          "_uri": "The token URI of the created token."
        },
        "return": "A boolean that indicates if the operation was successful."
      },
      "isApprovedForAll(address,address)": {
        "details": "See {IKIP37-isApprovedForAll}."
      },
      "mint(uint256,address,uint256)": {
        "details": "Throws if `msg.sender` is not allowed to mint.   MUST emit an event `TransferSingle`.",
        "params": {
          "_id": "The token id to mint.",
          "_to": "The address that will receive the minted tokens.",
          "_value": "The quantity of tokens being minted."
        }
      },
      "mintBatch(address,uint256[],uint256[])": {
        "details": "Throws if `msg.sender` is not allowed to mint.   MUST emit one or more `TransferSingle` events or a single `TransferBatch` event.   MUST revert if the length of `_ids` is not the same as the length of `_values`.",
        "params": {
          "_ids": "The list of the token ids to mint.",
          "_to": "The address that will receive the minted tokens.",
          "_values": "The list of quantities of tokens being minted."
        }
      },
      "pause()": {
        "details": "Called by a pauser to pause, triggers stopped state."
      },
      "pause(uint256)": {
        "details": "Throws if `msg.sender` is not allowed to pause.   Throws if the specific token is paused."
      },
      "paused()": {
        "details": "Returns true if the contract is paused, and false otherwise."
      },
      "paused(uint256)": {
        "return": "True if the specific token is paused, false otherwise"
      },
      "safeBatchTransferFrom(address,address,uint256[],uint256[],bytes)": {
        "details": "See {IKIP37-safeBatchTransferFrom}."
      },
      "safeTransferFrom(address,address,uint256,uint256,bytes)": {
        "details": "See {IKIP37-safeTransferFrom}."
      },
      "setApprovalForAll(address,bool)": {
        "details": "See {IKIP37-setApprovalForAll}."
      },
      "supportsInterface(bytes4)": {
        "details": "See `IKIP13.supportsInterface`.     * Time complexity O(1), guaranteed to always use less than 30 000 gas."
      },
      "unpause()": {
        "details": "Called by a pauser to unpause, returns to normal state."
      },
      "unpause(uint256)": {
        "details": "Throws if `msg.sender` is not allowed to unpause.   Throws if the specific token is not paused."
      },
      "uri(uint256)": {
        "details": "See {IKIP37MetadataURI-uri}.     * This implementation returns the same URI for *all* token types. It relies on the token type ID substituion mechanism http://kips.klaytn.com/KIPs/kip-37#metadata     * Clients calling this function must replace the `\\{id\\}` substring with the actual token type ID."
      }
    }
  },
  "userdoc": {
    "methods": {
      "create(uint256,uint256,string)": {
        "notice": "Creates a new token type and assigns _initialSupply to the minter."
      },
      "mint(uint256,address,uint256)": {
        "notice": "Mints tokens of the specific token type `_id` and assigns the tokens according to the variables `_to` and `_value`."
      },
      "mintBatch(address,uint256[],uint256[])": {
        "notice": "Mints multiple KIP37 tokens of the specific token types `_ids` in a batch and assigns the tokens according to the variables `_to` and `_values`."
      },
      "pause(uint256)": {
        "notice": "Pauses actions related to transfer and approval of the specific token."
      },
      "paused(uint256)": {
        "notice": "Checks whether the specific token is paused."
      },
      "unpause(uint256)": {
        "notice": "Resumes from the paused state of the specific token."
      }
    }
  }
}